{
  "contractName": "Sofan",
  "abi": [
    {
      "anonymous": false,
      "inputs": [
        {
          "indexed": true,
          "internalType": "address",
          "name": "previousOwner",
          "type": "address"
        },
        {
          "indexed": true,
          "internalType": "address",
          "name": "newOwner",
          "type": "address"
        }
      ],
      "name": "OwnershipTransferred",
      "type": "event"
    },
    {
      "inputs": [
        {
          "internalType": "address",
          "name": "",
          "type": "address"
        },
        {
          "internalType": "address",
          "name": "",
          "type": "address"
        },
        {
          "internalType": "uint256",
          "name": "",
          "type": "uint256"
        },
        {
          "internalType": "uint256",
          "name": "",
          "type": "uint256"
        }
      ],
      "name": "BidMapping",
      "outputs": [
        {
          "internalType": "uint256",
          "name": "price",
          "type": "uint256"
        },
        {
          "internalType": "address",
          "name": "contractAddress",
          "type": "address"
        },
        {
          "internalType": "uint256",
          "name": "tokenId",
          "type": "uint256"
        },
        {
          "internalType": "address",
          "name": "sender",
          "type": "address"
        },
        {
          "internalType": "enum Sofan.BidStatus",
          "name": "bidStatus",
          "type": "uint8"
        },
        {
          "internalType": "address",
          "name": "receiver",
          "type": "address"
        }
      ],
      "stateMutability": "view",
      "type": "function"
    },
    {
      "inputs": [
        {
          "internalType": "address",
          "name": "",
          "type": "address"
        },
        {
          "internalType": "uint256",
          "name": "",
          "type": "uint256"
        }
      ],
      "name": "CollectionCreatedByWallet",
      "outputs": [
        {
          "internalType": "address",
          "name": "",
          "type": "address"
        }
      ],
      "stateMutability": "view",
      "type": "function"
    },
    {
      "inputs": [
        {
          "internalType": "address",
          "name": "",
          "type": "address"
        },
        {
          "internalType": "uint256",
          "name": "",
          "type": "uint256"
        }
      ],
      "name": "ListingMapping",
      "outputs": [
        {
          "internalType": "address",
          "name": "contractAddress",
          "type": "address"
        },
        {
          "internalType": "uint256",
          "name": "tokenId",
          "type": "uint256"
        },
        {
          "internalType": "uint256",
          "name": "price",
          "type": "uint256"
        },
        {
          "internalType": "address",
          "name": "seller",
          "type": "address"
        },
        {
          "internalType": "enum Sofan.ListingStatus",
          "name": "listingStauts",
          "type": "uint8"
        }
      ],
      "stateMutability": "view",
      "type": "function"
    },
    {
      "inputs": [
        {
          "internalType": "address",
          "name": "",
          "type": "address"
        }
      ],
      "name": "isAthlete",
      "outputs": [
        {
          "internalType": "bool",
          "name": "",
          "type": "bool"
        }
      ],
      "stateMutability": "view",
      "type": "function"
    },
    {
      "inputs": [],
      "name": "owner",
      "outputs": [
        {
          "internalType": "address",
          "name": "",
          "type": "address"
        }
      ],
      "stateMutability": "view",
      "type": "function"
    },
    {
      "inputs": [],
      "name": "renounceOwnership",
      "outputs": [],
      "stateMutability": "nonpayable",
      "type": "function"
    },
    {
      "inputs": [
        {
          "internalType": "address",
          "name": "newOwner",
          "type": "address"
        }
      ],
      "name": "transferOwnership",
      "outputs": [],
      "stateMutability": "nonpayable",
      "type": "function"
    },
    {
      "inputs": [],
      "name": "usdc",
      "outputs": [
        {
          "internalType": "contract IERC20",
          "name": "",
          "type": "address"
        }
      ],
      "stateMutability": "view",
      "type": "function"
    },
    {
      "inputs": [],
      "name": "getAllCollection",
      "outputs": [
        {
          "internalType": "address[]",
          "name": "",
          "type": "address[]"
        }
      ],
      "stateMutability": "view",
      "type": "function"
    },
    {
      "inputs": [
        {
          "internalType": "address",
          "name": "_walletAddress",
          "type": "address"
        }
      ],
      "name": "getCollectionCreatedByWallet",
      "outputs": [
        {
          "internalType": "address[]",
          "name": "",
          "type": "address[]"
        }
      ],
      "stateMutability": "view",
      "type": "function"
    },
    {
      "inputs": [
        {
          "internalType": "address",
          "name": "_receiver",
          "type": "address"
        },
        {
          "internalType": "address",
          "name": "_contract",
          "type": "address"
        },
        {
          "internalType": "uint256",
          "name": "_tokenId",
          "type": "uint256"
        }
      ],
      "name": "getBid",
      "outputs": [
        {
          "components": [
            {
              "internalType": "uint256",
              "name": "price",
              "type": "uint256"
            },
            {
              "internalType": "address",
              "name": "contractAddress",
              "type": "address"
            },
            {
              "internalType": "uint256",
              "name": "tokenId",
              "type": "uint256"
            },
            {
              "internalType": "address",
              "name": "sender",
              "type": "address"
            },
            {
              "internalType": "enum Sofan.BidStatus",
              "name": "bidStatus",
              "type": "uint8"
            },
            {
              "internalType": "address",
              "name": "receiver",
              "type": "address"
            }
          ],
          "internalType": "struct Sofan.Bid[]",
          "name": "",
          "type": "tuple[]"
        }
      ],
      "stateMutability": "view",
      "type": "function"
    },
    {
      "inputs": [
        {
          "internalType": "address",
          "name": "_seller",
          "type": "address"
        }
      ],
      "name": "getListing",
      "outputs": [
        {
          "components": [
            {
              "internalType": "address",
              "name": "contractAddress",
              "type": "address"
            },
            {
              "internalType": "uint256",
              "name": "tokenId",
              "type": "uint256"
            },
            {
              "internalType": "uint256",
              "name": "price",
              "type": "uint256"
            },
            {
              "internalType": "address",
              "name": "seller",
              "type": "address"
            },
            {
              "internalType": "enum Sofan.ListingStatus",
              "name": "listingStauts",
              "type": "uint8"
            }
          ],
          "internalType": "struct Sofan.Listing[]",
          "name": "",
          "type": "tuple[]"
        }
      ],
      "stateMutability": "view",
      "type": "function"
    },
    {
      "inputs": [
        {
          "internalType": "address",
          "name": "_athleteAddress",
          "type": "address"
        },
        {
          "internalType": "bool",
          "name": "_permission",
          "type": "bool"
        }
      ],
      "name": "setAthlete",
      "outputs": [],
      "stateMutability": "nonpayable",
      "type": "function"
    },
    {
      "inputs": [
        {
          "internalType": "address",
          "name": "_newAddress",
          "type": "address"
        }
      ],
      "name": "setFactoryAddress",
      "outputs": [],
      "stateMutability": "nonpayable",
      "type": "function"
    },
    {
      "inputs": [
        {
          "internalType": "address",
          "name": "_newSofanWallet",
          "type": "address"
        }
      ],
      "name": "setSofanWallet",
      "outputs": [],
      "stateMutability": "nonpayable",
      "type": "function"
    },
    {
      "inputs": [
        {
          "internalType": "address",
          "name": "_newUSDCAddress",
          "type": "address"
        }
      ],
      "name": "SetUSDCAddress",
      "outputs": [],
      "stateMutability": "nonpayable",
      "type": "function"
    },
    {
      "inputs": [
        {
          "internalType": "address",
          "name": "_contract",
          "type": "address"
        },
        {
          "internalType": "uint256",
          "name": "_tokenId",
          "type": "uint256"
        },
        {
          "internalType": "uint256",
          "name": "_offerPrice",
          "type": "uint256"
        },
        {
          "internalType": "address",
          "name": "_receiver",
          "type": "address"
        }
      ],
      "name": "placeBid",
      "outputs": [],
      "stateMutability": "nonpayable",
      "type": "function"
    },
    {
      "inputs": [
        {
          "internalType": "address",
          "name": "_contract",
          "type": "address"
        },
        {
          "internalType": "uint256",
          "name": "_tokenId",
          "type": "uint256"
        },
        {
          "internalType": "uint256",
          "name": "_indexOfBid",
          "type": "uint256"
        }
      ],
      "name": "acceptBid",
      "outputs": [],
      "stateMutability": "nonpayable",
      "type": "function"
    },
    {
      "inputs": [
        {
          "internalType": "address",
          "name": "_contract",
          "type": "address"
        },
        {
          "internalType": "uint256",
          "name": "_tokenId",
          "type": "uint256"
        },
        {
          "internalType": "uint256",
          "name": "_index",
          "type": "uint256"
        }
      ],
      "name": "refuseBid",
      "outputs": [],
      "stateMutability": "nonpayable",
      "type": "function"
    },
    {
      "inputs": [
        {
          "internalType": "address",
          "name": "_contract",
          "type": "address"
        },
        {
          "internalType": "uint256",
          "name": "_tokenId",
          "type": "uint256"
        },
        {
          "internalType": "address",
          "name": "_receiver",
          "type": "address"
        },
        {
          "internalType": "uint256",
          "name": "_index",
          "type": "uint256"
        }
      ],
      "name": "cancelBid",
      "outputs": [],
      "stateMutability": "nonpayable",
      "type": "function"
    },
    {
      "inputs": [
        {
          "internalType": "address",
          "name": "_contract",
          "type": "address"
        },
        {
          "internalType": "uint256",
          "name": "_tokenId",
          "type": "uint256"
        },
        {
          "internalType": "uint256",
          "name": "_price",
          "type": "uint256"
        }
      ],
      "name": "listToSell",
      "outputs": [],
      "stateMutability": "nonpayable",
      "type": "function"
    },
    {
      "inputs": [
        {
          "internalType": "address",
          "name": "_sellerAddress",
          "type": "address"
        },
        {
          "internalType": "uint256",
          "name": "_indexLinsting",
          "type": "uint256"
        }
      ],
      "name": "buyListing",
      "outputs": [],
      "stateMutability": "nonpayable",
      "type": "function"
    },
    {
      "inputs": [
        {
          "internalType": "uint256",
          "name": "_index",
          "type": "uint256"
        }
      ],
      "name": "cancelListing",
      "outputs": [],
      "stateMutability": "nonpayable",
      "type": "function"
    },
    {
      "inputs": [
        {
          "internalType": "address",
          "name": "_collection",
          "type": "address"
        }
      ],
      "name": "addCollectionManually",
      "outputs": [],
      "stateMutability": "nonpayable",
      "type": "function"
    },
    {
      "inputs": [
        {
          "internalType": "string",
          "name": "_collectionName",
          "type": "string"
        },
        {
          "internalType": "string",
          "name": "_collectionSymbol",
          "type": "string"
        },
        {
          "internalType": "string",
          "name": "_collectionBaseURI",
          "type": "string"
        },
        {
          "internalType": "uint8",
          "name": "_limitByWallet",
          "type": "uint8"
        },
        {
          "internalType": "uint256",
          "name": "_collectionLimit",
          "type": "uint256"
        },
        {
          "internalType": "uint256",
          "name": "_launchpadTime",
          "type": "uint256"
        },
        {
          "internalType": "bool",
          "name": "_isAbleChangeMaxLimitCollection",
          "type": "bool"
        },
        {
          "internalType": "uint256",
          "name": "_price",
          "type": "uint256"
        },
        {
          "internalType": "address[]",
          "name": "_payees",
          "type": "address[]"
        },
        {
          "internalType": "uint256[]",
          "name": "_shares_",
          "type": "uint256[]"
        },
        {
          "internalType": "uint96",
          "name": "_percentInBips",
          "type": "uint96"
        }
      ],
      "name": "deployCollection",
      "outputs": [],
      "stateMutability": "payable",
      "type": "function"
    }
  ],
  "bytecode": "0x608060405273d423dcbd697164e282717009044312fdbc6c04f0600260006101000a81548173ffffffffffffffffffffffffffffffffffffffff021916908373ffffffffffffffffffffffffffffffffffffffff16021790555073752b58fc75a746470ae398bed781a4a7825dd3b0600360006101000a81548173ffffffffffffffffffffffffffffffffffffffff021916908373ffffffffffffffffffffffffffffffffffffffff1602179055507307865c6e87b9f70255377e024ace6630c1eaa37f600460006101000a81548173ffffffffffffffffffffffffffffffffffffffff021916908373ffffffffffffffffffffffffffffffffffffffff160217905550600460009054906101000a900473ffffffffffffffffffffffffffffffffffffffff16600560006101000a81548173ffffffffffffffffffffffffffffffffffffffff021916908373ffffffffffffffffffffffffffffffffffffffff1602179055503480156200017357600080fd5b506200019462000188620001a160201b60201c565b620001a960201b60201c565b600180819055506200026d565b600033905090565b60008060009054906101000a900473ffffffffffffffffffffffffffffffffffffffff169050816000806101000a81548173ffffffffffffffffffffffffffffffffffffffff021916908373ffffffffffffffffffffffffffffffffffffffff1602179055508173ffffffffffffffffffffffffffffffffffffffff168173ffffffffffffffffffffffffffffffffffffffff167f8be0079c531659141344cd1fd0a4f28419497f9722a3daafe3b4186f6b6457e060405160405180910390a35050565b616682806200027d6000396000f3fe6080604052600436106101665760003560e01c8063715018a6116100d15780639e9f43fd1161008a578063ea309a7d11610064578063ea309a7d1461052e578063eec310421461056b578063f2fde38b14610596578063f8cacd2d146105bf57610166565b80639e9f43fd146104b3578063c5538243146104dc578063e13a40f01461050557610166565b8063715018a6146103b957806377c2973f146103d057806383c17c551461040d578063848cdd301461043657806385bf7c931461045f5780638da5cb5b1461048857610166565b806338567fe21161012357806338567fe21461027c5780633e413bee146102a55780634170f7dc146102d057806346cb40e51461031157806366200f411461034e5780636af15ce41461037757610166565b80630196020c1461016b578063084af0b2146101a85780630c97fa64146101e55780631c1649341461020e578063305a67a81461022a5780633542db2514610253575b600080fd5b34801561017757600080fd5b50610192600480360381019061018d9190614858565b6105e8565b60405161019f91906148a0565b60405180910390f35b3480156101b457600080fd5b506101cf60048036038101906101ca9190614858565b610608565b6040516101dc9190614a71565b60405180910390f35b3480156101f157600080fd5b5061020c60048036038101906102079190614abf565b6108a3565b005b61022860048036038101906102239190614e79565b61170e565b005b34801561023657600080fd5b50610251600480360381019061024c9190614ff9565b611b3f565b005b34801561025f57600080fd5b5061027a60048036038101906102759190615026565b611ca3565b005b34801561028857600080fd5b506102a3600480360381019061029e9190615079565b611ff9565b005b3480156102b157600080fd5b506102ba612462565b6040516102c7919061513f565b60405180910390f35b3480156102dc57600080fd5b506102f760048036038101906102f29190614abf565b612488565b604051610308959493929190615187565b60405180910390f35b34801561031d57600080fd5b50610338600480360381019061033391906151da565b612528565b604051610345919061539f565b60405180910390f35b34801561035a57600080fd5b5061037560048036038101906103709190614858565b612905565b005b34801561038357600080fd5b5061039e600480360381019061039991906153c1565b612951565b6040516103b096959493929190615437565b60405180910390f35b3480156103c557600080fd5b506103ce612a31565b005b3480156103dc57600080fd5b506103f760048036038101906103f29190614858565b612a45565b6040516104049190615547565b60405180910390f35b34801561041957600080fd5b50610434600480360381019061042f9190614858565b612c1b565b005b34801561044257600080fd5b5061045d60048036038101906104589190615026565b612c67565b005b34801561046b57600080fd5b5061048660048036038101906104819190615569565b612e69565b005b34801561049457600080fd5b5061049d612ecc565b6040516104aa91906155a9565b60405180910390f35b3480156104bf57600080fd5b506104da60048036038101906104d59190614858565b612ef5565b005b3480156104e857600080fd5b5061050360048036038101906104fe9190614858565b612f63565b005b34801561051157600080fd5b5061052c60048036038101906105279190615026565b612faf565b005b34801561053a57600080fd5b5061055560048036038101906105509190614abf565b61415c565b60405161056291906155a9565b60405180910390f35b34801561057757600080fd5b506105806141aa565b60405161058d9190615547565b60405180910390f35b3480156105a257600080fd5b506105bd60048036038101906105b89190614858565b6142c7565b005b3480156105cb57600080fd5b506105e660048036038101906105e191906155c4565b61434a565b005b600a6020528060005260406000206000915054906101000a900460ff1681565b60606000600960008473ffffffffffffffffffffffffffffffffffffffff1673ffffffffffffffffffffffffffffffffffffffff1681526020019081526020016000208054905067ffffffffffffffff81111561066857610667614b1a565b5b6040519080825280602002602001820160405280156106a157816020015b61068e6146ef565b8152602001906001900390816106865790505b50905060005b600960008573ffffffffffffffffffffffffffffffffffffffff1673ffffffffffffffffffffffffffffffffffffffff168152602001908152602001600020805490508163ffffffff16101561089957600960008573ffffffffffffffffffffffffffffffffffffffff1673ffffffffffffffffffffffffffffffffffffffff1681526020019081526020016000208163ffffffff168154811061074e5761074d61562b565b5b90600052602060002090600402016040518060a00160405290816000820160009054906101000a900473ffffffffffffffffffffffffffffffffffffffff1673ffffffffffffffffffffffffffffffffffffffff1673ffffffffffffffffffffffffffffffffffffffff16815260200160018201548152602001600282015481526020016003820160009054906101000a900473ffffffffffffffffffffffffffffffffffffffff1673ffffffffffffffffffffffffffffffffffffffff1673ffffffffffffffffffffffffffffffffffffffff1681526020016003820160149054906101000a900460ff16600281111561084c5761084b61490f565b5b600281111561085e5761085d61490f565b5b81525050828263ffffffff168151811061087b5761087a61562b565b5b6020026020010181905250808061089190615699565b9150506106a7565b5080915050919050565b6108ab61454d565b3073ffffffffffffffffffffffffffffffffffffffff16600960008473ffffffffffffffffffffffffffffffffffffffff1673ffffffffffffffffffffffffffffffffffffffff16815260200190815260200160002082815481106109135761091261562b565b5b906000526020600020906004020160000160009054906101000a900473ffffffffffffffffffffffffffffffffffffffff1673ffffffffffffffffffffffffffffffffffffffff1663081812fc600960008673ffffffffffffffffffffffffffffffffffffffff1673ffffffffffffffffffffffffffffffffffffffff16815260200190815260200160002084815481106109b1576109b061562b565b5b9060005260206000209060040201600101546040518263ffffffff1660e01b81526004016109df91906156c5565b602060405180830381865afa1580156109fc573d6000803e3d6000fd5b505050506040513d601f19601f82011682018060405250810190610a2091906156f5565b73ffffffffffffffffffffffffffffffffffffffff1614610a76576040517f08c379a0000000000000000000000000000000000000000000000000000000008152600401610a6d906157a5565b60405180910390fd5b600960008373ffffffffffffffffffffffffffffffffffffffff1673ffffffffffffffffffffffffffffffffffffffff1681526020019081526020016000208181548110610ac757610ac661562b565b5b906000526020600020906004020160030160009054906101000a900473ffffffffffffffffffffffffffffffffffffffff1673ffffffffffffffffffffffffffffffffffffffff16600960008473ffffffffffffffffffffffffffffffffffffffff1673ffffffffffffffffffffffffffffffffffffffff1681526020019081526020016000208281548110610b6057610b5f61562b565b5b906000526020600020906004020160000160009054906101000a900473ffffffffffffffffffffffffffffffffffffffff1673ffffffffffffffffffffffffffffffffffffffff16636352211e600960008673ffffffffffffffffffffffffffffffffffffffff1673ffffffffffffffffffffffffffffffffffffffff1681526020019081526020016000208481548110610bfe57610bfd61562b565b5b9060005260206000209060040201600101546040518263ffffffff1660e01b8152600401610c2c91906156c5565b602060405180830381865afa158015610c49573d6000803e3d6000fd5b505050506040513d601f19601f82011682018060405250810190610c6d91906156f5565b73ffffffffffffffffffffffffffffffffffffffff1614610cc3576040517f08c379a0000000000000000000000000000000000000000000000000000000008152600401610cba90615837565b60405180910390fd5b60016002811115610cd757610cd661490f565b5b600960008473ffffffffffffffffffffffffffffffffffffffff1673ffffffffffffffffffffffffffffffffffffffff1681526020019081526020016000208281548110610d2857610d2761562b565b5b906000526020600020906004020160030160149054906101000a900460ff166002811115610d5957610d5861490f565b5b14610d99576040517f08c379a0000000000000000000000000000000000000000000000000000000008152600401610d90906158c9565b60405180910390fd5b600960008373ffffffffffffffffffffffffffffffffffffffff1673ffffffffffffffffffffffffffffffffffffffff1681526020019081526020016000208181548110610dea57610de961562b565b5b906000526020600020906004020160020154600560009054906101000a900473ffffffffffffffffffffffffffffffffffffffff1673ffffffffffffffffffffffffffffffffffffffff1663dd62ed3e33306040518363ffffffff1660e01b8152600401610e599291906158e9565b602060405180830381865afa158015610e76573d6000803e3d6000fd5b505050506040513d601f19601f82011682018060405250810190610e9a9190615927565b1015610edb576040517f08c379a0000000000000000000000000000000000000000000000000000000008152600401610ed2906159a0565b60405180910390fd5b600960008373ffffffffffffffffffffffffffffffffffffffff1673ffffffffffffffffffffffffffffffffffffffff1681526020019081526020016000208181548110610f2c57610f2b61562b565b5b906000526020600020906004020160020154600560009054906101000a900473ffffffffffffffffffffffffffffffffffffffff1673ffffffffffffffffffffffffffffffffffffffff166370a08231336040518263ffffffff1660e01b8152600401610f9991906155a9565b602060405180830381865afa158015610fb6573d6000803e3d6000fd5b505050506040513d601f19601f82011682018060405250810190610fda9190615927565b101561101b576040517f08c379a000000000000000000000000000000000000000000000000000000000815260040161101290615a32565b60405180910390fd5b6000600960008473ffffffffffffffffffffffffffffffffffffffff1673ffffffffffffffffffffffffffffffffffffffff168152602001908152602001600020828154811061106e5761106d61562b565b5b906000526020600020906004020160030160146101000a81548160ff021916908360028111156110a1576110a061490f565b5b0217905550600960008373ffffffffffffffffffffffffffffffffffffffff1673ffffffffffffffffffffffffffffffffffffffff16815260200190815260200160002081815481106110f7576110f661562b565b5b906000526020600020906004020160000160009054906101000a900473ffffffffffffffffffffffffffffffffffffffff1673ffffffffffffffffffffffffffffffffffffffff166323b872dd600960008573ffffffffffffffffffffffffffffffffffffffff1673ffffffffffffffffffffffffffffffffffffffff16815260200190815260200160002083815481106111955761119461562b565b5b906000526020600020906004020160030160009054906101000a900473ffffffffffffffffffffffffffffffffffffffff1633600960008773ffffffffffffffffffffffffffffffffffffffff1673ffffffffffffffffffffffffffffffffffffffff16815260200190815260200160002085815481106112195761121861562b565b5b9060005260206000209060040201600101546040518463ffffffff1660e01b815260040161124993929190615a52565b600060405180830381600087803b15801561126357600080fd5b505af1158015611277573d6000803e3d6000fd5b50505050600080600960008573ffffffffffffffffffffffffffffffffffffffff1673ffffffffffffffffffffffffffffffffffffffff16815260200190815260200160002083815481106112cf576112ce61562b565b5b906000526020600020906004020160000160009054906101000a900473ffffffffffffffffffffffffffffffffffffffff1673ffffffffffffffffffffffffffffffffffffffff16632a55205a600960008773ffffffffffffffffffffffffffffffffffffffff1673ffffffffffffffffffffffffffffffffffffffff168152602001908152602001600020858154811061136d5761136c61562b565b5b906000526020600020906004020160010154600960008873ffffffffffffffffffffffffffffffffffffffff1673ffffffffffffffffffffffffffffffffffffffff16815260200190815260200160002086815481106113d0576113cf61562b565b5b9060005260206000209060040201600201546040518363ffffffff1660e01b81526004016113ff929190615a89565b6040805180830381865afa15801561141b573d6000803e3d6000fd5b505050506040513d601f19601f8201168201806040525081019061143f9190615ab2565b915091506000600560009054906101000a900473ffffffffffffffffffffffffffffffffffffffff1673ffffffffffffffffffffffffffffffffffffffff166323b872dd3385856040518463ffffffff1660e01b81526004016114a493929190615a52565b6020604051808303816000875af11580156114c3573d6000803e3d6000fd5b505050506040513d601f19601f820116820180604052508101906114e79190615b07565b905080611529576040517f08c379a000000000000000000000000000000000000000000000000000000000815260040161152090615b80565b60405180910390fd5b6000600560009054906101000a900473ffffffffffffffffffffffffffffffffffffffff1673ffffffffffffffffffffffffffffffffffffffff166323b872dd33600960008a73ffffffffffffffffffffffffffffffffffffffff1673ffffffffffffffffffffffffffffffffffffffff16815260200190815260200160002088815481106115bb576115ba61562b565b5b906000526020600020906004020160030160009054906101000a900473ffffffffffffffffffffffffffffffffffffffff1686600960008c73ffffffffffffffffffffffffffffffffffffffff1673ffffffffffffffffffffffffffffffffffffffff1681526020019081526020016000208a8154811061163f5761163e61562b565b5b90600052602060002090600402016002015461165b9190615ba0565b6040518463ffffffff1660e01b815260040161167993929190615a52565b6020604051808303816000875af1158015611698573d6000803e3d6000fd5b505050506040513d601f19601f820116820180604052508101906116bc9190615b07565b9050806116fe576040517f08c379a00000000000000000000000000000000000000000000000000000000081526004016116f590615c20565b60405180910390fd5b5050505061170a61459c565b5050565b600073ffffffffffffffffffffffffffffffffffffffff16600360009054906101000a900473ffffffffffffffffffffffffffffffffffffffff1673ffffffffffffffffffffffffffffffffffffffff160361179f576040517f08c379a000000000000000000000000000000000000000000000000000000000815260040161179690615c8c565b60405180910390fd5b60011515600a60003373ffffffffffffffffffffffffffffffffffffffff1673ffffffffffffffffffffffffffffffffffffffff16815260200190815260200160002060009054906101000a900460ff161515148061184b5750600260009054906101000a900473ffffffffffffffffffffffffffffffffffffffff1673ffffffffffffffffffffffffffffffffffffffff163373ffffffffffffffffffffffffffffffffffffffff16145b61188a576040517f08c379a000000000000000000000000000000000000000000000000000000000815260040161188190615d1e565b60405180910390fd5b600060405180606001604052808d81526020018c81526020018b8152509050600060405180608001604052808b60ff1681526020018a8152602001898152602001878152509050600087905060008490506000600360009054906101000a900473ffffffffffffffffffffffffffffffffffffffff1673ffffffffffffffffffffffffffffffffffffffff1663794c32e389896040518363ffffffff1660e01b815260040161193a929190615ded565b6020604051808303816000875af1158015611959573d6000803e3d6000fd5b505050506040513d601f19601f8201168201806040525081019061197d91906156f5565b90506000600360009054906101000a900473ffffffffffffffffffffffffffffffffffffffff1673ffffffffffffffffffffffffffffffffffffffff1663720a236387878787876040518663ffffffff1660e01b81526004016119e4959493929190615fec565b6020604051808303816000875af1158015611a03573d6000803e3d6000fd5b505050506040513d601f19601f82011682018060405250810190611a2791906156f5565b9050600760003373ffffffffffffffffffffffffffffffffffffffff1673ffffffffffffffffffffffffffffffffffffffff168152602001908152602001600020819080600181540180825580915050600190039060005260206000200160009091909190916101000a81548173ffffffffffffffffffffffffffffffffffffffff021916908373ffffffffffffffffffffffffffffffffffffffff1602179055506006819080600181540180825580915050600190039060005260206000200160009091909190916101000a81548173ffffffffffffffffffffffffffffffffffffffff021916908373ffffffffffffffffffffffffffffffffffffffff1602179055505050505050505050505050505050505050565b60016002811115611b5357611b5261490f565b5b600960003373ffffffffffffffffffffffffffffffffffffffff1673ffffffffffffffffffffffffffffffffffffffff1681526020019081526020016000208281548110611ba457611ba361562b565b5b906000526020600020906004020160030160149054906101000a900460ff166002811115611bd557611bd461490f565b5b14611c15576040517f08c379a0000000000000000000000000000000000000000000000000000000008152600401611c0c906158c9565b60405180910390fd5b6002600960003373ffffffffffffffffffffffffffffffffffffffff1673ffffffffffffffffffffffffffffffffffffffff1681526020019081526020016000208281548110611c6857611c6761562b565b5b906000526020600020906004020160030160146101000a81548160ff02191690836002811115611c9b57611c9a61490f565b5b021790555050565b611cab61454d565b8273ffffffffffffffffffffffffffffffffffffffff16636352211e836040518263ffffffff1660e01b8152600401611ce491906156c5565b602060405180830381865afa158015611d01573d6000803e3d6000fd5b505050506040513d601f19601f82011682018060405250810190611d2591906156f5565b73ffffffffffffffffffffffffffffffffffffffff163373ffffffffffffffffffffffffffffffffffffffff1614611d92576040517f08c379a0000000000000000000000000000000000000000000000000000000008152600401611d8990616093565b60405180910390fd5b60008111611dd5576040517f08c379a0000000000000000000000000000000000000000000000000000000008152600401611dcc906160ff565b60405180910390fd5b60006040518060a001604052808573ffffffffffffffffffffffffffffffffffffffff1681526020018481526020018381526020013373ffffffffffffffffffffffffffffffffffffffff16815260200160016002811115611e3a57611e3961490f565b5b8152509050600960003373ffffffffffffffffffffffffffffffffffffffff1673ffffffffffffffffffffffffffffffffffffffff16815260200190815260200160002081908060018154018082558091505060019003906000526020600020906004020160009091909190915060008201518160000160006101000a81548173ffffffffffffffffffffffffffffffffffffffff021916908373ffffffffffffffffffffffffffffffffffffffff160217905550602082015181600101556040820151816002015560608201518160030160006101000a81548173ffffffffffffffffffffffffffffffffffffffff021916908373ffffffffffffffffffffffffffffffffffffffff16021790555060808201518160030160146101000a81548160ff02191690836002811115611f7557611f7461490f565b5b021790555050508373ffffffffffffffffffffffffffffffffffffffff1663b9ce8b1c3085336040518463ffffffff1660e01b8152600401611fb99392919061611f565b600060405180830381600087803b158015611fd357600080fd5b505af1158015611fe7573d6000803e3d6000fd5b5050505050611ff461459c565b505050565b6000821161203c576040517f08c379a0000000000000000000000000000000000000000000000000000000008152600401612033906161a2565b60405180910390fd5b81600560009054906101000a900473ffffffffffffffffffffffffffffffffffffffff1673ffffffffffffffffffffffffffffffffffffffff1663dd62ed3e33306040518363ffffffff1660e01b815260040161209a9291906158e9565b602060405180830381865afa1580156120b7573d6000803e3d6000fd5b505050506040513d601f19601f820116820180604052508101906120db9190615927565b101561211c576040517f08c379a000000000000000000000000000000000000000000000000000000000815260040161211390616234565b60405180910390fd5b8373ffffffffffffffffffffffffffffffffffffffff16636352211e846040518263ffffffff1660e01b815260040161215591906156c5565b602060405180830381865afa158015612172573d6000803e3d6000fd5b505050506040513d601f19601f8201168201806040525081019061219691906156f5565b73ffffffffffffffffffffffffffffffffffffffff168173ffffffffffffffffffffffffffffffffffffffff1614612203576040517f08c379a00000000000000000000000000000000000000000000000000000000081526004016121fa906162a0565b60405180910390fd5b60006040518060c001604052808481526020018673ffffffffffffffffffffffffffffffffffffffff1681526020018581526020013373ffffffffffffffffffffffffffffffffffffffff168152602001600060038111156122685761226761490f565b5b81526020018373ffffffffffffffffffffffffffffffffffffffff168152509050600860008373ffffffffffffffffffffffffffffffffffffffff1673ffffffffffffffffffffffffffffffffffffffff16815260200190815260200160002060008673ffffffffffffffffffffffffffffffffffffffff1673ffffffffffffffffffffffffffffffffffffffff16815260200190815260200160002060008581526020019081526020016000208190806001815401808255809150506001900390600052602060002090600502016000909190919091506000820151816000015560208201518160010160006101000a81548173ffffffffffffffffffffffffffffffffffffffff021916908373ffffffffffffffffffffffffffffffffffffffff1602179055506040820151816002015560608201518160030160006101000a81548173ffffffffffffffffffffffffffffffffffffffff021916908373ffffffffffffffffffffffffffffffffffffffff16021790555060808201518160030160146101000a81548160ff0219169083600381111561240d5761240c61490f565b5b021790555060a08201518160040160006101000a81548173ffffffffffffffffffffffffffffffffffffffff021916908373ffffffffffffffffffffffffffffffffffffffff16021790555050505050505050565b600560009054906101000a900473ffffffffffffffffffffffffffffffffffffffff1681565b600960205281600052604060002081815481106124a457600080fd5b9060005260206000209060040201600091509150508060000160009054906101000a900473ffffffffffffffffffffffffffffffffffffffff16908060010154908060020154908060030160009054906101000a900473ffffffffffffffffffffffffffffffffffffffff16908060030160149054906101000a900460ff16905085565b60606000600860008673ffffffffffffffffffffffffffffffffffffffff1673ffffffffffffffffffffffffffffffffffffffff16815260200190815260200160002060008573ffffffffffffffffffffffffffffffffffffffff1673ffffffffffffffffffffffffffffffffffffffff16815260200190815260200160002060008481526020019081526020016000208054905067ffffffffffffffff8111156125d6576125d5614b1a565b5b60405190808252806020026020018201604052801561260f57816020015b6125fc61475c565b8152602001906001900390816125f45790505b50905060005b600860008773ffffffffffffffffffffffffffffffffffffffff1673ffffffffffffffffffffffffffffffffffffffff16815260200190815260200160002060008673ffffffffffffffffffffffffffffffffffffffff1673ffffffffffffffffffffffffffffffffffffffff1681526020019081526020016000206000858152602001908152602001600020805490508163ffffffff1610156128f957600860008773ffffffffffffffffffffffffffffffffffffffff1673ffffffffffffffffffffffffffffffffffffffff16815260200190815260200160002060008673ffffffffffffffffffffffffffffffffffffffff1673ffffffffffffffffffffffffffffffffffffffff16815260200190815260200160002060008581526020019081526020016000208163ffffffff16815481106127585761275761562b565b5b90600052602060002090600502016040518060c0016040529081600082015481526020016001820160009054906101000a900473ffffffffffffffffffffffffffffffffffffffff1673ffffffffffffffffffffffffffffffffffffffff1673ffffffffffffffffffffffffffffffffffffffff168152602001600282015481526020016003820160009054906101000a900473ffffffffffffffffffffffffffffffffffffffff1673ffffffffffffffffffffffffffffffffffffffff1673ffffffffffffffffffffffffffffffffffffffff1681526020016003820160149054906101000a900460ff1660038111156128565761285561490f565b5b60038111156128685761286761490f565b5b81526020016004820160009054906101000a900473ffffffffffffffffffffffffffffffffffffffff1673ffffffffffffffffffffffffffffffffffffffff1673ffffffffffffffffffffffffffffffffffffffff1681525050828263ffffffff16815181106128db576128da61562b565b5b602002602001018190525080806128f190615699565b915050612615565b50809150509392505050565b61290d6145a5565b80600260006101000a81548173ffffffffffffffffffffffffffffffffffffffff021916908373ffffffffffffffffffffffffffffffffffffffff16021790555050565b6008602052836000526040600020602052826000526040600020602052816000526040600020818154811061298557600080fd5b90600052602060002090600502016000935093505050508060000154908060010160009054906101000a900473ffffffffffffffffffffffffffffffffffffffff16908060020154908060030160009054906101000a900473ffffffffffffffffffffffffffffffffffffffff16908060030160149054906101000a900460ff16908060040160009054906101000a900473ffffffffffffffffffffffffffffffffffffffff16905086565b612a396145a5565b612a436000614623565b565b60606000600760008473ffffffffffffffffffffffffffffffffffffffff1673ffffffffffffffffffffffffffffffffffffffff1681526020019081526020016000208054905067ffffffffffffffff811115612aa557612aa4614b1a565b5b604051908082528060200260200182016040528015612ad35781602001602082028036833780820191505090505b50905060005b600760008573ffffffffffffffffffffffffffffffffffffffff1673ffffffffffffffffffffffffffffffffffffffff168152602001908152602001600020805490508163ffffffff161015612c1157600760008573ffffffffffffffffffffffffffffffffffffffff1673ffffffffffffffffffffffffffffffffffffffff1681526020019081526020016000208163ffffffff1681548110612b8057612b7f61562b565b5b9060005260206000200160009054906101000a900473ffffffffffffffffffffffffffffffffffffffff16828263ffffffff1681518110612bc457612bc361562b565b5b602002602001019073ffffffffffffffffffffffffffffffffffffffff16908173ffffffffffffffffffffffffffffffffffffffff16815250508080612c0990615699565b915050612ad9565b5080915050919050565b612c236145a5565b80600360006101000a81548173ffffffffffffffffffffffffffffffffffffffff021916908373ffffffffffffffffffffffffffffffffffffffff16021790555050565b60006003811115612c7b57612c7a61490f565b5b600860003373ffffffffffffffffffffffffffffffffffffffff1673ffffffffffffffffffffffffffffffffffffffff16815260200190815260200160002060008573ffffffffffffffffffffffffffffffffffffffff1673ffffffffffffffffffffffffffffffffffffffff16815260200190815260200160002060008481526020019081526020016000208281548110612d1a57612d1961562b565b5b906000526020600020906005020160030160149054906101000a900460ff166003811115612d4b57612d4a61490f565b5b14612d8b576040517f08c379a0000000000000000000000000000000000000000000000000000000008152600401612d8290616332565b60405180910390fd5b6002600860003373ffffffffffffffffffffffffffffffffffffffff1673ffffffffffffffffffffffffffffffffffffffff16815260200190815260200160002060008573ffffffffffffffffffffffffffffffffffffffff1673ffffffffffffffffffffffffffffffffffffffff16815260200190815260200160002060008481526020019081526020016000208281548110612e2c57612e2b61562b565b5b906000526020600020906005020160030160146101000a81548160ff02191690836003811115612e5f57612e5e61490f565b5b0217905550505050565b612e716145a5565b80600a60008473ffffffffffffffffffffffffffffffffffffffff1673ffffffffffffffffffffffffffffffffffffffff16815260200190815260200160002060006101000a81548160ff0219169083151502179055505050565b60008060009054906101000a900473ffffffffffffffffffffffffffffffffffffffff16905090565b612efd6145a5565b6006819080600181540180825580915050600190039060005260206000200160009091909190916101000a81548173ffffffffffffffffffffffffffffffffffffffff021916908373ffffffffffffffffffffffffffffffffffffffff16021790555050565b612f6b6145a5565b80600460006101000a81548173ffffffffffffffffffffffffffffffffffffffff021916908373ffffffffffffffffffffffffffffffffffffffff16021790555050565b612fb761454d565b8273ffffffffffffffffffffffffffffffffffffffff16636352211e836040518263ffffffff1660e01b8152600401612ff091906156c5565b602060405180830381865afa15801561300d573d6000803e3d6000fd5b505050506040513d601f19601f8201168201806040525081019061303191906156f5565b73ffffffffffffffffffffffffffffffffffffffff163373ffffffffffffffffffffffffffffffffffffffff161461309e576040517f08c379a000000000000000000000000000000000000000000000000000000000815260040161309590616093565b60405180910390fd5b600860003373ffffffffffffffffffffffffffffffffffffffff1673ffffffffffffffffffffffffffffffffffffffff16815260200190815260200160002060008473ffffffffffffffffffffffffffffffffffffffff1673ffffffffffffffffffffffffffffffffffffffff1681526020019081526020016000206000838152602001908152602001600020818154811061313d5761313c61562b565b5b906000526020600020906005020160040160009054906101000a900473ffffffffffffffffffffffffffffffffffffffff1673ffffffffffffffffffffffffffffffffffffffff163373ffffffffffffffffffffffffffffffffffffffff16146131dc576040517f08c379a00000000000000000000000000000000000000000000000000000000081526004016131d39061639e565b60405180910390fd5b600060038111156131f0576131ef61490f565b5b600860003373ffffffffffffffffffffffffffffffffffffffff1673ffffffffffffffffffffffffffffffffffffffff16815260200190815260200160002060008573ffffffffffffffffffffffffffffffffffffffff1673ffffffffffffffffffffffffffffffffffffffff1681526020019081526020016000206000848152602001908152602001600020828154811061328f5761328e61562b565b5b906000526020600020906005020160030160149054906101000a900460ff1660038111156132c0576132bf61490f565b5b14613300576040517f08c379a00000000000000000000000000000000000000000000000000000000081526004016132f790616332565b60405180910390fd5b600860003373ffffffffffffffffffffffffffffffffffffffff1673ffffffffffffffffffffffffffffffffffffffff16815260200190815260200160002060008473ffffffffffffffffffffffffffffffffffffffff1673ffffffffffffffffffffffffffffffffffffffff1681526020019081526020016000206000838152602001908152602001600020818154811061339f5761339e61562b565b5b906000526020600020906005020160000154600560009054906101000a900473ffffffffffffffffffffffffffffffffffffffff1673ffffffffffffffffffffffffffffffffffffffff1663dd62ed3e600860003373ffffffffffffffffffffffffffffffffffffffff1673ffffffffffffffffffffffffffffffffffffffff16815260200190815260200160002060008773ffffffffffffffffffffffffffffffffffffffff1673ffffffffffffffffffffffffffffffffffffffff1681526020019081526020016000206000868152602001908152602001600020848154811061348e5761348d61562b565b5b906000526020600020906005020160030160009054906101000a900473ffffffffffffffffffffffffffffffffffffffff16306040518363ffffffff1660e01b81526004016134de9291906158e9565b602060405180830381865afa1580156134fb573d6000803e3d6000fd5b505050506040513d601f19601f8201168201806040525081019061351f9190615927565b1015613560576040517f08c379a000000000000000000000000000000000000000000000000000000000815260040161355790616430565b60405180910390fd5b600860003373ffffffffffffffffffffffffffffffffffffffff1673ffffffffffffffffffffffffffffffffffffffff16815260200190815260200160002060008473ffffffffffffffffffffffffffffffffffffffff1673ffffffffffffffffffffffffffffffffffffffff168152602001908152602001600020600083815260200190815260200160002081815481106135ff576135fe61562b565b5b906000526020600020906005020160000154600560009054906101000a900473ffffffffffffffffffffffffffffffffffffffff1673ffffffffffffffffffffffffffffffffffffffff166370a08231600860003373ffffffffffffffffffffffffffffffffffffffff1673ffffffffffffffffffffffffffffffffffffffff16815260200190815260200160002060008773ffffffffffffffffffffffffffffffffffffffff1673ffffffffffffffffffffffffffffffffffffffff168152602001908152602001600020600086815260200190815260200160002084815481106136ee576136ed61562b565b5b906000526020600020906005020160030160009054906101000a900473ffffffffffffffffffffffffffffffffffffffff166040518263ffffffff1660e01b815260040161373c91906155a9565b602060405180830381865afa158015613759573d6000803e3d6000fd5b505050506040513d601f19601f8201168201806040525081019061377d9190615927565b10156137be576040517f08c379a00000000000000000000000000000000000000000000000000000000081526004016137b5906164c2565b60405180910390fd5b60005b600860003373ffffffffffffffffffffffffffffffffffffffff1673ffffffffffffffffffffffffffffffffffffffff16815260200190815260200160002060008573ffffffffffffffffffffffffffffffffffffffff1673ffffffffffffffffffffffffffffffffffffffff1681526020019081526020016000206000848152602001908152602001600020805490508163ffffffff161015613a4357818163ffffffff1603613950576001600860003373ffffffffffffffffffffffffffffffffffffffff1673ffffffffffffffffffffffffffffffffffffffff16815260200190815260200160002060008673ffffffffffffffffffffffffffffffffffffffff1673ffffffffffffffffffffffffffffffffffffffff16815260200190815260200160002060008581526020019081526020016000208263ffffffff16815481106139135761391261562b565b5b906000526020600020906005020160030160146101000a81548160ff021916908360038111156139465761394561490f565b5b0217905550613a30565b6002600860003373ffffffffffffffffffffffffffffffffffffffff1673ffffffffffffffffffffffffffffffffffffffff16815260200190815260200160002060008673ffffffffffffffffffffffffffffffffffffffff1673ffffffffffffffffffffffffffffffffffffffff16815260200190815260200160002060008581526020019081526020016000208263ffffffff16815481106139f7576139f661562b565b5b906000526020600020906005020160030160146101000a81548160ff02191690836003811115613a2a57613a2961490f565b5b02179055505b8080613a3b90615699565b9150506137c1565b508273ffffffffffffffffffffffffffffffffffffffff1663b9ce8b1c3084336040518463ffffffff1660e01b8152600401613a819392919061611f565b600060405180830381600087803b158015613a9b57600080fd5b505af1158015613aaf573d6000803e3d6000fd5b505050508273ffffffffffffffffffffffffffffffffffffffff166323b872dd33600860003373ffffffffffffffffffffffffffffffffffffffff1673ffffffffffffffffffffffffffffffffffffffff16815260200190815260200160002060008773ffffffffffffffffffffffffffffffffffffffff1673ffffffffffffffffffffffffffffffffffffffff16815260200190815260200160002060008681526020019081526020016000208481548110613b6f57613b6e61562b565b5b906000526020600020906005020160030160009054906101000a900473ffffffffffffffffffffffffffffffffffffffff16856040518463ffffffff1660e01b8152600401613bc093929190615a52565b600060405180830381600087803b158015613bda57600080fd5b505af1158015613bee573d6000803e3d6000fd5b505050506000808473ffffffffffffffffffffffffffffffffffffffff16632a55205a85600860003373ffffffffffffffffffffffffffffffffffffffff1673ffffffffffffffffffffffffffffffffffffffff16815260200190815260200160002060008973ffffffffffffffffffffffffffffffffffffffff1673ffffffffffffffffffffffffffffffffffffffff16815260200190815260200160002060008881526020019081526020016000208681548110613cb157613cb061562b565b5b9060005260206000209060050201600001546040518363ffffffff1660e01b8152600401613ce0929190615a89565b6040805180830381865afa158015613cfc573d6000803e3d6000fd5b505050506040513d601f19601f82011682018060405250810190613d209190615ab2565b915091506000600560009054906101000a900473ffffffffffffffffffffffffffffffffffffffff1673ffffffffffffffffffffffffffffffffffffffff166323b872dd600860003373ffffffffffffffffffffffffffffffffffffffff1673ffffffffffffffffffffffffffffffffffffffff16815260200190815260200160002060008973ffffffffffffffffffffffffffffffffffffffff1673ffffffffffffffffffffffffffffffffffffffff16815260200190815260200160002060008881526020019081526020016000208681548110613e0357613e0261562b565b5b906000526020600020906005020160030160009054906101000a900473ffffffffffffffffffffffffffffffffffffffff1685856040518463ffffffff1660e01b8152600401613e5593929190615a52565b6020604051808303816000875af1158015613e74573d6000803e3d6000fd5b505050506040513d601f19601f82011682018060405250810190613e989190615b07565b905080613eda576040517f08c379a0000000000000000000000000000000000000000000000000000000008152600401613ed190615b80565b60405180910390fd5b6000600560009054906101000a900473ffffffffffffffffffffffffffffffffffffffff1673ffffffffffffffffffffffffffffffffffffffff166323b872dd600860003373ffffffffffffffffffffffffffffffffffffffff1673ffffffffffffffffffffffffffffffffffffffff16815260200190815260200160002060008a73ffffffffffffffffffffffffffffffffffffffff1673ffffffffffffffffffffffffffffffffffffffff16815260200190815260200160002060008981526020019081526020016000208781548110613fb957613fb861562b565b5b906000526020600020906005020160030160009054906101000a900473ffffffffffffffffffffffffffffffffffffffff163386600860003373ffffffffffffffffffffffffffffffffffffffff1673ffffffffffffffffffffffffffffffffffffffff16815260200190815260200160002060008d73ffffffffffffffffffffffffffffffffffffffff1673ffffffffffffffffffffffffffffffffffffffff16815260200190815260200160002060008c81526020019081526020016000208a8154811061408c5761408b61562b565b5b9060005260206000209060050201600001546140a89190615ba0565b6040518463ffffffff1660e01b81526004016140c693929190615a52565b6020604051808303816000875af11580156140e5573d6000803e3d6000fd5b505050506040513d601f19601f820116820180604052508101906141099190615b07565b90508061414b576040517f08c379a000000000000000000000000000000000000000000000000000000000815260040161414290615b80565b60405180910390fd5b5050505061415761459c565b505050565b6007602052816000526040600020818154811061417857600080fd5b906000526020600020016000915091509054906101000a900473ffffffffffffffffffffffffffffffffffffffff1681565b6060600060068054905067ffffffffffffffff8111156141cd576141cc614b1a565b5b6040519080825280602002602001820160405280156141fb5781602001602082028036833780820191505090505b50905060005b6006805490508163ffffffff1610156142bf5760068163ffffffff168154811061422e5761422d61562b565b5b9060005260206000200160009054906101000a900473ffffffffffffffffffffffffffffffffffffffff16828263ffffffff16815181106142725761427161562b565b5b602002602001019073ffffffffffffffffffffffffffffffffffffffff16908173ffffffffffffffffffffffffffffffffffffffff168152505080806142b790615699565b915050614201565b508091505090565b6142cf6145a5565b600073ffffffffffffffffffffffffffffffffffffffff168173ffffffffffffffffffffffffffffffffffffffff160361433e576040517f08c379a000000000000000000000000000000000000000000000000000000000815260040161433590616554565b60405180910390fd5b61434781614623565b50565b6000600381111561435e5761435d61490f565b5b600860008473ffffffffffffffffffffffffffffffffffffffff1673ffffffffffffffffffffffffffffffffffffffff16815260200190815260200160002060008673ffffffffffffffffffffffffffffffffffffffff1673ffffffffffffffffffffffffffffffffffffffff168152602001908152602001600020600085815260200190815260200160002082815481106143fd576143fc61562b565b5b906000526020600020906005020160030160149054906101000a900460ff16600381111561442e5761442d61490f565b5b1461446e576040517f08c379a000000000000000000000000000000000000000000000000000000000815260040161446590616332565b60405180910390fd5b6003600860008473ffffffffffffffffffffffffffffffffffffffff1673ffffffffffffffffffffffffffffffffffffffff16815260200190815260200160002060008673ffffffffffffffffffffffffffffffffffffffff1673ffffffffffffffffffffffffffffffffffffffff1681526020019081526020016000206000858152602001908152602001600020828154811061450f5761450e61562b565b5b906000526020600020906005020160030160146101000a81548160ff021916908360038111156145425761454161490f565b5b021790555050505050565b600260015403614592576040517f08c379a0000000000000000000000000000000000000000000000000000000008152600401614589906165c0565b60405180910390fd5b6002600181905550565b60018081905550565b6145ad6146e7565b73ffffffffffffffffffffffffffffffffffffffff166145cb612ecc565b73ffffffffffffffffffffffffffffffffffffffff1614614621576040517f08c379a00000000000000000000000000000000000000000000000000000000081526004016146189061662c565b60405180910390fd5b565b60008060009054906101000a900473ffffffffffffffffffffffffffffffffffffffff169050816000806101000a81548173ffffffffffffffffffffffffffffffffffffffff021916908373ffffffffffffffffffffffffffffffffffffffff1602179055508173ffffffffffffffffffffffffffffffffffffffff168173ffffffffffffffffffffffffffffffffffffffff167f8be0079c531659141344cd1fd0a4f28419497f9722a3daafe3b4186f6b6457e060405160405180910390a35050565b600033905090565b6040518060a00160405280600073ffffffffffffffffffffffffffffffffffffffff1681526020016000815260200160008152602001600073ffffffffffffffffffffffffffffffffffffffff168152602001600060028111156147565761475561490f565b5b81525090565b6040518060c0016040528060008152602001600073ffffffffffffffffffffffffffffffffffffffff16815260200160008152602001600073ffffffffffffffffffffffffffffffffffffffff168152602001600060038111156147c3576147c261490f565b5b8152602001600073ffffffffffffffffffffffffffffffffffffffff1681525090565b6000604051905090565b600080fd5b600080fd5b600073ffffffffffffffffffffffffffffffffffffffff82169050919050565b6000614825826147fa565b9050919050565b6148358161481a565b811461484057600080fd5b50565b6000813590506148528161482c565b92915050565b60006020828403121561486e5761486d6147f0565b5b600061487c84828501614843565b91505092915050565b60008115159050919050565b61489a81614885565b82525050565b60006020820190506148b56000830184614891565b92915050565b600081519050919050565b600082825260208201905092915050565b6000819050602082019050919050565b6148f08161481a565b82525050565b6000819050919050565b614909816148f6565b82525050565b7f4e487b7100000000000000000000000000000000000000000000000000000000600052602160045260246000fd5b6003811061494f5761494e61490f565b5b50565b60008190506149608261493e565b919050565b600061497082614952565b9050919050565b61498081614965565b82525050565b60a08201600082015161499c60008501826148e7565b5060208201516149af6020850182614900565b5060408201516149c26040850182614900565b5060608201516149d560608501826148e7565b5060808201516149e86080850182614977565b50505050565b60006149fa8383614986565b60a08301905092915050565b6000602082019050919050565b6000614a1e826148bb565b614a2881856148c6565b9350614a33836148d7565b8060005b83811015614a64578151614a4b88826149ee565b9750614a5683614a06565b925050600181019050614a37565b5085935050505092915050565b60006020820190508181036000830152614a8b8184614a13565b905092915050565b614a9c816148f6565b8114614aa757600080fd5b50565b600081359050614ab981614a93565b92915050565b60008060408385031215614ad657614ad56147f0565b5b6000614ae485828601614843565b9250506020614af585828601614aaa565b9150509250929050565b600080fd5b600080fd5b6000601f19601f8301169050919050565b7f4e487b7100000000000000000000000000000000000000000000000000000000600052604160045260246000fd5b614b5282614b09565b810181811067ffffffffffffffff82111715614b7157614b70614b1a565b5b80604052505050565b6000614b846147e6565b9050614b908282614b49565b919050565b600067ffffffffffffffff821115614bb057614baf614b1a565b5b614bb982614b09565b9050602081019050919050565b82818337600083830152505050565b6000614be8614be384614b95565b614b7a565b905082815260208101848484011115614c0457614c03614b04565b5b614c0f848285614bc6565b509392505050565b600082601f830112614c2c57614c2b614aff565b5b8135614c3c848260208601614bd5565b91505092915050565b600060ff82169050919050565b614c5b81614c45565b8114614c6657600080fd5b50565b600081359050614c7881614c52565b92915050565b614c8781614885565b8114614c9257600080fd5b50565b600081359050614ca481614c7e565b92915050565b600067ffffffffffffffff821115614cc557614cc4614b1a565b5b602082029050602081019050919050565b600080fd5b6000614cee614ce984614caa565b614b7a565b90508083825260208201905060208402830185811115614d1157614d10614cd6565b5b835b81811015614d3a5780614d268882614843565b845260208401935050602081019050614d13565b5050509392505050565b600082601f830112614d5957614d58614aff565b5b8135614d69848260208601614cdb565b91505092915050565b600067ffffffffffffffff821115614d8d57614d8c614b1a565b5b602082029050602081019050919050565b6000614db1614dac84614d72565b614b7a565b90508083825260208201905060208402830185811115614dd457614dd3614cd6565b5b835b81811015614dfd5780614de98882614aaa565b845260208401935050602081019050614dd6565b5050509392505050565b600082601f830112614e1c57614e1b614aff565b5b8135614e2c848260208601614d9e565b91505092915050565b60006bffffffffffffffffffffffff82169050919050565b614e5681614e35565b8114614e6157600080fd5b50565b600081359050614e7381614e4d565b92915050565b60008060008060008060008060008060006101608c8e031215614e9f57614e9e6147f0565b5b60008c013567ffffffffffffffff811115614ebd57614ebc6147f5565b5b614ec98e828f01614c17565b9b505060208c013567ffffffffffffffff811115614eea57614ee96147f5565b5b614ef68e828f01614c17565b9a505060408c013567ffffffffffffffff811115614f1757614f166147f5565b5b614f238e828f01614c17565b9950506060614f348e828f01614c69565b9850506080614f458e828f01614aaa565b97505060a0614f568e828f01614aaa565b96505060c0614f678e828f01614c95565b95505060e0614f788e828f01614aaa565b9450506101008c013567ffffffffffffffff811115614f9a57614f996147f5565b5b614fa68e828f01614d44565b9350506101208c013567ffffffffffffffff811115614fc857614fc76147f5565b5b614fd48e828f01614e07565b925050610140614fe68e828f01614e64565b9150509295989b509295989b9093969950565b60006020828403121561500f5761500e6147f0565b5b600061501d84828501614aaa565b91505092915050565b60008060006060848603121561503f5761503e6147f0565b5b600061504d86828701614843565b935050602061505e86828701614aaa565b925050604061506f86828701614aaa565b9150509250925092565b60008060008060808587031215615093576150926147f0565b5b60006150a187828801614843565b94505060206150b287828801614aaa565b93505060406150c387828801614aaa565b92505060606150d487828801614843565b91505092959194509250565b6000819050919050565b60006151056151006150fb846147fa565b6150e0565b6147fa565b9050919050565b6000615117826150ea565b9050919050565b60006151298261510c565b9050919050565b6151398161511e565b82525050565b60006020820190506151546000830184615130565b92915050565b6151638161481a565b82525050565b615172816148f6565b82525050565b61518181614965565b82525050565b600060a08201905061519c600083018861515a565b6151a96020830187615169565b6151b66040830186615169565b6151c3606083018561515a565b6151d06080830184615178565b9695505050505050565b6000806000606084860312156151f3576151f26147f0565b5b600061520186828701614843565b935050602061521286828701614843565b925050604061522386828701614aaa565b9150509250925092565b600081519050919050565b600082825260208201905092915050565b6000819050602082019050919050565b6004811061526a5761526961490f565b5b50565b600081905061527b82615259565b919050565b600061528b8261526d565b9050919050565b61529b81615280565b82525050565b60c0820160008201516152b76000850182614900565b5060208201516152ca60208501826148e7565b5060408201516152dd6040850182614900565b5060608201516152f060608501826148e7565b5060808201516153036080850182615292565b5060a082015161531660a08501826148e7565b50505050565b600061532883836152a1565b60c08301905092915050565b6000602082019050919050565b600061534c8261522d565b6153568185615238565b935061536183615249565b8060005b83811015615392578151615379888261531c565b975061538483615334565b925050600181019050615365565b5085935050505092915050565b600060208201905081810360008301526153b98184615341565b905092915050565b600080600080608085870312156153db576153da6147f0565b5b60006153e987828801614843565b94505060206153fa87828801614843565b935050604061540b87828801614aaa565b925050606061541c87828801614aaa565b91505092959194509250565b61543181615280565b82525050565b600060c08201905061544c6000830189615169565b615459602083018861515a565b6154666040830187615169565b615473606083018661515a565b6154806080830185615428565b61548d60a083018461515a565b979650505050505050565b600081519050919050565b600082825260208201905092915050565b6000819050602082019050919050565b60006154d083836148e7565b60208301905092915050565b6000602082019050919050565b60006154f482615498565b6154fe81856154a3565b9350615509836154b4565b8060005b8381101561553a57815161552188826154c4565b975061552c836154dc565b92505060018101905061550d565b5085935050505092915050565b6000602082019050818103600083015261556181846154e9565b905092915050565b600080604083850312156155805761557f6147f0565b5b600061558e85828601614843565b925050602061559f85828601614c95565b9150509250929050565b60006020820190506155be600083018461515a565b92915050565b600080600080608085870312156155de576155dd6147f0565b5b60006155ec87828801614843565b94505060206155fd87828801614aaa565b935050604061560e87828801614843565b925050606061561f87828801614aaa565b91505092959194509250565b7f4e487b7100000000000000000000000000000000000000000000000000000000600052603260045260246000fd5b7f4e487b7100000000000000000000000000000000000000000000000000000000600052601160045260246000fd5b600063ffffffff82169050919050565b60006156a482615689565b915063ffffffff82036156ba576156b961565a565b5b600182019050919050565b60006020820190506156da6000830184615169565b92915050565b6000815190506156ef8161482c565b92915050565b60006020828403121561570b5761570a6147f0565b5b6000615719848285016156e0565b91505092915050565b600082825260208201905092915050565b7f5468652073656c6c6572206e65656420746f20617070726f766520746865206d60008201527f61726b6574706c61636520210000000000000000000000000000000000000000602082015250565b600061578f602c83615722565b915061579a82615733565b604082019050919050565b600060208201905081810360008301526157be81615782565b9050919050565b7f5468652073656c6c6572206973206e6f742074686520746f6b656e206f776e6560008201527f7220210000000000000000000000000000000000000000000000000000000000602082015250565b6000615821602383615722565b915061582c826157c5565b604082019050919050565b6000602082019050818103600083015261585081615814565b9050919050565b7f4c697374696e6720697320616c72656164792063616e63656c6564206f72207360008201527f656c6c6564000000000000000000000000000000000000000000000000000000602082015250565b60006158b3602583615722565b91506158be82615857565b604082019050919050565b600060208201905081810360008301526158e2816158a6565b9050919050565b60006040820190506158fe600083018561515a565b61590b602083018461515a565b9392505050565b60008151905061592181614a93565b92915050565b60006020828403121561593d5761593c6147f0565b5b600061594b84828501615912565b91505092915050565b7f596f7520646f6e277420616c6c6f7720656e6f75676874205553444320210000600082015250565b600061598a601e83615722565b915061599582615954565b602082019050919050565b600060208201905081810360008301526159b98161597d565b9050919050565b7f596f7520646f6e2774206861766520656e6f75676874205553444320696e207960008201527f6f75722062616c616e6365202100000000000000000000000000000000000000602082015250565b6000615a1c602d83615722565b9150615a27826159c0565b604082019050919050565b60006020820190508181036000830152615a4b81615a0f565b9050919050565b6000606082019050615a67600083018661515a565b615a74602083018561515a565b615a816040830184615169565b949350505050565b6000604082019050615a9e6000830185615169565b615aab6020830184615169565b9392505050565b60008060408385031215615ac957615ac86147f0565b5b6000615ad7858286016156e0565b9250506020615ae885828601615912565b9150509250929050565b600081519050615b0181614c7e565b92915050565b600060208284031215615b1d57615b1c6147f0565b5b6000615b2b84828501615af2565b91505092915050565b7f5472616e73616374696f6e20776173206e6f74207375636365737366756c0000600082015250565b6000615b6a601e83615722565b9150615b7582615b34565b602082019050919050565b60006020820190508181036000830152615b9981615b5d565b9050919050565b6000615bab826148f6565b9150615bb6836148f6565b9250828203905081811115615bce57615bcd61565a565b5b92915050565b7f5472616e736374696f6e20776173206e6f74207375636365737366756c000000600082015250565b6000615c0a601d83615722565b9150615c1582615bd4565b602082019050919050565b60006020820190508181036000830152615c3981615bfd565b9050919050565b7f506c6561736520736574206120666163746f7279206164647265737320210000600082015250565b6000615c76601e83615722565b9150615c8182615c40565b602082019050919050565b60006020820190508181036000830152615ca581615c69565b9050919050565b7f4465706c6f7920697320616c6c6f77656420666f72206174686c657465206f7260008201527f20536f66616e2c20706c65617365207265616368206f7572207465616d202100602082015250565b6000615d08603f83615722565b9150615d1382615cac565b604082019050919050565b60006020820190508181036000830152615d3781615cfb565b9050919050565b600081519050919050565b600082825260208201905092915050565b6000819050602082019050919050565b6000615d768383614900565b60208301905092915050565b6000602082019050919050565b6000615d9a82615d3e565b615da48185615d49565b9350615daf83615d5a565b8060005b83811015615de0578151615dc78882615d6a565b9750615dd283615d82565b925050600181019050615db3565b5085935050505092915050565b60006040820190508181036000830152615e0781856154e9565b90508181036020830152615e1b8184615d8f565b90509392505050565b600060039050919050565b600081905092915050565b6000819050919050565b600081519050919050565b600082825260208201905092915050565b60005b83811015615e7e578082015181840152602081019050615e63565b60008484015250505050565b6000615e9582615e44565b615e9f8185615e4f565b9350615eaf818560208601615e60565b615eb881614b09565b840191505092915050565b6000615ecf8383615e8a565b905092915050565b6000602082019050919050565b6000615eef82615e24565b615ef98185615e2f565b935083602082028501615f0b85615e3a565b8060005b85811015615f475784840389528151615f288582615ec3565b9450615f3383615ed7565b925060208a01995050600181019050615f0f565b50829750879550505050505092915050565b600060049050919050565b600081905092915050565b6000819050919050565b6000602082019050919050565b615f8f81615f59565b615f998184615f64565b9250615fa482615f6f565b8060005b83811015615fd5578151615fbc8782615d6a565b9650615fc783615f79565b925050600181019050615fa8565b505050505050565b615fe681614e35565b82525050565b60006101008201905081810360008301526160078188615ee4565b90506160166020830187615f86565b61602360a0830186614891565b61603060c0830185615fdd565b61603d60e083018461515a565b9695505050505050565b7f596f75277265206e6f7420746865206f776e6572202100000000000000000000600082015250565b600061607d601683615722565b915061608882616047565b602082019050919050565b600060208201905081810360008301526160ac81616070565b9050919050565b7f43616e6e6f74206c69737420666f722030202100000000000000000000000000600082015250565b60006160e9601383615722565b91506160f4826160b3565b602082019050919050565b60006020820190508181036000830152616118816160dc565b9050919050565b6000606082019050616134600083018661515a565b6161416020830185615169565b61614e604083018461515a565b949350505050565b7f43616e6e6f7420706c6163652061206269642061742030205553444320210000600082015250565b600061618c601e83615722565b915061619782616156565b602082019050919050565b600060208201905081810360008301526161bb8161617f565b9050919050565b7f506c65617365207472616e736665722074686520726967687420616d6f756e7460008201527f206f662055534443202100000000000000000000000000000000000000000000602082015250565b600061621e602a83615722565b9150616229826161c2565b604082019050919050565b6000602082019050818103600083015261624d81616211565b9050919050565b7f5265636569766572206973206e6f7420746865206f776e657220210000000000600082015250565b600061628a601b83615722565b915061629582616254565b602082019050919050565b600060208201905081810360008301526162b98161627d565b9050919050565b7f42696420697320616c7265616479206163636570746564206f7220726566757360008201527f6564000000000000000000000000000000000000000000000000000000000000602082015250565b600061631c602283615722565b9150616327826162c0565b604082019050919050565b6000602082019050818103600083015261634b8161630f565b9050919050565b7f596f75277265206e6f7420746865207265636569766572202100000000000000600082015250565b6000616388601983615722565b915061639382616352565b602082019050919050565b600060208201905081810360008301526163b78161637b565b9050919050565b7f5468652073656e6465722063616e63656c65642074686520616c6c6f77616e6360008201527f65206f6620555344432021000000000000000000000000000000000000000000602082015250565b600061641a602b83615722565b9150616425826163be565b604082019050919050565b600060208201905081810360008301526164498161640d565b9050919050565b7f5468652073656e64657220646f65736e2774206861766520656e6f756768742060008201527f5553444300000000000000000000000000000000000000000000000000000000602082015250565b60006164ac602483615722565b91506164b782616450565b604082019050919050565b600060208201905081810360008301526164db8161649f565b9050919050565b7f4f776e61626c653a206e6577206f776e657220697320746865207a65726f206160008201527f6464726573730000000000000000000000000000000000000000000000000000602082015250565b600061653e602683615722565b9150616549826164e2565b604082019050919050565b6000602082019050818103600083015261656d81616531565b9050919050565b7f5265656e7472616e637947756172643a207265656e7472616e742063616c6c00600082015250565b60006165aa601f83615722565b91506165b582616574565b602082019050919050565b600060208201905081810360008301526165d98161659d565b9050919050565b7f4f776e61626c653a2063616c6c6572206973206e6f7420746865206f776e6572600082015250565b6000616616602083615722565b9150616621826165e0565b602082019050919050565b6000602082019050818103600083015261664581616609565b905091905056fea264697066735822122049ee586cbfcf981df633b3ec3c81bd3f6f5720e26001d095bbaefb155015ebfe64736f6c63430008130033",
  "immutableReferences": {},
  "source": "// SPDX-License-Identifier: MIT\r\npragma solidity 0.8.19;\r\nimport \"./SofanFactory.sol\";\r\nimport \"./SofanNftTemplate.sol\";\r\nimport \"@openzeppelin/contracts/access/Ownable.sol\";\r\nimport \"@openzeppelin/contracts/security/ReentrancyGuard.sol\";\r\n\r\n// import \"./Proxy.sol\";\r\ncontract Sofan is Ownable, ReentrancyGuard {\r\n    address sofanMultiSig = 0xd423DCBd697164e282717009044312fDBC6C04f0;\r\n    address sofanFactory = 0x752B58Fc75A746470AE398beD781A4A7825dd3b0;\r\n    // 0x07865c6E87B9F70255377e024ace6630C1Eaa37F 0x98339D8C260052B7ad81c28c16C0b98420f2B46a\r\n    address usdcAddress = 0x07865c6E87B9F70255377e024ace6630C1Eaa37F;\r\n    IERC20 public usdc = IERC20(usdcAddress);\r\n    address[] internal sofanCollection;\r\n    // address[] atheleteAddress;\r\n    enum BidStatus {\r\n        waiting,\r\n        accepted,\r\n        refused,\r\n        canceled\r\n    }\r\n    enum ListingStatus {\r\n        selled,\r\n        Listed,\r\n        canceled\r\n    }\r\n    struct Bid {\r\n        uint256 price;\r\n        address contractAddress;\r\n        uint256 tokenId;\r\n        address sender;\r\n        BidStatus bidStatus;\r\n        address receiver;\r\n    }\r\n    struct Listing {\r\n        address contractAddress;\r\n        uint256 tokenId;\r\n        uint256 price;\r\n        address seller;\r\n        ListingStatus listingStauts;\r\n    }\r\n    mapping(address => address[]) public CollectionCreatedByWallet;\r\n    // Dtenteur => contrat => tokenId\r\n    mapping(address => mapping(address => mapping(uint256 => Bid[])))\r\n        public BidMapping;\r\n    mapping(address => Listing[]) public ListingMapping;\r\n    mapping(address => bool) public isAthlete;\r\n\r\n    //    // delete after test\r\n    // constructor() payable {\r\n    //     string memory _t = \"a\"; string memory _r = \"a\"; string memory _e = \"a\"; address[] memory _p = new address[](1); uint256[] memory _s = new uint256[](1);\r\n    //     _p[0] = 0xd423DCBd697164e282717009044312fDBC6C04f0; _s[0] = 1;\r\n    //     deployCollection(_t, _r, _e, 0, 10, 0, true, 1000000, _p, _s, 250);\r\n    // }\r\n\r\n    function getAllCollection() external view returns (address[] memory) {\r\n        address[] memory temp = new address[](sofanCollection.length);\r\n        for (uint32 i = 0; i < sofanCollection.length; i++) {\r\n            temp[i] = sofanCollection[i];\r\n        }\r\n        return temp;\r\n    }\r\n\r\n    function getCollectionCreatedByWallet(\r\n        address _walletAddress\r\n    ) external view returns (address[] memory) {\r\n        address[] memory temp = new address[](\r\n            CollectionCreatedByWallet[_walletAddress].length\r\n        );\r\n        for (\r\n            uint32 i = 0;\r\n            i < CollectionCreatedByWallet[_walletAddress].length;\r\n            i++\r\n        ) {\r\n            temp[i] = CollectionCreatedByWallet[_walletAddress][i];\r\n        }\r\n        return temp;\r\n    }\r\n\r\n    function getBid(\r\n        address _receiver,\r\n        address _contract,\r\n        uint _tokenId\r\n    ) external view returns (Bid[] memory) {\r\n        Bid[] memory temp = new Bid[](\r\n            BidMapping[_receiver][_contract][_tokenId].length\r\n        );\r\n        for (\r\n            uint32 i = 0;\r\n            i < BidMapping[_receiver][_contract][_tokenId].length;\r\n            i++\r\n        ) {\r\n            temp[i] = BidMapping[_receiver][_contract][_tokenId][i];\r\n        }\r\n        return temp;\r\n    }\r\n\r\n    function getListing(\r\n        address _seller\r\n    ) external view returns (Listing[] memory) {\r\n        Listing[] memory temp = new Listing[](ListingMapping[_seller].length);\r\n        for (uint32 i = 0; i < ListingMapping[_seller].length; i++) {\r\n            temp[i] = ListingMapping[_seller][i];\r\n        }\r\n        return temp;\r\n    }\r\n\r\n    function setAthlete(\r\n        address _athleteAddress,\r\n        bool _permission\r\n    ) external onlyOwner {\r\n        isAthlete[_athleteAddress] = _permission;\r\n    }\r\n\r\n    function setFactoryAddress(address _newAddress) external onlyOwner {\r\n        sofanFactory = _newAddress;\r\n    }\r\n\r\n    function setSofanWallet(address _newSofanWallet) external onlyOwner {\r\n        sofanMultiSig = _newSofanWallet;\r\n    }\r\n\r\n    function SetUSDCAddress(address _newUSDCAddress) external onlyOwner {\r\n        usdcAddress = _newUSDCAddress;\r\n    }\r\n\r\n    function placeBid(\r\n        address _contract,\r\n        uint256 _tokenId,\r\n        uint256 _offerPrice,\r\n        address _receiver\r\n    ) public {\r\n        require(_offerPrice > 0, \"Cannot place a bid at 0 USDC !\");\r\n        require(\r\n            usdc.allowance(msg.sender, address(this)) >= _offerPrice,\r\n            \"Please transfer the right amount of USDC !\"\r\n        );\r\n        require(\r\n            _receiver == SofanNftTemplate(_contract).ownerOf(_tokenId),\r\n            \"Receiver is not the owner !\"\r\n        );\r\n\r\n        Bid memory temp = Bid(\r\n            _offerPrice,\r\n            _contract,\r\n            _tokenId,\r\n            msg.sender,\r\n            BidStatus.waiting,\r\n            _receiver\r\n        );\r\n        BidMapping[_receiver][_contract][_tokenId].push(temp);\r\n    }\r\n\r\n    function acceptBid(\r\n        address _contract,\r\n        uint256 _tokenId,\r\n        uint256 _indexOfBid\r\n    ) external nonReentrant {\r\n        require(\r\n            msg.sender == SofanNftTemplate(_contract).ownerOf(_tokenId),\r\n            \"You're not the owner !\"\r\n        );\r\n        require(\r\n            msg.sender ==\r\n                BidMapping[msg.sender][_contract][_tokenId][_indexOfBid]\r\n                    .receiver,\r\n            \"You're not the receiver !\"\r\n        );\r\n        require(\r\n            BidMapping[msg.sender][_contract][_tokenId][_indexOfBid]\r\n                .bidStatus == BidStatus.waiting,\r\n            \"Bid is already accepted or refused\"\r\n        );\r\n        require(\r\n            usdc.allowance(\r\n                BidMapping[msg.sender][_contract][_tokenId][_indexOfBid].sender,\r\n                address(this)\r\n            ) >= BidMapping[msg.sender][_contract][_tokenId][_indexOfBid].price,\r\n            \"The sender canceled the allowance of USDC !\"\r\n        );\r\n        require(\r\n            usdc.balanceOf(\r\n                BidMapping[msg.sender][_contract][_tokenId][_indexOfBid].sender\r\n            ) >= BidMapping[msg.sender][_contract][_tokenId][_indexOfBid].price,\r\n            \"The sender doesn't have enought USDC\"\r\n        );\r\n\r\n        // Change bid status of '_tokenId' to 'accepted' and other to 'refused'\r\n        for (\r\n            uint32 i = 0;\r\n            i < BidMapping[msg.sender][_contract][_tokenId].length;\r\n            i++\r\n        ) {\r\n            if (i == _indexOfBid) {\r\n                BidMapping[msg.sender][_contract][_tokenId][i]\r\n                    .bidStatus = BidStatus.accepted;\r\n            } else {\r\n                BidMapping[msg.sender][_contract][_tokenId][i]\r\n                    .bidStatus = BidStatus.refused;\r\n            }\r\n        }\r\n\r\n        SofanNftTemplate(_contract).approveCustom(\r\n            address(this),\r\n            _tokenId,\r\n            msg.sender\r\n        );\r\n        SofanNftTemplate(_contract).transferFrom(\r\n            msg.sender,\r\n            BidMapping[msg.sender][_contract][_tokenId][_indexOfBid].sender,\r\n            _tokenId\r\n        );\r\n        (address splitter, uint256 royaltiesAmount) = SofanNftTemplate(\r\n            _contract\r\n        ).royaltyInfo(\r\n                _tokenId,\r\n                BidMapping[msg.sender][_contract][_tokenId][_indexOfBid].price\r\n            );\r\n        bool success3 = usdc.transferFrom(\r\n            BidMapping[msg.sender][_contract][_tokenId][_indexOfBid].sender,\r\n            splitter,\r\n            royaltiesAmount\r\n        );\r\n        require(success3, \"Transaction was not successful\");\r\n        bool success2 = usdc.transferFrom(\r\n            BidMapping[msg.sender][_contract][_tokenId][_indexOfBid].sender,\r\n            msg.sender,\r\n            (BidMapping[msg.sender][_contract][_tokenId][_indexOfBid].price -\r\n                royaltiesAmount)\r\n        );\r\n        require(success2, \"Transaction was not successful\");\r\n    }\r\n\r\n    function refuseBid(\r\n        address _contract,\r\n        uint256 _tokenId,\r\n        uint _index\r\n    ) public {\r\n        require(\r\n            BidMapping[msg.sender][_contract][_tokenId][_index].bidStatus ==\r\n                BidStatus.waiting,\r\n            \"Bid is already accepted or refused\"\r\n        );\r\n        BidMapping[msg.sender][_contract][_tokenId][_index]\r\n            .bidStatus = BidStatus.refused;\r\n    }\r\n\r\n    function cancelBid(\r\n        address _contract,\r\n        uint256 _tokenId,\r\n        address _receiver,\r\n        uint _index\r\n    ) public {\r\n        // add require to check that Bid.sender = msg.sender\r\n        require(\r\n            BidMapping[_receiver][_contract][_tokenId][_index].bidStatus ==\r\n                BidStatus.waiting,\r\n            \"Bid is already accepted or refused\"\r\n        );\r\n        BidMapping[_receiver][_contract][_tokenId][_index].bidStatus = BidStatus\r\n            .canceled;\r\n    }\r\n\r\n    function listToSell(\r\n        address _contract,\r\n        uint256 _tokenId,\r\n        uint256 _price\r\n    ) external nonReentrant {\r\n        // Require pour empecher de list 2 fois le meme token si le ListingStatus d'un listing du meme token est 'Listed'\r\n        require(\r\n            msg.sender == SofanNftTemplate(_contract).ownerOf(_tokenId),\r\n            \"You're not the owner !\"\r\n        );\r\n        require(_price > 0, \"Cannot list for 0 !\");\r\n        Listing memory listing = Listing(\r\n            _contract,\r\n            _tokenId,\r\n            _price,\r\n            msg.sender,\r\n            ListingStatus.Listed\r\n        );\r\n        ListingMapping[msg.sender].push(listing);\r\n        SofanNftTemplate(_contract).approveCustom(\r\n            address(this),\r\n            _tokenId,\r\n            msg.sender\r\n        );\r\n    }\r\n\r\n    function buyListing(\r\n        address _sellerAddress,\r\n        uint _indexLinsting\r\n    ) external nonReentrant {\r\n        require(\r\n            SofanNftTemplate(\r\n                ListingMapping[_sellerAddress][_indexLinsting].contractAddress\r\n            ).getApproved(\r\n                    ListingMapping[_sellerAddress][_indexLinsting].tokenId\r\n                ) == address(this),\r\n            \"The seller need to approve the marketplace !\"\r\n        );\r\n        require(\r\n            SofanNftTemplate(\r\n                ListingMapping[_sellerAddress][_indexLinsting].contractAddress\r\n            ).ownerOf(ListingMapping[_sellerAddress][_indexLinsting].tokenId) ==\r\n                ListingMapping[_sellerAddress][_indexLinsting].seller,\r\n            \"The seller is not the token owner !\"\r\n        );\r\n        require(\r\n            ListingMapping[_sellerAddress][_indexLinsting].listingStauts ==\r\n                ListingStatus.Listed,\r\n            \"Listing is already canceled or selled\"\r\n        );\r\n        require(\r\n            usdc.allowance(msg.sender, address(this)) >=\r\n                ListingMapping[_sellerAddress][_indexLinsting].price,\r\n            \"You don't allow enought USDC !\"\r\n        );\r\n        require(\r\n            usdc.balanceOf(msg.sender) >=\r\n                ListingMapping[_sellerAddress][_indexLinsting].price,\r\n            \"You don't have enought USDC in your balance !\"\r\n        );\r\n        ListingMapping[_sellerAddress][_indexLinsting]\r\n            .listingStauts = ListingStatus.selled;\r\n        SofanNftTemplate(\r\n            ListingMapping[_sellerAddress][_indexLinsting].contractAddress\r\n        ).transferFrom(\r\n                ListingMapping[_sellerAddress][_indexLinsting].seller,\r\n                msg.sender,\r\n                ListingMapping[_sellerAddress][_indexLinsting].tokenId\r\n            );\r\n\r\n        (address splitter, uint256 royaltiesAmount) = SofanNftTemplate(\r\n            ListingMapping[_sellerAddress][_indexLinsting].contractAddress\r\n        ).royaltyInfo(\r\n                ListingMapping[_sellerAddress][_indexLinsting].tokenId,\r\n                ListingMapping[_sellerAddress][_indexLinsting].price\r\n            );\r\n        bool success3 = usdc.transferFrom(\r\n            msg.sender,\r\n            splitter,\r\n            royaltiesAmount\r\n        );\r\n        require(success3, \"Transaction was not successful\");\r\n        bool success2 = usdc.transferFrom(\r\n            msg.sender,\r\n            ListingMapping[_sellerAddress][_indexLinsting].seller,\r\n            (ListingMapping[_sellerAddress][_indexLinsting].price -\r\n                royaltiesAmount)\r\n        );\r\n        require(success2, \"Transction was not successful\");\r\n    }\r\n\r\n    function cancelListing(uint _index) external {\r\n        require(\r\n            ListingMapping[msg.sender][_index].listingStauts ==\r\n                ListingStatus.Listed,\r\n            \"Listing is already canceled or selled\"\r\n        );\r\n        ListingMapping[msg.sender][_index].listingStauts = ListingStatus\r\n            .canceled;\r\n    }\r\n\r\n    function addCollectionManually(address _collection) external onlyOwner {\r\n        sofanCollection.push(_collection);\r\n    }\r\n\r\n    function deployCollection(\r\n        string memory _collectionName,\r\n        string memory _collectionSymbol,\r\n        string memory _collectionBaseURI,\r\n        uint8 _limitByWallet,\r\n        uint256 _collectionLimit,\r\n        uint256 _launchpadTime,\r\n        bool _isAbleChangeMaxLimitCollection,\r\n        uint256 _price,\r\n        address[] memory _payees,\r\n        uint256[] memory _shares_,\r\n        uint96 _percentInBips // 2.5% = 250\r\n    ) public payable {\r\n        require(sofanFactory != address(0), \"Please set a factory address !\");\r\n        require(\r\n            isAthlete[msg.sender] == true || msg.sender == sofanMultiSig,\r\n            \"Deploy is allowed for athlete or Sofan, please reach our team !\"\r\n        );\r\n\r\n        string[3] memory collectionData2 = [\r\n            _collectionName,\r\n            _collectionSymbol,\r\n            _collectionBaseURI\r\n        ];\r\n        uint[4] memory collectionData = [\r\n            _limitByWallet,\r\n            _collectionLimit,\r\n            _launchpadTime,\r\n            _price\r\n        ];\r\n        bool isAbleChangeMaxLimitCollection = _isAbleChangeMaxLimitCollection;\r\n        uint96 percentInBips = _percentInBips;\r\n        address splitterAddress = SofanFactory(sofanFactory).deploySplitter(\r\n            _payees,\r\n            _shares_\r\n        );\r\n\r\n        address collectionAddress = SofanFactory(sofanFactory).deploy(\r\n            collectionData2,\r\n            collectionData,\r\n            isAbleChangeMaxLimitCollection,\r\n            percentInBips,\r\n            splitterAddress\r\n        );\r\n        CollectionCreatedByWallet[msg.sender].push(collectionAddress);\r\n        sofanCollection.push(collectionAddress);\r\n    }\r\n}\r\n",
  "sourcePath": "/home/matheo/dev/Sofan/truffle/contracts/Sofan.sol",
  "compiler": {
    "name": "solc",
    "version": "0.8.19+commit.7dd6d404.Emscripten.clang"
  },
  "schemaVersion": "3.4.4",
  "updatedAt": "2023-08-23T13:26:01.556Z",
  "devdoc": {
    "kind": "dev",
    "methods": {
      "owner()": {
        "details": "Returns the address of the current owner."
      },
      "renounceOwnership()": {
        "details": "Leaves the contract without owner. It will not be possible to call `onlyOwner` functions. Can only be called by the current owner. NOTE: Renouncing ownership will leave the contract without an owner, thereby disabling any functionality that is only available to the owner."
      },
      "transferOwnership(address)": {
        "details": "Transfers ownership of the contract to a new account (`newOwner`). Can only be called by the current owner."
      }
    },
    "version": 1
  },
  "userdoc": {
    "kind": "user",
    "methods": {},
    "version": 1
  }
}