{
  "contractName": "FiatTokenV2_1",
  "abi": [
    {
      "anonymous": false,
      "inputs": [
        {
          "indexed": true,
          "internalType": "address",
          "name": "owner",
          "type": "address"
        },
        {
          "indexed": true,
          "internalType": "address",
          "name": "spender",
          "type": "address"
        },
        {
          "indexed": false,
          "internalType": "uint256",
          "name": "value",
          "type": "uint256"
        }
      ],
      "name": "Approval",
      "type": "event"
    },
    {
      "anonymous": false,
      "inputs": [
        {
          "indexed": true,
          "internalType": "address",
          "name": "authorizer",
          "type": "address"
        },
        {
          "indexed": true,
          "internalType": "bytes32",
          "name": "nonce",
          "type": "bytes32"
        }
      ],
      "name": "AuthorizationCanceled",
      "type": "event"
    },
    {
      "anonymous": false,
      "inputs": [
        {
          "indexed": true,
          "internalType": "address",
          "name": "authorizer",
          "type": "address"
        },
        {
          "indexed": true,
          "internalType": "bytes32",
          "name": "nonce",
          "type": "bytes32"
        }
      ],
      "name": "AuthorizationUsed",
      "type": "event"
    },
    {
      "anonymous": false,
      "inputs": [
        {
          "indexed": true,
          "internalType": "address",
          "name": "_account",
          "type": "address"
        }
      ],
      "name": "Blacklisted",
      "type": "event"
    },
    {
      "anonymous": false,
      "inputs": [
        {
          "indexed": true,
          "internalType": "address",
          "name": "newBlacklister",
          "type": "address"
        }
      ],
      "name": "BlacklisterChanged",
      "type": "event"
    },
    {
      "anonymous": false,
      "inputs": [
        {
          "indexed": true,
          "internalType": "address",
          "name": "burner",
          "type": "address"
        },
        {
          "indexed": false,
          "internalType": "uint256",
          "name": "amount",
          "type": "uint256"
        }
      ],
      "name": "Burn",
      "type": "event"
    },
    {
      "anonymous": false,
      "inputs": [
        {
          "indexed": true,
          "internalType": "address",
          "name": "newMasterMinter",
          "type": "address"
        }
      ],
      "name": "MasterMinterChanged",
      "type": "event"
    },
    {
      "anonymous": false,
      "inputs": [
        {
          "indexed": true,
          "internalType": "address",
          "name": "minter",
          "type": "address"
        },
        {
          "indexed": true,
          "internalType": "address",
          "name": "to",
          "type": "address"
        },
        {
          "indexed": false,
          "internalType": "uint256",
          "name": "amount",
          "type": "uint256"
        }
      ],
      "name": "Mint",
      "type": "event"
    },
    {
      "anonymous": false,
      "inputs": [
        {
          "indexed": true,
          "internalType": "address",
          "name": "minter",
          "type": "address"
        },
        {
          "indexed": false,
          "internalType": "uint256",
          "name": "minterAllowedAmount",
          "type": "uint256"
        }
      ],
      "name": "MinterConfigured",
      "type": "event"
    },
    {
      "anonymous": false,
      "inputs": [
        {
          "indexed": true,
          "internalType": "address",
          "name": "oldMinter",
          "type": "address"
        }
      ],
      "name": "MinterRemoved",
      "type": "event"
    },
    {
      "anonymous": false,
      "inputs": [
        {
          "indexed": false,
          "internalType": "address",
          "name": "previousOwner",
          "type": "address"
        },
        {
          "indexed": false,
          "internalType": "address",
          "name": "newOwner",
          "type": "address"
        }
      ],
      "name": "OwnershipTransferred",
      "type": "event"
    },
    {
      "anonymous": false,
      "inputs": [],
      "name": "Pause",
      "type": "event"
    },
    {
      "anonymous": false,
      "inputs": [
        {
          "indexed": true,
          "internalType": "address",
          "name": "newAddress",
          "type": "address"
        }
      ],
      "name": "PauserChanged",
      "type": "event"
    },
    {
      "anonymous": false,
      "inputs": [
        {
          "indexed": true,
          "internalType": "address",
          "name": "newRescuer",
          "type": "address"
        }
      ],
      "name": "RescuerChanged",
      "type": "event"
    },
    {
      "anonymous": false,
      "inputs": [
        {
          "indexed": true,
          "internalType": "address",
          "name": "from",
          "type": "address"
        },
        {
          "indexed": true,
          "internalType": "address",
          "name": "to",
          "type": "address"
        },
        {
          "indexed": false,
          "internalType": "uint256",
          "name": "value",
          "type": "uint256"
        }
      ],
      "name": "Transfer",
      "type": "event"
    },
    {
      "anonymous": false,
      "inputs": [
        {
          "indexed": true,
          "internalType": "address",
          "name": "_account",
          "type": "address"
        }
      ],
      "name": "UnBlacklisted",
      "type": "event"
    },
    {
      "anonymous": false,
      "inputs": [],
      "name": "Unpause",
      "type": "event"
    },
    {
      "inputs": [],
      "name": "CANCEL_AUTHORIZATION_TYPEHASH",
      "outputs": [
        {
          "internalType": "bytes32",
          "name": "",
          "type": "bytes32"
        }
      ],
      "stateMutability": "view",
      "type": "function"
    },
    {
      "inputs": [],
      "name": "DOMAIN_SEPARATOR",
      "outputs": [
        {
          "internalType": "bytes32",
          "name": "",
          "type": "bytes32"
        }
      ],
      "stateMutability": "view",
      "type": "function"
    },
    {
      "inputs": [],
      "name": "PERMIT_TYPEHASH",
      "outputs": [
        {
          "internalType": "bytes32",
          "name": "",
          "type": "bytes32"
        }
      ],
      "stateMutability": "view",
      "type": "function"
    },
    {
      "inputs": [],
      "name": "RECEIVE_WITH_AUTHORIZATION_TYPEHASH",
      "outputs": [
        {
          "internalType": "bytes32",
          "name": "",
          "type": "bytes32"
        }
      ],
      "stateMutability": "view",
      "type": "function"
    },
    {
      "inputs": [],
      "name": "TRANSFER_WITH_AUTHORIZATION_TYPEHASH",
      "outputs": [
        {
          "internalType": "bytes32",
          "name": "",
          "type": "bytes32"
        }
      ],
      "stateMutability": "view",
      "type": "function"
    },
    {
      "inputs": [
        {
          "internalType": "address",
          "name": "owner",
          "type": "address"
        },
        {
          "internalType": "address",
          "name": "spender",
          "type": "address"
        }
      ],
      "name": "allowance",
      "outputs": [
        {
          "internalType": "uint256",
          "name": "",
          "type": "uint256"
        }
      ],
      "stateMutability": "view",
      "type": "function"
    },
    {
      "inputs": [
        {
          "internalType": "address",
          "name": "spender",
          "type": "address"
        },
        {
          "internalType": "uint256",
          "name": "value",
          "type": "uint256"
        }
      ],
      "name": "approve",
      "outputs": [
        {
          "internalType": "bool",
          "name": "",
          "type": "bool"
        }
      ],
      "stateMutability": "nonpayable",
      "type": "function"
    },
    {
      "inputs": [
        {
          "internalType": "address",
          "name": "authorizer",
          "type": "address"
        },
        {
          "internalType": "bytes32",
          "name": "nonce",
          "type": "bytes32"
        }
      ],
      "name": "authorizationState",
      "outputs": [
        {
          "internalType": "bool",
          "name": "",
          "type": "bool"
        }
      ],
      "stateMutability": "view",
      "type": "function"
    },
    {
      "inputs": [
        {
          "internalType": "address",
          "name": "account",
          "type": "address"
        }
      ],
      "name": "balanceOf",
      "outputs": [
        {
          "internalType": "uint256",
          "name": "",
          "type": "uint256"
        }
      ],
      "stateMutability": "view",
      "type": "function"
    },
    {
      "inputs": [
        {
          "internalType": "address",
          "name": "_account",
          "type": "address"
        }
      ],
      "name": "blacklist",
      "outputs": [],
      "stateMutability": "nonpayable",
      "type": "function"
    },
    {
      "inputs": [],
      "name": "blacklister",
      "outputs": [
        {
          "internalType": "address",
          "name": "",
          "type": "address"
        }
      ],
      "stateMutability": "view",
      "type": "function"
    },
    {
      "inputs": [
        {
          "internalType": "uint256",
          "name": "_amount",
          "type": "uint256"
        }
      ],
      "name": "burn",
      "outputs": [],
      "stateMutability": "nonpayable",
      "type": "function"
    },
    {
      "inputs": [
        {
          "internalType": "address",
          "name": "authorizer",
          "type": "address"
        },
        {
          "internalType": "bytes32",
          "name": "nonce",
          "type": "bytes32"
        },
        {
          "internalType": "uint8",
          "name": "v",
          "type": "uint8"
        },
        {
          "internalType": "bytes32",
          "name": "r",
          "type": "bytes32"
        },
        {
          "internalType": "bytes32",
          "name": "s",
          "type": "bytes32"
        }
      ],
      "name": "cancelAuthorization",
      "outputs": [],
      "stateMutability": "nonpayable",
      "type": "function"
    },
    {
      "inputs": [
        {
          "internalType": "address",
          "name": "minter",
          "type": "address"
        },
        {
          "internalType": "uint256",
          "name": "minterAllowedAmount",
          "type": "uint256"
        }
      ],
      "name": "configureMinter",
      "outputs": [
        {
          "internalType": "bool",
          "name": "",
          "type": "bool"
        }
      ],
      "stateMutability": "nonpayable",
      "type": "function"
    },
    {
      "inputs": [],
      "name": "currency",
      "outputs": [
        {
          "internalType": "string",
          "name": "",
          "type": "string"
        }
      ],
      "stateMutability": "view",
      "type": "function"
    },
    {
      "inputs": [],
      "name": "decimals",
      "outputs": [
        {
          "internalType": "uint8",
          "name": "",
          "type": "uint8"
        }
      ],
      "stateMutability": "view",
      "type": "function"
    },
    {
      "inputs": [
        {
          "internalType": "address",
          "name": "spender",
          "type": "address"
        },
        {
          "internalType": "uint256",
          "name": "decrement",
          "type": "uint256"
        }
      ],
      "name": "decreaseAllowance",
      "outputs": [
        {
          "internalType": "bool",
          "name": "",
          "type": "bool"
        }
      ],
      "stateMutability": "nonpayable",
      "type": "function"
    },
    {
      "inputs": [
        {
          "internalType": "address",
          "name": "spender",
          "type": "address"
        },
        {
          "internalType": "uint256",
          "name": "increment",
          "type": "uint256"
        }
      ],
      "name": "increaseAllowance",
      "outputs": [
        {
          "internalType": "bool",
          "name": "",
          "type": "bool"
        }
      ],
      "stateMutability": "nonpayable",
      "type": "function"
    },
    {
      "inputs": [
        {
          "internalType": "string",
          "name": "tokenName",
          "type": "string"
        },
        {
          "internalType": "string",
          "name": "tokenSymbol",
          "type": "string"
        },
        {
          "internalType": "string",
          "name": "tokenCurrency",
          "type": "string"
        },
        {
          "internalType": "uint8",
          "name": "tokenDecimals",
          "type": "uint8"
        },
        {
          "internalType": "address",
          "name": "newMasterMinter",
          "type": "address"
        },
        {
          "internalType": "address",
          "name": "newPauser",
          "type": "address"
        },
        {
          "internalType": "address",
          "name": "newBlacklister",
          "type": "address"
        },
        {
          "internalType": "address",
          "name": "newOwner",
          "type": "address"
        }
      ],
      "name": "initialize",
      "outputs": [],
      "stateMutability": "nonpayable",
      "type": "function"
    },
    {
      "inputs": [
        {
          "internalType": "string",
          "name": "newName",
          "type": "string"
        }
      ],
      "name": "initializeV2",
      "outputs": [],
      "stateMutability": "nonpayable",
      "type": "function"
    },
    {
      "inputs": [
        {
          "internalType": "address",
          "name": "_account",
          "type": "address"
        }
      ],
      "name": "isBlacklisted",
      "outputs": [
        {
          "internalType": "bool",
          "name": "",
          "type": "bool"
        }
      ],
      "stateMutability": "view",
      "type": "function"
    },
    {
      "inputs": [
        {
          "internalType": "address",
          "name": "account",
          "type": "address"
        }
      ],
      "name": "isMinter",
      "outputs": [
        {
          "internalType": "bool",
          "name": "",
          "type": "bool"
        }
      ],
      "stateMutability": "view",
      "type": "function"
    },
    {
      "inputs": [],
      "name": "masterMinter",
      "outputs": [
        {
          "internalType": "address",
          "name": "",
          "type": "address"
        }
      ],
      "stateMutability": "view",
      "type": "function"
    },
    {
      "inputs": [
        {
          "internalType": "address",
          "name": "_to",
          "type": "address"
        },
        {
          "internalType": "uint256",
          "name": "_amount",
          "type": "uint256"
        }
      ],
      "name": "mint",
      "outputs": [
        {
          "internalType": "bool",
          "name": "",
          "type": "bool"
        }
      ],
      "stateMutability": "nonpayable",
      "type": "function"
    },
    {
      "inputs": [
        {
          "internalType": "address",
          "name": "minter",
          "type": "address"
        }
      ],
      "name": "minterAllowance",
      "outputs": [
        {
          "internalType": "uint256",
          "name": "",
          "type": "uint256"
        }
      ],
      "stateMutability": "view",
      "type": "function"
    },
    {
      "inputs": [],
      "name": "name",
      "outputs": [
        {
          "internalType": "string",
          "name": "",
          "type": "string"
        }
      ],
      "stateMutability": "view",
      "type": "function"
    },
    {
      "inputs": [
        {
          "internalType": "address",
          "name": "owner",
          "type": "address"
        }
      ],
      "name": "nonces",
      "outputs": [
        {
          "internalType": "uint256",
          "name": "",
          "type": "uint256"
        }
      ],
      "stateMutability": "view",
      "type": "function"
    },
    {
      "inputs": [],
      "name": "owner",
      "outputs": [
        {
          "internalType": "address",
          "name": "",
          "type": "address"
        }
      ],
      "stateMutability": "view",
      "type": "function"
    },
    {
      "inputs": [],
      "name": "pause",
      "outputs": [],
      "stateMutability": "nonpayable",
      "type": "function"
    },
    {
      "inputs": [],
      "name": "paused",
      "outputs": [
        {
          "internalType": "bool",
          "name": "",
          "type": "bool"
        }
      ],
      "stateMutability": "view",
      "type": "function"
    },
    {
      "inputs": [],
      "name": "pauser",
      "outputs": [
        {
          "internalType": "address",
          "name": "",
          "type": "address"
        }
      ],
      "stateMutability": "view",
      "type": "function"
    },
    {
      "inputs": [
        {
          "internalType": "address",
          "name": "owner",
          "type": "address"
        },
        {
          "internalType": "address",
          "name": "spender",
          "type": "address"
        },
        {
          "internalType": "uint256",
          "name": "value",
          "type": "uint256"
        },
        {
          "internalType": "uint256",
          "name": "deadline",
          "type": "uint256"
        },
        {
          "internalType": "uint8",
          "name": "v",
          "type": "uint8"
        },
        {
          "internalType": "bytes32",
          "name": "r",
          "type": "bytes32"
        },
        {
          "internalType": "bytes32",
          "name": "s",
          "type": "bytes32"
        }
      ],
      "name": "permit",
      "outputs": [],
      "stateMutability": "nonpayable",
      "type": "function"
    },
    {
      "inputs": [
        {
          "internalType": "address",
          "name": "from",
          "type": "address"
        },
        {
          "internalType": "address",
          "name": "to",
          "type": "address"
        },
        {
          "internalType": "uint256",
          "name": "value",
          "type": "uint256"
        },
        {
          "internalType": "uint256",
          "name": "validAfter",
          "type": "uint256"
        },
        {
          "internalType": "uint256",
          "name": "validBefore",
          "type": "uint256"
        },
        {
          "internalType": "bytes32",
          "name": "nonce",
          "type": "bytes32"
        },
        {
          "internalType": "uint8",
          "name": "v",
          "type": "uint8"
        },
        {
          "internalType": "bytes32",
          "name": "r",
          "type": "bytes32"
        },
        {
          "internalType": "bytes32",
          "name": "s",
          "type": "bytes32"
        }
      ],
      "name": "receiveWithAuthorization",
      "outputs": [],
      "stateMutability": "nonpayable",
      "type": "function"
    },
    {
      "inputs": [
        {
          "internalType": "address",
          "name": "minter",
          "type": "address"
        }
      ],
      "name": "removeMinter",
      "outputs": [
        {
          "internalType": "bool",
          "name": "",
          "type": "bool"
        }
      ],
      "stateMutability": "nonpayable",
      "type": "function"
    },
    {
      "inputs": [
        {
          "internalType": "contract IERC20",
          "name": "tokenContract",
          "type": "address"
        },
        {
          "internalType": "address",
          "name": "to",
          "type": "address"
        },
        {
          "internalType": "uint256",
          "name": "amount",
          "type": "uint256"
        }
      ],
      "name": "rescueERC20",
      "outputs": [],
      "stateMutability": "nonpayable",
      "type": "function"
    },
    {
      "inputs": [],
      "name": "rescuer",
      "outputs": [
        {
          "internalType": "address",
          "name": "",
          "type": "address"
        }
      ],
      "stateMutability": "view",
      "type": "function"
    },
    {
      "inputs": [],
      "name": "symbol",
      "outputs": [
        {
          "internalType": "string",
          "name": "",
          "type": "string"
        }
      ],
      "stateMutability": "view",
      "type": "function"
    },
    {
      "inputs": [],
      "name": "totalSupply",
      "outputs": [
        {
          "internalType": "uint256",
          "name": "",
          "type": "uint256"
        }
      ],
      "stateMutability": "view",
      "type": "function"
    },
    {
      "inputs": [
        {
          "internalType": "address",
          "name": "to",
          "type": "address"
        },
        {
          "internalType": "uint256",
          "name": "value",
          "type": "uint256"
        }
      ],
      "name": "transfer",
      "outputs": [
        {
          "internalType": "bool",
          "name": "",
          "type": "bool"
        }
      ],
      "stateMutability": "nonpayable",
      "type": "function"
    },
    {
      "inputs": [
        {
          "internalType": "address",
          "name": "from",
          "type": "address"
        },
        {
          "internalType": "address",
          "name": "to",
          "type": "address"
        },
        {
          "internalType": "uint256",
          "name": "value",
          "type": "uint256"
        }
      ],
      "name": "transferFrom",
      "outputs": [
        {
          "internalType": "bool",
          "name": "",
          "type": "bool"
        }
      ],
      "stateMutability": "nonpayable",
      "type": "function"
    },
    {
      "inputs": [
        {
          "internalType": "address",
          "name": "newOwner",
          "type": "address"
        }
      ],
      "name": "transferOwnership",
      "outputs": [],
      "stateMutability": "nonpayable",
      "type": "function"
    },
    {
      "inputs": [
        {
          "internalType": "address",
          "name": "from",
          "type": "address"
        },
        {
          "internalType": "address",
          "name": "to",
          "type": "address"
        },
        {
          "internalType": "uint256",
          "name": "value",
          "type": "uint256"
        },
        {
          "internalType": "uint256",
          "name": "validAfter",
          "type": "uint256"
        },
        {
          "internalType": "uint256",
          "name": "validBefore",
          "type": "uint256"
        },
        {
          "internalType": "bytes32",
          "name": "nonce",
          "type": "bytes32"
        },
        {
          "internalType": "uint8",
          "name": "v",
          "type": "uint8"
        },
        {
          "internalType": "bytes32",
          "name": "r",
          "type": "bytes32"
        },
        {
          "internalType": "bytes32",
          "name": "s",
          "type": "bytes32"
        }
      ],
      "name": "transferWithAuthorization",
      "outputs": [],
      "stateMutability": "nonpayable",
      "type": "function"
    },
    {
      "inputs": [
        {
          "internalType": "address",
          "name": "_account",
          "type": "address"
        }
      ],
      "name": "unBlacklist",
      "outputs": [],
      "stateMutability": "nonpayable",
      "type": "function"
    },
    {
      "inputs": [],
      "name": "unpause",
      "outputs": [],
      "stateMutability": "nonpayable",
      "type": "function"
    },
    {
      "inputs": [
        {
          "internalType": "address",
          "name": "_newBlacklister",
          "type": "address"
        }
      ],
      "name": "updateBlacklister",
      "outputs": [],
      "stateMutability": "nonpayable",
      "type": "function"
    },
    {
      "inputs": [
        {
          "internalType": "address",
          "name": "_newMasterMinter",
          "type": "address"
        }
      ],
      "name": "updateMasterMinter",
      "outputs": [],
      "stateMutability": "nonpayable",
      "type": "function"
    },
    {
      "inputs": [
        {
          "internalType": "address",
          "name": "_newPauser",
          "type": "address"
        }
      ],
      "name": "updatePauser",
      "outputs": [],
      "stateMutability": "nonpayable",
      "type": "function"
    },
    {
      "inputs": [
        {
          "internalType": "address",
          "name": "newRescuer",
          "type": "address"
        }
      ],
      "name": "updateRescuer",
      "outputs": [],
      "stateMutability": "nonpayable",
      "type": "function"
    },
    {
      "inputs": [
        {
          "internalType": "address",
          "name": "lostAndFound",
          "type": "address"
        }
      ],
      "name": "initializeV2_1",
      "outputs": [],
      "stateMutability": "nonpayable",
      "type": "function"
    },
    {
      "inputs": [],
      "name": "version",
      "outputs": [
        {
          "internalType": "string",
          "name": "",
          "type": "string"
        }
      ],
      "stateMutability": "view",
      "type": "function"
    }
  ],
  "bytecode": "0x60806040526001805460ff60a01b191690556000600b5534801561002257600080fd5b50600080546001600160a01b03191633179055613850806100446000396000f3fe608060405234801561001057600080fd5b50600436106102d65760003560e01c80637f2eecc311610182578063b2118a8d116100e9578063e3ee160e116100a2578063ef55bec61161007c578063ef55bec61461074d578063f2fde38b14610760578063f9f92be414610773578063fe575a871461078657600080fd5b8063e3ee160e146106f9578063e5a6b10f1461070c578063e94a01021461071457600080fd5b8063b2118a8d1461064d578063bd10243014610660578063d505accf14610673578063d608ea6414610686578063d916948714610699578063dd62ed3e146106c057600080fd5b8063a0cc6a681161013b578063a0cc6a68146105ae578063a457c2d7146105d5578063a9059cbb146105e8578063aa20e1e4146105fb578063aa271e1a1461060e578063ad38bf221461063a57600080fd5b80637f2eecc31461052a5780638456cb59146105515780638a6db9c3146105595780638da5cb5b1461058257806395d89b41146105935780639fd0506d1461059b57600080fd5b80633644e515116102415780634e44d956116101fa5780635a049a70116101d45780635a049a70146104b15780635c975abb146104c457806370a08231146104d85780637ecebe001461050157600080fd5b80634e44d9561461046e57806354fd4d5014610481578063554bab3c1461049e57600080fd5b80633644e5151461041357806338a631831461041c578063395093511461042d5780633f4ba83a1461044057806340c10f191461044857806342966c681461045b57600080fd5b80632fc81e09116102935780632fc81e09146103695780633092afd51461037c57806330adf81f1461038f578063313ce567146103b65780633357162b146103d557806335d99f35146103e857600080fd5b806306fdde03146102db578063095ea7b3146102f957806318160ddd1461031c5780631a8952661461032e57806323b872dd146103435780632ab6004514610356575b600080fd5b6102e36107b2565b6040516102f09190612ea2565b60405180910390f35b61030c610307366004612ef5565b610840565b60405190151581526020016102f0565b600b545b6040519081526020016102f0565b61034161033c366004612f21565b6108f7565b005b61030c610351366004612f3e565b61096a565b610341610364366004612f21565b610b2c565b610341610377366004612f21565b610c09565b61030c61038a366004612f21565b610c69565b6103207f6e71edae12b1b97f4d1f60370fef10105fa2faae0126114a169c64845d6126c981565b6006546103c39060ff1681565b60405160ff90911681526020016102f0565b6103416103e3366004613033565b610cf2565b6008546103fb906001600160a01b031681565b6040516001600160a01b0390911681526020016102f0565b610320600f5481565b600e546001600160a01b03166103fb565b61030c61043b366004612ef5565b610f5b565b610341610ffe565b61030c610456366004612ef5565b611060565b61034161046936600461310f565b611356565b61030c61047c366004612ef5565b611553565b6040805180820190915260018152601960f91b60208201526102e3565b6103416104ac366004612f21565b611615565b6103416104bf366004613128565b6116f0565b60015461030c90600160a01b900460ff1681565b6103206104e6366004612f21565b6001600160a01b031660009081526009602052604090205490565b61032061050f366004612f21565b6001600160a01b031660009081526011602052604090205490565b6103207fd099cc98ef71107a616c4f0f941f04c322d8e254fe26b3c6668db87aae413de881565b61034161172e565b610320610567366004612f21565b6001600160a01b03166000908152600d602052604090205490565b6000546001600160a01b03166103fb565b6102e3611796565b6001546103fb906001600160a01b031681565b6103207f7c7c6cdb67a18743f49ec6fa9b35f50d52ed05cbed4cc592e13b44501c1a226781565b61030c6105e3366004612ef5565b6117a3565b61030c6105f6366004612ef5565b611846565b610341610609366004612f21565b6118e9565b61030c61061c366004612f21565b6001600160a01b03166000908152600c602052604090205460ff1690565b610341610648366004612f21565b611983565b61034161065b366004612f3e565b611a68565b6002546103fb906001600160a01b031681565b610341610681366004613178565b611ae7565b6103416106943660046131e6565b611ba1565b6103207f158b0a9edf7a828aad02f63cd515c68ef2f50ba807396f6d12842833a159742981565b6103206106ce366004613258565b6001600160a01b039182166000908152600a6020908152604080832093909416825291909152205490565b610341610707366004613291565b611c40565b6102e3611cfe565b61030c610722366004612ef5565b6001600160a01b03919091166000908152601060209081526040808320938352929052205460ff1690565b61034161075b366004613291565b611d0b565b61034161076e366004612f21565b611dbc565b610341610781366004612f21565b611e9e565b61030c610794366004612f21565b6001600160a01b031660009081526003602052604090205460ff1690565b600480546107bf90613313565b80601f01602080910402602001604051908101604052809291908181526020018280546107eb90613313565b80156108385780601f1061080d57610100808354040283529160200191610838565b820191906000526020600020905b81548152906001019060200180831161081b57829003601f168201915b505050505081565b600154600090600160a01b900460ff16156108765760405162461bcd60e51b815260040161086d9061334d565b60405180910390fd5b3360008181526003602052604090205460ff16156108a65760405162461bcd60e51b815260040161086d90613377565b6001600160a01b038416600090815260036020526040902054849060ff16156108e15760405162461bcd60e51b815260040161086d90613377565b6108ec338686611f14565b506001949350505050565b6002546001600160a01b031633146109215760405162461bcd60e51b815260040161086d906133bc565b6001600160a01b038116600081815260036020526040808220805460ff19169055517f117e3210bb9aa7d9baff172026820255c6f6c30ba8999d1c2fd88e2848137c4e9190a250565b600154600090600160a01b900460ff16156109975760405162461bcd60e51b815260040161086d9061334d565b3360008181526003602052604090205460ff16156109c75760405162461bcd60e51b815260040161086d90613377565b6001600160a01b038516600090815260036020526040902054859060ff1615610a025760405162461bcd60e51b815260040161086d90613377565b6001600160a01b038516600090815260036020526040902054859060ff1615610a3d5760405162461bcd60e51b815260040161086d90613377565b6001600160a01b0387166000908152600a60209081526040808320338452909152902054851115610ac15760405162461bcd60e51b815260206004820152602860248201527f45524332303a207472616e7366657220616d6f756e74206578636565647320616044820152676c6c6f77616e636560c01b606482015260840161086d565b610acc878787612030565b6001600160a01b0387166000908152600a60209081526040808320338452909152902054610afa9086612213565b6001600160a01b0388166000908152600a60209081526040808320338452909152902055600193505050509392505050565b6000546001600160a01b03163314610b565760405162461bcd60e51b815260040161086d90613408565b6001600160a01b038116610bbf5760405162461bcd60e51b815260206004820152602a60248201527f526573637561626c653a206e6577207265736375657220697320746865207a65604482015269726f206164647265737360b01b606482015260840161086d565b600e80546001600160a01b0319166001600160a01b0383169081179091556040517fe475e580d85111348e40d8ca33cfdd74c30fe1655c2d8537a13abc10065ffa5a90600090a250565b60125460ff16600114610c1b57600080fd5b306000908152600960205260409020548015610c3c57610c3c308383612030565b5050306000908152600360205260409020805460ff19908116600117909155601280549091166002179055565b6008546000906001600160a01b03163314610c965760405162461bcd60e51b815260040161086d9061343d565b6001600160a01b0382166000818152600c60209081526040808320805460ff19169055600d909152808220829055517fe94479a9f7e1952cc78f2d6baab678adc1b772d936c6583def489e524cb666929190a25060015b919050565b600854600160a01b900460ff1615610d5f5760405162461bcd60e51b815260206004820152602a60248201527f46696174546f6b656e3a20636f6e747261637420697320616c726561647920696044820152691b9a5d1a585b1a5e995960b21b606482015260840161086d565b6001600160a01b038416610d855760405162461bcd60e51b815260040161086d90613486565b6001600160a01b038316610ded5760405162461bcd60e51b815260206004820152602960248201527f46696174546f6b656e3a206e65772070617573657220697320746865207a65726044820152686f206164647265737360b81b606482015260840161086d565b6001600160a01b038216610e5a5760405162461bcd60e51b815260206004820152602e60248201527f46696174546f6b656e3a206e657720626c61636b6c697374657220697320746860448201526d65207a65726f206164647265737360901b606482015260840161086d565b6001600160a01b038116610ec15760405162461bcd60e51b815260206004820152602860248201527f46696174546f6b656e3a206e6577206f776e657220697320746865207a65726f604482015267206164647265737360c01b606482015260840161086d565b6004610ecd8982613523565b506005610eda8882613523565b506007610ee78782613523565b506006805460ff191660ff8716179055600880546001600160a01b03199081166001600160a01b038781169190911790925560018054821686841617905560028054909116918416919091179055610f3e8161225c565b50506008805460ff60a01b1916600160a01b179055505050505050565b600154600090600160a01b900460ff1615610f885760405162461bcd60e51b815260040161086d9061334d565b3360008181526003602052604090205460ff1615610fb85760405162461bcd60e51b815260040161086d90613377565b6001600160a01b038416600090815260036020526040902054849060ff1615610ff35760405162461bcd60e51b815260040161086d90613377565b6108ec33868661227e565b6001546001600160a01b031633146110285760405162461bcd60e51b815260040161086d906135e3565b6001805460ff60a01b191690556040517f7805862f689e2f13df9f062ff482ad3ad112aca9e0847911ed832e158c525b3390600090a1565b600154600090600160a01b900460ff161561108d5760405162461bcd60e51b815260040161086d9061334d565b336000908152600c602052604090205460ff166110bc5760405162461bcd60e51b815260040161086d90613625565b3360008181526003602052604090205460ff16156110ec5760405162461bcd60e51b815260040161086d90613377565b6001600160a01b038416600090815260036020526040902054849060ff16156111275760405162461bcd60e51b815260040161086d90613377565b6001600160a01b0385166111895760405162461bcd60e51b815260206004820152602360248201527f46696174546f6b656e3a206d696e7420746f20746865207a65726f206164647260448201526265737360e81b606482015260840161086d565b600084116111eb5760405162461bcd60e51b815260206004820152602960248201527f46696174546f6b656e3a206d696e7420616d6f756e74206e6f7420677265617460448201526806572207468616e20360bc1b606482015260840161086d565b336000908152600d6020526040902054808511156112625760405162461bcd60e51b815260206004820152602e60248201527f46696174546f6b656e3a206d696e7420616d6f756e742065786365656473206d60448201526d696e746572416c6c6f77616e636560901b606482015260840161086d565b600b5461126f90866122bb565b600b556001600160a01b03861660009081526009602052604090205461129590866122bb565b6001600160a01b0387166000908152600960205260409020556112b88186612213565b336000818152600d602090815260409182902093909355518781526001600160a01b038916927fab8530f87dc9b59234c4623bf917212bb2536d647574c8e7e5da92c2ede0c9f8910160405180910390a36040518581526001600160a01b038716906000907fddf252ad1be2c89b69c2b068fc378daa952ba7f163c4a11628f55a4df523b3ef9060200160405180910390a350600195945050505050565b600154600160a01b900460ff16156113805760405162461bcd60e51b815260040161086d9061334d565b336000908152600c602052604090205460ff166113af5760405162461bcd60e51b815260040161086d90613625565b3360008181526003602052604090205460ff16156113df5760405162461bcd60e51b815260040161086d90613377565b336000908152600960205260409020548261144e5760405162461bcd60e51b815260206004820152602960248201527f46696174546f6b656e3a206275726e20616d6f756e74206e6f7420677265617460448201526806572207468616e20360bc1b606482015260840161086d565b828110156114ad5760405162461bcd60e51b815260206004820152602660248201527f46696174546f6b656e3a206275726e20616d6f756e7420657863656564732062604482015265616c616e636560d01b606482015260840161086d565b600b546114ba9084612213565b600b556114c78184612213565b33600081815260096020526040908190209290925590517fcc16f5dbb4873280815c1ee09dbd06736cffcc184412cf7a71a0fdb75d397ca59061150d9086815260200190565b60405180910390a260405183815260009033907fddf252ad1be2c89b69c2b068fc378daa952ba7f163c4a11628f55a4df523b3ef906020015b60405180910390a3505050565b600154600090600160a01b900460ff16156115805760405162461bcd60e51b815260040161086d9061334d565b6008546001600160a01b031633146115aa5760405162461bcd60e51b815260040161086d9061343d565b6001600160a01b0383166000818152600c60209081526040808320805460ff19166001179055600d82529182902085905590518481527f46980fca912ef9bcdbd36877427b6b90e860769f604e89c0e67720cece530d20910160405180910390a25060015b92915050565b6000546001600160a01b0316331461163f5760405162461bcd60e51b815260040161086d90613408565b6001600160a01b0381166116a65760405162461bcd60e51b815260206004820152602860248201527f5061757361626c653a206e65772070617573657220697320746865207a65726f604482015267206164647265737360c01b606482015260840161086d565b600180546001600160a01b0319166001600160a01b0383169081179091556040517fb80482a293ca2e013eda8683c9bd7fc8347cfdaeea5ede58cba46df502c2a60490600090a250565b600154600160a01b900460ff161561171a5760405162461bcd60e51b815260040161086d9061334d565b611727858585858561231a565b5050505050565b6001546001600160a01b031633146117585760405162461bcd60e51b815260040161086d906135e3565b6001805460ff60a01b1916600160a01b1790556040517f6985a02210a168e66602d3235cb6db0e70f92b3ba4d376a33c0f3d9434bff62590600090a1565b600580546107bf90613313565b600154600090600160a01b900460ff16156117d05760405162461bcd60e51b815260040161086d9061334d565b3360008181526003602052604090205460ff16156118005760405162461bcd60e51b815260040161086d90613377565b6001600160a01b038416600090815260036020526040902054849060ff161561183b5760405162461bcd60e51b815260040161086d90613377565b6108ec33868661244a565b600154600090600160a01b900460ff16156118735760405162461bcd60e51b815260040161086d9061334d565b3360008181526003602052604090205460ff16156118a35760405162461bcd60e51b815260040161086d90613377565b6001600160a01b038416600090815260036020526040902054849060ff16156118de5760405162461bcd60e51b815260040161086d90613377565b6108ec338686612030565b6000546001600160a01b031633146119135760405162461bcd60e51b815260040161086d90613408565b6001600160a01b0381166119395760405162461bcd60e51b815260040161086d90613486565b600880546001600160a01b0319166001600160a01b0383169081179091556040517fdb66dfa9c6b8f5226fe9aac7e51897ae8ee94ac31dc70bb6c9900b2574b707e690600090a250565b6000546001600160a01b031633146119ad5760405162461bcd60e51b815260040161086d90613408565b6001600160a01b038116611a1e5760405162461bcd60e51b815260206004820152603260248201527f426c61636b6c69737461626c653a206e657720626c61636b6c697374657220696044820152717320746865207a65726f206164647265737360701b606482015260840161086d565b600280546001600160a01b0319166001600160a01b0383169081179091556040517fc67398012c111ce95ecb7429b933096c977380ee6c421175a71a4a4c6c88c06e90600090a250565b600e546001600160a01b03163314611ace5760405162461bcd60e51b8152602060048201526024808201527f526573637561626c653a2063616c6c6572206973206e6f74207468652072657360448201526331bab2b960e11b606482015260840161086d565b611ae26001600160a01b0384168383612499565b505050565b600154600160a01b900460ff1615611b115760405162461bcd60e51b815260040161086d9061334d565b6001600160a01b038716600090815260036020526040902054879060ff1615611b4c5760405162461bcd60e51b815260040161086d90613377565b6001600160a01b038716600090815260036020526040902054879060ff1615611b875760405162461bcd60e51b815260040161086d90613377565b611b96898989898989896124eb565b505050505050505050565b600854600160a01b900460ff168015611bbd575060125460ff16155b611bc657600080fd5b6004611bd3828483613666565b50611c2c82828080601f016020809104026020016040519081016040528093929190818152602001838380828437600092019190915250506040805180820190915260018152601960f91b602082015291506126599050565b600f5550506012805460ff19166001179055565b600154600160a01b900460ff1615611c6a5760405162461bcd60e51b815260040161086d9061334d565b6001600160a01b038916600090815260036020526040902054899060ff1615611ca55760405162461bcd60e51b815260040161086d90613377565b6001600160a01b038916600090815260036020526040902054899060ff1615611ce05760405162461bcd60e51b815260040161086d90613377565b611cf18b8b8b8b8b8b8b8b8b6126cb565b5050505050505050505050565b600780546107bf90613313565b600154600160a01b900460ff1615611d355760405162461bcd60e51b815260040161086d9061334d565b6001600160a01b038916600090815260036020526040902054899060ff1615611d705760405162461bcd60e51b815260040161086d90613377565b6001600160a01b038916600090815260036020526040902054899060ff1615611dab5760405162461bcd60e51b815260040161086d90613377565b611cf18b8b8b8b8b8b8b8b8b6127b8565b6000546001600160a01b03163314611de65760405162461bcd60e51b815260040161086d90613408565b6001600160a01b038116611e4b5760405162461bcd60e51b815260206004820152602660248201527f4f776e61626c653a206e6577206f776e657220697320746865207a65726f206160448201526564647265737360d01b606482015260840161086d565b600054604080516001600160a01b03928316815291831660208301527f8be0079c531659141344cd1fd0a4f28419497f9722a3daafe3b4186f6b6457e0910160405180910390a1611e9b8161225c565b50565b6002546001600160a01b03163314611ec85760405162461bcd60e51b815260040161086d906133bc565b6001600160a01b038116600081815260036020526040808220805460ff19166001179055517fffa4e6181777692565cf28528fc88fd1516ea86b56da075235fa575af6a4b8559190a250565b6001600160a01b038316611f765760405162461bcd60e51b8152602060048201526024808201527f45524332303a20617070726f76652066726f6d20746865207a65726f206164646044820152637265737360e01b606482015260840161086d565b6001600160a01b038216611fd75760405162461bcd60e51b815260206004820152602260248201527f45524332303a20617070726f766520746f20746865207a65726f206164647265604482015261737360f01b606482015260840161086d565b6001600160a01b038381166000818152600a602090815260408083209487168084529482529182902085905590518481527f8c5be1e5ebec7d5bd14f71427d1e84f3dd0314c0f7b2291e5b200ac8c7c3b9259101611546565b6001600160a01b0383166120945760405162461bcd60e51b815260206004820152602560248201527f45524332303a207472616e736665722066726f6d20746865207a65726f206164604482015264647265737360d81b606482015260840161086d565b6001600160a01b0382166120f65760405162461bcd60e51b815260206004820152602360248201527f45524332303a207472616e7366657220746f20746865207a65726f206164647260448201526265737360e81b606482015260840161086d565b6001600160a01b03831660009081526009602052604090205481111561216d5760405162461bcd60e51b815260206004820152602660248201527f45524332303a207472616e7366657220616d6f756e7420657863656564732062604482015265616c616e636560d01b606482015260840161086d565b6001600160a01b0383166000908152600960205260409020546121909082612213565b6001600160a01b0380851660009081526009602052604080822093909355908416815220546121bf90826122bb565b6001600160a01b0380841660008181526009602052604090819020939093559151908516907fddf252ad1be2c89b69c2b068fc378daa952ba7f163c4a11628f55a4df523b3ef906115469085815260200190565b600061225583836040518060400160405280601e81526020017f536166654d6174683a207375627472616374696f6e206f766572666c6f77000081525061286a565b9392505050565b600080546001600160a01b0319166001600160a01b0392909216919091179055565b6001600160a01b038084166000908152600a6020908152604080832093861683529290522054611ae290849084906122b690856122bb565b611f14565b6000806122c8838561373c565b9050838110156122555760405162461bcd60e51b815260206004820152601b60248201527f536166654d6174683a206164646974696f6e206f766572666c6f770000000000604482015260640161086d565b61232485856128a4565b604080517f158b0a9edf7a828aad02f63cd515c68ef2f50ba807396f6d12842833a159742960208201526001600160a01b03871691810191909152606081018590526000906080016040516020818303038152906040529050856001600160a01b0316612396600f5486868686612933565b6001600160a01b0316146123ec5760405162461bcd60e51b815260206004820152601e60248201527f46696174546f6b656e56323a20696e76616c6964207369676e61747572650000604482015260640161086d565b6001600160a01b0386166000818152601060209081526040808320898452909152808220805460ff19166001179055518792917f1cdd46ff242716cdaa72d159d339a485b3438398348d68f09d7c8c0a59353d8191a3505050505050565b611ae283836122b6846040518060600160405280602581526020016137f6602591396001600160a01b03808a166000908152600a60209081526040808320938c1683529290522054919061286a565b604080516001600160a01b038416602482015260448082018490528251808303909101815260649091019091526020810180516001600160e01b031663a9059cbb60e01b179052611ae2908490612995565b4284101561253b5760405162461bcd60e51b815260206004820152601e60248201527f46696174546f6b656e56323a207065726d697420697320657870697265640000604482015260640161086d565b6001600160a01b038716600090815260116020526040812080547f6e71edae12b1b97f4d1f60370fef10105fa2faae0126114a169c64845d6126c9918a918a918a9190866125888361374f565b909155506040805160208101969096526001600160a01b0394851690860152929091166060840152608083015260a082015260c0810186905260e0016040516020818303038152906040529050876001600160a01b03166125ee600f5486868686612933565b6001600160a01b0316146126445760405162461bcd60e51b815260206004820152601a60248201527f454950323631323a20696e76616c6964207369676e6174757265000000000000604482015260640161086d565b61264f888888611f14565b5050505050505050565b8151602092830120815191830191909120604080517f8b73c3c69bb8fe3d512ecc4cf759cc79239f7b179b0ffacaa9a75d522b39400f818601528082019390935260608301919091524660808301523060a0808401919091528151808403909101815260c09092019052805191012090565b6126d789858888612a67565b604051600090612717907f7c7c6cdb67a18743f49ec6fa9b35f50d52ed05cbed4cc592e13b44501c1a2267908c908c908c908c908c908c90602001613768565b6040516020818303038152906040529050896001600160a01b0316612741600f5486868686612933565b6001600160a01b0316146127975760405162461bcd60e51b815260206004820152601e60248201527f46696174546f6b656e56323a20696e76616c6964207369676e61747572650000604482015260640161086d565b6127a18a86612b37565b6127ac8a8a8a612030565b50505050505050505050565b6001600160a01b038816331461281e5760405162461bcd60e51b815260206004820152602560248201527f46696174546f6b656e56323a2063616c6c6572206d7573742062652074686520604482015264706179656560d81b606482015260840161086d565b61282a89858888612a67565b604051600090612717907fd099cc98ef71107a616c4f0f941f04c322d8e254fe26b3c6668db87aae413de8908c908c908c908c908c908c90602001613768565b6000818484111561288e5760405162461bcd60e51b815260040161086d9190612ea2565b50600061289b84866137a4565b95945050505050565b6001600160a01b038216600090815260106020908152604080832084845290915290205460ff161561292f5760405162461bcd60e51b815260206004820152602e60248201527f46696174546f6b656e56323a20617574686f72697a6174696f6e20697320757360448201526d1959081bdc8818d85b98d95b195960921b606482015260840161086d565b5050565b60008086838051906020012060405160200161296692919061190160f01b81526002810192909252602282015260420190565b60405160208183030381529060405280519060200120905061298a81878787612b91565b979650505050505050565b60006129ea826040518060400160405280602081526020017f5361666545524332303a206c6f772d6c6576656c2063616c6c206661696c6564815250856001600160a01b0316612d489092919063ffffffff16565b805190915015611ae25780806020019051810190612a0891906137b7565b611ae25760405162461bcd60e51b815260206004820152602a60248201527f5361666545524332303a204552433230206f7065726174696f6e20646964206e6044820152691bdd081cdd58d8d9595960b21b606482015260840161086d565b814211612aca5760405162461bcd60e51b815260206004820152602b60248201527f46696174546f6b656e56323a20617574686f72697a6174696f6e206973206e6f60448201526a1d081e595d081d985b1a5960aa1b606482015260840161086d565b804210612b275760405162461bcd60e51b815260206004820152602560248201527f46696174546f6b656e56323a20617574686f72697a6174696f6e2069732065786044820152641c1a5c995960da1b606482015260840161086d565b612b3184846128a4565b50505050565b6001600160a01b0382166000818152601060209081526040808320858452909152808220805460ff19166001179055518392917f98de503528ee59b575ef0c0a2576a82497bfc029a5685b209e9ec333479b10a591a35050565b60007f7fffffffffffffffffffffffffffffff5d576e7357a4501ddfe92f46681b20a0821115612c125760405162461bcd60e51b815260206004820152602660248201527f45435265636f7665723a20696e76616c6964207369676e6174757265202773276044820152652076616c756560d01b606482015260840161086d565b8360ff16601b14158015612c2a57508360ff16601c14155b15612c865760405162461bcd60e51b815260206004820152602660248201527f45435265636f7665723a20696e76616c6964207369676e6174757265202776276044820152652076616c756560d01b606482015260840161086d565b6040805160008082526020820180845288905260ff871692820192909252606081018590526080810184905260019060a0016020604051602081039080840390855afa158015612cda573d6000803e3d6000fd5b5050604051601f1901519150506001600160a01b038116612d3d5760405162461bcd60e51b815260206004820152601c60248201527f45435265636f7665723a20696e76616c6964207369676e617475726500000000604482015260640161086d565b90505b949350505050565b6060612d4084846000856060612d5d85612e45565b612da95760405162461bcd60e51b815260206004820152601d60248201527f416464726573733a2063616c6c20746f206e6f6e2d636f6e7472616374000000604482015260640161086d565b600080866001600160a01b03168587604051612dc591906137d9565b60006040518083038185875af1925050503d8060008114612e02576040519150601f19603f3d011682016040523d82523d6000602084013e612e07565b606091505b50915091508115612e1b579150612d409050565b805115612e2b5780518082602001fd5b8360405162461bcd60e51b815260040161086d9190612ea2565b6000813f7fc5d2460186f7233c927e7db2dcc703c0e500b653ca82273b7bfad8045d85a470818114801590612d40575050151592915050565b60005b83811015612e99578181015183820152602001612e81565b50506000910152565b6020815260008251806020840152612ec1816040850160208701612e7e565b601f01601f19169190910160400192915050565b6001600160a01b0381168114611e9b57600080fd5b8035610ced81612ed5565b60008060408385031215612f0857600080fd5b8235612f1381612ed5565b946020939093013593505050565b600060208284031215612f3357600080fd5b813561225581612ed5565b600080600060608486031215612f5357600080fd5b8335612f5e81612ed5565b92506020840135612f6e81612ed5565b929592945050506040919091013590565b634e487b7160e01b600052604160045260246000fd5b600082601f830112612fa657600080fd5b813567ffffffffffffffff80821115612fc157612fc1612f7f565b604051601f8301601f19908116603f01168101908282118183101715612fe957612fe9612f7f565b8160405283815286602085880101111561300257600080fd5b836020870160208301376000602085830101528094505050505092915050565b803560ff81168114610ced57600080fd5b600080600080600080600080610100898b03121561305057600080fd5b883567ffffffffffffffff8082111561306857600080fd5b6130748c838d01612f95565b995060208b013591508082111561308a57600080fd5b6130968c838d01612f95565b985060408b01359150808211156130ac57600080fd5b506130b98b828c01612f95565b9650506130c860608a01613022565b94506130d660808a01612eea565b93506130e460a08a01612eea565b92506130f260c08a01612eea565b915061310060e08a01612eea565b90509295985092959890939650565b60006020828403121561312157600080fd5b5035919050565b600080600080600060a0868803121561314057600080fd5b853561314b81612ed5565b94506020860135935061316060408701613022565b94979396509394606081013594506080013592915050565b600080600080600080600060e0888a03121561319357600080fd5b873561319e81612ed5565b965060208801356131ae81612ed5565b955060408801359450606088013593506131ca60808901613022565b925060a0880135915060c0880135905092959891949750929550565b600080602083850312156131f957600080fd5b823567ffffffffffffffff8082111561321157600080fd5b818501915085601f83011261322557600080fd5b81358181111561323457600080fd5b86602082850101111561324657600080fd5b60209290920196919550909350505050565b6000806040838503121561326b57600080fd5b823561327681612ed5565b9150602083013561328681612ed5565b809150509250929050565b60008060008060008060008060006101208a8c0312156132b057600080fd5b89356132bb81612ed5565b985060208a01356132cb81612ed5565b975060408a0135965060608a0135955060808a0135945060a08a013593506132f560c08b01613022565b925060e08a013591506101008a013590509295985092959850929598565b600181811c9082168061332757607f821691505b60208210810361334757634e487b7160e01b600052602260045260246000fd5b50919050565b60208082526010908201526f14185d5cd8589b194e881c185d5cd95960821b604082015260600190565b60208082526025908201527f426c61636b6c69737461626c653a206163636f756e7420697320626c61636b6c6040820152641a5cdd195960da1b606082015260800190565b6020808252602c908201527f426c61636b6c69737461626c653a2063616c6c6572206973206e6f742074686560408201526b10313630b1b5b634b9ba32b960a11b606082015260800190565b6020808252818101527f4f776e61626c653a2063616c6c6572206973206e6f7420746865206f776e6572604082015260600190565b60208082526029908201527f46696174546f6b656e3a2063616c6c6572206973206e6f7420746865206d61736040820152683a32b926b4b73a32b960b91b606082015260800190565b6020808252602f908201527f46696174546f6b656e3a206e6577206d61737465724d696e746572206973207460408201526e6865207a65726f206164647265737360881b606082015260800190565b601f821115611ae257600081815260208120601f850160051c810160208610156134fc5750805b601f850160051c820191505b8181101561351b57828155600101613508565b505050505050565b815167ffffffffffffffff81111561353d5761353d612f7f565b6135518161354b8454613313565b846134d5565b602080601f831160018114613586576000841561356e5750858301515b600019600386901b1c1916600185901b17855561351b565b600085815260208120601f198616915b828110156135b557888601518255948401946001909101908401613596565b50858210156135d35787850151600019600388901b60f8161c191681555b5050505050600190811b01905550565b60208082526022908201527f5061757361626c653a2063616c6c6572206973206e6f7420746865207061757360408201526132b960f11b606082015260800190565b60208082526021908201527f46696174546f6b656e3a2063616c6c6572206973206e6f742061206d696e74656040820152603960f91b606082015260800190565b67ffffffffffffffff83111561367e5761367e612f7f565b6136928361368c8354613313565b836134d5565b6000601f8411600181146136c657600085156136ae5750838201355b600019600387901b1c1916600186901b178355611727565b600083815260209020601f19861690835b828110156136f757868501358255602094850194600190920191016136d7565b50868210156137145760001960f88860031b161c19848701351681555b505060018560011b0183555050505050565b634e487b7160e01b600052601160045260246000fd5b8082018082111561160f5761160f613726565b60006001820161376157613761613726565b5060010190565b9687526001600160a01b0395861660208801529390941660408601526060850191909152608084015260a083019190915260c082015260e00190565b8181038181111561160f5761160f613726565b6000602082840312156137c957600080fd5b8151801515811461225557600080fd5b600082516137eb818460208701612e7e565b919091019291505056fe45524332303a2064656372656173656420616c6c6f77616e63652062656c6f77207a65726fa26469706673582212201206d7a65730c60b67cb248dc554f85b007ebf134930b895de41079b99f9bb4364736f6c63430008130033",
  "immutableReferences": {},
  "source": "/**\r\n *Submitted for verification at Etherscan.io on 2021-09-20\r\n*/\r\n\r\n// File: @openzeppelin/contracts/math/SafeMath.sol\r\n\r\n// SPDX-License-Identifier: MIT\r\n\r\npragma solidity ^0.8.19;\r\n\r\n/**\r\n * @dev Wrappers over Solidity's arithmetic operations with added overflow\r\n * checks.\r\n *\r\n * Arithmetic operations in Solidity wrap on overflow. This can easily result\r\n * in bugs, because programmers usually assume that an overflow raises an\r\n * error, which is the standard behavior in high level programming languages.\r\n * `SafeMath` restores this intuition by reverting the transaction when an\r\n * operation overflows.\r\n *\r\n * Using this library instead of the unchecked operations eliminates an entire\r\n * class of bugs, so it's recommended to use it always.\r\n */\r\nlibrary SafeMath {\r\n    /**\r\n     * @dev Returns the addition of two unsigned integers, reverting on\r\n     * overflow.\r\n     *\r\n     * Counterpart to Solidity's `+` operator.\r\n     *\r\n     * Requirements:\r\n     *\r\n     * - Addition cannot overflow.\r\n     */\r\n    function add(uint256 a, uint256 b) internal pure returns (uint256) {\r\n        uint256 c = a + b;\r\n        require(c >= a, \"SafeMath: addition overflow\");\r\n\r\n        return c;\r\n    }\r\n\r\n    /**\r\n     * @dev Returns the subtraction of two unsigned integers, reverting on\r\n     * overflow (when the result is negative).\r\n     *\r\n     * Counterpart to Solidity's `-` operator.\r\n     *\r\n     * Requirements:\r\n     *\r\n     * - Subtraction cannot overflow.\r\n     */\r\n    function sub(uint256 a, uint256 b) internal pure returns (uint256) {\r\n        return sub(a, b, \"SafeMath: subtraction overflow\");\r\n    }\r\n\r\n    /**\r\n     * @dev Returns the subtraction of two unsigned integers, reverting with custom message on\r\n     * overflow (when the result is negative).\r\n     *\r\n     * Counterpart to Solidity's `-` operator.\r\n     *\r\n     * Requirements:\r\n     *\r\n     * - Subtraction cannot overflow.\r\n     */\r\n    function sub(uint256 a, uint256 b, string memory errorMessage) internal pure returns (uint256) {\r\n        require(b <= a, errorMessage);\r\n        uint256 c = a - b;\r\n\r\n        return c;\r\n    }\r\n\r\n    /**\r\n     * @dev Returns the multiplication of two unsigned integers, reverting on\r\n     * overflow.\r\n     *\r\n     * Counterpart to Solidity's `*` operator.\r\n     *\r\n     * Requirements:\r\n     *\r\n     * - Multiplication cannot overflow.\r\n     */\r\n    function mul(uint256 a, uint256 b) internal pure returns (uint256) {\r\n        // Gas optimization: this is cheaper than requiring 'a' not being zero, but the\r\n        // benefit is lost if 'b' is also tested.\r\n        // See: https://github.com/OpenZeppelin/openzeppelin-contracts/pull/522\r\n        if (a == 0) {\r\n            return 0;\r\n        }\r\n\r\n        uint256 c = a * b;\r\n        require(c / a == b, \"SafeMath: multiplication overflow\");\r\n\r\n        return c;\r\n    }\r\n\r\n    /**\r\n     * @dev Returns the integer division of two unsigned integers. Reverts on\r\n     * division by zero. The result is rounded towards zero.\r\n     *\r\n     * Counterpart to Solidity's `/` operator. Note: this function uses a\r\n     * `revert` opcode (which leaves remaining gas untouched) while Solidity\r\n     * uses an invalid opcode to revert (consuming all remaining gas).\r\n     *\r\n     * Requirements:\r\n     *\r\n     * - The divisor cannot be zero.\r\n     */\r\n    function div(uint256 a, uint256 b) internal pure returns (uint256) {\r\n        return div(a, b, \"SafeMath: division by zero\");\r\n    }\r\n\r\n    /**\r\n     * @dev Returns the integer division of two unsigned integers. Reverts with custom message on\r\n     * division by zero. The result is rounded towards zero.\r\n     *\r\n     * Counterpart to Solidity's `/` operator. Note: this function uses a\r\n     * `revert` opcode (which leaves remaining gas untouched) while Solidity\r\n     * uses an invalid opcode to revert (consuming all remaining gas).\r\n     *\r\n     * Requirements:\r\n     *\r\n     * - The divisor cannot be zero.\r\n     */\r\n    function div(uint256 a, uint256 b, string memory errorMessage) internal pure returns (uint256) {\r\n        require(b > 0, errorMessage);\r\n        uint256 c = a / b;\r\n        // assert(a == b * c + a % b); // There is no case in which this doesn't hold\r\n\r\n        return c;\r\n    }\r\n\r\n    /**\r\n     * @dev Returns the remainder of dividing two unsigned integers. (unsigned integer modulo),\r\n     * Reverts when dividing by zero.\r\n     *\r\n     * Counterpart to Solidity's `%` operator. This function uses a `revert`\r\n     * opcode (which leaves remaining gas untouched) while Solidity uses an\r\n     * invalid opcode to revert (consuming all remaining gas).\r\n     *\r\n     * Requirements:\r\n     *\r\n     * - The divisor cannot be zero.\r\n     */\r\n    function mod(uint256 a, uint256 b) internal pure returns (uint256) {\r\n        return mod(a, b, \"SafeMath: modulo by zero\");\r\n    }\r\n\r\n    /**\r\n     * @dev Returns the remainder of dividing two unsigned integers. (unsigned integer modulo),\r\n     * Reverts with custom message when dividing by zero.\r\n     *\r\n     * Counterpart to Solidity's `%` operator. This function uses a `revert`\r\n     * opcode (which leaves remaining gas untouched) while Solidity uses an\r\n     * invalid opcode to revert (consuming all remaining gas).\r\n     *\r\n     * Requirements:\r\n     *\r\n     * - The divisor cannot be zero.\r\n     */\r\n    function mod(uint256 a, uint256 b, string memory errorMessage) internal pure returns (uint256) {\r\n        require(b != 0, errorMessage);\r\n        return a % b;\r\n    }\r\n}\r\n\r\n// File: @openzeppelin/contracts/token/ERC20/IERC20.sol\r\n\r\npragma solidity ^0.8.19;\r\n\r\n/**\r\n * @dev Interface of the ERC20 standard as defined in the EIP.\r\n */\r\ninterface IERC20 {\r\n    /**\r\n     * @dev Returns the amount of tokens in existence.\r\n     */\r\n    function totalSupply() external view returns (uint256);\r\n\r\n    /**\r\n     * @dev Returns the amount of tokens owned by `account`.\r\n     */\r\n    function balanceOf(address account) external view returns (uint256);\r\n\r\n    /**\r\n     * @dev Moves `amount` tokens from the caller's account to `recipient`.\r\n     *\r\n     * Returns a boolean value indicating whether the operation succeeded.\r\n     *\r\n     * Emits a {Transfer} event.\r\n     */\r\n    function transfer(address recipient, uint256 amount) external returns (bool);\r\n\r\n    /**\r\n     * @dev Returns the remaining number of tokens that `spender` will be\r\n     * allowed to spend on behalf of `owner` through {transferFrom}. This is\r\n     * zero by default.\r\n     *\r\n     * This value changes when {approve} or {transferFrom} are called.\r\n     */\r\n    function allowance(address owner, address spender) external view returns (uint256);\r\n\r\n    /**\r\n     * @dev Sets `amount` as the allowance of `spender` over the caller's tokens.\r\n     *\r\n     * Returns a boolean value indicating whether the operation succeeded.\r\n     *\r\n     * IMPORTANT: Beware that changing an allowance with this method brings the risk\r\n     * that someone may use both the old and the new allowance by unfortunate\r\n     * transaction ordering. One possible solution to mitigate this race\r\n     * condition is to first reduce the spender's allowance to 0 and set the\r\n     * desired value afterwards:\r\n     * https://github.com/ethereum/EIPs/issues/20#issuecomment-263524729\r\n     *\r\n     * Emits an {Approval} event.\r\n     */\r\n    function approve(address spender, uint256 amount) external returns (bool);\r\n\r\n    /**\r\n     * @dev Moves `amount` tokens from `sender` to `recipient` using the\r\n     * allowance mechanism. `amount` is then deducted from the caller's\r\n     * allowance.\r\n     *\r\n     * Returns a boolean value indicating whether the operation succeeded.\r\n     *\r\n     * Emits a {Transfer} event.\r\n     */\r\n    function transferFrom(address sender, address recipient, uint256 amount) external returns (bool);\r\n\r\n    /**\r\n     * @dev Emitted when `value` tokens are moved from one account (`from`) to\r\n     * another (`to`).\r\n     *\r\n     * Note that `value` may be zero.\r\n     */\r\n    event Transfer(address indexed from, address indexed to, uint256 value);\r\n\r\n    /**\r\n     * @dev Emitted when the allowance of a `spender` for an `owner` is set by\r\n     * a call to {approve}. `value` is the new allowance.\r\n     */\r\n    event Approval(address indexed owner, address indexed spender, uint256 value);\r\n}\r\n\r\n// File: contracts/v1/AbstractFiatTokenV1.sol\r\n\r\npragma solidity 0.8.19;\r\n\r\n\r\nabstract contract AbstractFiatTokenV1 is IERC20 {\r\n    function _approve(\r\n        address owner,\r\n        address spender,\r\n        uint256 value\r\n    ) internal virtual;\r\n\r\n    function _transfer(\r\n        address from,\r\n        address to,\r\n        uint256 value\r\n    ) internal virtual;\r\n}\r\n\r\n// File: contracts/v1/Ownable.sol\r\n\r\npragma solidity 0.8.19;\r\n\r\n/**\r\n * @notice The Ownable contract has an owner address, and provides basic\r\n * authorization control functions\r\n * @dev Forked from https://github.com/OpenZeppelin/openzeppelin-labs/blob/3887ab77b8adafba4a26ace002f3a684c1a3388b/upgradeability_ownership/contracts/ownership/Ownable.sol\r\n * Modifications:\r\n * 1. Consolidate OwnableStorage into this contract (7/13/18)\r\n * 2. Reformat, conform to Solidity 0.6 syntax, and add error messages (5/13/20)\r\n * 3. Make public functions external (5/27/20)\r\n */\r\ncontract Ownable {\r\n    // Owner of the contract\r\n    address private _owner;\r\n\r\n    /**\r\n     * @dev Event to show ownership has been transferred\r\n     * @param previousOwner representing the address of the previous owner\r\n     * @param newOwner representing the address of the new owner\r\n     */\r\n    event OwnershipTransferred(address previousOwner, address newOwner);\r\n\r\n    /**\r\n     * @dev The constructor sets the original owner of the contract to the sender account.\r\n     */\r\n    constructor() public {\r\n        setOwner(msg.sender);\r\n    }\r\n\r\n    /**\r\n     * @dev Tells the address of the owner\r\n     * @return the address of the owner\r\n     */\r\n    function owner() external view returns (address) {\r\n        return _owner;\r\n    }\r\n\r\n    /**\r\n     * @dev Sets a new owner address\r\n     */\r\n    function setOwner(address newOwner) internal {\r\n        _owner = newOwner;\r\n    }\r\n\r\n    /**\r\n     * @dev Throws if called by any account other than the owner.\r\n     */\r\n    modifier onlyOwner() {\r\n        require(msg.sender == _owner, \"Ownable: caller is not the owner\");\r\n        _;\r\n    }\r\n\r\n    /**\r\n     * @dev Allows the current owner to transfer control of the contract to a newOwner.\r\n     * @param newOwner The address to transfer ownership to.\r\n     */\r\n    function transferOwnership(address newOwner) external onlyOwner {\r\n        require(\r\n            newOwner != address(0),\r\n            \"Ownable: new owner is the zero address\"\r\n        );\r\n        emit OwnershipTransferred(_owner, newOwner);\r\n        setOwner(newOwner);\r\n    }\r\n}\r\n\r\n// File: contracts/v1/Pausable.sol\r\n\r\npragma solidity 0.8.19;\r\n\r\n\r\n/**\r\n * @notice Base contract which allows children to implement an emergency stop\r\n * mechanism\r\n * @dev Forked from https://github.com/OpenZeppelin/openzeppelin-contracts/blob/feb665136c0dae9912e08397c1a21c4af3651ef3/contracts/lifecycle/Pausable.sol\r\n * Modifications:\r\n * 1. Added pauser role, switched pause/unpause to be onlyPauser (6/14/2018)\r\n * 2. Removed whenNotPause/whenPaused from pause/unpause (6/14/2018)\r\n * 3. Removed whenPaused (6/14/2018)\r\n * 4. Switches ownable library to use ZeppelinOS (7/12/18)\r\n * 5. Remove constructor (7/13/18)\r\n * 6. Reformat, conform to Solidity 0.6 syntax and add error messages (5/13/20)\r\n * 7. Make public functions external (5/27/20)\r\n */\r\ncontract Pausable is Ownable {\r\n    event Pause();\r\n    event Unpause();\r\n    event PauserChanged(address indexed newAddress);\r\n\r\n    address public pauser;\r\n    bool public paused = false;\r\n\r\n    /**\r\n     * @dev Modifier to make a function callable only when the contract is not paused.\r\n     */\r\n    modifier whenNotPaused() {\r\n        require(!paused, \"Pausable: paused\");\r\n        _;\r\n    }\r\n\r\n    /**\r\n     * @dev throws if called by any account other than the pauser\r\n     */\r\n    modifier onlyPauser() {\r\n        require(msg.sender == pauser, \"Pausable: caller is not the pauser\");\r\n        _;\r\n    }\r\n\r\n    /**\r\n     * @dev called by the owner to pause, triggers stopped state\r\n     */\r\n    function pause() external onlyPauser {\r\n        paused = true;\r\n        emit Pause();\r\n    }\r\n\r\n    /**\r\n     * @dev called by the owner to unpause, returns to normal state\r\n     */\r\n    function unpause() external onlyPauser {\r\n        paused = false;\r\n        emit Unpause();\r\n    }\r\n\r\n    /**\r\n     * @dev update the pauser role\r\n     */\r\n    function updatePauser(address _newPauser) external onlyOwner {\r\n        require(\r\n            _newPauser != address(0),\r\n            \"Pausable: new pauser is the zero address\"\r\n        );\r\n        pauser = _newPauser;\r\n        emit PauserChanged(pauser);\r\n    }\r\n}\r\n\r\n// File: contracts/v1/Blacklistable.sol\r\n\r\npragma solidity 0.8.19;\r\n\r\n\r\n/**\r\n * @title Blacklistable Token\r\n * @dev Allows accounts to be blacklisted by a \"blacklister\" role\r\n */\r\ncontract Blacklistable is Ownable {\r\n    address public blacklister;\r\n    mapping(address => bool) internal blacklisted;\r\n\r\n    event Blacklisted(address indexed _account);\r\n    event UnBlacklisted(address indexed _account);\r\n    event BlacklisterChanged(address indexed newBlacklister);\r\n\r\n    /**\r\n     * @dev Throws if called by any account other than the blacklister\r\n     */\r\n    modifier onlyBlacklister() {\r\n        require(\r\n            msg.sender == blacklister,\r\n            \"Blacklistable: caller is not the blacklister\"\r\n        );\r\n        _;\r\n    }\r\n\r\n    /**\r\n     * @dev Throws if argument account is blacklisted\r\n     * @param _account The address to check\r\n     */\r\n    modifier notBlacklisted(address _account) {\r\n        require(\r\n            !blacklisted[_account],\r\n            \"Blacklistable: account is blacklisted\"\r\n        );\r\n        _;\r\n    }\r\n\r\n    /**\r\n     * @dev Checks if account is blacklisted\r\n     * @param _account The address to check\r\n     */\r\n    function isBlacklisted(address _account) external view returns (bool) {\r\n        return blacklisted[_account];\r\n    }\r\n\r\n    /**\r\n     * @dev Adds account to blacklist\r\n     * @param _account The address to blacklist\r\n     */\r\n    function blacklist(address _account) external onlyBlacklister {\r\n        blacklisted[_account] = true;\r\n        emit Blacklisted(_account);\r\n    }\r\n\r\n    /**\r\n     * @dev Removes account from blacklist\r\n     * @param _account The address to remove from the blacklist\r\n     */\r\n    function unBlacklist(address _account) external onlyBlacklister {\r\n        blacklisted[_account] = false;\r\n        emit UnBlacklisted(_account);\r\n    }\r\n\r\n    function updateBlacklister(address _newBlacklister) external onlyOwner {\r\n        require(\r\n            _newBlacklister != address(0),\r\n            \"Blacklistable: new blacklister is the zero address\"\r\n        );\r\n        blacklister = _newBlacklister;\r\n        emit BlacklisterChanged(blacklister);\r\n    }\r\n}\r\n\r\n// File: contracts/v1/FiatTokenV1.sol\r\n\r\npragma solidity 0.8.19;\r\n\r\n\r\n\r\n\r\n\r\n\r\n/**\r\n * @title FiatToken\r\n * @dev ERC20 Token backed by fiat reserves\r\n */\r\ncontract FiatTokenV1 is AbstractFiatTokenV1, Ownable, Pausable, Blacklistable {\r\n    using SafeMath for uint256;\r\n\r\n    string public name;\r\n    string public symbol;\r\n    uint8 public decimals;\r\n    string public currency;\r\n    address public masterMinter;\r\n    bool internal initialized;\r\n\r\n    mapping(address => uint256) internal balances;\r\n    mapping(address => mapping(address => uint256)) internal allowed;\r\n    uint256 internal totalSupply_ = 0;\r\n    mapping(address => bool) internal minters;\r\n    mapping(address => uint256) internal minterAllowed;\r\n\r\n    event Mint(address indexed minter, address indexed to, uint256 amount);\r\n    event Burn(address indexed burner, uint256 amount);\r\n    event MinterConfigured(address indexed minter, uint256 minterAllowedAmount);\r\n    event MinterRemoved(address indexed oldMinter);\r\n    event MasterMinterChanged(address indexed newMasterMinter);\r\n\r\n    function initialize(\r\n        string memory tokenName,\r\n        string memory tokenSymbol,\r\n        string memory tokenCurrency,\r\n        uint8 tokenDecimals,\r\n        address newMasterMinter,\r\n        address newPauser,\r\n        address newBlacklister,\r\n        address newOwner\r\n    ) public {\r\n        require(!initialized, \"FiatToken: contract is already initialized\");\r\n        require(\r\n            newMasterMinter != address(0),\r\n            \"FiatToken: new masterMinter is the zero address\"\r\n        );\r\n        require(\r\n            newPauser != address(0),\r\n            \"FiatToken: new pauser is the zero address\"\r\n        );\r\n        require(\r\n            newBlacklister != address(0),\r\n            \"FiatToken: new blacklister is the zero address\"\r\n        );\r\n        require(\r\n            newOwner != address(0),\r\n            \"FiatToken: new owner is the zero address\"\r\n        );\r\n\r\n        name = tokenName;\r\n        symbol = tokenSymbol;\r\n        currency = tokenCurrency;\r\n        decimals = tokenDecimals;\r\n        masterMinter = newMasterMinter;\r\n        pauser = newPauser;\r\n        blacklister = newBlacklister;\r\n        setOwner(newOwner);\r\n        initialized = true;\r\n    }\r\n\r\n    /**\r\n     * @dev Throws if called by any account other than a minter\r\n     */\r\n    modifier onlyMinters() {\r\n        require(minters[msg.sender], \"FiatToken: caller is not a minter\");\r\n        _;\r\n    }\r\n\r\n    /**\r\n     * @dev Function to mint tokens\r\n     * @param _to The address that will receive the minted tokens.\r\n     * @param _amount The amount of tokens to mint. Must be less than or equal\r\n     * to the minterAllowance of the caller.\r\n     * @return A boolean that indicates if the operation was successful.\r\n     */\r\n    function mint(address _to, uint256 _amount)\r\n        external\r\n        whenNotPaused\r\n        onlyMinters\r\n        notBlacklisted(msg.sender)\r\n        notBlacklisted(_to)\r\n        returns (bool)\r\n    {\r\n        require(_to != address(0), \"FiatToken: mint to the zero address\");\r\n        require(_amount > 0, \"FiatToken: mint amount not greater than 0\");\r\n\r\n        uint256 mintingAllowedAmount = minterAllowed[msg.sender];\r\n        require(\r\n            _amount <= mintingAllowedAmount,\r\n            \"FiatToken: mint amount exceeds minterAllowance\"\r\n        );\r\n\r\n        totalSupply_ = totalSupply_.add(_amount);\r\n        balances[_to] = balances[_to].add(_amount);\r\n        minterAllowed[msg.sender] = mintingAllowedAmount.sub(_amount);\r\n        emit Mint(msg.sender, _to, _amount);\r\n        emit Transfer(address(0), _to, _amount);\r\n        return true;\r\n    }\r\n\r\n    /**\r\n     * @dev Throws if called by any account other than the masterMinter\r\n     */\r\n    modifier onlyMasterMinter() {\r\n        require(\r\n            msg.sender == masterMinter,\r\n            \"FiatToken: caller is not the masterMinter\"\r\n        );\r\n        _;\r\n    }\r\n\r\n    /**\r\n     * @dev Get minter allowance for an account\r\n     * @param minter The address of the minter\r\n     */\r\n    function minterAllowance(address minter) external view returns (uint256) {\r\n        return minterAllowed[minter];\r\n    }\r\n\r\n    /**\r\n     * @dev Checks if account is a minter\r\n     * @param account The address to check\r\n     */\r\n    function isMinter(address account) external view returns (bool) {\r\n        return minters[account];\r\n    }\r\n\r\n    /**\r\n     * @notice Amount of remaining tokens spender is allowed to transfer on\r\n     * behalf of the token owner\r\n     * @param owner     Token owner's address\r\n     * @param spender   Spender's address\r\n     * @return Allowance amount\r\n     */\r\n    function allowance(address owner, address spender)\r\n        external\r\n        override\r\n        view\r\n        returns (uint256)\r\n    {\r\n        return allowed[owner][spender];\r\n    }\r\n\r\n    /**\r\n     * @dev Get totalSupply of token\r\n     */\r\n    function totalSupply() external override view returns (uint256) {\r\n        return totalSupply_;\r\n    }\r\n\r\n    /**\r\n     * @dev Get token balance of an account\r\n     * @param account address The account\r\n     */\r\n    function balanceOf(address account)\r\n        external\r\n        override\r\n        view\r\n        returns (uint256)\r\n    {\r\n        return balances[account];\r\n    }\r\n\r\n    /**\r\n     * @notice Set spender's allowance over the caller's tokens to be a given\r\n     * value.\r\n     * @param spender   Spender's address\r\n     * @param value     Allowance amount\r\n     * @return True if successful\r\n     */\r\n    function approve(address spender, uint256 value)\r\n        external\r\n        override\r\n        whenNotPaused\r\n        notBlacklisted(msg.sender)\r\n        notBlacklisted(spender)\r\n        returns (bool)\r\n    {\r\n        _approve(msg.sender, spender, value);\r\n        return true;\r\n    }\r\n\r\n    /**\r\n     * @dev Internal function to set allowance\r\n     * @param owner     Token owner's address\r\n     * @param spender   Spender's address\r\n     * @param value     Allowance amount\r\n     */\r\n    function _approve(\r\n        address owner,\r\n        address spender,\r\n        uint256 value\r\n    ) internal override {\r\n        require(owner != address(0), \"ERC20: approve from the zero address\");\r\n        require(spender != address(0), \"ERC20: approve to the zero address\");\r\n        allowed[owner][spender] = value;\r\n        emit Approval(owner, spender, value);\r\n    }\r\n\r\n    /**\r\n     * @notice Transfer tokens by spending allowance\r\n     * @param from  Payer's address\r\n     * @param to    Payee's address\r\n     * @param value Transfer amount\r\n     * @return True if successful\r\n     */\r\n    function transferFrom(\r\n        address from,\r\n        address to,\r\n        uint256 value\r\n    )\r\n        external\r\n        override\r\n        whenNotPaused\r\n        notBlacklisted(msg.sender)\r\n        notBlacklisted(from)\r\n        notBlacklisted(to)\r\n        returns (bool)\r\n    {\r\n        require(\r\n            value <= allowed[from][msg.sender],\r\n            \"ERC20: transfer amount exceeds allowance\"\r\n        );\r\n        _transfer(from, to, value);\r\n        allowed[from][msg.sender] = allowed[from][msg.sender].sub(value);\r\n        return true;\r\n    }\r\n\r\n    /**\r\n     * @notice Transfer tokens from the caller\r\n     * @param to    Payee's address\r\n     * @param value Transfer amount\r\n     * @return True if successful\r\n     */\r\n    function transfer(address to, uint256 value)\r\n        external\r\n        override\r\n        whenNotPaused\r\n        notBlacklisted(msg.sender)\r\n        notBlacklisted(to)\r\n        returns (bool)\r\n    {\r\n        _transfer(msg.sender, to, value);\r\n        return true;\r\n    }\r\n\r\n    /**\r\n     * @notice Internal function to process transfers\r\n     * @param from  Payer's address\r\n     * @param to    Payee's address\r\n     * @param value Transfer amount\r\n     */\r\n    function _transfer(\r\n        address from,\r\n        address to,\r\n        uint256 value\r\n    ) internal override {\r\n        require(from != address(0), \"ERC20: transfer from the zero address\");\r\n        require(to != address(0), \"ERC20: transfer to the zero address\");\r\n        require(\r\n            value <= balances[from],\r\n            \"ERC20: transfer amount exceeds balance\"\r\n        );\r\n\r\n        balances[from] = balances[from].sub(value);\r\n        balances[to] = balances[to].add(value);\r\n        emit Transfer(from, to, value);\r\n    }\r\n\r\n    /**\r\n     * @dev Function to add/update a new minter\r\n     * @param minter The address of the minter\r\n     * @param minterAllowedAmount The minting amount allowed for the minter\r\n     * @return True if the operation was successful.\r\n     */\r\n    function configureMinter(address minter, uint256 minterAllowedAmount)\r\n        external\r\n        whenNotPaused\r\n        onlyMasterMinter\r\n        returns (bool)\r\n    {\r\n        minters[minter] = true;\r\n        minterAllowed[minter] = minterAllowedAmount;\r\n        emit MinterConfigured(minter, minterAllowedAmount);\r\n        return true;\r\n    }\r\n\r\n    /**\r\n     * @dev Function to remove a minter\r\n     * @param minter The address of the minter to remove\r\n     * @return True if the operation was successful.\r\n     */\r\n    function removeMinter(address minter)\r\n        external\r\n        onlyMasterMinter\r\n        returns (bool)\r\n    {\r\n        minters[minter] = false;\r\n        minterAllowed[minter] = 0;\r\n        emit MinterRemoved(minter);\r\n        return true;\r\n    }\r\n\r\n    /**\r\n     * @dev allows a minter to burn some of its own tokens\r\n     * Validates that caller is a minter and that sender is not blacklisted\r\n     * amount is less than or equal to the minter's account balance\r\n     * @param _amount uint256 the amount of tokens to be burned\r\n     */\r\n    function burn(uint256 _amount)\r\n        external\r\n        whenNotPaused\r\n        onlyMinters\r\n        notBlacklisted(msg.sender)\r\n    {\r\n        uint256 balance = balances[msg.sender];\r\n        require(_amount > 0, \"FiatToken: burn amount not greater than 0\");\r\n        require(balance >= _amount, \"FiatToken: burn amount exceeds balance\");\r\n\r\n        totalSupply_ = totalSupply_.sub(_amount);\r\n        balances[msg.sender] = balance.sub(_amount);\r\n        emit Burn(msg.sender, _amount);\r\n        emit Transfer(msg.sender, address(0), _amount);\r\n    }\r\n\r\n    function updateMasterMinter(address _newMasterMinter) external onlyOwner {\r\n        require(\r\n            _newMasterMinter != address(0),\r\n            \"FiatToken: new masterMinter is the zero address\"\r\n        );\r\n        masterMinter = _newMasterMinter;\r\n        emit MasterMinterChanged(masterMinter);\r\n    }\r\n}\r\n\r\n// File: @openzeppelin/contracts/utils/Address.sol\r\n\r\npragma solidity ^0.8.19;\r\n\r\n/**\r\n * @dev Collection of functions related to the address type\r\n */\r\nlibrary Address {\r\n    /**\r\n     * @dev Returns true if `account` is a contract.\r\n     *\r\n     * [IMPORTANT]\r\n     * ====\r\n     * It is unsafe to assume that an address for which this function returns\r\n     * false is an externally-owned account (EOA) and not a contract.\r\n     *\r\n     * Among others, `isContract` will return false for the following\r\n     * types of addresses:\r\n     *\r\n     *  - an externally-owned account\r\n     *  - a contract in construction\r\n     *  - an address where a contract will be created\r\n     *  - an address where a contract lived, but was destroyed\r\n     * ====\r\n     */\r\n    function isContract(address account) internal view returns (bool) {\r\n        // According to EIP-1052, 0x0 is the value returned for not-yet created accounts\r\n        // and 0xc5d2460186f7233c927e7db2dcc703c0e500b653ca82273b7bfad8045d85a470 is returned\r\n        // for accounts without code, i.e. `keccak256('')`\r\n        bytes32 codehash;\r\n        bytes32 accountHash = 0xc5d2460186f7233c927e7db2dcc703c0e500b653ca82273b7bfad8045d85a470;\r\n        // solhint-disable-next-line no-inline-assembly\r\n        assembly { codehash := extcodehash(account) }\r\n        return (codehash != accountHash && codehash != 0x0);\r\n    }\r\n\r\n    /**\r\n     * @dev Replacement for Solidity's `transfer`: sends `amount` wei to\r\n     * `recipient`, forwarding all available gas and reverting on errors.\r\n     *\r\n     * https://eips.ethereum.org/EIPS/eip-1884[EIP1884] increases the gas cost\r\n     * of certain opcodes, possibly making contracts go over the 2300 gas limit\r\n     * imposed by `transfer`, making them unable to receive funds via\r\n     * `transfer`. {sendValue} removes this limitation.\r\n     *\r\n     * https://diligence.consensys.net/posts/2019/09/stop-using-soliditys-transfer-now/[Learn more].\r\n     *\r\n     * IMPORTANT: because control is transferred to `recipient`, care must be\r\n     * taken to not create reentrancy vulnerabilities. Consider using\r\n     * {ReentrancyGuard} or the\r\n     * https://solidity.readthedocs.io/en/v0.5.11/security-considerations.html#use-the-checks-effects-interactions-pattern[checks-effects-interactions pattern].\r\n     */\r\n    function sendValue(address payable recipient, uint256 amount) internal {\r\n        require(address(this).balance >= amount, \"Address: insufficient balance\");\r\n\r\n        // solhint-disable-next-line avoid-low-level-calls, avoid-call-value\r\n        (bool success, ) = recipient.call{ value: amount }(\"\");\r\n        require(success, \"Address: unable to send value, recipient may have reverted\");\r\n    }\r\n\r\n    /**\r\n     * @dev Performs a Solidity function call using a low level `call`. A\r\n     * plain`call` is an unsafe replacement for a function call: use this\r\n     * function instead.\r\n     *\r\n     * If `target` reverts with a revert reason, it is bubbled up by this\r\n     * function (like regular Solidity function calls).\r\n     *\r\n     * Returns the raw returned data. To convert to the expected return value,\r\n     * use https://solidity.readthedocs.io/en/latest/units-and-global-variables.html?highlight=abi.decode#abi-encoding-and-decoding-functions[`abi.decode`].\r\n     *\r\n     * Requirements:\r\n     *\r\n     * - `target` must be a contract.\r\n     * - calling `target` with `data` must not revert.\r\n     *\r\n     * _Available since v3.1._\r\n     */\r\n    function functionCall(address target, bytes memory data) internal returns (bytes memory) {\r\n      return functionCall(target, data, \"Address: low-level call failed\");\r\n    }\r\n\r\n    /**\r\n     * @dev Same as {xref-Address-functionCall-address-bytes-}[`functionCall`], but with\r\n     * `errorMessage` as a fallback revert reason when `target` reverts.\r\n     *\r\n     * _Available since v3.1._\r\n     */\r\n    function functionCall(address target, bytes memory data, string memory errorMessage) internal returns (bytes memory) {\r\n        return _functionCallWithValue(target, data, 0, errorMessage);\r\n    }\r\n\r\n    /**\r\n     * @dev Same as {xref-Address-functionCall-address-bytes-}[`functionCall`],\r\n     * but also transferring `value` wei to `target`.\r\n     *\r\n     * Requirements:\r\n     *\r\n     * - the calling contract must have an ETH balance of at least `value`.\r\n     * - the called Solidity function must be `payable`.\r\n     *\r\n     * _Available since v3.1._\r\n     */\r\n    function functionCallWithValue(address target, bytes memory data, uint256 value) internal returns (bytes memory) {\r\n        return functionCallWithValue(target, data, value, \"Address: low-level call with value failed\");\r\n    }\r\n\r\n    /**\r\n     * @dev Same as {xref-Address-functionCallWithValue-address-bytes-uint256-}[`functionCallWithValue`], but\r\n     * with `errorMessage` as a fallback revert reason when `target` reverts.\r\n     *\r\n     * _Available since v3.1._\r\n     */\r\n    function functionCallWithValue(address target, bytes memory data, uint256 value, string memory errorMessage) internal returns (bytes memory) {\r\n        require(address(this).balance >= value, \"Address: insufficient balance for call\");\r\n        return _functionCallWithValue(target, data, value, errorMessage);\r\n    }\r\n\r\n    function _functionCallWithValue(address target, bytes memory data, uint256 weiValue, string memory errorMessage) private returns (bytes memory) {\r\n        require(isContract(target), \"Address: call to non-contract\");\r\n\r\n        // solhint-disable-next-line avoid-low-level-calls\r\n        (bool success, bytes memory returndata) = target.call{ value: weiValue }(data);\r\n        if (success) {\r\n            return returndata;\r\n        } else {\r\n            // Look for revert reason and bubble it up if present\r\n            if (returndata.length > 0) {\r\n                // The easiest way to bubble the revert reason is using memory via assembly\r\n\r\n                // solhint-disable-next-line no-inline-assembly\r\n                assembly {\r\n                    let returndata_size := mload(returndata)\r\n                    revert(add(32, returndata), returndata_size)\r\n                }\r\n            } else {\r\n                revert(errorMessage);\r\n            }\r\n        }\r\n    }\r\n}\r\n\r\n// File: @openzeppelin/contracts/token/ERC20/SafeERC20.sol\r\n\r\npragma solidity ^0.8.19;\r\n\r\n\r\n\r\n\r\n/**\r\n * @title SafeERC20\r\n * @dev Wrappers around ERC20 operations that throw on failure (when the token\r\n * contract returns false). Tokens that return no value (and instead revert or\r\n * throw on failure) are also supported, non-reverting calls are assumed to be\r\n * successful.\r\n * To use this library you can add a `using SafeERC20 for IERC20;` statement to your contract,\r\n * which allows you to call the safe operations as `token.safeTransfer(...)`, etc.\r\n */\r\nlibrary SafeERC20 {\r\n    using SafeMath for uint256;\r\n    using Address for address;\r\n\r\n    function safeTransfer(IERC20 token, address to, uint256 value) internal {\r\n        _callOptionalReturn(token, abi.encodeWithSelector(token.transfer.selector, to, value));\r\n    }\r\n\r\n    function safeTransferFrom(IERC20 token, address from, address to, uint256 value) internal {\r\n        _callOptionalReturn(token, abi.encodeWithSelector(token.transferFrom.selector, from, to, value));\r\n    }\r\n\r\n    /**\r\n     * @dev Deprecated. This function has issues similar to the ones found in\r\n     * {IERC20-approve}, and its usage is discouraged.\r\n     *\r\n     * Whenever possible, use {safeIncreaseAllowance} and\r\n     * {safeDecreaseAllowance} instead.\r\n     */\r\n    function safeApprove(IERC20 token, address spender, uint256 value) internal {\r\n        // safeApprove should only be called when setting an initial allowance,\r\n        // or when resetting it to zero. To increase and decrease it, use\r\n        // 'safeIncreaseAllowance' and 'safeDecreaseAllowance'\r\n        // solhint-disable-next-line max-line-length\r\n        require((value == 0) || (token.allowance(address(this), spender) == 0),\r\n            \"SafeERC20: approve from non-zero to non-zero allowance\"\r\n        );\r\n        _callOptionalReturn(token, abi.encodeWithSelector(token.approve.selector, spender, value));\r\n    }\r\n\r\n    function safeIncreaseAllowance(IERC20 token, address spender, uint256 value) internal {\r\n        uint256 newAllowance = token.allowance(address(this), spender).add(value);\r\n        _callOptionalReturn(token, abi.encodeWithSelector(token.approve.selector, spender, newAllowance));\r\n    }\r\n\r\n    function safeDecreaseAllowance(IERC20 token, address spender, uint256 value) internal {\r\n        uint256 newAllowance = token.allowance(address(this), spender).sub(value, \"SafeERC20: decreased allowance below zero\");\r\n        _callOptionalReturn(token, abi.encodeWithSelector(token.approve.selector, spender, newAllowance));\r\n    }\r\n\r\n    /**\r\n     * @dev Imitates a Solidity high-level call (i.e. a regular function call to a contract), relaxing the requirement\r\n     * on the return value: the return value is optional (but if data is returned, it must not be false).\r\n     * @param token The token targeted by the call.\r\n     * @param data The call data (encoded using abi.encode or one of its variants).\r\n     */\r\n    function _callOptionalReturn(IERC20 token, bytes memory data) private {\r\n        // We need to perform a low level call here, to bypass Solidity's return data size checking mechanism, since\r\n        // we're implementing it ourselves. We use {Address.functionCall} to perform this call, which verifies that\r\n        // the target address contains contract code and also asserts for success in the low-level call.\r\n\r\n        bytes memory returndata = address(token).functionCall(data, \"SafeERC20: low-level call failed\");\r\n        if (returndata.length > 0) { // Return data is optional\r\n            // solhint-disable-next-line max-line-length\r\n            require(abi.decode(returndata, (bool)), \"SafeERC20: ERC20 operation did not succeed\");\r\n        }\r\n    }\r\n}\r\n\r\n// File: contracts/v1.1/Rescuable.sol\r\n\r\npragma solidity 0.8.19;\r\n\r\n\r\n\r\n\r\ncontract Rescuable is Ownable {\r\n    using SafeERC20 for IERC20;\r\n\r\n    address private _rescuer;\r\n\r\n    event RescuerChanged(address indexed newRescuer);\r\n\r\n    /**\r\n     * @notice Returns current rescuer\r\n     * @return Rescuer's address\r\n     */\r\n    function rescuer() external view returns (address) {\r\n        return _rescuer;\r\n    }\r\n\r\n    /**\r\n     * @notice Revert if called by any account other than the rescuer.\r\n     */\r\n    modifier onlyRescuer() {\r\n        require(msg.sender == _rescuer, \"Rescuable: caller is not the rescuer\");\r\n        _;\r\n    }\r\n\r\n    /**\r\n     * @notice Rescue ERC20 tokens locked up in this contract.\r\n     * @param tokenContract ERC20 token contract address\r\n     * @param to        Recipient address\r\n     * @param amount    Amount to withdraw\r\n     */\r\n    function rescueERC20(\r\n        IERC20 tokenContract,\r\n        address to,\r\n        uint256 amount\r\n    ) external onlyRescuer {\r\n        tokenContract.safeTransfer(to, amount);\r\n    }\r\n\r\n    /**\r\n     * @notice Assign the rescuer role to a given address.\r\n     * @param newRescuer New rescuer's address\r\n     */\r\n    function updateRescuer(address newRescuer) external onlyOwner {\r\n        require(\r\n            newRescuer != address(0),\r\n            \"Rescuable: new rescuer is the zero address\"\r\n        );\r\n        _rescuer = newRescuer;\r\n        emit RescuerChanged(newRescuer);\r\n    }\r\n}\r\n\r\n// File: contracts/v1.1/FiatTokenV1_1.sol\r\n\r\npragma solidity 0.8.19;\r\n\r\n\r\n\r\n/**\r\n * @title FiatTokenV1_1\r\n * @dev ERC20 Token backed by fiat reserves\r\n */\r\ncontract FiatTokenV1_1 is FiatTokenV1, Rescuable {\r\n\r\n}\r\n\r\n// File: contracts/v2/AbstractFiatTokenV2.sol\r\n\r\npragma solidity 0.8.19;\r\n\r\n\r\nabstract contract AbstractFiatTokenV2 is AbstractFiatTokenV1 {\r\n    function _increaseAllowance(\r\n        address owner,\r\n        address spender,\r\n        uint256 increment\r\n    ) internal virtual;\r\n\r\n    function _decreaseAllowance(\r\n        address owner,\r\n        address spender,\r\n        uint256 decrement\r\n    ) internal virtual;\r\n}\r\n\r\n// File: contracts/util/ECRecover.sol\r\n\r\npragma solidity 0.8.19;\r\n\r\n/**\r\n * @title ECRecover\r\n * @notice A library that provides a safe ECDSA recovery function\r\n */\r\nlibrary ECRecover {\r\n    /**\r\n     * @notice Recover signer's address from a signed message\r\n     * @dev Adapted from: https://github.com/OpenZeppelin/openzeppelin-contracts/blob/65e4ffde586ec89af3b7e9140bdc9235d1254853/contracts/cryptography/ECDSA.sol\r\n     * Modifications: Accept v, r, and s as separate arguments\r\n     * @param digest    Keccak-256 hash digest of the signed message\r\n     * @param v         v of the signature\r\n     * @param r         r of the signature\r\n     * @param s         s of the signature\r\n     * @return Signer address\r\n     */\r\n    function recover(\r\n        bytes32 digest,\r\n        uint8 v,\r\n        bytes32 r,\r\n        bytes32 s\r\n    ) internal pure returns (address) {\r\n        // EIP-2 still allows signature malleability for ecrecover(). Remove this possibility and make the signature\r\n        // unique. Appendix F in the Ethereum Yellow paper (https://ethereum.github.io/yellowpaper/paper.pdf), defines\r\n        // the valid range for s in (281): 0 < s < secp256k1n  2 + 1, and for v in (282): v  {27, 28}. Most\r\n        // signatures from current libraries generate a unique signature with an s-value in the lower half order.\r\n        //\r\n        // If your library generates malleable signatures, such as s-values in the upper range, calculate a new s-value\r\n        // with 0xFFFFFFFFFFFFFFFFFFFFFFFFFFFFFFFEBAAEDCE6AF48A03BBFD25E8CD0364141 - s1 and flip v from 27 to 28 or\r\n        // vice versa. If your library also generates signatures with 0/1 for v instead 27/28, add 27 to v to accept\r\n        // these malleable signatures as well.\r\n        if (\r\n            uint256(s) >\r\n            0x7FFFFFFFFFFFFFFFFFFFFFFFFFFFFFFF5D576E7357A4501DDFE92F46681B20A0\r\n        ) {\r\n            revert(\"ECRecover: invalid signature 's' value\");\r\n        }\r\n\r\n        if (v != 27 && v != 28) {\r\n            revert(\"ECRecover: invalid signature 'v' value\");\r\n        }\r\n\r\n        // If the signature is valid (and not malleable), return the signer address\r\n        address signer = ecrecover(digest, v, r, s);\r\n        require(signer != address(0), \"ECRecover: invalid signature\");\r\n\r\n        return signer;\r\n    }\r\n}\r\n\r\n// File: contracts/util/EIP712.sol\r\n\r\npragma solidity 0.8.19;\r\n\r\n\r\n/**\r\n * @title EIP712\r\n * @notice A library that provides EIP712 helper functions\r\n */\r\nlibrary EIP712 {\r\n    /**\r\n     * @notice Make EIP712 domain separator\r\n     * @param name      Contract name\r\n     * @param version   Contract version\r\n     * @return Domain separator\r\n     */\r\n    function makeDomainSeparator(string memory name, string memory version)\r\n        internal\r\n        view\r\n        returns (bytes32)\r\n    {\r\n        uint256 chainId;\r\n        assembly {\r\n            chainId := chainid()\r\n        }\r\n        return\r\n            keccak256(\r\n                abi.encode(\r\n                    // keccak256(\"EIP712Domain(string name,string version,uint256 chainId,address verifyingContract)\")\r\n                    0x8b73c3c69bb8fe3d512ecc4cf759cc79239f7b179b0ffacaa9a75d522b39400f,\r\n                    keccak256(bytes(name)),\r\n                    keccak256(bytes(version)),\r\n                    chainId,\r\n                    address(this)\r\n                )\r\n            );\r\n    }\r\n\r\n    /**\r\n     * @notice Recover signer's address from a EIP712 signature\r\n     * @param domainSeparator   Domain separator\r\n     * @param v                 v of the signature\r\n     * @param r                 r of the signature\r\n     * @param s                 s of the signature\r\n     * @param typeHashAndData   Type hash concatenated with data\r\n     * @return Signer's address\r\n     */\r\n    function recover(\r\n        bytes32 domainSeparator,\r\n        uint8 v,\r\n        bytes32 r,\r\n        bytes32 s,\r\n        bytes memory typeHashAndData\r\n    ) internal pure returns (address) {\r\n        bytes32 digest = keccak256(\r\n            abi.encodePacked(\r\n                \"\\x19\\x01\",\r\n                domainSeparator,\r\n                keccak256(typeHashAndData)\r\n            )\r\n        );\r\n        return ECRecover.recover(digest, v, r, s);\r\n    }\r\n}\r\n\r\n// File: contracts/v2/EIP712Domain.sol\r\n\r\npragma solidity 0.8.19;\r\n\r\n/**\r\n * @title EIP712 Domain\r\n */\r\ncontract EIP712Domain {\r\n    /**\r\n     * @dev EIP712 Domain Separator\r\n     */\r\n    bytes32 public DOMAIN_SEPARATOR;\r\n}\r\n\r\n// File: contracts/v2/EIP3009.sol\r\n\r\npragma solidity 0.8.19;\r\n\r\n\r\n\r\n\r\n/**\r\n * @title EIP-3009\r\n * @notice Provide internal implementation for gas-abstracted transfers\r\n * @dev Contracts that inherit from this must wrap these with publicly\r\n * accessible functions, optionally adding modifiers where necessary\r\n */\r\nabstract contract EIP3009 is AbstractFiatTokenV2, EIP712Domain {\r\n    // keccak256(\"TransferWithAuthorization(address from,address to,uint256 value,uint256 validAfter,uint256 validBefore,bytes32 nonce)\")\r\n    bytes32\r\n        public constant TRANSFER_WITH_AUTHORIZATION_TYPEHASH = 0x7c7c6cdb67a18743f49ec6fa9b35f50d52ed05cbed4cc592e13b44501c1a2267;\r\n\r\n    // keccak256(\"ReceiveWithAuthorization(address from,address to,uint256 value,uint256 validAfter,uint256 validBefore,bytes32 nonce)\")\r\n    bytes32\r\n        public constant RECEIVE_WITH_AUTHORIZATION_TYPEHASH = 0xd099cc98ef71107a616c4f0f941f04c322d8e254fe26b3c6668db87aae413de8;\r\n\r\n    // keccak256(\"CancelAuthorization(address authorizer,bytes32 nonce)\")\r\n    bytes32\r\n        public constant CANCEL_AUTHORIZATION_TYPEHASH = 0x158b0a9edf7a828aad02f63cd515c68ef2f50ba807396f6d12842833a1597429;\r\n\r\n    /**\r\n     * @dev authorizer address => nonce => bool (true if nonce is used)\r\n     */\r\n    mapping(address => mapping(bytes32 => bool)) private _authorizationStates;\r\n\r\n    event AuthorizationUsed(address indexed authorizer, bytes32 indexed nonce);\r\n    event AuthorizationCanceled(\r\n        address indexed authorizer,\r\n        bytes32 indexed nonce\r\n    );\r\n\r\n    /**\r\n     * @notice Returns the state of an authorization\r\n     * @dev Nonces are randomly generated 32-byte data unique to the\r\n     * authorizer's address\r\n     * @param authorizer    Authorizer's address\r\n     * @param nonce         Nonce of the authorization\r\n     * @return True if the nonce is used\r\n     */\r\n    function authorizationState(address authorizer, bytes32 nonce)\r\n        external\r\n        view\r\n        returns (bool)\r\n    {\r\n        return _authorizationStates[authorizer][nonce];\r\n    }\r\n\r\n    /**\r\n     * @notice Execute a transfer with a signed authorization\r\n     * @param from          Payer's address (Authorizer)\r\n     * @param to            Payee's address\r\n     * @param value         Amount to be transferred\r\n     * @param validAfter    The time after which this is valid (unix time)\r\n     * @param validBefore   The time before which this is valid (unix time)\r\n     * @param nonce         Unique nonce\r\n     * @param v             v of the signature\r\n     * @param r             r of the signature\r\n     * @param s             s of the signature\r\n     */\r\n    function _transferWithAuthorization(\r\n        address from,\r\n        address to,\r\n        uint256 value,\r\n        uint256 validAfter,\r\n        uint256 validBefore,\r\n        bytes32 nonce,\r\n        uint8 v,\r\n        bytes32 r,\r\n        bytes32 s\r\n    ) internal {\r\n        _requireValidAuthorization(from, nonce, validAfter, validBefore);\r\n\r\n        bytes memory data = abi.encode(\r\n            TRANSFER_WITH_AUTHORIZATION_TYPEHASH,\r\n            from,\r\n            to,\r\n            value,\r\n            validAfter,\r\n            validBefore,\r\n            nonce\r\n        );\r\n        require(\r\n            EIP712.recover(DOMAIN_SEPARATOR, v, r, s, data) == from,\r\n            \"FiatTokenV2: invalid signature\"\r\n        );\r\n\r\n        _markAuthorizationAsUsed(from, nonce);\r\n        _transfer(from, to, value);\r\n    }\r\n\r\n    /**\r\n     * @notice Receive a transfer with a signed authorization from the payer\r\n     * @dev This has an additional check to ensure that the payee's address\r\n     * matches the caller of this function to prevent front-running attacks.\r\n     * @param from          Payer's address (Authorizer)\r\n     * @param to            Payee's address\r\n     * @param value         Amount to be transferred\r\n     * @param validAfter    The time after which this is valid (unix time)\r\n     * @param validBefore   The time before which this is valid (unix time)\r\n     * @param nonce         Unique nonce\r\n     * @param v             v of the signature\r\n     * @param r             r of the signature\r\n     * @param s             s of the signature\r\n     */\r\n    function _receiveWithAuthorization(\r\n        address from,\r\n        address to,\r\n        uint256 value,\r\n        uint256 validAfter,\r\n        uint256 validBefore,\r\n        bytes32 nonce,\r\n        uint8 v,\r\n        bytes32 r,\r\n        bytes32 s\r\n    ) internal {\r\n        require(to == msg.sender, \"FiatTokenV2: caller must be the payee\");\r\n        _requireValidAuthorization(from, nonce, validAfter, validBefore);\r\n\r\n        bytes memory data = abi.encode(\r\n            RECEIVE_WITH_AUTHORIZATION_TYPEHASH,\r\n            from,\r\n            to,\r\n            value,\r\n            validAfter,\r\n            validBefore,\r\n            nonce\r\n        );\r\n        require(\r\n            EIP712.recover(DOMAIN_SEPARATOR, v, r, s, data) == from,\r\n            \"FiatTokenV2: invalid signature\"\r\n        );\r\n\r\n        _markAuthorizationAsUsed(from, nonce);\r\n        _transfer(from, to, value);\r\n    }\r\n\r\n    /**\r\n     * @notice Attempt to cancel an authorization\r\n     * @param authorizer    Authorizer's address\r\n     * @param nonce         Nonce of the authorization\r\n     * @param v             v of the signature\r\n     * @param r             r of the signature\r\n     * @param s             s of the signature\r\n     */\r\n    function _cancelAuthorization(\r\n        address authorizer,\r\n        bytes32 nonce,\r\n        uint8 v,\r\n        bytes32 r,\r\n        bytes32 s\r\n    ) internal {\r\n        _requireUnusedAuthorization(authorizer, nonce);\r\n\r\n        bytes memory data = abi.encode(\r\n            CANCEL_AUTHORIZATION_TYPEHASH,\r\n            authorizer,\r\n            nonce\r\n        );\r\n        require(\r\n            EIP712.recover(DOMAIN_SEPARATOR, v, r, s, data) == authorizer,\r\n            \"FiatTokenV2: invalid signature\"\r\n        );\r\n\r\n        _authorizationStates[authorizer][nonce] = true;\r\n        emit AuthorizationCanceled(authorizer, nonce);\r\n    }\r\n\r\n    /**\r\n     * @notice Check that an authorization is unused\r\n     * @param authorizer    Authorizer's address\r\n     * @param nonce         Nonce of the authorization\r\n     */\r\n    function _requireUnusedAuthorization(address authorizer, bytes32 nonce)\r\n        private\r\n        view\r\n    {\r\n        require(\r\n            !_authorizationStates[authorizer][nonce],\r\n            \"FiatTokenV2: authorization is used or canceled\"\r\n        );\r\n    }\r\n\r\n    /**\r\n     * @notice Check that authorization is valid\r\n     * @param authorizer    Authorizer's address\r\n     * @param nonce         Nonce of the authorization\r\n     * @param validAfter    The time after which this is valid (unix time)\r\n     * @param validBefore   The time before which this is valid (unix time)\r\n     */\r\n    function _requireValidAuthorization(\r\n        address authorizer,\r\n        bytes32 nonce,\r\n        uint256 validAfter,\r\n        uint256 validBefore\r\n    ) private view {\r\n        require(\r\n            block.timestamp > validAfter,\r\n            \"FiatTokenV2: authorization is not yet valid\"\r\n        );\r\n        require(block.timestamp < validBefore, \"FiatTokenV2: authorization is expired\");\r\n        _requireUnusedAuthorization(authorizer, nonce);\r\n    }\r\n\r\n    /**\r\n     * @notice Mark an authorization as used\r\n     * @param authorizer    Authorizer's address\r\n     * @param nonce         Nonce of the authorization\r\n     */\r\n    function _markAuthorizationAsUsed(address authorizer, bytes32 nonce)\r\n        private\r\n    {\r\n        _authorizationStates[authorizer][nonce] = true;\r\n        emit AuthorizationUsed(authorizer, nonce);\r\n    }\r\n}\r\n\r\n// File: contracts/v2/EIP2612.sol\r\n\r\npragma solidity 0.8.19;\r\n\r\n\r\n\r\n\r\n/**\r\n * @title EIP-2612\r\n * @notice Provide internal implementation for gas-abstracted approvals\r\n */\r\nabstract contract EIP2612 is AbstractFiatTokenV2, EIP712Domain {\r\n    // keccak256(\"Permit(address owner,address spender,uint256 value,uint256 nonce,uint256 deadline)\")\r\n    bytes32\r\n        public constant PERMIT_TYPEHASH = 0x6e71edae12b1b97f4d1f60370fef10105fa2faae0126114a169c64845d6126c9;\r\n\r\n    mapping(address => uint256) private _permitNonces;\r\n\r\n    /**\r\n     * @notice Nonces for permit\r\n     * @param owner Token owner's address (Authorizer)\r\n     * @return Next nonce\r\n     */\r\n    function nonces(address owner) external view returns (uint256) {\r\n        return _permitNonces[owner];\r\n    }\r\n\r\n    /**\r\n     * @notice Verify a signed approval permit and execute if valid\r\n     * @param owner     Token owner's address (Authorizer)\r\n     * @param spender   Spender's address\r\n     * @param value     Amount of allowance\r\n     * @param deadline  The time at which this expires (unix time)\r\n     * @param v         v of the signature\r\n     * @param r         r of the signature\r\n     * @param s         s of the signature\r\n     */\r\n    function _permit(\r\n        address owner,\r\n        address spender,\r\n        uint256 value,\r\n        uint256 deadline,\r\n        uint8 v,\r\n        bytes32 r,\r\n        bytes32 s\r\n    ) internal {\r\n        require(deadline >= block.timestamp, \"FiatTokenV2: permit is expired\");\r\n\r\n        bytes memory data = abi.encode(\r\n            PERMIT_TYPEHASH,\r\n            owner,\r\n            spender,\r\n            value,\r\n            _permitNonces[owner]++,\r\n            deadline\r\n        );\r\n        require(\r\n            EIP712.recover(DOMAIN_SEPARATOR, v, r, s, data) == owner,\r\n            \"EIP2612: invalid signature\"\r\n        );\r\n\r\n        _approve(owner, spender, value);\r\n    }\r\n}\r\n\r\n// File: contracts/v2/FiatTokenV2.sol\r\n\r\npragma solidity 0.8.19;\r\n\r\n\r\n\r\n\r\n\r\n\r\n\r\n/**\r\n * @title FiatToken V2\r\n * @notice ERC20 Token backed by fiat reserves, version 2\r\n */\r\ncontract FiatTokenV2 is FiatTokenV1_1, EIP3009, EIP2612 {\r\n    uint8 internal _initializedVersion;\r\n    using SafeMath for uint256;\r\n    /**\r\n     * @notice Initialize v2\r\n     * @param newName   New token name\r\n     */\r\n    function initializeV2(string calldata newName) external {\r\n        // solhint-disable-next-line reason-string\r\n        require(initialized && _initializedVersion == 0);\r\n        name = newName;\r\n        DOMAIN_SEPARATOR = EIP712.makeDomainSeparator(newName, \"2\");\r\n        _initializedVersion = 1;\r\n    }\r\n\r\n    /**\r\n     * @notice Increase the allowance by a given increment\r\n     * @param spender   Spender's address\r\n     * @param increment Amount of increase in allowance\r\n     * @return True if successful\r\n     */\r\n    function increaseAllowance(address spender, uint256 increment)\r\n        external\r\n        whenNotPaused\r\n        notBlacklisted(msg.sender)\r\n        notBlacklisted(spender)\r\n        returns (bool)\r\n    {\r\n        _increaseAllowance(msg.sender, spender, increment);\r\n        return true;\r\n    }\r\n\r\n    /**\r\n     * @notice Decrease the allowance by a given decrement\r\n     * @param spender   Spender's address\r\n     * @param decrement Amount of decrease in allowance\r\n     * @return True if successful\r\n     */\r\n    function decreaseAllowance(address spender, uint256 decrement)\r\n        external\r\n        whenNotPaused\r\n        notBlacklisted(msg.sender)\r\n        notBlacklisted(spender)\r\n        returns (bool)\r\n    {\r\n        _decreaseAllowance(msg.sender, spender, decrement);\r\n        return true;\r\n    }\r\n\r\n    /**\r\n     * @notice Execute a transfer with a signed authorization\r\n     * @param from          Payer's address (Authorizer)\r\n     * @param to            Payee's address\r\n     * @param value         Amount to be transferred\r\n     * @param validAfter    The time after which this is valid (unix time)\r\n     * @param validBefore   The time before which this is valid (unix time)\r\n     * @param nonce         Unique nonce\r\n     * @param v             v of the signature\r\n     * @param r             r of the signature\r\n     * @param s             s of the signature\r\n     */\r\n    function transferWithAuthorization(\r\n        address from,\r\n        address to,\r\n        uint256 value,\r\n        uint256 validAfter,\r\n        uint256 validBefore,\r\n        bytes32 nonce,\r\n        uint8 v,\r\n        bytes32 r,\r\n        bytes32 s\r\n    ) external whenNotPaused notBlacklisted(from) notBlacklisted(to) {\r\n        _transferWithAuthorization(\r\n            from,\r\n            to,\r\n            value,\r\n            validAfter,\r\n            validBefore,\r\n            nonce,\r\n            v,\r\n            r,\r\n            s\r\n        );\r\n    }\r\n\r\n    /**\r\n     * @notice Receive a transfer with a signed authorization from the payer\r\n     * @dev This has an additional check to ensure that the payee's address\r\n     * matches the caller of this function to prevent front-running attacks.\r\n     * @param from          Payer's address (Authorizer)\r\n     * @param to            Payee's address\r\n     * @param value         Amount to be transferred\r\n     * @param validAfter    The time after which this is valid (unix time)\r\n     * @param validBefore   The time before which this is valid (unix time)\r\n     * @param nonce         Unique nonce\r\n     * @param v             v of the signature\r\n     * @param r             r of the signature\r\n     * @param s             s of the signature\r\n     */\r\n    function receiveWithAuthorization(\r\n        address from,\r\n        address to,\r\n        uint256 value,\r\n        uint256 validAfter,\r\n        uint256 validBefore,\r\n        bytes32 nonce,\r\n        uint8 v,\r\n        bytes32 r,\r\n        bytes32 s\r\n    ) external whenNotPaused notBlacklisted(from) notBlacklisted(to) {\r\n        _receiveWithAuthorization(\r\n            from,\r\n            to,\r\n            value,\r\n            validAfter,\r\n            validBefore,\r\n            nonce,\r\n            v,\r\n            r,\r\n            s\r\n        );\r\n    }\r\n\r\n    /**\r\n     * @notice Attempt to cancel an authorization\r\n     * @dev Works only if the authorization is not yet used.\r\n     * @param authorizer    Authorizer's address\r\n     * @param nonce         Nonce of the authorization\r\n     * @param v             v of the signature\r\n     * @param r             r of the signature\r\n     * @param s             s of the signature\r\n     */\r\n    function cancelAuthorization(\r\n        address authorizer,\r\n        bytes32 nonce,\r\n        uint8 v,\r\n        bytes32 r,\r\n        bytes32 s\r\n    ) external whenNotPaused {\r\n        _cancelAuthorization(authorizer, nonce, v, r, s);\r\n    }\r\n\r\n    /**\r\n     * @notice Update allowance with a signed permit\r\n     * @param owner       Token owner's address (Authorizer)\r\n     * @param spender     Spender's address\r\n     * @param value       Amount of allowance\r\n     * @param deadline    Expiration time, seconds since the epoch\r\n     * @param v           v of the signature\r\n     * @param r           r of the signature\r\n     * @param s           s of the signature\r\n     */\r\n    function permit(\r\n        address owner,\r\n        address spender,\r\n        uint256 value,\r\n        uint256 deadline,\r\n        uint8 v,\r\n        bytes32 r,\r\n        bytes32 s\r\n    ) external whenNotPaused notBlacklisted(owner) notBlacklisted(spender) {\r\n        _permit(owner, spender, value, deadline, v, r, s);\r\n    }\r\n\r\n    /**\r\n     * @notice Internal function to increase the allowance by a given increment\r\n     * @param owner     Token owner's address\r\n     * @param spender   Spender's address\r\n     * @param increment Amount of increase\r\n     */\r\n    function _increaseAllowance(\r\n        address owner,\r\n        address spender,\r\n        uint256 increment\r\n    ) internal override {\r\n        _approve(owner, spender, allowed[owner][spender].add(increment));\r\n    }\r\n\r\n    /**\r\n     * @notice Internal function to decrease the allowance by a given decrement\r\n     * @param owner     Token owner's address\r\n     * @param spender   Spender's address\r\n     * @param decrement Amount of decrease\r\n     */\r\n    function _decreaseAllowance(\r\n        address owner,\r\n        address spender,\r\n        uint256 decrement\r\n    ) internal override {\r\n        _approve(\r\n            owner,\r\n            spender,\r\n            allowed[owner][spender].sub(\r\n                decrement,\r\n                \"ERC20: decreased allowance below zero\"\r\n            )\r\n        );\r\n    }\r\n}\r\n\r\n// File: contracts/v2/FiatTokenV2_1.sol\r\n\r\npragma solidity 0.8.19;\r\n\r\n\r\n// solhint-disable func-name-mixedcase\r\n\r\n/**\r\n * @title FiatToken V2.1\r\n * @notice ERC20 Token backed by fiat reserves, version 2.1\r\n */\r\ncontract FiatTokenV2_1 is FiatTokenV2 {\r\n    /**\r\n     * @notice Initialize v2.1\r\n     * @param lostAndFound  The address to which the locked funds are sent\r\n     */\r\n    function initializeV2_1(address lostAndFound) external {\r\n        // solhint-disable-next-line reason-string\r\n        require(_initializedVersion == 1);\r\n\r\n        uint256 lockedAmount = balances[address(this)];\r\n        if (lockedAmount > 0) {\r\n            _transfer(address(this), lostAndFound, lockedAmount);\r\n        }\r\n        blacklisted[address(this)] = true;\r\n\r\n        _initializedVersion = 2;\r\n    }\r\n\r\n    /**\r\n     * @notice Version string for the EIP712 domain separator\r\n     * @return Version string\r\n     */\r\n    function version() external view returns (string memory) {\r\n        return \"2\";\r\n    }\r\n}",
  "sourcePath": "/home/matheo/dev/Sofan/truffle/contracts/FiatTokenV2_1.sol",
  "compiler": {
    "name": "solc",
    "version": "0.8.19+commit.7dd6d404.Emscripten.clang"
  },
  "schemaVersion": "3.4.4",
  "updatedAt": "2023-09-19T19:13:36.072Z",
  "devdoc": {
    "events": {
      "Approval(address,address,uint256)": {
        "details": "Emitted when the allowance of a `spender` for an `owner` is set by a call to {approve}. `value` is the new allowance."
      },
      "OwnershipTransferred(address,address)": {
        "details": "Event to show ownership has been transferred",
        "params": {
          "newOwner": "representing the address of the new owner",
          "previousOwner": "representing the address of the previous owner"
        }
      },
      "Transfer(address,address,uint256)": {
        "details": "Emitted when `value` tokens are moved from one account (`from`) to another (`to`). Note that `value` may be zero."
      }
    },
    "kind": "dev",
    "methods": {
      "allowance(address,address)": {
        "params": {
          "owner": "Token owner's address",
          "spender": "Spender's address"
        },
        "returns": {
          "_0": "Allowance amount"
        }
      },
      "approve(address,uint256)": {
        "params": {
          "spender": "Spender's address",
          "value": "Allowance amount"
        },
        "returns": {
          "_0": "True if successful"
        }
      },
      "authorizationState(address,bytes32)": {
        "details": "Nonces are randomly generated 32-byte data unique to the authorizer's address",
        "params": {
          "authorizer": "Authorizer's address",
          "nonce": "Nonce of the authorization"
        },
        "returns": {
          "_0": "True if the nonce is used"
        }
      },
      "balanceOf(address)": {
        "details": "Get token balance of an account",
        "params": {
          "account": "address The account"
        }
      },
      "blacklist(address)": {
        "details": "Adds account to blacklist",
        "params": {
          "_account": "The address to blacklist"
        }
      },
      "burn(uint256)": {
        "details": "allows a minter to burn some of its own tokens Validates that caller is a minter and that sender is not blacklisted amount is less than or equal to the minter's account balance",
        "params": {
          "_amount": "uint256 the amount of tokens to be burned"
        }
      },
      "cancelAuthorization(address,bytes32,uint8,bytes32,bytes32)": {
        "details": "Works only if the authorization is not yet used.",
        "params": {
          "authorizer": "Authorizer's address",
          "nonce": "Nonce of the authorization",
          "r": "r of the signature",
          "s": "s of the signature",
          "v": "v of the signature"
        }
      },
      "configureMinter(address,uint256)": {
        "details": "Function to add/update a new minter",
        "params": {
          "minter": "The address of the minter",
          "minterAllowedAmount": "The minting amount allowed for the minter"
        },
        "returns": {
          "_0": "True if the operation was successful."
        }
      },
      "decreaseAllowance(address,uint256)": {
        "params": {
          "decrement": "Amount of decrease in allowance",
          "spender": "Spender's address"
        },
        "returns": {
          "_0": "True if successful"
        }
      },
      "increaseAllowance(address,uint256)": {
        "params": {
          "increment": "Amount of increase in allowance",
          "spender": "Spender's address"
        },
        "returns": {
          "_0": "True if successful"
        }
      },
      "initializeV2(string)": {
        "params": {
          "newName": "New token name"
        }
      },
      "initializeV2_1(address)": {
        "params": {
          "lostAndFound": "The address to which the locked funds are sent"
        }
      },
      "isBlacklisted(address)": {
        "details": "Checks if account is blacklisted",
        "params": {
          "_account": "The address to check"
        }
      },
      "isMinter(address)": {
        "details": "Checks if account is a minter",
        "params": {
          "account": "The address to check"
        }
      },
      "mint(address,uint256)": {
        "details": "Function to mint tokens",
        "params": {
          "_amount": "The amount of tokens to mint. Must be less than or equal to the minterAllowance of the caller.",
          "_to": "The address that will receive the minted tokens."
        },
        "returns": {
          "_0": "A boolean that indicates if the operation was successful."
        }
      },
      "minterAllowance(address)": {
        "details": "Get minter allowance for an account",
        "params": {
          "minter": "The address of the minter"
        }
      },
      "nonces(address)": {
        "params": {
          "owner": "Token owner's address (Authorizer)"
        },
        "returns": {
          "_0": "Next nonce"
        }
      },
      "owner()": {
        "details": "Tells the address of the owner",
        "returns": {
          "_0": "the address of the owner"
        }
      },
      "pause()": {
        "details": "called by the owner to pause, triggers stopped state"
      },
      "permit(address,address,uint256,uint256,uint8,bytes32,bytes32)": {
        "params": {
          "deadline": "Expiration time, seconds since the epoch",
          "owner": "Token owner's address (Authorizer)",
          "r": "r of the signature",
          "s": "s of the signature",
          "spender": "Spender's address",
          "v": "v of the signature",
          "value": "Amount of allowance"
        }
      },
      "receiveWithAuthorization(address,address,uint256,uint256,uint256,bytes32,uint8,bytes32,bytes32)": {
        "details": "This has an additional check to ensure that the payee's address matches the caller of this function to prevent front-running attacks.",
        "params": {
          "from": "Payer's address (Authorizer)",
          "nonce": "Unique nonce",
          "r": "r of the signature",
          "s": "s of the signature",
          "to": "Payee's address",
          "v": "v of the signature",
          "validAfter": "The time after which this is valid (unix time)",
          "validBefore": "The time before which this is valid (unix time)",
          "value": "Amount to be transferred"
        }
      },
      "removeMinter(address)": {
        "details": "Function to remove a minter",
        "params": {
          "minter": "The address of the minter to remove"
        },
        "returns": {
          "_0": "True if the operation was successful."
        }
      },
      "rescueERC20(address,address,uint256)": {
        "params": {
          "amount": "Amount to withdraw",
          "to": "Recipient address",
          "tokenContract": "ERC20 token contract address"
        }
      },
      "rescuer()": {
        "returns": {
          "_0": "Rescuer's address"
        }
      },
      "totalSupply()": {
        "details": "Get totalSupply of token"
      },
      "transfer(address,uint256)": {
        "params": {
          "to": "Payee's address",
          "value": "Transfer amount"
        },
        "returns": {
          "_0": "True if successful"
        }
      },
      "transferFrom(address,address,uint256)": {
        "params": {
          "from": "Payer's address",
          "to": "Payee's address",
          "value": "Transfer amount"
        },
        "returns": {
          "_0": "True if successful"
        }
      },
      "transferOwnership(address)": {
        "details": "Allows the current owner to transfer control of the contract to a newOwner.",
        "params": {
          "newOwner": "The address to transfer ownership to."
        }
      },
      "transferWithAuthorization(address,address,uint256,uint256,uint256,bytes32,uint8,bytes32,bytes32)": {
        "params": {
          "from": "Payer's address (Authorizer)",
          "nonce": "Unique nonce",
          "r": "r of the signature",
          "s": "s of the signature",
          "to": "Payee's address",
          "v": "v of the signature",
          "validAfter": "The time after which this is valid (unix time)",
          "validBefore": "The time before which this is valid (unix time)",
          "value": "Amount to be transferred"
        }
      },
      "unBlacklist(address)": {
        "details": "Removes account from blacklist",
        "params": {
          "_account": "The address to remove from the blacklist"
        }
      },
      "unpause()": {
        "details": "called by the owner to unpause, returns to normal state"
      },
      "updatePauser(address)": {
        "details": "update the pauser role"
      },
      "updateRescuer(address)": {
        "params": {
          "newRescuer": "New rescuer's address"
        }
      },
      "version()": {
        "returns": {
          "_0": "Version string"
        }
      }
    },
    "title": "FiatToken V2.1",
    "version": 1
  },
  "userdoc": {
    "kind": "user",
    "methods": {
      "allowance(address,address)": {
        "notice": "Amount of remaining tokens spender is allowed to transfer on behalf of the token owner"
      },
      "approve(address,uint256)": {
        "notice": "Set spender's allowance over the caller's tokens to be a given value."
      },
      "authorizationState(address,bytes32)": {
        "notice": "Returns the state of an authorization"
      },
      "cancelAuthorization(address,bytes32,uint8,bytes32,bytes32)": {
        "notice": "Attempt to cancel an authorization"
      },
      "decreaseAllowance(address,uint256)": {
        "notice": "Decrease the allowance by a given decrement"
      },
      "increaseAllowance(address,uint256)": {
        "notice": "Increase the allowance by a given increment"
      },
      "initializeV2(string)": {
        "notice": "Initialize v2"
      },
      "initializeV2_1(address)": {
        "notice": "Initialize v2.1"
      },
      "nonces(address)": {
        "notice": "Nonces for permit"
      },
      "permit(address,address,uint256,uint256,uint8,bytes32,bytes32)": {
        "notice": "Update allowance with a signed permit"
      },
      "receiveWithAuthorization(address,address,uint256,uint256,uint256,bytes32,uint8,bytes32,bytes32)": {
        "notice": "Receive a transfer with a signed authorization from the payer"
      },
      "rescueERC20(address,address,uint256)": {
        "notice": "Rescue ERC20 tokens locked up in this contract."
      },
      "rescuer()": {
        "notice": "Returns current rescuer"
      },
      "transfer(address,uint256)": {
        "notice": "Transfer tokens from the caller"
      },
      "transferFrom(address,address,uint256)": {
        "notice": "Transfer tokens by spending allowance"
      },
      "transferWithAuthorization(address,address,uint256,uint256,uint256,bytes32,uint8,bytes32,bytes32)": {
        "notice": "Execute a transfer with a signed authorization"
      },
      "updateRescuer(address)": {
        "notice": "Assign the rescuer role to a given address."
      },
      "version()": {
        "notice": "Version string for the EIP712 domain separator"
      }
    },
    "notice": "ERC20 Token backed by fiat reserves, version 2.1",
    "version": 1
  }
}