{
  "contractName": "FiatTokenProxy",
  "abi": [
    {
      "inputs": [
        {
          "internalType": "address",
          "name": "implementationContract",
          "type": "address"
        }
      ],
      "stateMutability": "nonpayable",
      "type": "constructor"
    },
    {
      "anonymous": false,
      "inputs": [
        {
          "indexed": false,
          "internalType": "address",
          "name": "previousAdmin",
          "type": "address"
        },
        {
          "indexed": false,
          "internalType": "address",
          "name": "newAdmin",
          "type": "address"
        }
      ],
      "name": "AdminChanged",
      "type": "event"
    },
    {
      "anonymous": false,
      "inputs": [
        {
          "indexed": false,
          "internalType": "address",
          "name": "implementation",
          "type": "address"
        }
      ],
      "name": "Upgraded",
      "type": "event"
    },
    {
      "stateMutability": "payable",
      "type": "fallback"
    },
    {
      "inputs": [],
      "name": "admin",
      "outputs": [
        {
          "internalType": "address",
          "name": "",
          "type": "address"
        }
      ],
      "stateMutability": "view",
      "type": "function"
    },
    {
      "inputs": [
        {
          "internalType": "address",
          "name": "newAdmin",
          "type": "address"
        }
      ],
      "name": "changeAdmin",
      "outputs": [],
      "stateMutability": "nonpayable",
      "type": "function"
    },
    {
      "inputs": [],
      "name": "implementation",
      "outputs": [
        {
          "internalType": "address",
          "name": "",
          "type": "address"
        }
      ],
      "stateMutability": "view",
      "type": "function"
    }
  ],
  "bytecode": "0x608060405234801561001057600080fd5b506040516103d83803806103d883398101604081905261002f91610035565b50610065565b60006020828403121561004757600080fd5b81516001600160a01b038116811461005e57600080fd5b9392505050565b610364806100746000396000f3fe6080604052600436106100345760003560e01c80635c60da1b1461003e5780638f2839701461006f578063f851a4401461008f575b61003c6100a4565b005b34801561004a57600080fd5b506100536100de565b6040516001600160a01b03909116815260200160405180910390f35b34801561007b57600080fd5b5061003c61008a3660046102de565b61010d565b34801561009b57600080fd5b50610053610220565b6100ac610238565b6100dc6100d77f7050c9e0f4ca769c69bd3a8ef740bc37934f8e2c036e5a723fd8ee048ed3f8c35490565b6102ba565b565b60006101087f7050c9e0f4ca769c69bd3a8ef740bc37934f8e2c036e5a723fd8ee048ed3f8c35490565b905090565b60008051602061030f833981519152546001600160a01b03163303610218576001600160a01b0381166101a65760405162461bcd60e51b815260206004820152603660248201527f43616e6e6f74206368616e6765207468652061646d696e206f6620612070726f604482015275787920746f20746865207a65726f206164647265737360501b60648201526084015b60405180910390fd5b7f7e644d79422f17c01e4894b5f4f588d331ebfa28653d42ae832dc59e38c9798f6101dd60008051602061030f8339815191525490565b604080516001600160a01b03928316815291841660208301520160405180910390a16102158160008051602061030f83398151915255565b50565b6102156100a4565b600061010860008051602061030f8339815191525490565b60008051602061030f833981519152546001600160a01b031633036100dc5760405162461bcd60e51b815260206004820152603260248201527f43616e6e6f742063616c6c2066616c6c6261636b2066756e6374696f6e20667260448201527137b6903a343290383937bc3c9030b236b4b760711b606482015260840161019d565b3660008037600080366000845af43d6000803e8080156102d9573d6000f35b3d6000fd5b6000602082840312156102f057600080fd5b81356001600160a01b038116811461030757600080fd5b939250505056fe10d6a54a4754c8869d6886b5f5d7fbfa5b4522237ea5c60d11bc4e7a1ff9390ba2646970667358221220a55ccfb46cc69fdb43baf565d5b5004eda47c85dc37cca6220ecb5832095112364736f6c63430008130033",
  "immutableReferences": {},
  "source": "/**\r\n *Submitted for verification at Etherscan.io on 2021-09-20\r\n*/\r\n\r\n// File: contracts/upgradeability/Proxy.sol\r\n\r\n/**\r\n * SPDX-License-Identifier: MIT\r\n *\r\n * Copyright (c) 2018 zOS Global Limited.\r\n *\r\n * Permission is hereby granted, free of charge, to any person obtaining a copy\r\n * of this software and associated documentation files (the \"Software\"), to deal\r\n * in the Software without restriction, including without limitation the rights\r\n * to use, copy, modify, merge, publish, distribute, sublicense, and/or sell\r\n * copies of the Software, and to permit persons to whom the Software is\r\n * furnished to do so, subject to the following conditions:\r\n *\r\n * The above copyright notice and this permission notice shall be included in\r\n * copies or substantial portions of the Software.\r\n *\r\n * THE SOFTWARE IS PROVIDED \"AS IS\", WITHOUT WARRANTY OF ANY KIND, EXPRESS OR\r\n * IMPLIED, INCLUDING BUT NOT LIMITED TO THE WARRANTIES OF MERCHANTABILITY,\r\n * FITNESS FOR A PARTICULAR PURPOSE AND NONINFRINGEMENT. IN NO EVENT SHALL THE\r\n * AUTHORS OR COPYRIGHT HOLDERS BE LIABLE FOR ANY CLAIM, DAMAGES OR OTHER\r\n * LIABILITY, WHETHER IN AN ACTION OF CONTRACT, TORT OR OTHERWISE, ARISING FROM,\r\n * OUT OF OR IN CONNECTION WITH THE SOFTWARE OR THE USE OR OTHER DEALINGS IN THE\r\n * SOFTWARE.\r\n */\r\n\r\npragma solidity 0.8.19;\r\n\r\n/**\r\n * @notice Implements delegation of calls to other contracts, with proper\r\n * forwarding of return values and bubbling of failures.\r\n * It defines a fallback function that delegates all calls to the address\r\n * returned by the abstract _implementation() internal function.\r\n * @dev Forked from https://github.com/zeppelinos/zos-lib/blob/8a16ef3ad17ec7430e3a9d2b5e3f39b8204f8c8d/contracts/upgradeability/Proxy.sol\r\n * Modifications:\r\n * 1. Reformat and conform to Solidity 0.6 syntax (5/13/20)\r\n */\r\nabstract contract Proxy {\r\n    /**\r\n     * @dev Fallback function.\r\n     * Implemented entirely in `_fallback`.\r\n     */\r\n    fallback() external payable {\r\n        _fallback();\r\n    }\r\n\r\n    /**\r\n     * @return The Address of the implementation.\r\n     */\r\n    function _implementation() internal virtual view returns (address);\r\n\r\n    /**\r\n     * @dev Delegates execution to an implementation contract.\r\n     * This is a low level function that doesn't return to its internal call site.\r\n     * It will return to the external caller whatever the implementation returns.\r\n     * @param implementation Address to delegate.\r\n     */\r\n    function _delegate(address implementation) internal {\r\n        assembly {\r\n            // Copy msg.data. We take full control of memory in this inline assembly\r\n            // block because it will not return to Solidity code. We overwrite the\r\n            // Solidity scratch pad at memory position 0.\r\n            calldatacopy(0, 0, calldatasize())\r\n\r\n            // Call the implementation.\r\n            // out and outsize are 0 because we don't know the size yet.\r\n            let result := delegatecall(\r\n                gas(),\r\n                implementation,\r\n                0,\r\n                calldatasize(),\r\n                0,\r\n                0\r\n            )\r\n\r\n            // Copy the returned data.\r\n            returndatacopy(0, 0, returndatasize())\r\n\r\n            switch result\r\n                // delegatecall returns 0 on error.\r\n                case 0 {\r\n                    revert(0, returndatasize())\r\n                }\r\n                default {\r\n                    return(0, returndatasize())\r\n                }\r\n        }\r\n    }\r\n\r\n    /**\r\n     * @dev Function that is run as the first thing in the fallback function.\r\n     * Can be redefined in derived contracts to add functionality.\r\n     * Redefinitions must call super._willFallback().\r\n     */\r\n    function _willFallback() internal virtual {}\r\n\r\n    /**\r\n     * @dev fallback implementation.\r\n     * Extracted to enable manual triggering.\r\n     */\r\n    function _fallback() internal {\r\n        _willFallback();\r\n        _delegate(_implementation());\r\n    }\r\n}\r\n\r\n// File: @openzeppelin/contracts/utils/Address.sol\r\n\r\n\r\n// File: contracts/upgradeability/UpgradeabilityProxy.sol\r\n\r\npragma solidity 0.8.19;\r\n\r\n\r\n\r\n/**\r\n * @notice This contract implements a proxy that allows to change the\r\n * implementation address to which it will delegate.\r\n * Such a change is called an implementation upgrade.\r\n * @dev Forked from https://github.com/zeppelinos/zos-lib/blob/8a16ef3ad17ec7430e3a9d2b5e3f39b8204f8c8d/contracts/upgradeability/UpgradeabilityProxy.sol\r\n * Modifications:\r\n * 1. Reformat, conform to Solidity 0.6 syntax, and add error messages (5/13/20)\r\n * 2. Use Address utility library from the latest OpenZeppelin (5/13/20)\r\n */\r\ncontract UpgradeabilityProxy is Proxy {\r\n    /**\r\n     * @dev Emitted when the implementation is upgraded.\r\n     * @param implementation Address of the new implementation.\r\n     */\r\n    event Upgraded(address implementation);\r\n\r\n    /**\r\n     * @dev Storage slot with the address of the current implementation.\r\n     * This is the keccak-256 hash of \"org.zeppelinos.proxy.implementation\", and is\r\n     * validated in the constructor.\r\n     */\r\n    bytes32\r\n        private constant IMPLEMENTATION_SLOT = 0x7050c9e0f4ca769c69bd3a8ef740bc37934f8e2c036e5a723fd8ee048ed3f8c3;\r\n\r\n    /**\r\n     * @dev Contract constructor.\r\n     * @param implementationContract Address of the initial implementation.\r\n     */\r\n    // constructor(address implementationContract) public {\r\n    //     assert(\r\n    //         IMPLEMENTATION_SLOT ==\r\n    //             keccak256(\"org.zeppelinos.proxy.implementation\")\r\n    //     );\r\n\r\n    //     _setImplementation(implementationContract);\r\n    // }\r\n\r\n    /**\r\n     * @dev Returns the current implementation.\r\n     * @return impl Address of the current implementation\r\n     */\r\n    function _implementation() internal override view returns (address impl) {\r\n        bytes32 slot = IMPLEMENTATION_SLOT;\r\n        assembly {\r\n            impl := sload(slot)\r\n        }\r\n    }\r\n\r\n    /**\r\n     * @dev Upgrades the proxy to a new implementation.\r\n     * @param newImplementation Address of the new implementation.\r\n     */\r\n    // function _upgradeTo(address newImplementation) internal {\r\n    //     _setImplementation(newImplementation);\r\n    //     emit Upgraded(newImplementation);\r\n    // }\r\n\r\n    /**\r\n     * @dev Sets the implementation address of the proxy.\r\n     * @param newImplementation Address of the new implementation.\r\n     */\r\n    // function _setImplementation(address newImplementation) private {\r\n    //     require(\r\n    //         Address.isContract(newImplementation),\r\n    //         \"Cannot set a proxy implementation to a non-contract address\"\r\n    //     );\r\n\r\n    //     bytes32 slot = IMPLEMENTATION_SLOT;\r\n\r\n    //     assembly {\r\n    //         sstore(slot, newImplementation)\r\n    //     }\r\n    // }\r\n}\r\n\r\n// File: contracts/upgradeability/AdminUpgradeabilityProxy.sol\r\n\r\npragma solidity 0.8.19;\r\n\r\n\r\n/**\r\n * @notice This contract combines an upgradeability proxy with an authorization\r\n * mechanism for administrative tasks.\r\n * @dev Forked from https://github.com/zeppelinos/zos-lib/blob/8a16ef3ad17ec7430e3a9d2b5e3f39b8204f8c8d/contracts/upgradeability/AdminUpgradeabilityProxy.sol\r\n * Modifications:\r\n * 1. Reformat, conform to Solidity 0.6 syntax, and add error messages (5/13/20)\r\n * 2. Remove ifAdmin modifier from admin() and implementation() (5/13/20)\r\n */\r\ncontract AdminUpgradeabilityProxy is UpgradeabilityProxy {\r\n    /**\r\n     * @dev Emitted when the administration has been transferred.\r\n     * @param previousAdmin Address of the previous admin.\r\n     * @param newAdmin Address of the new admin.\r\n     */\r\n    event AdminChanged(address previousAdmin, address newAdmin);\r\n\r\n    /**\r\n     * @dev Storage slot with the admin of the contract.\r\n     * This is the keccak-256 hash of \"org.zeppelinos.proxy.admin\", and is\r\n     * validated in the constructor.\r\n     */\r\n    bytes32\r\n        private constant ADMIN_SLOT = 0x10d6a54a4754c8869d6886b5f5d7fbfa5b4522237ea5c60d11bc4e7a1ff9390b;\r\n\r\n    /**\r\n     * @dev Modifier to check whether the `msg.sender` is the admin.\r\n     * If it is, it will run the function. Otherwise, it will delegate the call\r\n     * to the implementation.\r\n     */\r\n    modifier ifAdmin() {\r\n        if (msg.sender == _admin()) {\r\n            _;\r\n        } else {\r\n            _fallback();\r\n        }\r\n    }\r\n\r\n    /**\r\n     * @dev Contract constructor.\r\n     * It sets the `msg.sender` as the proxy administrator.\r\n     * @param implementationContract address of the initial implementation.\r\n     */\r\n    // constructor(address implementationContract)\r\n    //     public\r\n    //     UpgradeabilityProxy(implementationContract)\r\n    // {\r\n    //     assert(ADMIN_SLOT == keccak256(\"org.zeppelinos.proxy.admin\"));\r\n\r\n    //     _setAdmin(msg.sender);\r\n    // }\r\n\r\n    /**\r\n     * @return The address of the proxy admin.\r\n     */\r\n    function admin() external view returns (address) {\r\n        return _admin();\r\n    }\r\n\r\n    /**\r\n     * @return The address of the implementation.\r\n     */\r\n    function implementation() external view returns (address) {\r\n        return _implementation();\r\n    }\r\n\r\n    /**\r\n     * @dev Changes the admin of the proxy.\r\n     * Only the current admin can call this function.\r\n     * @param newAdmin Address to transfer proxy administration to.\r\n     */\r\n    function changeAdmin(address newAdmin) external ifAdmin {\r\n        require(\r\n            newAdmin != address(0),\r\n            \"Cannot change the admin of a proxy to the zero address\"\r\n        );\r\n        emit AdminChanged(_admin(), newAdmin);\r\n        _setAdmin(newAdmin);\r\n    }\r\n\r\n    /**\r\n     * @dev Upgrade the backing implementation of the proxy.\r\n     * Only the admin can call this function.\r\n     * @param newImplementation Address of the new implementation.\r\n     */\r\n    // function upgradeTo(address newImplementation) external ifAdmin {\r\n    //     _upgradeTo(newImplementation);\r\n    // }\r\n\r\n    /**\r\n     * @dev Upgrade the backing implementation of the proxy and call a function\r\n     * on the new implementation.\r\n     * This is useful to initialize the proxied contract.\r\n     * @param newImplementation Address of the new implementation.\r\n     * @param data Data to send as msg.data in the low level call.\r\n     * It should include the signature and the parameters of the function to be\r\n     * called, as described in\r\n     * https://solidity.readthedocs.io/en/develop/abi-spec.html#function-selector-and-argument-encoding.\r\n     */\r\n    // function upgradeToAndCall(address newImplementation, bytes calldata data)\r\n    //     external\r\n    //     payable\r\n    //     ifAdmin\r\n    // {\r\n    //     _upgradeTo(newImplementation);\r\n    //     // prettier-ignore\r\n    //     // solhint-disable-next-line avoid-low-level-calls\r\n    //     (bool success,) = address(this).call{value: msg.value}(data);\r\n    //     // solhint-disable-next-line reason-string\r\n    //     require(success);\r\n    // }\r\n\r\n    /**\r\n     * @return adm The admin slot.\r\n     */\r\n    function _admin() internal view returns (address adm) {\r\n        bytes32 slot = ADMIN_SLOT;\r\n\r\n        assembly {\r\n            adm := sload(slot)\r\n        }\r\n    }\r\n\r\n    /**\r\n     * @dev Sets the address of the proxy admin.\r\n     * @param newAdmin Address of the new proxy admin.\r\n     */\r\n    function _setAdmin(address newAdmin) internal {\r\n        bytes32 slot = ADMIN_SLOT;\r\n\r\n        assembly {\r\n            sstore(slot, newAdmin)\r\n        }\r\n    }\r\n\r\n    /**\r\n     * @dev Only fall back when the sender is not the admin.\r\n     */\r\n    function _willFallback() internal override {\r\n        require(\r\n            msg.sender != _admin(),\r\n            \"Cannot call fallback function from the proxy admin\"\r\n        );\r\n        super._willFallback();\r\n    }\r\n}\r\n\r\n// File: contracts/v1/FiatTokenProxy.sol\r\n\r\npragma solidity 0.8.19;\r\n\r\n\r\n/**\r\n * @title FiatTokenProxy\r\n * @dev This contract proxies FiatToken calls and enables FiatToken upgrades\r\n */\r\ncontract FiatTokenProxy is AdminUpgradeabilityProxy {\r\n    constructor(address implementationContract)\r\n        public\r\n        // AdminUpgradeabilityProxy(implementationContract)\r\n    {}\r\n}",
  "sourcePath": "/home/matheo/dev/Sofan/truffle/contracts/Proxy.sol",
  "compiler": {
    "name": "solc",
    "version": "0.8.19+commit.7dd6d404.Emscripten.clang"
  },
  "schemaVersion": "3.4.4",
  "updatedAt": "2023-09-26T13:25:18.098Z",
  "devdoc": {
    "details": "This contract proxies FiatToken calls and enables FiatToken upgrades",
    "events": {
      "AdminChanged(address,address)": {
        "details": "Emitted when the administration has been transferred.",
        "params": {
          "newAdmin": "Address of the new admin.",
          "previousAdmin": "Address of the previous admin."
        }
      },
      "Upgraded(address)": {
        "details": "Emitted when the implementation is upgraded.",
        "params": {
          "implementation": "Address of the new implementation."
        }
      }
    },
    "kind": "dev",
    "methods": {
      "admin()": {
        "returns": {
          "_0": "The address of the proxy admin."
        }
      },
      "changeAdmin(address)": {
        "details": "Changes the admin of the proxy. Only the current admin can call this function.",
        "params": {
          "newAdmin": "Address to transfer proxy administration to."
        }
      },
      "implementation()": {
        "returns": {
          "_0": "The address of the implementation."
        }
      }
    },
    "title": "FiatTokenProxy",
    "version": 1
  },
  "userdoc": {
    "kind": "user",
    "methods": {},
    "version": 1
  }
}