{
  "contractName": "FiatTokenProxy",
  "abi": [
    {
      "inputs": [
        {
          "internalType": "address",
          "name": "implementationContract",
          "type": "address"
        }
      ],
      "stateMutability": "nonpayable",
      "type": "constructor"
    },
    {
      "anonymous": false,
      "inputs": [
        {
          "indexed": false,
          "internalType": "address",
          "name": "previousAdmin",
          "type": "address"
        },
        {
          "indexed": false,
          "internalType": "address",
          "name": "newAdmin",
          "type": "address"
        }
      ],
      "name": "AdminChanged",
      "type": "event"
    },
    {
      "anonymous": false,
      "inputs": [
        {
          "indexed": false,
          "internalType": "address",
          "name": "implementation",
          "type": "address"
        }
      ],
      "name": "Upgraded",
      "type": "event"
    },
    {
      "stateMutability": "payable",
      "type": "fallback"
    },
    {
      "inputs": [],
      "name": "admin",
      "outputs": [
        {
          "internalType": "address",
          "name": "",
          "type": "address"
        }
      ],
      "stateMutability": "view",
      "type": "function"
    },
    {
      "inputs": [
        {
          "internalType": "address",
          "name": "newAdmin",
          "type": "address"
        }
      ],
      "name": "changeAdmin",
      "outputs": [],
      "stateMutability": "nonpayable",
      "type": "function"
    },
    {
      "inputs": [],
      "name": "implementation",
      "outputs": [
        {
          "internalType": "address",
          "name": "",
          "type": "address"
        }
      ],
      "stateMutability": "view",
      "type": "function"
    }
  ],
  "bytecode": "0x608060405234801561001057600080fd5b5060405161065a38038061065a8339818101604052810190610032919061009b565b506100c8565b600080fd5b600073ffffffffffffffffffffffffffffffffffffffff82169050919050565b60006100688261003d565b9050919050565b6100788161005d565b811461008357600080fd5b50565b6000815190506100958161006f565b92915050565b6000602082840312156100b1576100b0610038565b5b60006100bf84828501610086565b91505092915050565b610583806100d76000396000f3fe6080604052600436106100385760003560e01c80635c60da1b146100435780638f2839701461006e578063f851a4401461009757610039565b5b6100416100c2565b005b34801561004f57600080fd5b506100586100dc565b6040516100659190610376565b60405180910390f35b34801561007a57600080fd5b50610095600480360381019061009091906103c2565b6100eb565b005b3480156100a357600080fd5b506100ac6101ee565b6040516100b99190610376565b60405180910390f35b6100ca6101fd565b6100da6100d561027c565b6102ad565b565b60006100e661027c565b905090565b6100f36102d3565b73ffffffffffffffffffffffffffffffffffffffff163373ffffffffffffffffffffffffffffffffffffffff16036101e257600073ffffffffffffffffffffffffffffffffffffffff168173ffffffffffffffffffffffffffffffffffffffff1603610194576040517f08c379a000000000000000000000000000000000000000000000000000000000815260040161018b90610472565b60405180910390fd5b7f7e644d79422f17c01e4894b5f4f588d331ebfa28653d42ae832dc59e38c9798f6101bd6102d3565b826040516101cc929190610492565b60405180910390a16101dd81610304565b6101eb565b6101ea6100c2565b5b50565b60006101f86102d3565b905090565b6102056102d3565b73ffffffffffffffffffffffffffffffffffffffff163373ffffffffffffffffffffffffffffffffffffffff1603610272576040517f08c379a00000000000000000000000000000000000000000000000000000000081526004016102699061052d565b60405180910390fd5b61027a610333565b565b6000807f7050c9e0f4ca769c69bd3a8ef740bc37934f8e2c036e5a723fd8ee048ed3f8c360001b9050805491505090565b3660008037600080366000845af43d6000803e80600081146102ce573d6000f35b3d6000fd5b6000807f10d6a54a4754c8869d6886b5f5d7fbfa5b4522237ea5c60d11bc4e7a1ff9390b60001b9050805491505090565b60007f10d6a54a4754c8869d6886b5f5d7fbfa5b4522237ea5c60d11bc4e7a1ff9390b60001b90508181555050565b565b600073ffffffffffffffffffffffffffffffffffffffff82169050919050565b600061036082610335565b9050919050565b61037081610355565b82525050565b600060208201905061038b6000830184610367565b92915050565b600080fd5b61039f81610355565b81146103aa57600080fd5b50565b6000813590506103bc81610396565b92915050565b6000602082840312156103d8576103d7610391565b5b60006103e6848285016103ad565b91505092915050565b600082825260208201905092915050565b7f43616e6e6f74206368616e6765207468652061646d696e206f6620612070726f60008201527f787920746f20746865207a65726f206164647265737300000000000000000000602082015250565b600061045c6036836103ef565b915061046782610400565b604082019050919050565b6000602082019050818103600083015261048b8161044f565b9050919050565b60006040820190506104a76000830185610367565b6104b46020830184610367565b9392505050565b7f43616e6e6f742063616c6c2066616c6c6261636b2066756e6374696f6e20667260008201527f6f6d207468652070726f78792061646d696e0000000000000000000000000000602082015250565b60006105176032836103ef565b9150610522826104bb565b604082019050919050565b600060208201905081810360008301526105468161050a565b905091905056fea26469706673582212204cf4b053ae733709b0dfd7dc27077b36c32f4b0c625f8a4db66641ba28d1657b64736f6c63430008130033",
  "immutableReferences": {},
  "source": "/**\r\n *Submitted for verification at Etherscan.io on 2021-09-20\r\n*/\r\n\r\n// File: contracts/upgradeability/Proxy.sol\r\n\r\n/**\r\n * SPDX-License-Identifier: MIT\r\n *\r\n * Copyright (c) 2018 zOS Global Limited.\r\n *\r\n * Permission is hereby granted, free of charge, to any person obtaining a copy\r\n * of this software and associated documentation files (the \"Software\"), to deal\r\n * in the Software without restriction, including without limitation the rights\r\n * to use, copy, modify, merge, publish, distribute, sublicense, and/or sell\r\n * copies of the Software, and to permit persons to whom the Software is\r\n * furnished to do so, subject to the following conditions:\r\n *\r\n * The above copyright notice and this permission notice shall be included in\r\n * copies or substantial portions of the Software.\r\n *\r\n * THE SOFTWARE IS PROVIDED \"AS IS\", WITHOUT WARRANTY OF ANY KIND, EXPRESS OR\r\n * IMPLIED, INCLUDING BUT NOT LIMITED TO THE WARRANTIES OF MERCHANTABILITY,\r\n * FITNESS FOR A PARTICULAR PURPOSE AND NONINFRINGEMENT. IN NO EVENT SHALL THE\r\n * AUTHORS OR COPYRIGHT HOLDERS BE LIABLE FOR ANY CLAIM, DAMAGES OR OTHER\r\n * LIABILITY, WHETHER IN AN ACTION OF CONTRACT, TORT OR OTHERWISE, ARISING FROM,\r\n * OUT OF OR IN CONNECTION WITH THE SOFTWARE OR THE USE OR OTHER DEALINGS IN THE\r\n * SOFTWARE.\r\n */\r\n\r\npragma solidity 0.8.19;\r\n\r\n/**\r\n * @notice Implements delegation of calls to other contracts, with proper\r\n * forwarding of return values and bubbling of failures.\r\n * It defines a fallback function that delegates all calls to the address\r\n * returned by the abstract _implementation() internal function.\r\n * @dev Forked from https://github.com/zeppelinos/zos-lib/blob/8a16ef3ad17ec7430e3a9d2b5e3f39b8204f8c8d/contracts/upgradeability/Proxy.sol\r\n * Modifications:\r\n * 1. Reformat and conform to Solidity 0.6 syntax (5/13/20)\r\n */\r\nabstract contract Proxy {\r\n    /**\r\n     * @dev Fallback function.\r\n     * Implemented entirely in `_fallback`.\r\n     */\r\n    fallback() external payable {\r\n        _fallback();\r\n    }\r\n\r\n    /**\r\n     * @return The Address of the implementation.\r\n     */\r\n    function _implementation() internal virtual view returns (address);\r\n\r\n    /**\r\n     * @dev Delegates execution to an implementation contract.\r\n     * This is a low level function that doesn't return to its internal call site.\r\n     * It will return to the external caller whatever the implementation returns.\r\n     * @param implementation Address to delegate.\r\n     */\r\n    function _delegate(address implementation) internal {\r\n        assembly {\r\n            // Copy msg.data. We take full control of memory in this inline assembly\r\n            // block because it will not return to Solidity code. We overwrite the\r\n            // Solidity scratch pad at memory position 0.\r\n            calldatacopy(0, 0, calldatasize())\r\n\r\n            // Call the implementation.\r\n            // out and outsize are 0 because we don't know the size yet.\r\n            let result := delegatecall(\r\n                gas(),\r\n                implementation,\r\n                0,\r\n                calldatasize(),\r\n                0,\r\n                0\r\n            )\r\n\r\n            // Copy the returned data.\r\n            returndatacopy(0, 0, returndatasize())\r\n\r\n            switch result\r\n                // delegatecall returns 0 on error.\r\n                case 0 {\r\n                    revert(0, returndatasize())\r\n                }\r\n                default {\r\n                    return(0, returndatasize())\r\n                }\r\n        }\r\n    }\r\n\r\n    /**\r\n     * @dev Function that is run as the first thing in the fallback function.\r\n     * Can be redefined in derived contracts to add functionality.\r\n     * Redefinitions must call super._willFallback().\r\n     */\r\n    function _willFallback() internal virtual {}\r\n\r\n    /**\r\n     * @dev fallback implementation.\r\n     * Extracted to enable manual triggering.\r\n     */\r\n    function _fallback() internal {\r\n        _willFallback();\r\n        _delegate(_implementation());\r\n    }\r\n}\r\n\r\n// File: @openzeppelin/contracts/utils/Address.sol\r\n\r\n\r\n// File: contracts/upgradeability/UpgradeabilityProxy.sol\r\n\r\npragma solidity 0.8.19;\r\n\r\n\r\n\r\n/**\r\n * @notice This contract implements a proxy that allows to change the\r\n * implementation address to which it will delegate.\r\n * Such a change is called an implementation upgrade.\r\n * @dev Forked from https://github.com/zeppelinos/zos-lib/blob/8a16ef3ad17ec7430e3a9d2b5e3f39b8204f8c8d/contracts/upgradeability/UpgradeabilityProxy.sol\r\n * Modifications:\r\n * 1. Reformat, conform to Solidity 0.6 syntax, and add error messages (5/13/20)\r\n * 2. Use Address utility library from the latest OpenZeppelin (5/13/20)\r\n */\r\ncontract UpgradeabilityProxy is Proxy {\r\n    /**\r\n     * @dev Emitted when the implementation is upgraded.\r\n     * @param implementation Address of the new implementation.\r\n     */\r\n    event Upgraded(address implementation);\r\n\r\n    /**\r\n     * @dev Storage slot with the address of the current implementation.\r\n     * This is the keccak-256 hash of \"org.zeppelinos.proxy.implementation\", and is\r\n     * validated in the constructor.\r\n     */\r\n    bytes32\r\n        private constant IMPLEMENTATION_SLOT = 0x7050c9e0f4ca769c69bd3a8ef740bc37934f8e2c036e5a723fd8ee048ed3f8c3;\r\n\r\n    /**\r\n     * @dev Contract constructor.\r\n     * @param implementationContract Address of the initial implementation.\r\n     */\r\n    // constructor(address implementationContract) public {\r\n    //     assert(\r\n    //         IMPLEMENTATION_SLOT ==\r\n    //             keccak256(\"org.zeppelinos.proxy.implementation\")\r\n    //     );\r\n\r\n    //     _setImplementation(implementationContract);\r\n    // }\r\n\r\n    /**\r\n     * @dev Returns the current implementation.\r\n     * @return impl Address of the current implementation\r\n     */\r\n    function _implementation() internal override view returns (address impl) {\r\n        bytes32 slot = IMPLEMENTATION_SLOT;\r\n        assembly {\r\n            impl := sload(slot)\r\n        }\r\n    }\r\n\r\n    /**\r\n     * @dev Upgrades the proxy to a new implementation.\r\n     * @param newImplementation Address of the new implementation.\r\n     */\r\n    // function _upgradeTo(address newImplementation) internal {\r\n    //     _setImplementation(newImplementation);\r\n    //     emit Upgraded(newImplementation);\r\n    // }\r\n\r\n    /**\r\n     * @dev Sets the implementation address of the proxy.\r\n     * @param newImplementation Address of the new implementation.\r\n     */\r\n    // function _setImplementation(address newImplementation) private {\r\n    //     require(\r\n    //         Address.isContract(newImplementation),\r\n    //         \"Cannot set a proxy implementation to a non-contract address\"\r\n    //     );\r\n\r\n    //     bytes32 slot = IMPLEMENTATION_SLOT;\r\n\r\n    //     assembly {\r\n    //         sstore(slot, newImplementation)\r\n    //     }\r\n    // }\r\n}\r\n\r\n// File: contracts/upgradeability/AdminUpgradeabilityProxy.sol\r\n\r\npragma solidity 0.8.19;\r\n\r\n\r\n/**\r\n * @notice This contract combines an upgradeability proxy with an authorization\r\n * mechanism for administrative tasks.\r\n * @dev Forked from https://github.com/zeppelinos/zos-lib/blob/8a16ef3ad17ec7430e3a9d2b5e3f39b8204f8c8d/contracts/upgradeability/AdminUpgradeabilityProxy.sol\r\n * Modifications:\r\n * 1. Reformat, conform to Solidity 0.6 syntax, and add error messages (5/13/20)\r\n * 2. Remove ifAdmin modifier from admin() and implementation() (5/13/20)\r\n */\r\ncontract AdminUpgradeabilityProxy is UpgradeabilityProxy {\r\n    /**\r\n     * @dev Emitted when the administration has been transferred.\r\n     * @param previousAdmin Address of the previous admin.\r\n     * @param newAdmin Address of the new admin.\r\n     */\r\n    event AdminChanged(address previousAdmin, address newAdmin);\r\n\r\n    /**\r\n     * @dev Storage slot with the admin of the contract.\r\n     * This is the keccak-256 hash of \"org.zeppelinos.proxy.admin\", and is\r\n     * validated in the constructor.\r\n     */\r\n    bytes32\r\n        private constant ADMIN_SLOT = 0x10d6a54a4754c8869d6886b5f5d7fbfa5b4522237ea5c60d11bc4e7a1ff9390b;\r\n\r\n    /**\r\n     * @dev Modifier to check whether the `msg.sender` is the admin.\r\n     * If it is, it will run the function. Otherwise, it will delegate the call\r\n     * to the implementation.\r\n     */\r\n    modifier ifAdmin() {\r\n        if (msg.sender == _admin()) {\r\n            _;\r\n        } else {\r\n            _fallback();\r\n        }\r\n    }\r\n\r\n    /**\r\n     * @dev Contract constructor.\r\n     * It sets the `msg.sender` as the proxy administrator.\r\n     * @param implementationContract address of the initial implementation.\r\n     */\r\n    // constructor(address implementationContract)\r\n    //     public\r\n    //     UpgradeabilityProxy(implementationContract)\r\n    // {\r\n    //     assert(ADMIN_SLOT == keccak256(\"org.zeppelinos.proxy.admin\"));\r\n\r\n    //     _setAdmin(msg.sender);\r\n    // }\r\n\r\n    /**\r\n     * @return The address of the proxy admin.\r\n     */\r\n    function admin() external view returns (address) {\r\n        return _admin();\r\n    }\r\n\r\n    /**\r\n     * @return The address of the implementation.\r\n     */\r\n    function implementation() external view returns (address) {\r\n        return _implementation();\r\n    }\r\n\r\n    /**\r\n     * @dev Changes the admin of the proxy.\r\n     * Only the current admin can call this function.\r\n     * @param newAdmin Address to transfer proxy administration to.\r\n     */\r\n    function changeAdmin(address newAdmin) external ifAdmin {\r\n        require(\r\n            newAdmin != address(0),\r\n            \"Cannot change the admin of a proxy to the zero address\"\r\n        );\r\n        emit AdminChanged(_admin(), newAdmin);\r\n        _setAdmin(newAdmin);\r\n    }\r\n\r\n    /**\r\n     * @dev Upgrade the backing implementation of the proxy.\r\n     * Only the admin can call this function.\r\n     * @param newImplementation Address of the new implementation.\r\n     */\r\n    // function upgradeTo(address newImplementation) external ifAdmin {\r\n    //     _upgradeTo(newImplementation);\r\n    // }\r\n\r\n    /**\r\n     * @dev Upgrade the backing implementation of the proxy and call a function\r\n     * on the new implementation.\r\n     * This is useful to initialize the proxied contract.\r\n     * @param newImplementation Address of the new implementation.\r\n     * @param data Data to send as msg.data in the low level call.\r\n     * It should include the signature and the parameters of the function to be\r\n     * called, as described in\r\n     * https://solidity.readthedocs.io/en/develop/abi-spec.html#function-selector-and-argument-encoding.\r\n     */\r\n    // function upgradeToAndCall(address newImplementation, bytes calldata data)\r\n    //     external\r\n    //     payable\r\n    //     ifAdmin\r\n    // {\r\n    //     _upgradeTo(newImplementation);\r\n    //     // prettier-ignore\r\n    //     // solhint-disable-next-line avoid-low-level-calls\r\n    //     (bool success,) = address(this).call{value: msg.value}(data);\r\n    //     // solhint-disable-next-line reason-string\r\n    //     require(success);\r\n    // }\r\n\r\n    /**\r\n     * @return adm The admin slot.\r\n     */\r\n    function _admin() internal view returns (address adm) {\r\n        bytes32 slot = ADMIN_SLOT;\r\n\r\n        assembly {\r\n            adm := sload(slot)\r\n        }\r\n    }\r\n\r\n    /**\r\n     * @dev Sets the address of the proxy admin.\r\n     * @param newAdmin Address of the new proxy admin.\r\n     */\r\n    function _setAdmin(address newAdmin) internal {\r\n        bytes32 slot = ADMIN_SLOT;\r\n\r\n        assembly {\r\n            sstore(slot, newAdmin)\r\n        }\r\n    }\r\n\r\n    /**\r\n     * @dev Only fall back when the sender is not the admin.\r\n     */\r\n    function _willFallback() internal override {\r\n        require(\r\n            msg.sender != _admin(),\r\n            \"Cannot call fallback function from the proxy admin\"\r\n        );\r\n        super._willFallback();\r\n    }\r\n}\r\n\r\n// File: contracts/v1/FiatTokenProxy.sol\r\n\r\npragma solidity 0.8.19;\r\n\r\n\r\n/**\r\n * @title FiatTokenProxy\r\n * @dev This contract proxies FiatToken calls and enables FiatToken upgrades\r\n */\r\ncontract FiatTokenProxy is AdminUpgradeabilityProxy {\r\n    constructor(address implementationContract)\r\n        public\r\n        // AdminUpgradeabilityProxy(implementationContract)\r\n    {}\r\n}",
  "sourcePath": "/home/matheo/dev/Sofan/truffle/contracts/Proxy.sol",
  "compiler": {
    "name": "solc",
    "version": "0.8.19+commit.7dd6d404.Emscripten.clang"
  },
  "schemaVersion": "3.4.4",
  "updatedAt": "2023-08-23T13:26:01.523Z",
  "devdoc": {
    "details": "This contract proxies FiatToken calls and enables FiatToken upgrades",
    "events": {
      "AdminChanged(address,address)": {
        "details": "Emitted when the administration has been transferred.",
        "params": {
          "newAdmin": "Address of the new admin.",
          "previousAdmin": "Address of the previous admin."
        }
      },
      "Upgraded(address)": {
        "details": "Emitted when the implementation is upgraded.",
        "params": {
          "implementation": "Address of the new implementation."
        }
      }
    },
    "kind": "dev",
    "methods": {
      "admin()": {
        "returns": {
          "_0": "The address of the proxy admin."
        }
      },
      "changeAdmin(address)": {
        "details": "Changes the admin of the proxy. Only the current admin can call this function.",
        "params": {
          "newAdmin": "Address to transfer proxy administration to."
        }
      },
      "implementation()": {
        "returns": {
          "_0": "The address of the implementation."
        }
      }
    },
    "title": "FiatTokenProxy",
    "version": 1
  },
  "userdoc": {
    "kind": "user",
    "methods": {},
    "version": 1
  }
}