{
  "contractName": "Migrations",
  "abi": [
    {
      "inputs": [],
      "name": "last_completed_migration",
      "outputs": [
        {
          "internalType": "uint256",
          "name": "",
          "type": "uint256"
        }
      ],
      "stateMutability": "view",
      "type": "function",
      "constant": true
    },
    {
      "inputs": [],
      "name": "owner",
      "outputs": [
        {
          "internalType": "address",
          "name": "",
          "type": "address"
        }
      ],
      "stateMutability": "view",
      "type": "function",
      "constant": true
    },
    {
      "inputs": [
        {
          "internalType": "uint256",
          "name": "completed",
          "type": "uint256"
        }
      ],
      "name": "setCompleted",
      "outputs": [],
      "stateMutability": "nonpayable",
      "type": "function"
    },
    {
      "inputs": [],
      "name": "read",
      "outputs": [
        {
          "internalType": "uint256",
          "name": "",
          "type": "uint256"
        }
      ],
      "stateMutability": "view",
      "type": "function",
      "constant": true
    }
  ],
  "bytecode": "0x6080604052336000806101000a81548173ffffffffffffffffffffffffffffffffffffffff021916908373ffffffffffffffffffffffffffffffffffffffff16021790555034801561005057600080fd5b50610229806100606000396000f3fe608060405234801561001057600080fd5b506004361061004c5760003560e01c8063445df0ac1461005157806357de26a41461006f5780638da5cb5b1461008d578063fdacd576146100ab575b600080fd5b6100596100c7565b604051610066919061011e565b60405180910390f35b6100776100cd565b604051610084919061011e565b60405180910390f35b6100956100d7565b6040516100a2919061017a565b60405180910390f35b6100c560048036038101906100c091906101c6565b6100fb565b005b60015481565b6000600154905090565b60008054906101000a900473ffffffffffffffffffffffffffffffffffffffff1681565b8060018190555050565b6000819050919050565b61011881610105565b82525050565b6000602082019050610133600083018461010f565b92915050565b600073ffffffffffffffffffffffffffffffffffffffff82169050919050565b600061016482610139565b9050919050565b61017481610159565b82525050565b600060208201905061018f600083018461016b565b92915050565b600080fd5b6101a381610105565b81146101ae57600080fd5b50565b6000813590506101c08161019a565b92915050565b6000602082840312156101dc576101db610195565b5b60006101ea848285016101b1565b9150509291505056fea26469706673582212209a15882993844cefd34f5ed673e3160e98b93e9e43fa6c55e90a818211cdd0b064736f6c63430008130033",
  "immutableReferences": {},
  "source": "// SPDX-License-Identifier: MIT\npragma solidity >=0.4.22 <0.9.0;\n\ncontract Migrations {\n  address public owner = msg.sender;\n  uint public last_completed_migration;\n\n\n  function setCompleted(uint completed) public {\n    last_completed_migration = completed;\n  }\n\n  function read() public view returns (uint256) {\n    return last_completed_migration;\n  }\n}\n",
  "sourcePath": "/home/matheo/dev/sofan/Sofan/truffle/contracts/Migrations.sol",
  "compiler": {
    "name": "solc",
    "version": "0.8.19+commit.7dd6d404.Emscripten.clang"
  },
  "schemaVersion": "3.4.4",
  "updatedAt": "2023-03-21T00:55:42.621Z",
  "networkType": "ethereum",
  "devdoc": {
    "kind": "dev",
    "methods": {},
    "version": 1
  },
  "userdoc": {
    "kind": "user",
    "methods": {},
    "version": 1
  }
}