{
  "contractName": "OperatorFilterRegistry",
  "abi": [
    {
      "inputs": [
        {
          "internalType": "address",
          "name": "operator",
          "type": "address"
        }
      ],
      "name": "AddressAlreadyFiltered",
      "type": "error"
    },
    {
      "inputs": [
        {
          "internalType": "address",
          "name": "filtered",
          "type": "address"
        }
      ],
      "name": "AddressFiltered",
      "type": "error"
    },
    {
      "inputs": [
        {
          "internalType": "address",
          "name": "operator",
          "type": "address"
        }
      ],
      "name": "AddressNotFiltered",
      "type": "error"
    },
    {
      "inputs": [],
      "name": "AlreadyRegistered",
      "type": "error"
    },
    {
      "inputs": [
        {
          "internalType": "address",
          "name": "subscription",
          "type": "address"
        }
      ],
      "name": "AlreadySubscribed",
      "type": "error"
    },
    {
      "inputs": [],
      "name": "CannotCopyFromSelf",
      "type": "error"
    },
    {
      "inputs": [],
      "name": "CannotFilterEOAs",
      "type": "error"
    },
    {
      "inputs": [
        {
          "internalType": "address",
          "name": "registrant",
          "type": "address"
        }
      ],
      "name": "CannotSubscribeToRegistrantWithSubscription",
      "type": "error"
    },
    {
      "inputs": [],
      "name": "CannotSubscribeToSelf",
      "type": "error"
    },
    {
      "inputs": [],
      "name": "CannotSubscribeToZeroAddress",
      "type": "error"
    },
    {
      "inputs": [
        {
          "internalType": "address",
          "name": "subscription",
          "type": "address"
        }
      ],
      "name": "CannotUpdateWhileSubscribed",
      "type": "error"
    },
    {
      "inputs": [
        {
          "internalType": "bytes32",
          "name": "codeHash",
          "type": "bytes32"
        }
      ],
      "name": "CodeHashAlreadyFiltered",
      "type": "error"
    },
    {
      "inputs": [
        {
          "internalType": "address",
          "name": "account",
          "type": "address"
        },
        {
          "internalType": "bytes32",
          "name": "codeHash",
          "type": "bytes32"
        }
      ],
      "name": "CodeHashFiltered",
      "type": "error"
    },
    {
      "inputs": [
        {
          "internalType": "bytes32",
          "name": "codeHash",
          "type": "bytes32"
        }
      ],
      "name": "CodeHashNotFiltered",
      "type": "error"
    },
    {
      "inputs": [],
      "name": "NotOwnable",
      "type": "error"
    },
    {
      "inputs": [
        {
          "internalType": "address",
          "name": "registrant",
          "type": "address"
        }
      ],
      "name": "NotRegistered",
      "type": "error"
    },
    {
      "inputs": [],
      "name": "NotSubscribed",
      "type": "error"
    },
    {
      "inputs": [],
      "name": "OnlyAddressOrOwner",
      "type": "error"
    },
    {
      "anonymous": false,
      "inputs": [
        {
          "indexed": true,
          "internalType": "address",
          "name": "registrant",
          "type": "address"
        },
        {
          "indexed": true,
          "internalType": "bytes32",
          "name": "codeHash",
          "type": "bytes32"
        },
        {
          "indexed": true,
          "internalType": "bool",
          "name": "filtered",
          "type": "bool"
        }
      ],
      "name": "CodeHashUpdated",
      "type": "event"
    },
    {
      "anonymous": false,
      "inputs": [
        {
          "indexed": true,
          "internalType": "address",
          "name": "registrant",
          "type": "address"
        },
        {
          "indexed": false,
          "internalType": "bytes32[]",
          "name": "codeHashes",
          "type": "bytes32[]"
        },
        {
          "indexed": true,
          "internalType": "bool",
          "name": "filtered",
          "type": "bool"
        }
      ],
      "name": "CodeHashesUpdated",
      "type": "event"
    },
    {
      "anonymous": false,
      "inputs": [
        {
          "indexed": true,
          "internalType": "address",
          "name": "registrant",
          "type": "address"
        },
        {
          "indexed": true,
          "internalType": "address",
          "name": "operator",
          "type": "address"
        },
        {
          "indexed": true,
          "internalType": "bool",
          "name": "filtered",
          "type": "bool"
        }
      ],
      "name": "OperatorUpdated",
      "type": "event"
    },
    {
      "anonymous": false,
      "inputs": [
        {
          "indexed": true,
          "internalType": "address",
          "name": "registrant",
          "type": "address"
        },
        {
          "indexed": false,
          "internalType": "address[]",
          "name": "operators",
          "type": "address[]"
        },
        {
          "indexed": true,
          "internalType": "bool",
          "name": "filtered",
          "type": "bool"
        }
      ],
      "name": "OperatorsUpdated",
      "type": "event"
    },
    {
      "anonymous": false,
      "inputs": [
        {
          "indexed": true,
          "internalType": "address",
          "name": "registrant",
          "type": "address"
        },
        {
          "indexed": true,
          "internalType": "bool",
          "name": "registered",
          "type": "bool"
        }
      ],
      "name": "RegistrationUpdated",
      "type": "event"
    },
    {
      "anonymous": false,
      "inputs": [
        {
          "indexed": true,
          "internalType": "address",
          "name": "registrant",
          "type": "address"
        },
        {
          "indexed": true,
          "internalType": "address",
          "name": "subscription",
          "type": "address"
        },
        {
          "indexed": true,
          "internalType": "bool",
          "name": "subscribed",
          "type": "bool"
        }
      ],
      "name": "SubscriptionUpdated",
      "type": "event"
    },
    {
      "inputs": [
        {
          "internalType": "address",
          "name": "registrant",
          "type": "address"
        },
        {
          "internalType": "address",
          "name": "operator",
          "type": "address"
        }
      ],
      "name": "isOperatorAllowed",
      "outputs": [
        {
          "internalType": "bool",
          "name": "",
          "type": "bool"
        }
      ],
      "stateMutability": "view",
      "type": "function"
    },
    {
      "inputs": [
        {
          "internalType": "address",
          "name": "registrant",
          "type": "address"
        }
      ],
      "name": "register",
      "outputs": [],
      "stateMutability": "nonpayable",
      "type": "function"
    },
    {
      "inputs": [
        {
          "internalType": "address",
          "name": "registrant",
          "type": "address"
        }
      ],
      "name": "unregister",
      "outputs": [],
      "stateMutability": "nonpayable",
      "type": "function"
    },
    {
      "inputs": [
        {
          "internalType": "address",
          "name": "registrant",
          "type": "address"
        },
        {
          "internalType": "address",
          "name": "subscription",
          "type": "address"
        }
      ],
      "name": "registerAndSubscribe",
      "outputs": [],
      "stateMutability": "nonpayable",
      "type": "function"
    },
    {
      "inputs": [
        {
          "internalType": "address",
          "name": "registrant",
          "type": "address"
        },
        {
          "internalType": "address",
          "name": "registrantToCopy",
          "type": "address"
        }
      ],
      "name": "registerAndCopyEntries",
      "outputs": [],
      "stateMutability": "nonpayable",
      "type": "function"
    },
    {
      "inputs": [
        {
          "internalType": "address",
          "name": "registrant",
          "type": "address"
        },
        {
          "internalType": "address",
          "name": "operator",
          "type": "address"
        },
        {
          "internalType": "bool",
          "name": "filtered",
          "type": "bool"
        }
      ],
      "name": "updateOperator",
      "outputs": [],
      "stateMutability": "nonpayable",
      "type": "function"
    },
    {
      "inputs": [
        {
          "internalType": "address",
          "name": "registrant",
          "type": "address"
        },
        {
          "internalType": "bytes32",
          "name": "codeHash",
          "type": "bytes32"
        },
        {
          "internalType": "bool",
          "name": "filtered",
          "type": "bool"
        }
      ],
      "name": "updateCodeHash",
      "outputs": [],
      "stateMutability": "nonpayable",
      "type": "function"
    },
    {
      "inputs": [
        {
          "internalType": "address",
          "name": "registrant",
          "type": "address"
        },
        {
          "internalType": "address[]",
          "name": "operators",
          "type": "address[]"
        },
        {
          "internalType": "bool",
          "name": "filtered",
          "type": "bool"
        }
      ],
      "name": "updateOperators",
      "outputs": [],
      "stateMutability": "nonpayable",
      "type": "function"
    },
    {
      "inputs": [
        {
          "internalType": "address",
          "name": "registrant",
          "type": "address"
        },
        {
          "internalType": "bytes32[]",
          "name": "codeHashes",
          "type": "bytes32[]"
        },
        {
          "internalType": "bool",
          "name": "filtered",
          "type": "bool"
        }
      ],
      "name": "updateCodeHashes",
      "outputs": [],
      "stateMutability": "nonpayable",
      "type": "function"
    },
    {
      "inputs": [
        {
          "internalType": "address",
          "name": "registrant",
          "type": "address"
        },
        {
          "internalType": "address",
          "name": "newSubscription",
          "type": "address"
        }
      ],
      "name": "subscribe",
      "outputs": [],
      "stateMutability": "nonpayable",
      "type": "function"
    },
    {
      "inputs": [
        {
          "internalType": "address",
          "name": "registrant",
          "type": "address"
        },
        {
          "internalType": "bool",
          "name": "copyExistingEntries",
          "type": "bool"
        }
      ],
      "name": "unsubscribe",
      "outputs": [],
      "stateMutability": "nonpayable",
      "type": "function"
    },
    {
      "inputs": [
        {
          "internalType": "address",
          "name": "registrant",
          "type": "address"
        },
        {
          "internalType": "address",
          "name": "registrantToCopy",
          "type": "address"
        }
      ],
      "name": "copyEntriesOf",
      "outputs": [],
      "stateMutability": "nonpayable",
      "type": "function"
    },
    {
      "inputs": [
        {
          "internalType": "address",
          "name": "registrant",
          "type": "address"
        }
      ],
      "name": "subscriptionOf",
      "outputs": [
        {
          "internalType": "address",
          "name": "subscription",
          "type": "address"
        }
      ],
      "stateMutability": "view",
      "type": "function"
    },
    {
      "inputs": [
        {
          "internalType": "address",
          "name": "registrant",
          "type": "address"
        }
      ],
      "name": "subscribers",
      "outputs": [
        {
          "internalType": "address[]",
          "name": "",
          "type": "address[]"
        }
      ],
      "stateMutability": "view",
      "type": "function"
    },
    {
      "inputs": [
        {
          "internalType": "address",
          "name": "registrant",
          "type": "address"
        },
        {
          "internalType": "uint256",
          "name": "index",
          "type": "uint256"
        }
      ],
      "name": "subscriberAt",
      "outputs": [
        {
          "internalType": "address",
          "name": "",
          "type": "address"
        }
      ],
      "stateMutability": "view",
      "type": "function"
    },
    {
      "inputs": [
        {
          "internalType": "address",
          "name": "registrant",
          "type": "address"
        },
        {
          "internalType": "address",
          "name": "operator",
          "type": "address"
        }
      ],
      "name": "isOperatorFiltered",
      "outputs": [
        {
          "internalType": "bool",
          "name": "",
          "type": "bool"
        }
      ],
      "stateMutability": "view",
      "type": "function"
    },
    {
      "inputs": [
        {
          "internalType": "address",
          "name": "registrant",
          "type": "address"
        },
        {
          "internalType": "bytes32",
          "name": "codeHash",
          "type": "bytes32"
        }
      ],
      "name": "isCodeHashFiltered",
      "outputs": [
        {
          "internalType": "bool",
          "name": "",
          "type": "bool"
        }
      ],
      "stateMutability": "view",
      "type": "function"
    },
    {
      "inputs": [
        {
          "internalType": "address",
          "name": "registrant",
          "type": "address"
        },
        {
          "internalType": "address",
          "name": "operatorWithCode",
          "type": "address"
        }
      ],
      "name": "isCodeHashOfFiltered",
      "outputs": [
        {
          "internalType": "bool",
          "name": "",
          "type": "bool"
        }
      ],
      "stateMutability": "view",
      "type": "function"
    },
    {
      "inputs": [
        {
          "internalType": "address",
          "name": "registrant",
          "type": "address"
        }
      ],
      "name": "isRegistered",
      "outputs": [
        {
          "internalType": "bool",
          "name": "",
          "type": "bool"
        }
      ],
      "stateMutability": "view",
      "type": "function"
    },
    {
      "inputs": [
        {
          "internalType": "address",
          "name": "registrant",
          "type": "address"
        }
      ],
      "name": "filteredOperators",
      "outputs": [
        {
          "internalType": "address[]",
          "name": "",
          "type": "address[]"
        }
      ],
      "stateMutability": "view",
      "type": "function"
    },
    {
      "inputs": [
        {
          "internalType": "address",
          "name": "registrant",
          "type": "address"
        }
      ],
      "name": "filteredCodeHashes",
      "outputs": [
        {
          "internalType": "bytes32[]",
          "name": "",
          "type": "bytes32[]"
        }
      ],
      "stateMutability": "view",
      "type": "function"
    },
    {
      "inputs": [
        {
          "internalType": "address",
          "name": "registrant",
          "type": "address"
        },
        {
          "internalType": "uint256",
          "name": "index",
          "type": "uint256"
        }
      ],
      "name": "filteredOperatorAt",
      "outputs": [
        {
          "internalType": "address",
          "name": "",
          "type": "address"
        }
      ],
      "stateMutability": "view",
      "type": "function"
    },
    {
      "inputs": [
        {
          "internalType": "address",
          "name": "registrant",
          "type": "address"
        },
        {
          "internalType": "uint256",
          "name": "index",
          "type": "uint256"
        }
      ],
      "name": "filteredCodeHashAt",
      "outputs": [
        {
          "internalType": "bytes32",
          "name": "",
          "type": "bytes32"
        }
      ],
      "stateMutability": "view",
      "type": "function"
    },
    {
      "inputs": [
        {
          "internalType": "address",
          "name": "a",
          "type": "address"
        }
      ],
      "name": "codeHashOf",
      "outputs": [
        {
          "internalType": "bytes32",
          "name": "",
          "type": "bytes32"
        }
      ],
      "stateMutability": "view",
      "type": "function"
    }
  ],
  "bytecode": "0x608060405234801561001057600080fd5b506153ea806100206000396000f3fe608060405234801561001057600080fd5b50600436106101585760003560e01c8063712fc00b116100c3578063b314d4141161007c578063b314d414146103f5578063bbd652c714610411578063c3c5a54714610441578063c430880514610471578063c6171134146104a1578063e4aecb54146104d157610158565b8063712fc00b146103395780637d3e3dbe14610355578063a0af290314610371578063a14584c11461038d578063a2f367ab146103a9578063a6529eb5146103c557610158565b80633f1cc5fa116101155780633f1cc5fa1461022d5780634420e4861461025d57806355940e51146102795780635745ae28146102a95780635eae3173146102d95780636af0c3151461030957610158565b8063063298b61461015d5780631e06b4b41461017957806322fa2762146101955780632ec2c246146101c557806334a0dc10146101e15780633c5030bb146101fd575b600080fd5b61017760048036038101906101729190614b90565b610501565b005b610193600480360381019061018e9190614c04565b6109ee565b005b6101af60048036038101906101aa9190614c44565b610dfa565b6040516101bc9190614d39565b60405180910390f35b6101df60048036038101906101da9190614c44565b610f32565b005b6101fb60048036038101906101f69190614d5b565b611331565b005b61021760048036038101906102129190614c44565b61172b565b6040516102249190614daa565b60405180910390f35b61024760048036038101906102429190614dfb565b61183d565b6040516102549190614daa565b60405180910390f35b61027760048036038101906102729190614c44565b611987565b005b610293600480360381019061028e9190614dfb565b611c91565b6040516102a09190614daa565b60405180910390f35b6102c360048036038101906102be9190614c44565b611cec565b6040516102d09190614ef9565b60405180910390f35b6102f360048036038101906102ee9190614c04565b611d3c565b6040516103009190614f2a565b60405180910390f35b610323600480360381019061031e9190614f71565b611ea6565b6040516103309190614f2a565b60405180910390f35b610353600480360381019061034e9190614fb1565b611ff2565b005b61036f600480360381019061036a9190614c04565b61245d565b005b61038b60048036038101906103869190614c04565b6129c8565b005b6103a760048036038101906103a2919061505a565b612e1e565b005b6103c360048036038101906103be91906150ce565b6132cd565b005b6103df60048036038101906103da9190614dfb565b6136f4565b6040516103ec9190615130565b60405180910390f35b61040f600480360381019061040a9190614c04565b613840565b005b61042b60048036038101906104269190614c44565b613f28565b6040516104389190615130565b60405180910390f35b61045b60048036038101906104569190614c44565b613f49565b6040516104689190614f2a565b60405180910390f35b61048b60048036038101906104869190614c44565b613fe1565b6040516104989190614ef9565b60405180910390f35b6104bb60048036038101906104b69190614c04565b614117565b6040516104c89190614f2a565b60405180910390f35b6104eb60048036038101906104e69190614c04565b61432c565b6040516104f89190614f2a565b60405180910390f35b838073ffffffffffffffffffffffffffffffffffffffff163373ffffffffffffffffffffffffffffffffffffffff161461067d578073ffffffffffffffffffffffffffffffffffffffff16638da5cb5b6040518163ffffffff1660e01b8152600401602060405180830381865afa92505050801561059d57506040513d601f19601f8201168201806040525081019061059a9190615160565b60015b610616573d80600081146105cd576040519150601f19603f3d011682016040523d82523d6000602084013e6105d2565b606091505b50600081510361060e576040517fb2c1414000000000000000000000000000000000000000000000000000000000815260040160405180910390fd5b805181602001fd5b8073ffffffffffffffffffffffffffffffffffffffff163373ffffffffffffffffffffffffffffffffffffffff161461067b576040517ffcf5eff800000000000000000000000000000000000000000000000000000000815260040160405180910390fd5b505b6000600260008773ffffffffffffffffffffffffffffffffffffffff1673ffffffffffffffffffffffffffffffffffffffff16815260200190815260200160002060009054906101000a900473ffffffffffffffffffffffffffffffffffffffff169050600073ffffffffffffffffffffffffffffffffffffffff168173ffffffffffffffffffffffffffffffffffffffff160361075257856040517fbfc6c3370000000000000000000000000000000000000000000000000000000081526004016107499190614daa565b60405180910390fd5b8573ffffffffffffffffffffffffffffffffffffffff168173ffffffffffffffffffffffffffffffffffffffff16146107c257806040517f04af4d690000000000000000000000000000000000000000000000000000000081526004016107b99190614daa565b60405180910390fd5b6000600160008873ffffffffffffffffffffffffffffffffffffffff1673ffffffffffffffffffffffffffffffffffffffff16815260200190815260200160002090506000868690509050846108a75760005b818110156108a15760008888838181106108325761083161518d565b5b9050602002013590506000610850828661447690919063ffffffff16565b90508061089457816040517f478730a800000000000000000000000000000000000000000000000000000000815260040161088b9190615130565b60405180910390fd5b8260010192505050610815565b50610991565b60005b8181101561098f5760008888838181106108c7576108c661518d565b5b9050602002013590507fc5d2460186f7233c927e7db2dcc703c0e500b653ca82273b7bfad8045d85a4708103610929576040517ff575ead800000000000000000000000000000000000000000000000000000000815260040160405180910390fd5b600061093e828661448d90919063ffffffff16565b90508061098257816040517f186bea000000000000000000000000000000000000000000000000000000000081526004016109799190615130565b60405180910390fd5b82600101925050506108aa565b505b8415158873ffffffffffffffffffffffffffffffffffffffff167f34e9f70c5a16a4df2a396cf0cbc4735eb3c7fb6ae40aaa0b34be7720121d1b9689896040516109dc929190615226565b60405180910390a35050505050505050565b818073ffffffffffffffffffffffffffffffffffffffff163373ffffffffffffffffffffffffffffffffffffffff1614610b6a578073ffffffffffffffffffffffffffffffffffffffff16638da5cb5b6040518163ffffffff1660e01b8152600401602060405180830381865afa925050508015610a8a57506040513d601f19601f82011682018060405250810190610a879190615160565b60015b610b03573d8060008114610aba576040519150601f19603f3d011682016040523d82523d6000602084013e610abf565b606091505b506000815103610afb576040517fb2c1414000000000000000000000000000000000000000000000000000000000815260040160405180910390fd5b805181602001fd5b8073ffffffffffffffffffffffffffffffffffffffff163373ffffffffffffffffffffffffffffffffffffffff1614610b68576040517ffcf5eff800000000000000000000000000000000000000000000000000000000815260040160405180910390fd5b505b8173ffffffffffffffffffffffffffffffffffffffff168373ffffffffffffffffffffffffffffffffffffffff1603610bcf576040517f1acab6b800000000000000000000000000000000000000000000000000000000815260040160405180910390fd5b6000600260008573ffffffffffffffffffffffffffffffffffffffff1673ffffffffffffffffffffffffffffffffffffffff16815260200190815260200160002060009054906101000a900473ffffffffffffffffffffffffffffffffffffffff169050600073ffffffffffffffffffffffffffffffffffffffff168173ffffffffffffffffffffffffffffffffffffffff1603610ca457836040517fbfc6c337000000000000000000000000000000000000000000000000000000008152600401610c9b9190614daa565b60405180910390fd5b8373ffffffffffffffffffffffffffffffffffffffff168173ffffffffffffffffffffffffffffffffffffffff1614610d1457806040517f04af4d69000000000000000000000000000000000000000000000000000000008152600401610d0b9190614daa565b60405180910390fd5b6000600260008573ffffffffffffffffffffffffffffffffffffffff1673ffffffffffffffffffffffffffffffffffffffff16815260200190815260200160002060009054906101000a900473ffffffffffffffffffffffffffffffffffffffff169050600073ffffffffffffffffffffffffffffffffffffffff168173ffffffffffffffffffffffffffffffffffffffff1603610de957836040517fbfc6c337000000000000000000000000000000000000000000000000000000008152600401610de09190614daa565b60405180910390fd5b610df385856144a4565b5050505050565b60606000600260008473ffffffffffffffffffffffffffffffffffffffff1673ffffffffffffffffffffffffffffffffffffffff16815260200190815260200160002060009054906101000a900473ffffffffffffffffffffffffffffffffffffffff1690508273ffffffffffffffffffffffffffffffffffffffff168173ffffffffffffffffffffffffffffffffffffffff1614610ee257610eda600160008373ffffffffffffffffffffffffffffffffffffffff1673ffffffffffffffffffffffffffffffffffffffff168152602001908152602001600020614708565b915050610f2d565b610f29600160008573ffffffffffffffffffffffffffffffffffffffff1673ffffffffffffffffffffffffffffffffffffffff168152602001908152602001600020614708565b9150505b919050565b808073ffffffffffffffffffffffffffffffffffffffff163373ffffffffffffffffffffffffffffffffffffffff16146110ae578073ffffffffffffffffffffffffffffffffffffffff16638da5cb5b6040518163ffffffff1660e01b8152600401602060405180830381865afa925050508015610fce57506040513d601f19601f82011682018060405250810190610fcb9190615160565b60015b611047573d8060008114610ffe576040519150601f19603f3d011682016040523d82523d6000602084013e611003565b606091505b50600081510361103f576040517fb2c1414000000000000000000000000000000000000000000000000000000000815260040160405180910390fd5b805181602001fd5b8073ffffffffffffffffffffffffffffffffffffffff163373ffffffffffffffffffffffffffffffffffffffff16146110ac576040517ffcf5eff800000000000000000000000000000000000000000000000000000000815260040160405180910390fd5b505b6000600260008473ffffffffffffffffffffffffffffffffffffffff1673ffffffffffffffffffffffffffffffffffffffff16815260200190815260200160002060009054906101000a900473ffffffffffffffffffffffffffffffffffffffff169050600073ffffffffffffffffffffffffffffffffffffffff168173ffffffffffffffffffffffffffffffffffffffff160361118357826040517fbfc6c33700000000000000000000000000000000000000000000000000000000815260040161117a9190614daa565b60405180910390fd5b8273ffffffffffffffffffffffffffffffffffffffff168173ffffffffffffffffffffffffffffffffffffffff16146112665761120783600360008473ffffffffffffffffffffffffffffffffffffffff1673ffffffffffffffffffffffffffffffffffffffff16815260200190815260200160002061472990919063ffffffff16565b50600015158173ffffffffffffffffffffffffffffffffffffffff168473ffffffffffffffffffffffffffffffffffffffff167e38c54977604f1a5c0a3604cbbecd0153c81e3131799ead95755e8bb5d5b9e860405160405180910390a45b6000600260008573ffffffffffffffffffffffffffffffffffffffff1673ffffffffffffffffffffffffffffffffffffffff16815260200190815260200160002060006101000a81548173ffffffffffffffffffffffffffffffffffffffff021916908373ffffffffffffffffffffffffffffffffffffffff160217905550600015158373ffffffffffffffffffffffffffffffffffffffff167f86d03f430c7616021073d7a71766f632f1ce19f289aa989534d9f4732253eb5960405160405180910390a3505050565b818073ffffffffffffffffffffffffffffffffffffffff163373ffffffffffffffffffffffffffffffffffffffff16146114ad578073ffffffffffffffffffffffffffffffffffffffff16638da5cb5b6040518163ffffffff1660e01b8152600401602060405180830381865afa9250505080156113cd57506040513d601f19601f820116820180604052508101906113ca9190615160565b60015b611446573d80600081146113fd576040519150601f19603f3d011682016040523d82523d6000602084013e611402565b606091505b50600081510361143e576040517fb2c1414000000000000000000000000000000000000000000000000000000000815260040160405180910390fd5b805181602001fd5b8073ffffffffffffffffffffffffffffffffffffffff163373ffffffffffffffffffffffffffffffffffffffff16146114ab576040517ffcf5eff800000000000000000000000000000000000000000000000000000000815260040160405180910390fd5b505b6000600260008573ffffffffffffffffffffffffffffffffffffffff1673ffffffffffffffffffffffffffffffffffffffff16815260200190815260200160002060009054906101000a900473ffffffffffffffffffffffffffffffffffffffff169050600073ffffffffffffffffffffffffffffffffffffffff168173ffffffffffffffffffffffffffffffffffffffff160361158257836040517fbfc6c3370000000000000000000000000000000000000000000000000000000081526004016115799190614daa565b60405180910390fd5b8373ffffffffffffffffffffffffffffffffffffffff168173ffffffffffffffffffffffffffffffffffffffff16036115e7576040517f237e6c2800000000000000000000000000000000000000000000000000000000815260040160405180910390fd5b61163884600360008473ffffffffffffffffffffffffffffffffffffffff1673ffffffffffffffffffffffffffffffffffffffff16815260200190815260200160002061472990919063ffffffff16565b5083600260008673ffffffffffffffffffffffffffffffffffffffff1673ffffffffffffffffffffffffffffffffffffffff16815260200190815260200160002060006101000a81548173ffffffffffffffffffffffffffffffffffffffff021916908373ffffffffffffffffffffffffffffffffffffffff160217905550600015158173ffffffffffffffffffffffffffffffffffffffff168573ffffffffffffffffffffffffffffffffffffffff167e38c54977604f1a5c0a3604cbbecd0153c81e3131799ead95755e8bb5d5b9e860405160405180910390a482156117255761172484826144a4565b5b50505050565b6000600260008373ffffffffffffffffffffffffffffffffffffffff1673ffffffffffffffffffffffffffffffffffffffff16815260200190815260200160002060009054906101000a900473ffffffffffffffffffffffffffffffffffffffff169050600073ffffffffffffffffffffffffffffffffffffffff168173ffffffffffffffffffffffffffffffffffffffff160361180057816040517fbfc6c3370000000000000000000000000000000000000000000000000000000081526004016117f79190614daa565b60405180910390fd5b8173ffffffffffffffffffffffffffffffffffffffff168173ffffffffffffffffffffffffffffffffffffffff160361183857600090505b919050565b600080600260008573ffffffffffffffffffffffffffffffffffffffff1673ffffffffffffffffffffffffffffffffffffffff16815260200190815260200160002060009054906101000a900473ffffffffffffffffffffffffffffffffffffffff1690508373ffffffffffffffffffffffffffffffffffffffff168173ffffffffffffffffffffffffffffffffffffffff161461192d57611925836000808473ffffffffffffffffffffffffffffffffffffffff1673ffffffffffffffffffffffffffffffffffffffff16815260200190815260200160002061475990919063ffffffff16565b915050611981565b61197d836000808773ffffffffffffffffffffffffffffffffffffffff1673ffffffffffffffffffffffffffffffffffffffff16815260200190815260200160002061475990919063ffffffff16565b9150505b92915050565b808073ffffffffffffffffffffffffffffffffffffffff163373ffffffffffffffffffffffffffffffffffffffff1614611b03578073ffffffffffffffffffffffffffffffffffffffff16638da5cb5b6040518163ffffffff1660e01b8152600401602060405180830381865afa925050508015611a2357506040513d601f19601f82011682018060405250810190611a209190615160565b60015b611a9c573d8060008114611a53576040519150601f19603f3d011682016040523d82523d6000602084013e611a58565b606091505b506000815103611a94576040517fb2c1414000000000000000000000000000000000000000000000000000000000815260040160405180910390fd5b805181602001fd5b8073ffffffffffffffffffffffffffffffffffffffff163373ffffffffffffffffffffffffffffffffffffffff1614611b01576040517ffcf5eff800000000000000000000000000000000000000000000000000000000815260040160405180910390fd5b505b600073ffffffffffffffffffffffffffffffffffffffff16600260008473ffffffffffffffffffffffffffffffffffffffff1673ffffffffffffffffffffffffffffffffffffffff16815260200190815260200160002060009054906101000a900473ffffffffffffffffffffffffffffffffffffffff1673ffffffffffffffffffffffffffffffffffffffff1614611bc8576040517f3a81d6fc00000000000000000000000000000000000000000000000000000000815260040160405180910390fd5b81600260008473ffffffffffffffffffffffffffffffffffffffff1673ffffffffffffffffffffffffffffffffffffffff16815260200190815260200160002060006101000a81548173ffffffffffffffffffffffffffffffffffffffff021916908373ffffffffffffffffffffffffffffffffffffffff160217905550600115158273ffffffffffffffffffffffffffffffffffffffff167f86d03f430c7616021073d7a71766f632f1ce19f289aa989534d9f4732253eb5960405160405180910390a35050565b6000611ce482600360008673ffffffffffffffffffffffffffffffffffffffff1673ffffffffffffffffffffffffffffffffffffffff16815260200190815260200160002061475990919063ffffffff16565b905092915050565b6060611d35600360008473ffffffffffffffffffffffffffffffffffffffff1673ffffffffffffffffffffffffffffffffffffffff168152602001908152602001600020614773565b9050919050565b6000808273ffffffffffffffffffffffffffffffffffffffff163f90506000600260008673ffffffffffffffffffffffffffffffffffffffff1673ffffffffffffffffffffffffffffffffffffffff16815260200190815260200160002060009054906101000a900473ffffffffffffffffffffffffffffffffffffffff1690508473ffffffffffffffffffffffffffffffffffffffff168173ffffffffffffffffffffffffffffffffffffffff1614611e4a57611e4182600160008473ffffffffffffffffffffffffffffffffffffffff1673ffffffffffffffffffffffffffffffffffffffff16815260200190815260200160002061479490919063ffffffff16565b92505050611ea0565b611e9b82600160008873ffffffffffffffffffffffffffffffffffffffff1673ffffffffffffffffffffffffffffffffffffffff16815260200190815260200160002061479490919063ffffffff16565b925050505b92915050565b600080600260008573ffffffffffffffffffffffffffffffffffffffff1673ffffffffffffffffffffffffffffffffffffffff16815260200190815260200160002060009054906101000a900473ffffffffffffffffffffffffffffffffffffffff1690508373ffffffffffffffffffffffffffffffffffffffff168173ffffffffffffffffffffffffffffffffffffffff1614611f9757611f8f83600160008473ffffffffffffffffffffffffffffffffffffffff1673ffffffffffffffffffffffffffffffffffffffff16815260200190815260200160002061479490919063ffffffff16565b915050611fec565b611fe883600160008773ffffffffffffffffffffffffffffffffffffffff1673ffffffffffffffffffffffffffffffffffffffff16815260200190815260200160002061479490919063ffffffff16565b9150505b92915050565b828073ffffffffffffffffffffffffffffffffffffffff163373ffffffffffffffffffffffffffffffffffffffff161461216e578073ffffffffffffffffffffffffffffffffffffffff16638da5cb5b6040518163ffffffff1660e01b8152600401602060405180830381865afa92505050801561208e57506040513d601f19601f8201168201806040525081019061208b9190615160565b60015b612107573d80600081146120be576040519150601f19603f3d011682016040523d82523d6000602084013e6120c3565b606091505b5060008151036120ff576040517fb2c1414000000000000000000000000000000000000000000000000000000000815260040160405180910390fd5b805181602001fd5b8073ffffffffffffffffffffffffffffffffffffffff163373ffffffffffffffffffffffffffffffffffffffff161461216c576040517ffcf5eff800000000000000000000000000000000000000000000000000000000815260040160405180910390fd5b505b7fc5d2460186f7233c927e7db2dcc703c0e500b653ca82273b7bfad8045d85a47083036121c7576040517ff575ead800000000000000000000000000000000000000000000000000000000815260040160405180910390fd5b6000600260008673ffffffffffffffffffffffffffffffffffffffff1673ffffffffffffffffffffffffffffffffffffffff16815260200190815260200160002060009054906101000a900473ffffffffffffffffffffffffffffffffffffffff169050600073ffffffffffffffffffffffffffffffffffffffff168173ffffffffffffffffffffffffffffffffffffffff160361229c57846040517fbfc6c3370000000000000000000000000000000000000000000000000000000081526004016122939190614daa565b60405180910390fd5b8473ffffffffffffffffffffffffffffffffffffffff168173ffffffffffffffffffffffffffffffffffffffff161461230c57806040517f04af4d690000000000000000000000000000000000000000000000000000000081526004016123039190614daa565b60405180910390fd5b6000600160008773ffffffffffffffffffffffffffffffffffffffff1673ffffffffffffffffffffffffffffffffffffffff1681526020019081526020016000209050836123b3576000612369868361447690919063ffffffff16565b9050806123ad57856040517f478730a80000000000000000000000000000000000000000000000000000000081526004016123a49190615130565b60405180910390fd5b5061240e565b60006123c8868361448d90919063ffffffff16565b90508061240c57856040517f186bea000000000000000000000000000000000000000000000000000000000081526004016124039190615130565b60405180910390fd5b505b831515858773ffffffffffffffffffffffffffffffffffffffff167fb8036058bafea884aabc446ca15619fd86f5464a4ad96f64164ad6f77444354d60405160405180910390a4505050505050565b818073ffffffffffffffffffffffffffffffffffffffff163373ffffffffffffffffffffffffffffffffffffffff16146125d9578073ffffffffffffffffffffffffffffffffffffffff16638da5cb5b6040518163ffffffff1660e01b8152600401602060405180830381865afa9250505080156124f957506040513d601f19601f820116820180604052508101906124f69190615160565b60015b612572573d8060008114612529576040519150601f19603f3d011682016040523d82523d6000602084013e61252e565b606091505b50600081510361256a576040517fb2c1414000000000000000000000000000000000000000000000000000000000815260040160405180910390fd5b805181602001fd5b8073ffffffffffffffffffffffffffffffffffffffff163373ffffffffffffffffffffffffffffffffffffffff16146125d7576040517ffcf5eff800000000000000000000000000000000000000000000000000000000815260040160405180910390fd5b505b6000600260008573ffffffffffffffffffffffffffffffffffffffff1673ffffffffffffffffffffffffffffffffffffffff16815260200190815260200160002060009054906101000a900473ffffffffffffffffffffffffffffffffffffffff169050600073ffffffffffffffffffffffffffffffffffffffff168173ffffffffffffffffffffffffffffffffffffffff16146126a3576040517f3a81d6fc00000000000000000000000000000000000000000000000000000000815260040160405180910390fd5b8273ffffffffffffffffffffffffffffffffffffffff168473ffffffffffffffffffffffffffffffffffffffff1603612708576040517f347f118f00000000000000000000000000000000000000000000000000000000815260040160405180910390fd5b6000600260008573ffffffffffffffffffffffffffffffffffffffff1673ffffffffffffffffffffffffffffffffffffffff16815260200190815260200160002060009054906101000a900473ffffffffffffffffffffffffffffffffffffffff169050600073ffffffffffffffffffffffffffffffffffffffff168173ffffffffffffffffffffffffffffffffffffffff16036127dd57836040517fbfc6c3370000000000000000000000000000000000000000000000000000000081526004016127d49190614daa565b60405180910390fd5b8373ffffffffffffffffffffffffffffffffffffffff168173ffffffffffffffffffffffffffffffffffffffff161461284d57836040517f768e549c0000000000000000000000000000000000000000000000000000000081526004016128449190614daa565b60405180910390fd5b83600260008773ffffffffffffffffffffffffffffffffffffffff1673ffffffffffffffffffffffffffffffffffffffff16815260200190815260200160002060006101000a81548173ffffffffffffffffffffffffffffffffffffffff021916908373ffffffffffffffffffffffffffffffffffffffff16021790555061291c85600360008773ffffffffffffffffffffffffffffffffffffffff1673ffffffffffffffffffffffffffffffffffffffff1681526020019081526020016000206147ab90919063ffffffff16565b50600115158573ffffffffffffffffffffffffffffffffffffffff167f86d03f430c7616021073d7a71766f632f1ce19f289aa989534d9f4732253eb5960405160405180910390a3600115158473ffffffffffffffffffffffffffffffffffffffff168673ffffffffffffffffffffffffffffffffffffffff167e38c54977604f1a5c0a3604cbbecd0153c81e3131799ead95755e8bb5d5b9e860405160405180910390a45050505050565b818073ffffffffffffffffffffffffffffffffffffffff163373ffffffffffffffffffffffffffffffffffffffff1614612b44578073ffffffffffffffffffffffffffffffffffffffff16638da5cb5b6040518163ffffffff1660e01b8152600401602060405180830381865afa925050508015612a6457506040513d601f19601f82011682018060405250810190612a619190615160565b60015b612add573d8060008114612a94576040519150601f19603f3d011682016040523d82523d6000602084013e612a99565b606091505b506000815103612ad5576040517fb2c1414000000000000000000000000000000000000000000000000000000000815260040160405180910390fd5b805181602001fd5b8073ffffffffffffffffffffffffffffffffffffffff163373ffffffffffffffffffffffffffffffffffffffff1614612b42576040517ffcf5eff800000000000000000000000000000000000000000000000000000000815260040160405180910390fd5b505b8273ffffffffffffffffffffffffffffffffffffffff168273ffffffffffffffffffffffffffffffffffffffff1603612ba9576040517f1acab6b800000000000000000000000000000000000000000000000000000000815260040160405180910390fd5b6000600260008573ffffffffffffffffffffffffffffffffffffffff1673ffffffffffffffffffffffffffffffffffffffff16815260200190815260200160002060009054906101000a900473ffffffffffffffffffffffffffffffffffffffff169050600073ffffffffffffffffffffffffffffffffffffffff168173ffffffffffffffffffffffffffffffffffffffff1614612c73576040517f3a81d6fc00000000000000000000000000000000000000000000000000000000815260040160405180910390fd5b6000600260008573ffffffffffffffffffffffffffffffffffffffff1673ffffffffffffffffffffffffffffffffffffffff16815260200190815260200160002060009054906101000a900473ffffffffffffffffffffffffffffffffffffffff169050600073ffffffffffffffffffffffffffffffffffffffff168173ffffffffffffffffffffffffffffffffffffffff1603612d4857836040517fbfc6c337000000000000000000000000000000000000000000000000000000008152600401612d3f9190614daa565b60405180910390fd5b84600260008773ffffffffffffffffffffffffffffffffffffffff1673ffffffffffffffffffffffffffffffffffffffff16815260200190815260200160002060006101000a81548173ffffffffffffffffffffffffffffffffffffffff021916908373ffffffffffffffffffffffffffffffffffffffff160217905550600115158573ffffffffffffffffffffffffffffffffffffffff167f86d03f430c7616021073d7a71766f632f1ce19f289aa989534d9f4732253eb5960405160405180910390a3612e1785856144a4565b5050505050565b838073ffffffffffffffffffffffffffffffffffffffff163373ffffffffffffffffffffffffffffffffffffffff1614612f9a578073ffffffffffffffffffffffffffffffffffffffff16638da5cb5b6040518163ffffffff1660e01b8152600401602060405180830381865afa925050508015612eba57506040513d601f19601f82011682018060405250810190612eb79190615160565b60015b612f33573d8060008114612eea576040519150601f19603f3d011682016040523d82523d6000602084013e612eef565b606091505b506000815103612f2b576040517fb2c1414000000000000000000000000000000000000000000000000000000000815260040160405180910390fd5b805181602001fd5b8073ffffffffffffffffffffffffffffffffffffffff163373ffffffffffffffffffffffffffffffffffffffff1614612f98576040517ffcf5eff800000000000000000000000000000000000000000000000000000000815260040160405180910390fd5b505b6000600260008773ffffffffffffffffffffffffffffffffffffffff1673ffffffffffffffffffffffffffffffffffffffff16815260200190815260200160002060009054906101000a900473ffffffffffffffffffffffffffffffffffffffff169050600073ffffffffffffffffffffffffffffffffffffffff168173ffffffffffffffffffffffffffffffffffffffff160361306f57856040517fbfc6c3370000000000000000000000000000000000000000000000000000000081526004016130669190614daa565b60405180910390fd5b8573ffffffffffffffffffffffffffffffffffffffff168173ffffffffffffffffffffffffffffffffffffffff16146130df57806040517f04af4d690000000000000000000000000000000000000000000000000000000081526004016130d69190614daa565b60405180910390fd5b60008060008873ffffffffffffffffffffffffffffffffffffffff1673ffffffffffffffffffffffffffffffffffffffff16815260200190815260200160002090506000868690509050846131d15760005b818110156131cb57600088888381811061314e5761314d61518d565b5b90506020020160208101906131639190614c44565b9050600061317a828661472990919063ffffffff16565b9050806131be57816040517f45525c0e0000000000000000000000000000000000000000000000000000000081526004016131b59190614daa565b60405180910390fd5b8260010192505050613131565b50613270565b60005b8181101561326e5760008888838181106131f1576131f061518d565b5b90506020020160208101906132069190614c44565b9050600061321d82866147ab90919063ffffffff16565b90508061326157816040517f0bb442340000000000000000000000000000000000000000000000000000000081526004016132589190614daa565b60405180910390fd5b82600101925050506131d4565b505b8415158873ffffffffffffffffffffffffffffffffffffffff167f02b85afdacb82d5512c6f05566b3018677ffcbd7e5f75e498bc64081131cbd6c89896040516132bb9291906152d5565b60405180910390a35050505050505050565b828073ffffffffffffffffffffffffffffffffffffffff163373ffffffffffffffffffffffffffffffffffffffff1614613449578073ffffffffffffffffffffffffffffffffffffffff16638da5cb5b6040518163ffffffff1660e01b8152600401602060405180830381865afa92505050801561336957506040513d601f19601f820116820180604052508101906133669190615160565b60015b6133e2573d8060008114613399576040519150601f19603f3d011682016040523d82523d6000602084013e61339e565b606091505b5060008151036133da576040517fb2c1414000000000000000000000000000000000000000000000000000000000815260040160405180910390fd5b805181602001fd5b8073ffffffffffffffffffffffffffffffffffffffff163373ffffffffffffffffffffffffffffffffffffffff1614613447576040517ffcf5eff800000000000000000000000000000000000000000000000000000000815260040160405180910390fd5b505b6000600260008673ffffffffffffffffffffffffffffffffffffffff1673ffffffffffffffffffffffffffffffffffffffff16815260200190815260200160002060009054906101000a900473ffffffffffffffffffffffffffffffffffffffff169050600073ffffffffffffffffffffffffffffffffffffffff168173ffffffffffffffffffffffffffffffffffffffff160361351e57846040517fbfc6c3370000000000000000000000000000000000000000000000000000000081526004016135159190614daa565b60405180910390fd5b8473ffffffffffffffffffffffffffffffffffffffff168173ffffffffffffffffffffffffffffffffffffffff161461358e57806040517f04af4d690000000000000000000000000000000000000000000000000000000081526004016135859190614daa565b60405180910390fd5b60008060008773ffffffffffffffffffffffffffffffffffffffff1673ffffffffffffffffffffffffffffffffffffffff1681526020019081526020016000209050836136345760006135ea868361472990919063ffffffff16565b90508061362e57856040517f45525c0e0000000000000000000000000000000000000000000000000000000081526004016136259190614daa565b60405180910390fd5b5061368f565b600061364986836147ab90919063ffffffff16565b90508061368d57856040517f0bb442340000000000000000000000000000000000000000000000000000000081526004016136849190614daa565b60405180910390fd5b505b8315158573ffffffffffffffffffffffffffffffffffffffff168773ffffffffffffffffffffffffffffffffffffffff167f2738289d9deecdc30eb8ffc42876633caecca1ffa166e4efa89f408e17373a1a60405160405180910390a4505050505050565b600080600260008573ffffffffffffffffffffffffffffffffffffffff1673ffffffffffffffffffffffffffffffffffffffff16815260200190815260200160002060009054906101000a900473ffffffffffffffffffffffffffffffffffffffff1690508373ffffffffffffffffffffffffffffffffffffffff168173ffffffffffffffffffffffffffffffffffffffff16146137e5576137dd83600160008473ffffffffffffffffffffffffffffffffffffffff1673ffffffffffffffffffffffffffffffffffffffff1681526020019081526020016000206147db90919063ffffffff16565b91505061383a565b61383683600160008773ffffffffffffffffffffffffffffffffffffffff1673ffffffffffffffffffffffffffffffffffffffff1681526020019081526020016000206147db90919063ffffffff16565b9150505b92915050565b818073ffffffffffffffffffffffffffffffffffffffff163373ffffffffffffffffffffffffffffffffffffffff16146139bc578073ffffffffffffffffffffffffffffffffffffffff16638da5cb5b6040518163ffffffff1660e01b8152600401602060405180830381865afa9250505080156138dc57506040513d601f19601f820116820180604052508101906138d99190615160565b60015b613955573d806000811461390c576040519150601f19603f3d011682016040523d82523d6000602084013e613911565b606091505b50600081510361394d576040517fb2c1414000000000000000000000000000000000000000000000000000000000815260040160405180910390fd5b805181602001fd5b8073ffffffffffffffffffffffffffffffffffffffff163373ffffffffffffffffffffffffffffffffffffffff16146139ba576040517ffcf5eff800000000000000000000000000000000000000000000000000000000815260040160405180910390fd5b505b8173ffffffffffffffffffffffffffffffffffffffff168373ffffffffffffffffffffffffffffffffffffffff1603613a21576040517f347f118f00000000000000000000000000000000000000000000000000000000815260040160405180910390fd5b600073ffffffffffffffffffffffffffffffffffffffff168273ffffffffffffffffffffffffffffffffffffffff1603613a87576040517fb05574d300000000000000000000000000000000000000000000000000000000815260040160405180910390fd5b6000600260008573ffffffffffffffffffffffffffffffffffffffff1673ffffffffffffffffffffffffffffffffffffffff16815260200190815260200160002060009054906101000a900473ffffffffffffffffffffffffffffffffffffffff169050600073ffffffffffffffffffffffffffffffffffffffff168173ffffffffffffffffffffffffffffffffffffffff1603613b5c57836040517fbfc6c337000000000000000000000000000000000000000000000000000000008152600401613b539190614daa565b60405180910390fd5b8273ffffffffffffffffffffffffffffffffffffffff168173ffffffffffffffffffffffffffffffffffffffff1603613bcc57826040517f73a41649000000000000000000000000000000000000000000000000000000008152600401613bc39190614daa565b60405180910390fd5b6000600260008573ffffffffffffffffffffffffffffffffffffffff1673ffffffffffffffffffffffffffffffffffffffff16815260200190815260200160002060009054906101000a900473ffffffffffffffffffffffffffffffffffffffff169050600073ffffffffffffffffffffffffffffffffffffffff168173ffffffffffffffffffffffffffffffffffffffff1603613ca157836040517fbfc6c337000000000000000000000000000000000000000000000000000000008152600401613c989190614daa565b60405180910390fd5b8373ffffffffffffffffffffffffffffffffffffffff168173ffffffffffffffffffffffffffffffffffffffff1614613d1157836040517f768e549c000000000000000000000000000000000000000000000000000000008152600401613d089190614daa565b60405180910390fd5b8473ffffffffffffffffffffffffffffffffffffffff168273ffffffffffffffffffffffffffffffffffffffff1614613df457613d9585600360008573ffffffffffffffffffffffffffffffffffffffff1673ffffffffffffffffffffffffffffffffffffffff16815260200190815260200160002061472990919063ffffffff16565b50600015158273ffffffffffffffffffffffffffffffffffffffff168673ffffffffffffffffffffffffffffffffffffffff167e38c54977604f1a5c0a3604cbbecd0153c81e3131799ead95755e8bb5d5b9e860405160405180910390a45b83600260008773ffffffffffffffffffffffffffffffffffffffff1673ffffffffffffffffffffffffffffffffffffffff16815260200190815260200160002060006101000a81548173ffffffffffffffffffffffffffffffffffffffff021916908373ffffffffffffffffffffffffffffffffffffffff160217905550613ec385600360008773ffffffffffffffffffffffffffffffffffffffff1673ffffffffffffffffffffffffffffffffffffffff1681526020019081526020016000206147ab90919063ffffffff16565b50600115158473ffffffffffffffffffffffffffffffffffffffff168673ffffffffffffffffffffffffffffffffffffffff167e38c54977604f1a5c0a3604cbbecd0153c81e3131799ead95755e8bb5d5b9e860405160405180910390a45050505050565b60008173ffffffffffffffffffffffffffffffffffffffff163f9050919050565b60008073ffffffffffffffffffffffffffffffffffffffff16600260008473ffffffffffffffffffffffffffffffffffffffff1673ffffffffffffffffffffffffffffffffffffffff16815260200190815260200160002060009054906101000a900473ffffffffffffffffffffffffffffffffffffffff1673ffffffffffffffffffffffffffffffffffffffff1614159050919050565b60606000600260008473ffffffffffffffffffffffffffffffffffffffff1673ffffffffffffffffffffffffffffffffffffffff16815260200190815260200160002060009054906101000a900473ffffffffffffffffffffffffffffffffffffffff1690508273ffffffffffffffffffffffffffffffffffffffff168173ffffffffffffffffffffffffffffffffffffffff16146140c8576140c06000808373ffffffffffffffffffffffffffffffffffffffff1673ffffffffffffffffffffffffffffffffffffffff168152602001908152602001600020614773565b915050614112565b61410e6000808573ffffffffffffffffffffffffffffffffffffffff1673ffffffffffffffffffffffffffffffffffffffff168152602001908152602001600020614773565b9150505b919050565b600080600260008573ffffffffffffffffffffffffffffffffffffffff1673ffffffffffffffffffffffffffffffffffffffff16815260200190815260200160002060009054906101000a900473ffffffffffffffffffffffffffffffffffffffff169050600073ffffffffffffffffffffffffffffffffffffffff168173ffffffffffffffffffffffffffffffffffffffff1614614321576000806000808473ffffffffffffffffffffffffffffffffffffffff1673ffffffffffffffffffffffffffffffffffffffff1681526020019081526020016000209150600160008473ffffffffffffffffffffffffffffffffffffffff1673ffffffffffffffffffffffffffffffffffffffff168152602001908152602001600020905061424785836147f290919063ffffffff16565b1561428957846040517fa8cf495d0000000000000000000000000000000000000000000000000000000081526004016142809190614daa565b60405180910390fd5b60008573ffffffffffffffffffffffffffffffffffffffff163b111561431e5760008573ffffffffffffffffffffffffffffffffffffffff163f90506142d8818361479490919063ffffffff16565b1561431c5785816040517f5f3853a90000000000000000000000000000000000000000000000000000000081526004016143139291906152f9565b60405180910390fd5b505b50505b600191505092915050565b600080600260008573ffffffffffffffffffffffffffffffffffffffff1673ffffffffffffffffffffffffffffffffffffffff16815260200190815260200160002060009054906101000a900473ffffffffffffffffffffffffffffffffffffffff1690508373ffffffffffffffffffffffffffffffffffffffff168173ffffffffffffffffffffffffffffffffffffffff161461441c57614414836000808473ffffffffffffffffffffffffffffffffffffffff1673ffffffffffffffffffffffffffffffffffffffff1681526020019081526020016000206147f290919063ffffffff16565b915050614470565b61446c836000808773ffffffffffffffffffffffffffffffffffffffff1673ffffffffffffffffffffffffffffffffffffffff1681526020019081526020016000206147f290919063ffffffff16565b9150505b92915050565b60006144858360000183614822565b905092915050565b600061449c8360000183614936565b905092915050565b60008060008373ffffffffffffffffffffffffffffffffffffffff1673ffffffffffffffffffffffffffffffffffffffff16815260200190815260200160002090506000600160008473ffffffffffffffffffffffffffffffffffffffff1673ffffffffffffffffffffffffffffffffffffffff16815260200190815260200160002090506000614534836149a6565b90506000614541836149bb565b905060005b8281101561462b576000614563828761475990919063ffffffff16565b905060006145b7826000808c73ffffffffffffffffffffffffffffffffffffffff1673ffffffffffffffffffffffffffffffffffffffff1681526020019081526020016000206147ab90919063ffffffff16565b9050801561461e57600115158273ffffffffffffffffffffffffffffffffffffffff168a73ffffffffffffffffffffffffffffffffffffffff167f2738289d9deecdc30eb8ffc42876633caecca1ffa166e4efa89f408e17373a1a60405160405180910390a45b8260010192505050614546565b5060005b818110156146ff57600061464c82866147db90919063ffffffff16565b905060006146a182600160008c73ffffffffffffffffffffffffffffffffffffffff1673ffffffffffffffffffffffffffffffffffffffff16815260200190815260200160002061448d90919063ffffffff16565b905080156146f25760011515828a73ffffffffffffffffffffffffffffffffffffffff167fb8036058bafea884aabc446ca15619fd86f5464a4ad96f64164ad6f77444354d60405160405180910390a45b826001019250505061462f565b50505050505050565b60606000614718836000016149d0565b905060608190508092505050919050565b6000614751836000018373ffffffffffffffffffffffffffffffffffffffff1660001b614822565b905092915050565b60006147688360000183614a2c565b60001c905092915050565b60606000614783836000016149d0565b905060608190508092505050919050565b60006147a38360000183614a57565b905092915050565b60006147d3836000018373ffffffffffffffffffffffffffffffffffffffff1660001b614936565b905092915050565b60006147ea8360000183614a2c565b905092915050565b600061481a836000018373ffffffffffffffffffffffffffffffffffffffff1660001b614a57565b905092915050565b6000808360010160008481526020019081526020016000205490506000811461492a5760006001826148549190615351565b905060006001866000018054905061486c9190615351565b90508181146148db57600086600001828154811061488d5761488c61518d565b5b90600052602060002001549050808760000184815481106148b1576148b061518d565b5b90600052602060002001819055508387600101600083815260200190815260200160002081905550505b856000018054806148ef576148ee615385565b5b600190038181906000526020600020016000905590558560010160008681526020019081526020016000206000905560019350505050614930565b60009150505b92915050565b60006149428383614a57565b61499b5782600001829080600181540180825580915050600190039060005260206000200160009091909190915055826000018054905083600101600084815260200190815260200160002081905550600190506149a0565b600090505b92915050565b60006149b482600001614a7a565b9050919050565b60006149c982600001614a7a565b9050919050565b606081600001805480602002602001604051908101604052809291908181526020018280548015614a2057602002820191906000526020600020905b815481526020019060010190808311614a0c575b50505050509050919050565b6000826000018281548110614a4457614a4361518d565b5b9060005260206000200154905092915050565b600080836001016000848152602001908152602001600020541415905092915050565b600081600001805490509050919050565b600080fd5b600080fd5b600073ffffffffffffffffffffffffffffffffffffffff82169050919050565b6000614ac082614a95565b9050919050565b614ad081614ab5565b8114614adb57600080fd5b50565b600081359050614aed81614ac7565b92915050565b600080fd5b600080fd5b600080fd5b60008083601f840112614b1857614b17614af3565b5b8235905067ffffffffffffffff811115614b3557614b34614af8565b5b602083019150836020820283011115614b5157614b50614afd565b5b9250929050565b60008115159050919050565b614b6d81614b58565b8114614b7857600080fd5b50565b600081359050614b8a81614b64565b92915050565b60008060008060608587031215614baa57614ba9614a8b565b5b6000614bb887828801614ade565b945050602085013567ffffffffffffffff811115614bd957614bd8614a90565b5b614be587828801614b02565b93509350506040614bf887828801614b7b565b91505092959194509250565b60008060408385031215614c1b57614c1a614a8b565b5b6000614c2985828601614ade565b9250506020614c3a85828601614ade565b9150509250929050565b600060208284031215614c5a57614c59614a8b565b5b6000614c6884828501614ade565b91505092915050565b600081519050919050565b600082825260208201905092915050565b6000819050602082019050919050565b6000819050919050565b614cb081614c9d565b82525050565b6000614cc28383614ca7565b60208301905092915050565b6000602082019050919050565b6000614ce682614c71565b614cf08185614c7c565b9350614cfb83614c8d565b8060005b83811015614d2c578151614d138882614cb6565b9750614d1e83614cce565b925050600181019050614cff565b5085935050505092915050565b60006020820190508181036000830152614d538184614cdb565b905092915050565b60008060408385031215614d7257614d71614a8b565b5b6000614d8085828601614ade565b9250506020614d9185828601614b7b565b9150509250929050565b614da481614ab5565b82525050565b6000602082019050614dbf6000830184614d9b565b92915050565b6000819050919050565b614dd881614dc5565b8114614de357600080fd5b50565b600081359050614df581614dcf565b92915050565b60008060408385031215614e1257614e11614a8b565b5b6000614e2085828601614ade565b9250506020614e3185828601614de6565b9150509250929050565b600081519050919050565b600082825260208201905092915050565b6000819050602082019050919050565b614e7081614ab5565b82525050565b6000614e828383614e67565b60208301905092915050565b6000602082019050919050565b6000614ea682614e3b565b614eb08185614e46565b9350614ebb83614e57565b8060005b83811015614eec578151614ed38882614e76565b9750614ede83614e8e565b925050600181019050614ebf565b5085935050505092915050565b60006020820190508181036000830152614f138184614e9b565b905092915050565b614f2481614b58565b82525050565b6000602082019050614f3f6000830184614f1b565b92915050565b614f4e81614c9d565b8114614f5957600080fd5b50565b600081359050614f6b81614f45565b92915050565b60008060408385031215614f8857614f87614a8b565b5b6000614f9685828601614ade565b9250506020614fa785828601614f5c565b9150509250929050565b600080600060608486031215614fca57614fc9614a8b565b5b6000614fd886828701614ade565b9350506020614fe986828701614f5c565b9250506040614ffa86828701614b7b565b9150509250925092565b60008083601f84011261501a57615019614af3565b5b8235905067ffffffffffffffff81111561503757615036614af8565b5b60208301915083602082028301111561505357615052614afd565b5b9250929050565b6000806000806060858703121561507457615073614a8b565b5b600061508287828801614ade565b945050602085013567ffffffffffffffff8111156150a3576150a2614a90565b5b6150af87828801615004565b935093505060406150c287828801614b7b565b91505092959194509250565b6000806000606084860312156150e7576150e6614a8b565b5b60006150f586828701614ade565b935050602061510686828701614ade565b925050604061511786828701614b7b565b9150509250925092565b61512a81614c9d565b82525050565b60006020820190506151456000830184615121565b92915050565b60008151905061515a81614ac7565b92915050565b60006020828403121561517657615175614a8b565b5b60006151848482850161514b565b91505092915050565b7f4e487b7100000000000000000000000000000000000000000000000000000000600052603260045260246000fd5b600080fd5b82818337505050565b60006151d68385614c7c565b93507f07ffffffffffffffffffffffffffffffffffffffffffffffffffffffffffffff831115615209576152086151bc565b5b60208302925061521a8385846151c1565b82840190509392505050565b600060208201905081810360008301526152418184866151ca565b90509392505050565b6000819050919050565b60006152636020840184614ade565b905092915050565b6000602082019050919050565b60006152848385614e46565b935061528f8261524a565b8060005b858110156152c8576152a58284615254565b6152af8882614e76565b97506152ba8361526b565b925050600181019050615293565b5085925050509392505050565b600060208201905081810360008301526152f0818486615278565b90509392505050565b600060408201905061530e6000830185614d9b565b61531b6020830184615121565b9392505050565b7f4e487b7100000000000000000000000000000000000000000000000000000000600052601160045260246000fd5b600061535c82614dc5565b915061536783614dc5565b925082820390508181111561537f5761537e615322565b5b92915050565b7f4e487b7100000000000000000000000000000000000000000000000000000000600052603160045260246000fdfea2646970667358221220675159c4b9d8f6de9d2c7ef4eabc77a1833c32f09f699bd550c91cba9367b27464736f6c63430008130033",
  "immutableReferences": {},
  "source": "// SPDX-License-Identifier: MIT\r\npragma solidity ^0.8.13;\r\n\r\nimport {IOperatorFilterRegistry} from \"./IOperatorFilterRegistry.sol\";\r\nimport {Ownable} from \"@openzeppelin/contracts/access/Ownable.sol\";\r\nimport {EnumerableSet} from \"@openzeppelin/contracts/utils/structs/EnumerableSet.sol\";\r\nimport {OperatorFilterRegistryErrorsAndEvents} from \"./OperatorFilterRegistryErrorsAndEvents.sol\";\r\n\r\n/**\r\n * @title  OperatorFilterRegistry\r\n * @notice Borrows heavily from the QQL BlacklistOperatorFilter contract:\r\n *         https://github.com/qql-art/contracts/blob/main/contracts/BlacklistOperatorFilter.sol\r\n * @notice This contracts allows tokens or token owners to register specific addresses or codeHashes that may be\r\n * *       restricted according to the isOperatorAllowed function.\r\n */\r\ncontract OperatorFilterRegistry is IOperatorFilterRegistry, OperatorFilterRegistryErrorsAndEvents {\r\n    using EnumerableSet for EnumerableSet.AddressSet;\r\n    using EnumerableSet for EnumerableSet.Bytes32Set;\r\n\r\n    /// @dev initialized accounts have a nonzero codehash (see https://eips.ethereum.org/EIPS/eip-1052)\r\n    /// Note that this will also be a smart contract's codehash when making calls from its constructor.\r\n    bytes32 constant EOA_CODEHASH = keccak256(\"\");\r\n\r\n    mapping(address => EnumerableSet.AddressSet) private _filteredOperators;\r\n    mapping(address => EnumerableSet.Bytes32Set) private _filteredCodeHashes;\r\n    mapping(address => address) private _registrations;\r\n    mapping(address => EnumerableSet.AddressSet) private _subscribers;\r\n\r\n    /**\r\n     * @notice Restricts method caller to the address or EIP-173 \"owner()\"\r\n     */\r\n    modifier onlyAddressOrOwner(address addr) {\r\n        if (msg.sender != addr) {\r\n            try Ownable(addr).owner() returns (address owner) {\r\n                if (msg.sender != owner) {\r\n                    revert OnlyAddressOrOwner();\r\n                }\r\n            } catch (bytes memory reason) {\r\n                if (reason.length == 0) {\r\n                    revert NotOwnable();\r\n                } else {\r\n                    /// @solidity memory-safe-assembly\r\n                    assembly {\r\n                        revert(add(32, reason), mload(reason))\r\n                    }\r\n                }\r\n            }\r\n        }\r\n        _;\r\n    }\r\n\r\n    /**\r\n     * @notice Returns true if operator is not filtered for a given token, either by address or codeHash. Also returns\r\n     *         true if supplied registrant address is not registered.\r\n     *         Note that this method will *revert* if an operator or its codehash is filtered with an error that is\r\n     *         more informational than a false boolean, so smart contracts that query this method for informational\r\n     *         purposes will need to wrap in a try/catch or perform a low-level staticcall in order to handle the case\r\n     *         that an operator is filtered.\r\n     */\r\n    function isOperatorAllowed(address registrant, address operator) external view returns (bool) {\r\n        address registration = _registrations[registrant];\r\n        if (registration != address(0)) {\r\n            EnumerableSet.AddressSet storage filteredOperatorsRef;\r\n            EnumerableSet.Bytes32Set storage filteredCodeHashesRef;\r\n\r\n            filteredOperatorsRef = _filteredOperators[registration];\r\n            filteredCodeHashesRef = _filteredCodeHashes[registration];\r\n\r\n            if (filteredOperatorsRef.contains(operator)) {\r\n                revert AddressFiltered(operator);\r\n            }\r\n            if (operator.code.length > 0) {\r\n                bytes32 codeHash = operator.codehash;\r\n                if (filteredCodeHashesRef.contains(codeHash)) {\r\n                    revert CodeHashFiltered(operator, codeHash);\r\n                }\r\n            }\r\n        }\r\n        return true;\r\n    }\r\n\r\n    //////////////////\r\n    // AUTH METHODS //\r\n    //////////////////\r\n\r\n    /**\r\n     * @notice Registers an address with the registry. May be called by address itself or by EIP-173 owner.\r\n     */\r\n    function register(address registrant) external onlyAddressOrOwner(registrant) {\r\n        if (_registrations[registrant] != address(0)) {\r\n            revert AlreadyRegistered();\r\n        }\r\n        _registrations[registrant] = registrant;\r\n        emit RegistrationUpdated(registrant, true);\r\n    }\r\n\r\n    /**\r\n     * @notice Unregisters an address with the registry and removes its subscription. May be called by address itself or by EIP-173 owner.\r\n     *         Note that this does not remove any filtered addresses or codeHashes.\r\n     *         Also note that any subscriptions to this registrant will still be active and follow the existing filtered addresses and codehashes.\r\n     */\r\n    function unregister(address registrant) external onlyAddressOrOwner(registrant) {\r\n        address registration = _registrations[registrant];\r\n        if (registration == address(0)) {\r\n            revert NotRegistered(registrant);\r\n        }\r\n        if (registration != registrant) {\r\n            _subscribers[registration].remove(registrant);\r\n            emit SubscriptionUpdated(registrant, registration, false);\r\n        }\r\n        _registrations[registrant] = address(0);\r\n        emit RegistrationUpdated(registrant, false);\r\n    }\r\n\r\n    /**\r\n     * @notice Registers an address with the registry and \"subscribes\" to another address's filtered operators and codeHashes.\r\n     */\r\n    function registerAndSubscribe(address registrant, address subscription) external onlyAddressOrOwner(registrant) {\r\n        address registration = _registrations[registrant];\r\n        if (registration != address(0)) {\r\n            revert AlreadyRegistered();\r\n        }\r\n        if (registrant == subscription) {\r\n            revert CannotSubscribeToSelf();\r\n        }\r\n        address subscriptionRegistration = _registrations[subscription];\r\n        if (subscriptionRegistration == address(0)) {\r\n            revert NotRegistered(subscription);\r\n        }\r\n        if (subscriptionRegistration != subscription) {\r\n            revert CannotSubscribeToRegistrantWithSubscription(subscription);\r\n        }\r\n\r\n        _registrations[registrant] = subscription;\r\n        _subscribers[subscription].add(registrant);\r\n        emit RegistrationUpdated(registrant, true);\r\n        emit SubscriptionUpdated(registrant, subscription, true);\r\n    }\r\n\r\n    /**\r\n     * @notice Registers an address with the registry and copies the filtered operators and codeHashes from another\r\n     *         address without subscribing.\r\n     */\r\n    function registerAndCopyEntries(address registrant, address registrantToCopy)\r\n        external\r\n        onlyAddressOrOwner(registrant)\r\n    {\r\n        if (registrantToCopy == registrant) {\r\n            revert CannotCopyFromSelf();\r\n        }\r\n        address registration = _registrations[registrant];\r\n        if (registration != address(0)) {\r\n            revert AlreadyRegistered();\r\n        }\r\n        address registrantRegistration = _registrations[registrantToCopy];\r\n        if (registrantRegistration == address(0)) {\r\n            revert NotRegistered(registrantToCopy);\r\n        }\r\n        _registrations[registrant] = registrant;\r\n        emit RegistrationUpdated(registrant, true);\r\n        _copyEntries(registrant, registrantToCopy);\r\n    }\r\n\r\n    /**\r\n     * @notice Update an operator address for a registered address - when filtered is true, the operator is filtered.\r\n     */\r\n    function updateOperator(address registrant, address operator, bool filtered)\r\n        external\r\n        onlyAddressOrOwner(registrant)\r\n    {\r\n        address registration = _registrations[registrant];\r\n        if (registration == address(0)) {\r\n            revert NotRegistered(registrant);\r\n        }\r\n        if (registration != registrant) {\r\n            revert CannotUpdateWhileSubscribed(registration);\r\n        }\r\n        EnumerableSet.AddressSet storage filteredOperatorsRef = _filteredOperators[registrant];\r\n\r\n        if (!filtered) {\r\n            bool removed = filteredOperatorsRef.remove(operator);\r\n            if (!removed) {\r\n                revert AddressNotFiltered(operator);\r\n            }\r\n        } else {\r\n            bool added = filteredOperatorsRef.add(operator);\r\n            if (!added) {\r\n                revert AddressAlreadyFiltered(operator);\r\n            }\r\n        }\r\n        emit OperatorUpdated(registrant, operator, filtered);\r\n    }\r\n\r\n    /**\r\n     * @notice Update a codeHash for a registered address - when filtered is true, the codeHash is filtered.\r\n     *         Note that this will allow adding the bytes32(0) codehash, which could result in unexpected behavior,\r\n     *         since calling `isCodeHashFiltered` will return true for bytes32(0), which is the codeHash of any\r\n     *         un-initialized account. Since un-initialized accounts have no code, the registry will not validate\r\n     *         that an un-initalized account's codeHash is not filtered. By the time an account is able to\r\n     *         act as an operator (an account is initialized or a smart contract exclusively in the context of its\r\n     *         constructor),  it will have a codeHash of EOA_CODEHASH, which cannot be filtered.\r\n     */\r\n    function updateCodeHash(address registrant, bytes32 codeHash, bool filtered)\r\n        external\r\n        onlyAddressOrOwner(registrant)\r\n    {\r\n        if (codeHash == EOA_CODEHASH) {\r\n            revert CannotFilterEOAs();\r\n        }\r\n        address registration = _registrations[registrant];\r\n        if (registration == address(0)) {\r\n            revert NotRegistered(registrant);\r\n        }\r\n        if (registration != registrant) {\r\n            revert CannotUpdateWhileSubscribed(registration);\r\n        }\r\n        EnumerableSet.Bytes32Set storage filteredCodeHashesRef = _filteredCodeHashes[registrant];\r\n\r\n        if (!filtered) {\r\n            bool removed = filteredCodeHashesRef.remove(codeHash);\r\n            if (!removed) {\r\n                revert CodeHashNotFiltered(codeHash);\r\n            }\r\n        } else {\r\n            bool added = filteredCodeHashesRef.add(codeHash);\r\n            if (!added) {\r\n                revert CodeHashAlreadyFiltered(codeHash);\r\n            }\r\n        }\r\n        emit CodeHashUpdated(registrant, codeHash, filtered);\r\n    }\r\n\r\n    /**\r\n     * @notice Update multiple operators for a registered address - when filtered is true, the operators will be filtered. Reverts on duplicates.\r\n     */\r\n    function updateOperators(address registrant, address[] calldata operators, bool filtered)\r\n        external\r\n        onlyAddressOrOwner(registrant)\r\n    {\r\n        address registration = _registrations[registrant];\r\n        if (registration == address(0)) {\r\n            revert NotRegistered(registrant);\r\n        }\r\n        if (registration != registrant) {\r\n            revert CannotUpdateWhileSubscribed(registration);\r\n        }\r\n        EnumerableSet.AddressSet storage filteredOperatorsRef = _filteredOperators[registrant];\r\n        uint256 operatorsLength = operators.length;\r\n        if (!filtered) {\r\n            for (uint256 i = 0; i < operatorsLength;) {\r\n                address operator = operators[i];\r\n                bool removed = filteredOperatorsRef.remove(operator);\r\n                if (!removed) {\r\n                    revert AddressNotFiltered(operator);\r\n                }\r\n                unchecked {\r\n                    ++i;\r\n                }\r\n            }\r\n        } else {\r\n            for (uint256 i = 0; i < operatorsLength;) {\r\n                address operator = operators[i];\r\n                bool added = filteredOperatorsRef.add(operator);\r\n                if (!added) {\r\n                    revert AddressAlreadyFiltered(operator);\r\n                }\r\n                unchecked {\r\n                    ++i;\r\n                }\r\n            }\r\n        }\r\n        emit OperatorsUpdated(registrant, operators, filtered);\r\n    }\r\n\r\n    /**\r\n     * @notice Update multiple codeHashes for a registered address - when filtered is true, the codeHashes will be filtered. Reverts on duplicates.\r\n     *         Note that this will allow adding the bytes32(0) codehash, which could result in unexpected behavior,\r\n     *         since calling `isCodeHashFiltered` will return true for bytes32(0), which is the codeHash of any\r\n     *         un-initialized account. Since un-initialized accounts have no code, the registry will not validate\r\n     *         that an un-initalized account's codeHash is not filtered. By the time an account is able to\r\n     *         act as an operator (an account is initialized or a smart contract exclusively in the context of its\r\n     *         constructor),  it will have a codeHash of EOA_CODEHASH, which cannot be filtered.\r\n     */\r\n    function updateCodeHashes(address registrant, bytes32[] calldata codeHashes, bool filtered)\r\n        external\r\n        onlyAddressOrOwner(registrant)\r\n    {\r\n        address registration = _registrations[registrant];\r\n        if (registration == address(0)) {\r\n            revert NotRegistered(registrant);\r\n        }\r\n        if (registration != registrant) {\r\n            revert CannotUpdateWhileSubscribed(registration);\r\n        }\r\n        EnumerableSet.Bytes32Set storage filteredCodeHashesRef = _filteredCodeHashes[registrant];\r\n        uint256 codeHashesLength = codeHashes.length;\r\n        if (!filtered) {\r\n            for (uint256 i = 0; i < codeHashesLength;) {\r\n                bytes32 codeHash = codeHashes[i];\r\n                bool removed = filteredCodeHashesRef.remove(codeHash);\r\n                if (!removed) {\r\n                    revert CodeHashNotFiltered(codeHash);\r\n                }\r\n                unchecked {\r\n                    ++i;\r\n                }\r\n            }\r\n        } else {\r\n            for (uint256 i = 0; i < codeHashesLength;) {\r\n                bytes32 codeHash = codeHashes[i];\r\n                if (codeHash == EOA_CODEHASH) {\r\n                    revert CannotFilterEOAs();\r\n                }\r\n                bool added = filteredCodeHashesRef.add(codeHash);\r\n                if (!added) {\r\n                    revert CodeHashAlreadyFiltered(codeHash);\r\n                }\r\n                unchecked {\r\n                    ++i;\r\n                }\r\n            }\r\n        }\r\n        emit CodeHashesUpdated(registrant, codeHashes, filtered);\r\n    }\r\n\r\n    /**\r\n     * @notice Subscribe an address to another registrant's filtered operators and codeHashes. Will remove previous\r\n     *         subscription if present.\r\n     *         Note that accounts with subscriptions may go on to subscribe to other accounts - in this case,\r\n     *         subscriptions will not be forwarded. Instead the former subscription's existing entries will still be\r\n     *         used.\r\n     */\r\n    function subscribe(address registrant, address newSubscription) external onlyAddressOrOwner(registrant) {\r\n        if (registrant == newSubscription) {\r\n            revert CannotSubscribeToSelf();\r\n        }\r\n        if (newSubscription == address(0)) {\r\n            revert CannotSubscribeToZeroAddress();\r\n        }\r\n        address registration = _registrations[registrant];\r\n        if (registration == address(0)) {\r\n            revert NotRegistered(registrant);\r\n        }\r\n        if (registration == newSubscription) {\r\n            revert AlreadySubscribed(newSubscription);\r\n        }\r\n        address newSubscriptionRegistration = _registrations[newSubscription];\r\n        if (newSubscriptionRegistration == address(0)) {\r\n            revert NotRegistered(newSubscription);\r\n        }\r\n        if (newSubscriptionRegistration != newSubscription) {\r\n            revert CannotSubscribeToRegistrantWithSubscription(newSubscription);\r\n        }\r\n\r\n        if (registration != registrant) {\r\n            _subscribers[registration].remove(registrant);\r\n            emit SubscriptionUpdated(registrant, registration, false);\r\n        }\r\n        _registrations[registrant] = newSubscription;\r\n        _subscribers[newSubscription].add(registrant);\r\n        emit SubscriptionUpdated(registrant, newSubscription, true);\r\n    }\r\n\r\n    /**\r\n     * @notice Unsubscribe an address from its current subscribed registrant, and optionally copy its filtered operators and codeHashes.\r\n     */\r\n    function unsubscribe(address registrant, bool copyExistingEntries) external onlyAddressOrOwner(registrant) {\r\n        address registration = _registrations[registrant];\r\n        if (registration == address(0)) {\r\n            revert NotRegistered(registrant);\r\n        }\r\n        if (registration == registrant) {\r\n            revert NotSubscribed();\r\n        }\r\n        _subscribers[registration].remove(registrant);\r\n        _registrations[registrant] = registrant;\r\n        emit SubscriptionUpdated(registrant, registration, false);\r\n        if (copyExistingEntries) {\r\n            _copyEntries(registrant, registration);\r\n        }\r\n    }\r\n\r\n    /**\r\n     * @notice Copy filtered operators and codeHashes from a different registrantToCopy to addr.\r\n     */\r\n    function copyEntriesOf(address registrant, address registrantToCopy) external onlyAddressOrOwner(registrant) {\r\n        if (registrant == registrantToCopy) {\r\n            revert CannotCopyFromSelf();\r\n        }\r\n        address registration = _registrations[registrant];\r\n        if (registration == address(0)) {\r\n            revert NotRegistered(registrant);\r\n        }\r\n        if (registration != registrant) {\r\n            revert CannotUpdateWhileSubscribed(registration);\r\n        }\r\n        address registrantRegistration = _registrations[registrantToCopy];\r\n        if (registrantRegistration == address(0)) {\r\n            revert NotRegistered(registrantToCopy);\r\n        }\r\n        _copyEntries(registrant, registrantToCopy);\r\n    }\r\n\r\n    /// @dev helper to copy entries from registrantToCopy to registrant and emit events\r\n    function _copyEntries(address registrant, address registrantToCopy) private {\r\n        EnumerableSet.AddressSet storage filteredOperatorsRef = _filteredOperators[registrantToCopy];\r\n        EnumerableSet.Bytes32Set storage filteredCodeHashesRef = _filteredCodeHashes[registrantToCopy];\r\n        uint256 filteredOperatorsLength = filteredOperatorsRef.length();\r\n        uint256 filteredCodeHashesLength = filteredCodeHashesRef.length();\r\n        for (uint256 i = 0; i < filteredOperatorsLength;) {\r\n            address operator = filteredOperatorsRef.at(i);\r\n            bool added = _filteredOperators[registrant].add(operator);\r\n            if (added) {\r\n                emit OperatorUpdated(registrant, operator, true);\r\n            }\r\n            unchecked {\r\n                ++i;\r\n            }\r\n        }\r\n        for (uint256 i = 0; i < filteredCodeHashesLength;) {\r\n            bytes32 codehash = filteredCodeHashesRef.at(i);\r\n            bool added = _filteredCodeHashes[registrant].add(codehash);\r\n            if (added) {\r\n                emit CodeHashUpdated(registrant, codehash, true);\r\n            }\r\n            unchecked {\r\n                ++i;\r\n            }\r\n        }\r\n    }\r\n\r\n    //////////////////\r\n    // VIEW METHODS //\r\n    //////////////////\r\n\r\n    /**\r\n     * @notice Get the subscription address of a given registrant, if any.\r\n     */\r\n    function subscriptionOf(address registrant) external view returns (address subscription) {\r\n        subscription = _registrations[registrant];\r\n        if (subscription == address(0)) {\r\n            revert NotRegistered(registrant);\r\n        } else if (subscription == registrant) {\r\n            subscription = address(0);\r\n        }\r\n    }\r\n\r\n    /**\r\n     * @notice Get the set of addresses subscribed to a given registrant.\r\n     *         Note that order is not guaranteed as updates are made.\r\n     */\r\n    function subscribers(address registrant) external view returns (address[] memory) {\r\n        return _subscribers[registrant].values();\r\n    }\r\n\r\n    /**\r\n     * @notice Get the subscriber at a given index in the set of addresses subscribed to a given registrant.\r\n     *         Note that order is not guaranteed as updates are made.\r\n     */\r\n    function subscriberAt(address registrant, uint256 index) external view returns (address) {\r\n        return _subscribers[registrant].at(index);\r\n    }\r\n\r\n    /**\r\n     * @notice Returns true if operator is filtered by a given address or its subscription.\r\n     */\r\n    function isOperatorFiltered(address registrant, address operator) external view returns (bool) {\r\n        address registration = _registrations[registrant];\r\n        if (registration != registrant) {\r\n            return _filteredOperators[registration].contains(operator);\r\n        }\r\n        return _filteredOperators[registrant].contains(operator);\r\n    }\r\n\r\n    /**\r\n     * @notice Returns true if a codeHash is filtered by a given address or its subscription.\r\n     */\r\n    function isCodeHashFiltered(address registrant, bytes32 codeHash) external view returns (bool) {\r\n        address registration = _registrations[registrant];\r\n        if (registration != registrant) {\r\n            return _filteredCodeHashes[registration].contains(codeHash);\r\n        }\r\n        return _filteredCodeHashes[registrant].contains(codeHash);\r\n    }\r\n\r\n    /**\r\n     * @notice Returns true if the hash of an address's code is filtered by a given address or its subscription.\r\n     */\r\n    function isCodeHashOfFiltered(address registrant, address operatorWithCode) external view returns (bool) {\r\n        bytes32 codeHash = operatorWithCode.codehash;\r\n        address registration = _registrations[registrant];\r\n        if (registration != registrant) {\r\n            return _filteredCodeHashes[registration].contains(codeHash);\r\n        }\r\n        return _filteredCodeHashes[registrant].contains(codeHash);\r\n    }\r\n\r\n    /**\r\n     * @notice Returns true if an address has registered\r\n     */\r\n    function isRegistered(address registrant) external view returns (bool) {\r\n        return _registrations[registrant] != address(0);\r\n    }\r\n\r\n    /**\r\n     * @notice Returns a list of filtered operators for a given address or its subscription.\r\n     */\r\n    function filteredOperators(address registrant) external view returns (address[] memory) {\r\n        address registration = _registrations[registrant];\r\n        if (registration != registrant) {\r\n            return _filteredOperators[registration].values();\r\n        }\r\n        return _filteredOperators[registrant].values();\r\n    }\r\n\r\n    /**\r\n     * @notice Returns the set of filtered codeHashes for a given address or its subscription.\r\n     *         Note that order is not guaranteed as updates are made.\r\n     */\r\n    function filteredCodeHashes(address registrant) external view returns (bytes32[] memory) {\r\n        address registration = _registrations[registrant];\r\n        if (registration != registrant) {\r\n            return _filteredCodeHashes[registration].values();\r\n        }\r\n        return _filteredCodeHashes[registrant].values();\r\n    }\r\n\r\n    /**\r\n     * @notice Returns the filtered operator at the given index of the set of filtered operators for a given address or\r\n     *         its subscription.\r\n     *         Note that order is not guaranteed as updates are made.\r\n     */\r\n    function filteredOperatorAt(address registrant, uint256 index) external view returns (address) {\r\n        address registration = _registrations[registrant];\r\n        if (registration != registrant) {\r\n            return _filteredOperators[registration].at(index);\r\n        }\r\n        return _filteredOperators[registrant].at(index);\r\n    }\r\n\r\n    /**\r\n     * @notice Returns the filtered codeHash at the given index of the list of filtered codeHashes for a given address or\r\n     *         its subscription.\r\n     *         Note that order is not guaranteed as updates are made.\r\n     */\r\n    function filteredCodeHashAt(address registrant, uint256 index) external view returns (bytes32) {\r\n        address registration = _registrations[registrant];\r\n        if (registration != registrant) {\r\n            return _filteredCodeHashes[registration].at(index);\r\n        }\r\n        return _filteredCodeHashes[registrant].at(index);\r\n    }\r\n\r\n    /**\r\n     * @dev Convenience method to compute the code hash of an arbitrary contract\r\n     */\r\n    function codeHashOf(address a) external view returns (bytes32) {\r\n        return a.codehash;\r\n    }\r\n}\r\n",
  "sourcePath": "/home/matheo/dev/Sofan/truffle/contracts/OperatorFilterRegistry.sol",
  "compiler": {
    "name": "solc",
    "version": "0.8.19+commit.7dd6d404.Emscripten.clang"
  },
  "schemaVersion": "3.4.4",
  "updatedAt": "2023-07-31T23:51:33.556Z",
  "devdoc": {
    "kind": "dev",
    "methods": {
      "codeHashOf(address)": {
        "details": "Convenience method to compute the code hash of an arbitrary contract"
      }
    },
    "stateVariables": {
      "EOA_CODEHASH": {
        "details": "initialized accounts have a nonzero codehash (see https://eips.ethereum.org/EIPS/eip-1052) Note that this will also be a smart contract's codehash when making calls from its constructor."
      }
    },
    "title": "OperatorFilterRegistry",
    "version": 1
  },
  "userdoc": {
    "errors": {
      "AddressAlreadyFiltered(address)": [
        {
          "notice": "Emitted when trying to add an address that is already filtered."
        }
      ],
      "AddressFiltered(address)": [
        {
          "notice": "Emitted when an address is filtered."
        }
      ],
      "AddressNotFiltered(address)": [
        {
          "notice": "Emitted when trying to remove an address that is not filtered."
        }
      ],
      "AlreadyRegistered()": [
        {
          "notice": "Emitted when the registrant is already registered."
        }
      ],
      "AlreadySubscribed(address)": [
        {
          "notice": "Emitted when the registrant is already subscribed."
        }
      ],
      "CannotCopyFromSelf()": [
        {
          "notice": "Emitted when trying to copy a registration from itself."
        }
      ],
      "CannotFilterEOAs()": [
        {
          "notice": "Emitted when trying to register an address that has no code."
        }
      ],
      "CannotSubscribeToRegistrantWithSubscription(address)": [
        {
          "notice": "Emited when trying to register to a registrant with a subscription."
        }
      ],
      "CannotSubscribeToSelf()": [
        {
          "notice": "Emitted when trying to subscribe to itself."
        }
      ],
      "CannotSubscribeToZeroAddress()": [
        {
          "notice": "Emitted when trying to subscribe to the zero address."
        }
      ],
      "CannotUpdateWhileSubscribed(address)": [
        {
          "notice": "Emitted when trying to update a registration where the registrant is already subscribed."
        }
      ],
      "CodeHashAlreadyFiltered(bytes32)": [
        {
          "notice": "Emitted when trying to add a codehash that is already filtered."
        }
      ],
      "CodeHashFiltered(address,bytes32)": [
        {
          "notice": "Emitted when a codeHash is filtered."
        }
      ],
      "CodeHashNotFiltered(bytes32)": [
        {
          "notice": "Emitted when trying to remove a codehash that is not filtered."
        }
      ],
      "NotOwnable()": [
        {
          "notice": "Emitted when trying to register and the contract is not ownable (EIP-173 \"owner()\")"
        }
      ],
      "NotRegistered(address)": [
        {
          "notice": "Emitted when the registrant is not registered."
        }
      ],
      "NotSubscribed()": [
        {
          "notice": "Emitted when the registrant is not subscribed."
        }
      ],
      "OnlyAddressOrOwner()": [
        {
          "notice": "Emitted when the caller is not the address or EIP-173 \"owner()\""
        }
      ]
    },
    "events": {
      "CodeHashUpdated(address,bytes32,bool)": {
        "notice": "Emitted when a codeHash is updated."
      },
      "CodeHashesUpdated(address,bytes32[],bool)": {
        "notice": "Emitted when multiple codeHashes are updated."
      },
      "OperatorUpdated(address,address,bool)": {
        "notice": "Emitted when an operator is updated."
      },
      "OperatorsUpdated(address,address[],bool)": {
        "notice": "Emitted when multiple operators are updated."
      },
      "RegistrationUpdated(address,bool)": {
        "notice": "Emitted when a registration is updated."
      },
      "SubscriptionUpdated(address,address,bool)": {
        "notice": "Emitted when a subscription is updated."
      }
    },
    "kind": "user",
    "methods": {
      "copyEntriesOf(address,address)": {
        "notice": "Copy filtered operators and codeHashes from a different registrantToCopy to addr."
      },
      "filteredCodeHashAt(address,uint256)": {
        "notice": "Returns the filtered codeHash at the given index of the list of filtered codeHashes for a given address or         its subscription.         Note that order is not guaranteed as updates are made."
      },
      "filteredCodeHashes(address)": {
        "notice": "Returns the set of filtered codeHashes for a given address or its subscription.         Note that order is not guaranteed as updates are made."
      },
      "filteredOperatorAt(address,uint256)": {
        "notice": "Returns the filtered operator at the given index of the set of filtered operators for a given address or         its subscription.         Note that order is not guaranteed as updates are made."
      },
      "filteredOperators(address)": {
        "notice": "Returns a list of filtered operators for a given address or its subscription."
      },
      "isCodeHashFiltered(address,bytes32)": {
        "notice": "Returns true if a codeHash is filtered by a given address or its subscription."
      },
      "isCodeHashOfFiltered(address,address)": {
        "notice": "Returns true if the hash of an address's code is filtered by a given address or its subscription."
      },
      "isOperatorAllowed(address,address)": {
        "notice": "Returns true if operator is not filtered for a given token, either by address or codeHash. Also returns         true if supplied registrant address is not registered.         Note that this method will *revert* if an operator or its codehash is filtered with an error that is         more informational than a false boolean, so smart contracts that query this method for informational         purposes will need to wrap in a try/catch or perform a low-level staticcall in order to handle the case         that an operator is filtered."
      },
      "isOperatorFiltered(address,address)": {
        "notice": "Returns true if operator is filtered by a given address or its subscription."
      },
      "isRegistered(address)": {
        "notice": "Returns true if an address has registered"
      },
      "register(address)": {
        "notice": "Registers an address with the registry. May be called by address itself or by EIP-173 owner."
      },
      "registerAndCopyEntries(address,address)": {
        "notice": "Registers an address with the registry and copies the filtered operators and codeHashes from another         address without subscribing."
      },
      "registerAndSubscribe(address,address)": {
        "notice": "Registers an address with the registry and \"subscribes\" to another address's filtered operators and codeHashes."
      },
      "subscribe(address,address)": {
        "notice": "Subscribe an address to another registrant's filtered operators and codeHashes. Will remove previous         subscription if present.         Note that accounts with subscriptions may go on to subscribe to other accounts - in this case,         subscriptions will not be forwarded. Instead the former subscription's existing entries will still be         used."
      },
      "subscriberAt(address,uint256)": {
        "notice": "Get the subscriber at a given index in the set of addresses subscribed to a given registrant.         Note that order is not guaranteed as updates are made."
      },
      "subscribers(address)": {
        "notice": "Get the set of addresses subscribed to a given registrant.         Note that order is not guaranteed as updates are made."
      },
      "subscriptionOf(address)": {
        "notice": "Get the subscription address of a given registrant, if any."
      },
      "unregister(address)": {
        "notice": "Unregisters an address with the registry and removes its subscription. May be called by address itself or by EIP-173 owner.         Note that this does not remove any filtered addresses or codeHashes.         Also note that any subscriptions to this registrant will still be active and follow the existing filtered addresses and codehashes."
      },
      "unsubscribe(address,bool)": {
        "notice": "Unsubscribe an address from its current subscribed registrant, and optionally copy its filtered operators and codeHashes."
      },
      "updateCodeHash(address,bytes32,bool)": {
        "notice": "Update a codeHash for a registered address - when filtered is true, the codeHash is filtered.         Note that this will allow adding the bytes32(0) codehash, which could result in unexpected behavior,         since calling `isCodeHashFiltered` will return true for bytes32(0), which is the codeHash of any         un-initialized account. Since un-initialized accounts have no code, the registry will not validate         that an un-initalized account's codeHash is not filtered. By the time an account is able to         act as an operator (an account is initialized or a smart contract exclusively in the context of its         constructor),  it will have a codeHash of EOA_CODEHASH, which cannot be filtered."
      },
      "updateCodeHashes(address,bytes32[],bool)": {
        "notice": "Update multiple codeHashes for a registered address - when filtered is true, the codeHashes will be filtered. Reverts on duplicates.         Note that this will allow adding the bytes32(0) codehash, which could result in unexpected behavior,         since calling `isCodeHashFiltered` will return true for bytes32(0), which is the codeHash of any         un-initialized account. Since un-initialized accounts have no code, the registry will not validate         that an un-initalized account's codeHash is not filtered. By the time an account is able to         act as an operator (an account is initialized or a smart contract exclusively in the context of its         constructor),  it will have a codeHash of EOA_CODEHASH, which cannot be filtered."
      },
      "updateOperator(address,address,bool)": {
        "notice": "Update an operator address for a registered address - when filtered is true, the operator is filtered."
      },
      "updateOperators(address,address[],bool)": {
        "notice": "Update multiple operators for a registered address - when filtered is true, the operators will be filtered. Reverts on duplicates."
      }
    },
    "notice": "Borrows heavily from the QQL BlacklistOperatorFilter contract:         https://github.com/qql-art/contracts/blob/main/contracts/BlacklistOperatorFilter.solThis contracts allows tokens or token owners to register specific addresses or codeHashes that may be *       restricted according to the isOperatorAllowed function.",
    "version": 1
  }
}