{
  "contractName": "OwnedRegistrant",
  "abi": [
    {
      "inputs": [
        {
          "internalType": "address",
          "name": "_owner",
          "type": "address"
        }
      ],
      "stateMutability": "nonpayable",
      "type": "constructor"
    },
    {
      "anonymous": false,
      "inputs": [
        {
          "indexed": true,
          "internalType": "address",
          "name": "previousOwner",
          "type": "address"
        },
        {
          "indexed": true,
          "internalType": "address",
          "name": "newOwner",
          "type": "address"
        }
      ],
      "name": "OwnershipTransferStarted",
      "type": "event"
    },
    {
      "anonymous": false,
      "inputs": [
        {
          "indexed": true,
          "internalType": "address",
          "name": "previousOwner",
          "type": "address"
        },
        {
          "indexed": true,
          "internalType": "address",
          "name": "newOwner",
          "type": "address"
        }
      ],
      "name": "OwnershipTransferred",
      "type": "event"
    },
    {
      "inputs": [],
      "name": "acceptOwnership",
      "outputs": [],
      "stateMutability": "nonpayable",
      "type": "function"
    },
    {
      "inputs": [],
      "name": "owner",
      "outputs": [
        {
          "internalType": "address",
          "name": "",
          "type": "address"
        }
      ],
      "stateMutability": "view",
      "type": "function"
    },
    {
      "inputs": [],
      "name": "pendingOwner",
      "outputs": [
        {
          "internalType": "address",
          "name": "",
          "type": "address"
        }
      ],
      "stateMutability": "view",
      "type": "function"
    },
    {
      "inputs": [],
      "name": "renounceOwnership",
      "outputs": [],
      "stateMutability": "nonpayable",
      "type": "function"
    },
    {
      "inputs": [
        {
          "internalType": "address",
          "name": "newOwner",
          "type": "address"
        }
      ],
      "name": "transferOwnership",
      "outputs": [],
      "stateMutability": "nonpayable",
      "type": "function"
    }
  ],
  "bytecode": "0x60806040523480156200001157600080fd5b5060405162000aa838038062000aa88339818101604052810190620000379190620003d2565b620000576200004b620000ec60201b60201c565b620000f460201b60201c565b6daaeb6d7670e522a718067333cd4e73ffffffffffffffffffffffffffffffffffffffff16634420e486306040518263ffffffff1660e01b8152600401620000a0919062000415565b600060405180830381600087803b158015620000bb57600080fd5b505af1158015620000d0573d6000803e3d6000fd5b50505050620000e5816200012d60201b60201c565b50620004b5565b600033905090565b600160006101000a81549073ffffffffffffffffffffffffffffffffffffffff02191690556200012a81620001ea60201b60201c565b50565b6200013d620002ae60201b60201c565b80600160006101000a81548173ffffffffffffffffffffffffffffffffffffffff021916908373ffffffffffffffffffffffffffffffffffffffff1602179055508073ffffffffffffffffffffffffffffffffffffffff16620001a56200033f60201b60201c565b73ffffffffffffffffffffffffffffffffffffffff167f38d16b8cac22d99fc7c124b9cd0de2d3fa1faef420bfe791d8c362d765e2270060405160405180910390a350565b60008060009054906101000a900473ffffffffffffffffffffffffffffffffffffffff169050816000806101000a81548173ffffffffffffffffffffffffffffffffffffffff021916908373ffffffffffffffffffffffffffffffffffffffff1602179055508173ffffffffffffffffffffffffffffffffffffffff168173ffffffffffffffffffffffffffffffffffffffff167f8be0079c531659141344cd1fd0a4f28419497f9722a3daafe3b4186f6b6457e060405160405180910390a35050565b620002be620000ec60201b60201c565b73ffffffffffffffffffffffffffffffffffffffff16620002e46200033f60201b60201c565b73ffffffffffffffffffffffffffffffffffffffff16146200033d576040517f08c379a0000000000000000000000000000000000000000000000000000000008152600401620003349062000493565b60405180910390fd5b565b60008060009054906101000a900473ffffffffffffffffffffffffffffffffffffffff16905090565b600080fd5b600073ffffffffffffffffffffffffffffffffffffffff82169050919050565b60006200039a826200036d565b9050919050565b620003ac816200038d565b8114620003b857600080fd5b50565b600081519050620003cc81620003a1565b92915050565b600060208284031215620003eb57620003ea62000368565b5b6000620003fb84828501620003bb565b91505092915050565b6200040f816200038d565b82525050565b60006020820190506200042c600083018462000404565b92915050565b600082825260208201905092915050565b7f4f776e61626c653a2063616c6c6572206973206e6f7420746865206f776e6572600082015250565b60006200047b60208362000432565b9150620004888262000443565b602082019050919050565b60006020820190508181036000830152620004ae816200046c565b9050919050565b6105e380620004c56000396000f3fe608060405234801561001057600080fd5b50600436106100575760003560e01c8063715018a61461005c57806379ba5097146100665780638da5cb5b14610070578063e30c39781461008e578063f2fde38b146100ac575b600080fd5b6100646100c8565b005b61006e6100dc565b005b610078610169565b6040516100859190610425565b60405180910390f35b610096610192565b6040516100a39190610425565b60405180910390f35b6100c660048036038101906100c19190610471565b6101bc565b005b6100d0610269565b6100da60006102e7565b565b60006100e6610318565b90508073ffffffffffffffffffffffffffffffffffffffff16610107610192565b73ffffffffffffffffffffffffffffffffffffffff161461015d576040517f08c379a000000000000000000000000000000000000000000000000000000000815260040161015490610521565b60405180910390fd5b610166816102e7565b50565b60008060009054906101000a900473ffffffffffffffffffffffffffffffffffffffff16905090565b6000600160009054906101000a900473ffffffffffffffffffffffffffffffffffffffff16905090565b6101c4610269565b80600160006101000a81548173ffffffffffffffffffffffffffffffffffffffff021916908373ffffffffffffffffffffffffffffffffffffffff1602179055508073ffffffffffffffffffffffffffffffffffffffff16610224610169565b73ffffffffffffffffffffffffffffffffffffffff167f38d16b8cac22d99fc7c124b9cd0de2d3fa1faef420bfe791d8c362d765e2270060405160405180910390a350565b610271610318565b73ffffffffffffffffffffffffffffffffffffffff1661028f610169565b73ffffffffffffffffffffffffffffffffffffffff16146102e5576040517f08c379a00000000000000000000000000000000000000000000000000000000081526004016102dc9061058d565b60405180910390fd5b565b600160006101000a81549073ffffffffffffffffffffffffffffffffffffffff021916905561031581610320565b50565b600033905090565b60008060009054906101000a900473ffffffffffffffffffffffffffffffffffffffff169050816000806101000a81548173ffffffffffffffffffffffffffffffffffffffff021916908373ffffffffffffffffffffffffffffffffffffffff1602179055508173ffffffffffffffffffffffffffffffffffffffff168173ffffffffffffffffffffffffffffffffffffffff167f8be0079c531659141344cd1fd0a4f28419497f9722a3daafe3b4186f6b6457e060405160405180910390a35050565b600073ffffffffffffffffffffffffffffffffffffffff82169050919050565b600061040f826103e4565b9050919050565b61041f81610404565b82525050565b600060208201905061043a6000830184610416565b92915050565b600080fd5b61044e81610404565b811461045957600080fd5b50565b60008135905061046b81610445565b92915050565b60006020828403121561048757610486610440565b5b60006104958482850161045c565b91505092915050565b600082825260208201905092915050565b7f4f776e61626c6532537465703a2063616c6c6572206973206e6f74207468652060008201527f6e6577206f776e65720000000000000000000000000000000000000000000000602082015250565b600061050b60298361049e565b9150610516826104af565b604082019050919050565b6000602082019050818103600083015261053a816104fe565b9050919050565b7f4f776e61626c653a2063616c6c6572206973206e6f7420746865206f776e6572600082015250565b600061057760208361049e565b915061058282610541565b602082019050919050565b600060208201905081810360008301526105a68161056a565b905091905056fea2646970667358221220c46d7ba3b71d3e1272097e63804ba3ce97e80f11c627333f5d78bbd16d53395864736f6c63430008130033",
  "immutableReferences": {},
  "source": "// SPDX-License-Identifier: MIT\r\npragma solidity ^0.8.13;\r\n\r\nimport {IOperatorFilterRegistry} from \"./IOperatorFilterRegistry.sol\";\r\nimport {Ownable2Step} from \"@openzeppelin/contracts/access/Ownable2Step.sol\";\r\nimport {CANONICAL_OPERATOR_FILTER_REGISTRY_ADDRESS} from \"./lib/Constants.sol\";\r\n/**\r\n * @title  OwnedRegistrant\r\n * @notice Ownable contract that registers itself with the OperatorFilterRegistry and administers its own entries,\r\n *         to facilitate a subscription whose ownership can be transferred.\r\n */\r\n\r\ncontract OwnedRegistrant is Ownable2Step {\r\n    /// @dev The constructor that is called when the contract is being deployed.\r\n    constructor(address _owner) {\r\n        IOperatorFilterRegistry(CANONICAL_OPERATOR_FILTER_REGISTRY_ADDRESS).register(address(this));\r\n        transferOwnership(_owner);\r\n    }\r\n}\r\n",
  "sourcePath": "/home/matheo/dev/Sofan/truffle/contracts/OwnedRegistrant.sol",
  "compiler": {
    "name": "solc",
    "version": "0.8.19+commit.7dd6d404.Emscripten.clang"
  },
  "schemaVersion": "3.4.4",
  "updatedAt": "2023-08-06T01:58:35.435Z",
  "devdoc": {
    "kind": "dev",
    "methods": {
      "acceptOwnership()": {
        "details": "The new owner accepts the ownership transfer."
      },
      "constructor": {
        "details": "The constructor that is called when the contract is being deployed."
      },
      "owner()": {
        "details": "Returns the address of the current owner."
      },
      "pendingOwner()": {
        "details": "Returns the address of the pending owner."
      },
      "renounceOwnership()": {
        "details": "Leaves the contract without owner. It will not be possible to call `onlyOwner` functions. Can only be called by the current owner. NOTE: Renouncing ownership will leave the contract without an owner, thereby disabling any functionality that is only available to the owner."
      },
      "transferOwnership(address)": {
        "details": "Starts the ownership transfer of the contract to a new account. Replaces the pending transfer if there is one. Can only be called by the current owner."
      }
    },
    "title": "OwnedRegistrant",
    "version": 1
  },
  "userdoc": {
    "kind": "user",
    "methods": {},
    "notice": "Ownable contract that registers itself with the OperatorFilterRegistry and administers its own entries,         to facilitate a subscription whose ownership can be transferred.",
    "version": 1
  }
}