{
  "contractName": "OwnedRegistrant",
  "abi": [
    {
      "inputs": [
        {
          "internalType": "address",
          "name": "_owner",
          "type": "address"
        }
      ],
      "stateMutability": "nonpayable",
      "type": "constructor"
    },
    {
      "anonymous": false,
      "inputs": [
        {
          "indexed": true,
          "internalType": "address",
          "name": "previousOwner",
          "type": "address"
        },
        {
          "indexed": true,
          "internalType": "address",
          "name": "newOwner",
          "type": "address"
        }
      ],
      "name": "OwnershipTransferStarted",
      "type": "event"
    },
    {
      "anonymous": false,
      "inputs": [
        {
          "indexed": true,
          "internalType": "address",
          "name": "previousOwner",
          "type": "address"
        },
        {
          "indexed": true,
          "internalType": "address",
          "name": "newOwner",
          "type": "address"
        }
      ],
      "name": "OwnershipTransferred",
      "type": "event"
    },
    {
      "inputs": [],
      "name": "acceptOwnership",
      "outputs": [],
      "stateMutability": "nonpayable",
      "type": "function"
    },
    {
      "inputs": [],
      "name": "owner",
      "outputs": [
        {
          "internalType": "address",
          "name": "",
          "type": "address"
        }
      ],
      "stateMutability": "view",
      "type": "function"
    },
    {
      "inputs": [],
      "name": "pendingOwner",
      "outputs": [
        {
          "internalType": "address",
          "name": "",
          "type": "address"
        }
      ],
      "stateMutability": "view",
      "type": "function"
    },
    {
      "inputs": [],
      "name": "renounceOwnership",
      "outputs": [],
      "stateMutability": "nonpayable",
      "type": "function"
    },
    {
      "inputs": [
        {
          "internalType": "address",
          "name": "newOwner",
          "type": "address"
        }
      ],
      "name": "transferOwnership",
      "outputs": [],
      "stateMutability": "nonpayable",
      "type": "function"
    }
  ],
  "bytecode": "0x608060405234801561001057600080fd5b5060405161050938038061050983398101604081905261002f916101e7565b610038336100ab565b604051632210724360e11b81523060048201526daaeb6d7670e522a718067333cd4e90634420e48690602401600060405180830381600087803b15801561007e57600080fd5b505af1158015610092573d6000803e3d6000fd5b505050506100a5816100c760201b60201c565b50610217565b600180546001600160a01b03191690556100c481610137565b50565b6100cf610187565b600180546001600160a01b0319166001600160a01b0383169081179091556100ff6000546001600160a01b031690565b6001600160a01b03167f38d16b8cac22d99fc7c124b9cd0de2d3fa1faef420bfe791d8c362d765e2270060405160405180910390a350565b600080546001600160a01b038381166001600160a01b0319831681178455604051919092169283917f8be0079c531659141344cd1fd0a4f28419497f9722a3daafe3b4186f6b6457e09190a35050565b6000546001600160a01b031633146101e55760405162461bcd60e51b815260206004820181905260248201527f4f776e61626c653a2063616c6c6572206973206e6f7420746865206f776e6572604482015260640160405180910390fd5b565b6000602082840312156101f957600080fd5b81516001600160a01b038116811461021057600080fd5b9392505050565b6102e3806102266000396000f3fe608060405234801561001057600080fd5b50600436106100575760003560e01c8063715018a61461005c57806379ba5097146100665780638da5cb5b1461006e578063e30c397814610097578063f2fde38b146100a8575b600080fd5b6100646100bb565b005b6100646100cf565b6000546001600160a01b03165b6040516001600160a01b03909116815260200160405180910390f35b6001546001600160a01b031661007b565b6100646100b636600461027d565b61014e565b6100c36101bf565b6100cd6000610219565b565b60015433906001600160a01b031681146101425760405162461bcd60e51b815260206004820152602960248201527f4f776e61626c6532537465703a2063616c6c6572206973206e6f7420746865206044820152683732bb9037bbb732b960b91b60648201526084015b60405180910390fd5b61014b81610219565b50565b6101566101bf565b600180546001600160a01b0383166001600160a01b031990911681179091556101876000546001600160a01b031690565b6001600160a01b03167f38d16b8cac22d99fc7c124b9cd0de2d3fa1faef420bfe791d8c362d765e2270060405160405180910390a350565b6000546001600160a01b031633146100cd5760405162461bcd60e51b815260206004820181905260248201527f4f776e61626c653a2063616c6c6572206973206e6f7420746865206f776e65726044820152606401610139565b600180546001600160a01b031916905561014b81600080546001600160a01b038381166001600160a01b0319831681178455604051919092169283917f8be0079c531659141344cd1fd0a4f28419497f9722a3daafe3b4186f6b6457e09190a35050565b60006020828403121561028f57600080fd5b81356001600160a01b03811681146102a657600080fd5b939250505056fea264697066735822122020f2d2f2cf747a97c0311c388f90a65db315c0daa0a87a4a25a3f44fc88e347564736f6c63430008130033",
  "immutableReferences": {},
  "source": "// SPDX-License-Identifier: MIT\r\npragma solidity ^0.8.13;\r\n\r\nimport {IOperatorFilterRegistry} from \"./IOperatorFilterRegistry.sol\";\r\nimport {Ownable2Step} from \"@openzeppelin/contracts/access/Ownable2Step.sol\";\r\nimport {CANONICAL_OPERATOR_FILTER_REGISTRY_ADDRESS} from \"./lib/Constants.sol\";\r\n/**\r\n * @title  OwnedRegistrant\r\n * @notice Ownable contract that registers itself with the OperatorFilterRegistry and administers its own entries,\r\n *         to facilitate a subscription whose ownership can be transferred.\r\n */\r\n\r\ncontract OwnedRegistrant is Ownable2Step {\r\n    /// @dev The constructor that is called when the contract is being deployed.\r\n    constructor(address _owner) {\r\n        IOperatorFilterRegistry(CANONICAL_OPERATOR_FILTER_REGISTRY_ADDRESS).register(address(this));\r\n        transferOwnership(_owner);\r\n    }\r\n}\r\n",
  "sourcePath": "/home/matheo/dev/Sofan/truffle/contracts/OwnedRegistrant.sol",
  "compiler": {
    "name": "solc",
    "version": "0.8.19+commit.7dd6d404.Emscripten.clang"
  },
  "schemaVersion": "3.4.4",
  "updatedAt": "2023-09-26T13:25:18.039Z",
  "devdoc": {
    "kind": "dev",
    "methods": {
      "acceptOwnership()": {
        "details": "The new owner accepts the ownership transfer."
      },
      "constructor": {
        "details": "The constructor that is called when the contract is being deployed."
      },
      "owner()": {
        "details": "Returns the address of the current owner."
      },
      "pendingOwner()": {
        "details": "Returns the address of the pending owner."
      },
      "renounceOwnership()": {
        "details": "Leaves the contract without owner. It will not be possible to call `onlyOwner` functions. Can only be called by the current owner. NOTE: Renouncing ownership will leave the contract without an owner, thereby disabling any functionality that is only available to the owner."
      },
      "transferOwnership(address)": {
        "details": "Starts the ownership transfer of the contract to a new account. Replaces the pending transfer if there is one. Can only be called by the current owner."
      }
    },
    "title": "OwnedRegistrant",
    "version": 1
  },
  "userdoc": {
    "kind": "user",
    "methods": {},
    "notice": "Ownable contract that registers itself with the OperatorFilterRegistry and administers its own entries,         to facilitate a subscription whose ownership can be transferred.",
    "version": 1
  }
}