{
  "contractName": "SofanNft",
  "abi": [
    {
      "inputs": [
        {
          "internalType": "string[3]",
          "name": "_collectionData2",
          "type": "string[3]"
        },
        {
          "internalType": "uint256[4]",
          "name": "_collectionData",
          "type": "uint256[4]"
        },
        {
          "internalType": "bool",
          "name": "_isAbleChangeMaxLimitCollection",
          "type": "bool"
        },
        {
          "internalType": "address",
          "name": "_splitterAddress",
          "type": "address"
        },
        {
          "internalType": "uint96",
          "name": "_percentInBips",
          "type": "uint96"
        }
      ],
      "stateMutability": "nonpayable",
      "type": "constructor"
    },
    {
      "inputs": [],
      "name": "ApprovalCallerNotOwnerNorApproved",
      "type": "error"
    },
    {
      "inputs": [],
      "name": "ApprovalQueryForNonexistentToken",
      "type": "error"
    },
    {
      "inputs": [],
      "name": "BalanceQueryForZeroAddress",
      "type": "error"
    },
    {
      "inputs": [],
      "name": "MintERC2309QuantityExceedsLimit",
      "type": "error"
    },
    {
      "inputs": [],
      "name": "MintToZeroAddress",
      "type": "error"
    },
    {
      "inputs": [],
      "name": "MintZeroQuantity",
      "type": "error"
    },
    {
      "inputs": [
        {
          "internalType": "address",
          "name": "operator",
          "type": "address"
        }
      ],
      "name": "OperatorNotAllowed",
      "type": "error"
    },
    {
      "inputs": [],
      "name": "OwnerQueryForNonexistentToken",
      "type": "error"
    },
    {
      "inputs": [],
      "name": "OwnershipNotInitializedForExtraData",
      "type": "error"
    },
    {
      "inputs": [],
      "name": "TransferCallerNotOwnerNorApproved",
      "type": "error"
    },
    {
      "inputs": [],
      "name": "TransferFromIncorrectOwner",
      "type": "error"
    },
    {
      "inputs": [],
      "name": "TransferToNonERC721ReceiverImplementer",
      "type": "error"
    },
    {
      "inputs": [],
      "name": "TransferToZeroAddress",
      "type": "error"
    },
    {
      "inputs": [],
      "name": "URIQueryForNonexistentToken",
      "type": "error"
    },
    {
      "anonymous": false,
      "inputs": [
        {
          "indexed": true,
          "internalType": "address",
          "name": "owner",
          "type": "address"
        },
        {
          "indexed": true,
          "internalType": "address",
          "name": "approved",
          "type": "address"
        },
        {
          "indexed": true,
          "internalType": "uint256",
          "name": "tokenId",
          "type": "uint256"
        }
      ],
      "name": "Approval",
      "type": "event"
    },
    {
      "anonymous": false,
      "inputs": [
        {
          "indexed": true,
          "internalType": "address",
          "name": "owner",
          "type": "address"
        },
        {
          "indexed": true,
          "internalType": "address",
          "name": "operator",
          "type": "address"
        },
        {
          "indexed": false,
          "internalType": "bool",
          "name": "approved",
          "type": "bool"
        }
      ],
      "name": "ApprovalForAll",
      "type": "event"
    },
    {
      "anonymous": false,
      "inputs": [
        {
          "indexed": true,
          "internalType": "uint256",
          "name": "fromTokenId",
          "type": "uint256"
        },
        {
          "indexed": false,
          "internalType": "uint256",
          "name": "toTokenId",
          "type": "uint256"
        },
        {
          "indexed": true,
          "internalType": "address",
          "name": "from",
          "type": "address"
        },
        {
          "indexed": true,
          "internalType": "address",
          "name": "to",
          "type": "address"
        }
      ],
      "name": "ConsecutiveTransfer",
      "type": "event"
    },
    {
      "anonymous": false,
      "inputs": [
        {
          "indexed": true,
          "internalType": "address",
          "name": "previousOwner",
          "type": "address"
        },
        {
          "indexed": true,
          "internalType": "address",
          "name": "newOwner",
          "type": "address"
        }
      ],
      "name": "OwnershipTransferred",
      "type": "event"
    },
    {
      "anonymous": false,
      "inputs": [
        {
          "indexed": true,
          "internalType": "address",
          "name": "from",
          "type": "address"
        },
        {
          "indexed": true,
          "internalType": "address",
          "name": "to",
          "type": "address"
        },
        {
          "indexed": true,
          "internalType": "uint256",
          "name": "tokenId",
          "type": "uint256"
        }
      ],
      "name": "Transfer",
      "type": "event"
    },
    {
      "anonymous": false,
      "inputs": [
        {
          "indexed": false,
          "internalType": "address",
          "name": "msgSender",
          "type": "address"
        }
      ],
      "name": "temp",
      "type": "event"
    },
    {
      "inputs": [
        {
          "internalType": "address",
          "name": "",
          "type": "address"
        }
      ],
      "name": "NftOwned",
      "outputs": [
        {
          "internalType": "uint256",
          "name": "",
          "type": "uint256"
        }
      ],
      "stateMutability": "view",
      "type": "function"
    },
    {
      "inputs": [],
      "name": "OPERATOR_FILTER_REGISTRY",
      "outputs": [
        {
          "internalType": "contract IOperatorFilterRegistry",
          "name": "",
          "type": "address"
        }
      ],
      "stateMutability": "view",
      "type": "function"
    },
    {
      "inputs": [
        {
          "internalType": "address",
          "name": "owner",
          "type": "address"
        }
      ],
      "name": "balanceOf",
      "outputs": [
        {
          "internalType": "uint256",
          "name": "",
          "type": "uint256"
        }
      ],
      "stateMutability": "view",
      "type": "function"
    },
    {
      "inputs": [],
      "name": "collectionLimit",
      "outputs": [
        {
          "internalType": "uint256",
          "name": "",
          "type": "uint256"
        }
      ],
      "stateMutability": "view",
      "type": "function"
    },
    {
      "inputs": [
        {
          "internalType": "uint256",
          "name": "tokenId",
          "type": "uint256"
        }
      ],
      "name": "getApproved",
      "outputs": [
        {
          "internalType": "address",
          "name": "",
          "type": "address"
        }
      ],
      "stateMutability": "view",
      "type": "function"
    },
    {
      "inputs": [
        {
          "internalType": "address",
          "name": "owner",
          "type": "address"
        },
        {
          "internalType": "address",
          "name": "operator",
          "type": "address"
        }
      ],
      "name": "isApprovedForAll",
      "outputs": [
        {
          "internalType": "bool",
          "name": "",
          "type": "bool"
        }
      ],
      "stateMutability": "view",
      "type": "function"
    },
    {
      "inputs": [],
      "name": "name",
      "outputs": [
        {
          "internalType": "string",
          "name": "",
          "type": "string"
        }
      ],
      "stateMutability": "view",
      "type": "function"
    },
    {
      "inputs": [],
      "name": "owner",
      "outputs": [
        {
          "internalType": "address",
          "name": "",
          "type": "address"
        }
      ],
      "stateMutability": "view",
      "type": "function"
    },
    {
      "inputs": [
        {
          "internalType": "uint256",
          "name": "tokenId",
          "type": "uint256"
        }
      ],
      "name": "ownerOf",
      "outputs": [
        {
          "internalType": "address",
          "name": "",
          "type": "address"
        }
      ],
      "stateMutability": "view",
      "type": "function"
    },
    {
      "inputs": [],
      "name": "price",
      "outputs": [
        {
          "internalType": "uint256",
          "name": "",
          "type": "uint256"
        }
      ],
      "stateMutability": "view",
      "type": "function"
    },
    {
      "inputs": [],
      "name": "renounceOwnership",
      "outputs": [],
      "stateMutability": "nonpayable",
      "type": "function"
    },
    {
      "inputs": [
        {
          "internalType": "uint256",
          "name": "tokenId",
          "type": "uint256"
        },
        {
          "internalType": "uint256",
          "name": "salePrice",
          "type": "uint256"
        }
      ],
      "name": "royaltyInfo",
      "outputs": [
        {
          "internalType": "address",
          "name": "",
          "type": "address"
        },
        {
          "internalType": "uint256",
          "name": "",
          "type": "uint256"
        }
      ],
      "stateMutability": "view",
      "type": "function"
    },
    {
      "inputs": [],
      "name": "symbol",
      "outputs": [
        {
          "internalType": "string",
          "name": "",
          "type": "string"
        }
      ],
      "stateMutability": "view",
      "type": "function"
    },
    {
      "inputs": [],
      "name": "totalSupply",
      "outputs": [
        {
          "internalType": "uint256",
          "name": "",
          "type": "uint256"
        }
      ],
      "stateMutability": "view",
      "type": "function"
    },
    {
      "inputs": [
        {
          "internalType": "address",
          "name": "newOwner",
          "type": "address"
        }
      ],
      "name": "transferOwnership",
      "outputs": [],
      "stateMutability": "nonpayable",
      "type": "function"
    },
    {
      "inputs": [],
      "name": "usdc",
      "outputs": [
        {
          "internalType": "contract IERC20",
          "name": "",
          "type": "address"
        }
      ],
      "stateMutability": "view",
      "type": "function"
    },
    {
      "inputs": [
        {
          "internalType": "address",
          "name": "_to",
          "type": "address"
        },
        {
          "internalType": "uint256",
          "name": "_quantity",
          "type": "uint256"
        },
        {
          "internalType": "uint256",
          "name": "_amount",
          "type": "uint256"
        }
      ],
      "name": "mint",
      "outputs": [],
      "stateMutability": "payable",
      "type": "function"
    },
    {
      "inputs": [],
      "name": "withdrawUSDC",
      "outputs": [],
      "stateMutability": "nonpayable",
      "type": "function"
    },
    {
      "inputs": [],
      "name": "activeMintManually",
      "outputs": [],
      "stateMutability": "nonpayable",
      "type": "function"
    },
    {
      "inputs": [
        {
          "internalType": "uint256",
          "name": "_newLimit",
          "type": "uint256"
        }
      ],
      "name": "setLimitWallet",
      "outputs": [],
      "stateMutability": "nonpayable",
      "type": "function"
    },
    {
      "inputs": [
        {
          "internalType": "uint32",
          "name": "_newLimit",
          "type": "uint32"
        }
      ],
      "name": "changeLimitOfMaxCollection",
      "outputs": [],
      "stateMutability": "nonpayable",
      "type": "function"
    },
    {
      "inputs": [
        {
          "internalType": "string",
          "name": "_uri",
          "type": "string"
        }
      ],
      "name": "setBaseURI",
      "outputs": [],
      "stateMutability": "nonpayable",
      "type": "function"
    },
    {
      "inputs": [
        {
          "internalType": "uint256",
          "name": "tokenId",
          "type": "uint256"
        }
      ],
      "name": "tokenURI",
      "outputs": [
        {
          "internalType": "string",
          "name": "",
          "type": "string"
        }
      ],
      "stateMutability": "view",
      "type": "function"
    },
    {
      "inputs": [
        {
          "internalType": "address",
          "name": "to",
          "type": "address"
        },
        {
          "internalType": "uint256",
          "name": "tokenId",
          "type": "uint256"
        },
        {
          "internalType": "address",
          "name": "_msgSender",
          "type": "address"
        }
      ],
      "name": "approveCustom",
      "outputs": [],
      "stateMutability": "payable",
      "type": "function"
    },
    {
      "inputs": [
        {
          "internalType": "bytes4",
          "name": "interfaceId",
          "type": "bytes4"
        }
      ],
      "name": "supportsInterface",
      "outputs": [
        {
          "internalType": "bool",
          "name": "",
          "type": "bool"
        }
      ],
      "stateMutability": "view",
      "type": "function"
    },
    {
      "inputs": [
        {
          "internalType": "address",
          "name": "_receiver",
          "type": "address"
        },
        {
          "internalType": "uint96",
          "name": "_royaltyFeesInBips",
          "type": "uint96"
        }
      ],
      "name": "setRoyaltyInfo",
      "outputs": [],
      "stateMutability": "nonpayable",
      "type": "function"
    },
    {
      "inputs": [
        {
          "internalType": "address",
          "name": "operator",
          "type": "address"
        },
        {
          "internalType": "bool",
          "name": "approved",
          "type": "bool"
        }
      ],
      "name": "setApprovalForAll",
      "outputs": [],
      "stateMutability": "nonpayable",
      "type": "function"
    },
    {
      "inputs": [
        {
          "internalType": "address",
          "name": "operator",
          "type": "address"
        },
        {
          "internalType": "uint256",
          "name": "tokenId",
          "type": "uint256"
        }
      ],
      "name": "approve",
      "outputs": [],
      "stateMutability": "payable",
      "type": "function"
    },
    {
      "inputs": [
        {
          "internalType": "address",
          "name": "from",
          "type": "address"
        },
        {
          "internalType": "address",
          "name": "to",
          "type": "address"
        },
        {
          "internalType": "uint256",
          "name": "tokenId",
          "type": "uint256"
        }
      ],
      "name": "transferFrom",
      "outputs": [],
      "stateMutability": "payable",
      "type": "function"
    },
    {
      "inputs": [
        {
          "internalType": "address",
          "name": "from",
          "type": "address"
        },
        {
          "internalType": "address",
          "name": "to",
          "type": "address"
        },
        {
          "internalType": "uint256",
          "name": "tokenId",
          "type": "uint256"
        }
      ],
      "name": "safeTransferFrom",
      "outputs": [],
      "stateMutability": "payable",
      "type": "function"
    },
    {
      "inputs": [
        {
          "internalType": "address",
          "name": "from",
          "type": "address"
        },
        {
          "internalType": "address",
          "name": "to",
          "type": "address"
        },
        {
          "internalType": "uint256",
          "name": "tokenId",
          "type": "uint256"
        },
        {
          "internalType": "bytes",
          "name": "data",
          "type": "bytes"
        }
      ],
      "name": "safeTransferFrom",
      "outputs": [],
      "stateMutability": "payable",
      "type": "function"
    }
  ],
  "bytecode": "0x6080604052735b38da6a701c568545dcfcb03fcb875f56beddc4601460006101000a81548173ffffffffffffffffffffffffffffffffffffffff021916908373ffffffffffffffffffffffffffffffffffffffff16021790555073ab8483f64d9c6d1ecf9b849ae677dd3315835cb2601560006101000a81548173ffffffffffffffffffffffffffffffffffffffff021916908373ffffffffffffffffffffffffffffffffffffffff1602179055507307865c6e87b9f70255377e024ace6630c1eaa37f601860006101000a81548173ffffffffffffffffffffffffffffffffffffffff021916908373ffffffffffffffffffffffffffffffffffffffff1602179055503480156200011057600080fd5b506040516200575038038062005750833981810160405281019062000136919062000d41565b733cc6cdda760b79bafa08df41ecfa224f810dceb660018660006003811062000164576200016362000de9565b5b60200201518760016003811062000180576200017f62000de9565b5b6020020151816002908162000196919062001059565b508060039081620001a8919062001059565b50620001b96200057960201b60201c565b6000819055505050620001e1620001d56200057e60201b60201c565b6200058660201b60201c565b6001600b8190555060006daaeb6d7670e522a718067333cd4e73ffffffffffffffffffffffffffffffffffffffff163b1115620003de578015620002a4576daaeb6d7670e522a718067333cd4e73ffffffffffffffffffffffffffffffffffffffff16637d3e3dbe30846040518363ffffffff1660e01b81526004016200026a92919062001151565b600060405180830381600087803b1580156200028557600080fd5b505af11580156200029a573d6000803e3d6000fd5b50505050620003dd565b600073ffffffffffffffffffffffffffffffffffffffff168273ffffffffffffffffffffffffffffffffffffffff16146200035e576daaeb6d7670e522a718067333cd4e73ffffffffffffffffffffffffffffffffffffffff1663a0af290330846040518363ffffffff1660e01b81526004016200032492919062001151565b600060405180830381600087803b1580156200033f57600080fd5b505af115801562000354573d6000803e3d6000fd5b50505050620003dc565b6daaeb6d7670e522a718067333cd4e73ffffffffffffffffffffffffffffffffffffffff16634420e486306040518263ffffffff1660e01b8152600401620003a791906200117e565b600060405180830381600087803b158015620003c257600080fd5b505af1158015620003d7573d6000803e3d6000fd5b505050505b5b5b505084600260038110620003f757620003f662000de9565b5b6020020151600c90816200040c919062001059565b5060008460006004811062000426576200042562000de9565b5b6020020151146200046f578360006004811062000448576200044762000de9565b5b6020020151600e819055506001600d60006101000a81548160ff0219169083151502179055505b8360016004811062000486576200048562000de9565b5b6020020151600f81905550600084600260048110620004aa57620004a962000de9565b5b602002015114620004d85783600260048110620004cc57620004cb62000de9565b5b60200201516010819055505b4260118190555082601260006101000a81548160ff0219169083151502179055508360036004811062000510576200050f62000de9565b5b602002015160168190555081601760006101000a81548173ffffffffffffffffffffffffffffffffffffffff021916908373ffffffffffffffffffffffffffffffffffffffff1602179055506200056e82826200064c60201b60201c565b505050505062001328565b600090565b600033905090565b6000600a60009054906101000a900473ffffffffffffffffffffffffffffffffffffffff16905081600a60006101000a81548173ffffffffffffffffffffffffffffffffffffffff021916908373ffffffffffffffffffffffffffffffffffffffff1602179055508173ffffffffffffffffffffffffffffffffffffffff168173ffffffffffffffffffffffffffffffffffffffff167f8be0079c531659141344cd1fd0a4f28419497f9722a3daafe3b4186f6b6457e060405160405180910390a35050565b6200065c6200067260201b60201c565b6200066e82826200070360201b60201c565b5050565b620006826200057e60201b60201c565b73ffffffffffffffffffffffffffffffffffffffff16620006a8620008a660201b60201c565b73ffffffffffffffffffffffffffffffffffffffff161462000701576040517f08c379a0000000000000000000000000000000000000000000000000000000008152600401620006f890620011fc565b60405180910390fd5b565b62000713620008d060201b60201c565b6bffffffffffffffffffffffff16816bffffffffffffffffffffffff16111562000774576040517f08c379a00000000000000000000000000000000000000000000000000000000081526004016200076b9062001294565b60405180910390fd5b600073ffffffffffffffffffffffffffffffffffffffff168273ffffffffffffffffffffffffffffffffffffffff1603620007e6576040517f08c379a0000000000000000000000000000000000000000000000000000000008152600401620007dd9062001306565b60405180910390fd5b60405180604001604052808373ffffffffffffffffffffffffffffffffffffffff168152602001826bffffffffffffffffffffffff16815250600860008201518160000160006101000a81548173ffffffffffffffffffffffffffffffffffffffff021916908373ffffffffffffffffffffffffffffffffffffffff16021790555060208201518160000160146101000a8154816bffffffffffffffffffffffff02191690836bffffffffffffffffffffffff1602179055509050505050565b6000600a60009054906101000a900473ffffffffffffffffffffffffffffffffffffffff16905090565b6000612710905090565b6000604051905090565b600080fd5b600080fd5b600080fd5b6000601f19601f8301169050919050565b7f4e487b7100000000000000000000000000000000000000000000000000000000600052604160045260246000fd5b6200093e82620008f3565b810181811067ffffffffffffffff8211171562000960576200095f62000904565b5b80604052505050565b600062000975620008da565b905062000983828262000933565b919050565b600067ffffffffffffffff821115620009a657620009a562000904565b5b602082029050919050565b600080fd5b600080fd5b600067ffffffffffffffff821115620009d957620009d862000904565b5b620009e482620008f3565b9050602081019050919050565b60005b8381101562000a11578082015181840152602081019050620009f4565b60008484015250505050565b600062000a3462000a2e84620009bb565b62000969565b90508281526020810184848401111562000a535762000a52620009b6565b5b62000a60848285620009f1565b509392505050565b600082601f83011262000a805762000a7f620008ee565b5b815162000a9284826020860162000a1d565b91505092915050565b600062000ab262000aac8462000988565b62000969565b9050806020840283018581111562000acf5762000ace620009b1565b5b835b8181101562000b1d57805167ffffffffffffffff81111562000af85762000af7620008ee565b5b80860162000b07898262000a68565b8552602085019450505060208101905062000ad1565b5050509392505050565b600082601f83011262000b3f5762000b3e620008ee565b5b600362000b4e84828562000a9b565b91505092915050565b600067ffffffffffffffff82111562000b755762000b7462000904565b5b602082029050919050565b6000819050919050565b62000b958162000b80565b811462000ba157600080fd5b50565b60008151905062000bb58162000b8a565b92915050565b600062000bd262000bcc8462000b57565b62000969565b9050806020840283018581111562000bef5762000bee620009b1565b5b835b8181101562000c1c578062000c07888262000ba4565b84526020840193505060208101905062000bf1565b5050509392505050565b600082601f83011262000c3e5762000c3d620008ee565b5b600462000c4d84828562000bbb565b91505092915050565b60008115159050919050565b62000c6d8162000c56565b811462000c7957600080fd5b50565b60008151905062000c8d8162000c62565b92915050565b600073ffffffffffffffffffffffffffffffffffffffff82169050919050565b600062000cc08262000c93565b9050919050565b62000cd28162000cb3565b811462000cde57600080fd5b50565b60008151905062000cf28162000cc7565b92915050565b60006bffffffffffffffffffffffff82169050919050565b62000d1b8162000cf8565b811462000d2757600080fd5b50565b60008151905062000d3b8162000d10565b92915050565b6000806000806000610100868803121562000d615762000d60620008e4565b5b600086015167ffffffffffffffff81111562000d825762000d81620008e9565b5b62000d908882890162000b27565b955050602062000da38882890162000c26565b94505060a062000db68882890162000c7c565b93505060c062000dc98882890162000ce1565b92505060e062000ddc8882890162000d2a565b9150509295509295909350565b7f4e487b7100000000000000000000000000000000000000000000000000000000600052603260045260246000fd5b600081519050919050565b7f4e487b7100000000000000000000000000000000000000000000000000000000600052602260045260246000fd5b6000600282049050600182168062000e6b57607f821691505b60208210810362000e815762000e8062000e23565b5b50919050565b60008190508160005260206000209050919050565b60006020601f8301049050919050565b600082821b905092915050565b60006008830262000eeb7fffffffffffffffffffffffffffffffffffffffffffffffffffffffffffffffff8262000eac565b62000ef7868362000eac565b95508019841693508086168417925050509392505050565b6000819050919050565b600062000f3a62000f3462000f2e8462000b80565b62000f0f565b62000b80565b9050919050565b6000819050919050565b62000f568362000f19565b62000f6e62000f658262000f41565b84845462000eb9565b825550505050565b600090565b62000f8562000f76565b62000f9281848462000f4b565b505050565b5b8181101562000fba5762000fae60008262000f7b565b60018101905062000f98565b5050565b601f821115620010095762000fd38162000e87565b62000fde8462000e9c565b8101602085101562000fee578190505b6200100662000ffd8562000e9c565b83018262000f97565b50505b505050565b600082821c905092915050565b60006200102e600019846008026200100e565b1980831691505092915050565b60006200104983836200101b565b9150826002028217905092915050565b620010648262000e18565b67ffffffffffffffff81111562001080576200107f62000904565b5b6200108c825462000e52565b6200109982828562000fbe565b600060209050601f831160018114620010d15760008415620010bc578287015190505b620010c885826200103b565b86555062001138565b601f198416620010e18662000e87565b60005b828110156200110b57848901518255600182019150602085019450602081019050620010e4565b868310156200112b578489015162001127601f8916826200101b565b8355505b6001600288020188555050505b505050505050565b6200114b8162000cb3565b82525050565b600060408201905062001168600083018562001140565b62001177602083018462001140565b9392505050565b600060208201905062001195600083018462001140565b92915050565b600082825260208201905092915050565b7f4f776e61626c653a2063616c6c6572206973206e6f7420746865206f776e6572600082015250565b6000620011e46020836200119b565b9150620011f182620011ac565b602082019050919050565b600060208201905081810360008301526200121781620011d5565b9050919050565b7f455243323938313a20726f79616c7479206665652077696c6c2065786365656460008201527f2073616c65507269636500000000000000000000000000000000000000000000602082015250565b60006200127c602a836200119b565b915062001289826200121e565b604082019050919050565b60006020820190508181036000830152620012af816200126d565b9050919050565b7f455243323938313a20696e76616c696420726563656976657200000000000000600082015250565b6000620012ee6019836200119b565b9150620012fb82620012b6565b602082019050919050565b600060208201905081810360008301526200132181620012df565b9050919050565b61441880620013386000396000f3fe6080604052600436106101d85760003560e01c80635fa3002c11610102578063b88d4fde11610095578063d8fc063d11610064578063d8fc063d1461065b578063e985e9c514610672578063f2fde38b146106af578063fe92b093146106d8576101d8565b8063b88d4fde146105cf578063b9ce8b1c146105eb578063c87b56dd14610607578063cdfd0e2c14610644576101d8565b80638da5cb5b116100d15780638da5cb5b1461052557806395d89b4114610550578063a035b1fe1461057b578063a22cb465146105a6576101d8565b80635fa3002c1461046b5780636352211e1461049457806370a08231146104d1578063715018a61461050e576101d8565b806323b872dd1161017a57806341f434341161014957806341f43434146103be57806342842e0e146103e95780635412033c1461040557806355f804b314610442576101d8565b806323b872dd1461030e5780632a55205a1461032a5780633499efa5146103685780633e413bee14610393576101d8565b8063081812fc116101b6578063081812fc1461026e578063095ea7b3146102ab578063156e29f6146102c757806318160ddd146102e3576101d8565b806301ffc9a7146101dd57806302fa7c471461021a57806306fdde0314610243575b600080fd5b3480156101e957600080fd5b5061020460048036038101906101ff9190612cd8565b610701565b6040516102119190612d20565b60405180910390f35b34801561022657600080fd5b50610241600480360381019061023c9190612ddd565b61080b565b005b34801561024f57600080fd5b50610258610821565b6040516102659190612ead565b60405180910390f35b34801561027a57600080fd5b5061029560048036038101906102909190612f05565b6108b3565b6040516102a29190612f41565b60405180910390f35b6102c560048036038101906102c09190612f5c565b610932565b005b6102e160048036038101906102dc9190612f9c565b61094b565b005b3480156102ef57600080fd5b506102f8610fb1565b6040516103059190612ffe565b60405180910390f35b61032860048036038101906103239190613019565b610fc8565b005b34801561033657600080fd5b50610351600480360381019061034c919061306c565b611017565b60405161035f9291906130ac565b60405180910390f35b34801561037457600080fd5b5061037d611201565b60405161038a9190612ffe565b60405180910390f35b34801561039f57600080fd5b506103a8611207565b6040516103b59190613134565b60405180910390f35b3480156103ca57600080fd5b506103d361122d565b6040516103e09190613170565b60405180910390f35b61040360048036038101906103fe9190613019565b61123f565b005b34801561041157600080fd5b5061042c6004803603810190610427919061318b565b61128e565b6040516104399190612ffe565b60405180910390f35b34801561044e57600080fd5b50610469600480360381019061046491906132ed565b6112a6565b005b34801561047757600080fd5b50610492600480360381019061048d9190613372565b611348565b005b3480156104a057600080fd5b506104bb60048036038101906104b69190612f05565b6113af565b6040516104c89190612f41565b60405180910390f35b3480156104dd57600080fd5b506104f860048036038101906104f3919061318b565b6113c1565b6040516105059190612ffe565b60405180910390f35b34801561051a57600080fd5b50610523611479565b005b34801561053157600080fd5b5061053a61148d565b6040516105479190612f41565b60405180910390f35b34801561055c57600080fd5b506105656114b7565b6040516105729190612ead565b60405180910390f35b34801561058757600080fd5b50610590611549565b60405161059d9190612ffe565b60405180910390f35b3480156105b257600080fd5b506105cd60048036038101906105c891906133cb565b61154f565b005b6105e960048036038101906105e491906134ac565b611568565b005b6106056004803603810190610600919061352f565b6115b9565b005b34801561061357600080fd5b5061062e60048036038101906106299190612f05565b6116fb565b60405161063b9190612ead565b60405180910390f35b34801561065057600080fd5b50610659611799565b005b34801561066757600080fd5b506106706117ab565b005b34801561067e57600080fd5b5061069960048036038101906106949190613582565b611998565b6040516106a69190612d20565b60405180910390f35b3480156106bb57600080fd5b506106d660048036038101906106d1919061318b565b611a2c565b005b3480156106e457600080fd5b506106ff60048036038101906106fa9190612f05565b611aaf565b005b60007f2a55205a000000000000000000000000000000000000000000000000000000007bffffffffffffffffffffffffffffffffffffffffffffffffffffffff1916827bffffffffffffffffffffffffffffffffffffffffffffffffffffffff1916148061079457506301ffc9a760e01b827bffffffffffffffffffffffffffffffffffffffffffffffffffffffff1916145b806107c457506380ac58cd60e01b827bffffffffffffffffffffffffffffffffffffffffffffffffffffffff1916145b806107f45750635b5e139f60e01b827bffffffffffffffffffffffffffffffffffffffffffffffffffffffff1916145b80610804575061080382611b06565b5b9050919050565b610813611b80565b61081d8282611bfe565b5050565b606060028054610830906135f1565b80601f016020809104026020016040519081016040528092919081815260200182805461085c906135f1565b80156108a95780601f1061087e576101008083540402835291602001916108a9565b820191906000526020600020905b81548152906001019060200180831161088c57829003601f168201915b5050505050905090565b60006108be82611d93565b6108f4576040517fcf4700e400000000000000000000000000000000000000000000000000000000815260040160405180910390fd5b6006600083815260200190815260200160002060000160009054906101000a900473ffffffffffffffffffffffffffffffffffffffff169050919050565b8161093c81611df2565b6109468383611eef565b505050565b610953612033565b600f548261095f612082565b6109699190613651565b11156109aa576040517f08c379a00000000000000000000000000000000000000000000000000000000081526004016109a1906136f7565b60405180910390fd5b60011515600d60009054906101000a900460ff16151503610a5557600e5482601360008673ffffffffffffffffffffffffffffffffffffffff1673ffffffffffffffffffffffffffffffffffffffff16815260200190815260200160002054610a139190613651565b1115610a54576040517f08c379a0000000000000000000000000000000000000000000000000000000008152600401610a4b90613789565b60405180910390fd5b5b601054601154610a659190613651565b421015610aa7576040517f08c379a0000000000000000000000000000000000000000000000000000000008152600401610a9e9061381b565b60405180910390fd5b80601860009054906101000a900473ffffffffffffffffffffffffffffffffffffffff1673ffffffffffffffffffffffffffffffffffffffff1663dd62ed3e33306040518363ffffffff1660e01b8152600401610b0592919061383b565b602060405180830381865afa158015610b22573d6000803e3d6000fd5b505050506040513d601f19601f82011682018060405250810190610b469190613879565b1015610b87576040517f08c379a0000000000000000000000000000000000000000000000000000000008152600401610b7e90613918565b60405180910390fd5b81601654610b959190613938565b811015610bd7576040517f08c379a0000000000000000000000000000000000000000000000000000000008152600401610bce906139ec565b60405180910390fd5b6000601860009054906101000a900473ffffffffffffffffffffffffffffffffffffffff1673ffffffffffffffffffffffffffffffffffffffff166323b872dd3330856040518463ffffffff1660e01b8152600401610c3893929190613a0c565b6020604051808303816000875af1158015610c57573d6000803e3d6000fd5b505050506040513d601f19601f82011682018060405250810190610c7b9190613a58565b905080610cbd576040517f08c379a0000000000000000000000000000000000000000000000000000000008152600401610cb490613ad1565b60405180910390fd5b6000610cca83605061208b565b90506000610cd98260646120a1565b90506000601860009054906101000a900473ffffffffffffffffffffffffffffffffffffffff1673ffffffffffffffffffffffffffffffffffffffff1663a9059cbb601560009054906101000a900473ffffffffffffffffffffffffffffffffffffffff16846040518363ffffffff1660e01b8152600401610d5c9291906130ac565b6020604051808303816000875af1158015610d7b573d6000803e3d6000fd5b505050506040513d601f19601f82011682018060405250810190610d9f9190613a58565b905080610de1576040517f08c379a0000000000000000000000000000000000000000000000000000000008152600401610dd890613b3d565b60405180910390fd5b6000610dee86601461208b565b90506000610dfd8260646120a1565b90506000601860009054906101000a900473ffffffffffffffffffffffffffffffffffffffff1673ffffffffffffffffffffffffffffffffffffffff1663a9059cbb601460009054906101000a900473ffffffffffffffffffffffffffffffffffffffff16846040518363ffffffff1660e01b8152600401610e809291906130ac565b6020604051808303816000875af1158015610e9f573d6000803e3d6000fd5b505050506040513d601f19601f82011682018060405250810190610ec39190613a58565b905080610f05576040517f08c379a0000000000000000000000000000000000000000000000000000000008152600401610efc90613b3d565b60405180910390fd5b88601360008c73ffffffffffffffffffffffffffffffffffffffff1673ffffffffffffffffffffffffffffffffffffffff16815260200190815260200160002054610f509190613651565b601360008c73ffffffffffffffffffffffffffffffffffffffff1673ffffffffffffffffffffffffffffffffffffffff16815260200190815260200160002081905550610f9d8a8a6120b7565b50505050505050610fac612272565b505050565b6000610fbb61227c565b6001546000540303905090565b823373ffffffffffffffffffffffffffffffffffffffff168173ffffffffffffffffffffffffffffffffffffffff16146110065761100533611df2565b5b611011848484612281565b50505050565b6000806000600960008681526020019081526020016000206040518060400160405290816000820160009054906101000a900473ffffffffffffffffffffffffffffffffffffffff1673ffffffffffffffffffffffffffffffffffffffff1673ffffffffffffffffffffffffffffffffffffffff1681526020016000820160149054906101000a90046bffffffffffffffffffffffff166bffffffffffffffffffffffff166bffffffffffffffffffffffff16815250509050600073ffffffffffffffffffffffffffffffffffffffff16816000015173ffffffffffffffffffffffffffffffffffffffff16036111ac5760086040518060400160405290816000820160009054906101000a900473ffffffffffffffffffffffffffffffffffffffff1673ffffffffffffffffffffffffffffffffffffffff1673ffffffffffffffffffffffffffffffffffffffff1681526020016000820160149054906101000a90046bffffffffffffffffffffffff166bffffffffffffffffffffffff166bffffffffffffffffffffffff168152505090505b60006111b66125a3565b6bffffffffffffffffffffffff1682602001516bffffffffffffffffffffffff16866111e29190613938565b6111ec9190613b8c565b90508160000151819350935050509250929050565b600f5481565b601860009054906101000a900473ffffffffffffffffffffffffffffffffffffffff1681565b6daaeb6d7670e522a718067333cd4e81565b823373ffffffffffffffffffffffffffffffffffffffff168173ffffffffffffffffffffffffffffffffffffffff161461127d5761127c33611df2565b5b6112888484846125ad565b50505050565b60136020528060005260406000206000915090505481565b600c6040516020016112b89190613c60565b60405160208183030381529060405280519060200120816040516020016112df9190613ca8565b6040516020818303038152906040528051906020012003611335576040517f08c379a000000000000000000000000000000000000000000000000000000000815260040161132c90613d31565b60405180910390fd5b80600c90816113449190613ede565b5050565b611350611b80565b601260009054906101000a900460ff1661139f576040517f08c379a000000000000000000000000000000000000000000000000000000000815260040161139690613ffc565b60405180910390fd5b8063ffffffff16600f8190555050565b60006113ba826125cd565b9050919050565b60008073ffffffffffffffffffffffffffffffffffffffff168273ffffffffffffffffffffffffffffffffffffffff1603611428576040517f8f4eb60400000000000000000000000000000000000000000000000000000000815260040160405180910390fd5b67ffffffffffffffff600560008473ffffffffffffffffffffffffffffffffffffffff1673ffffffffffffffffffffffffffffffffffffffff16815260200190815260200160002054169050919050565b611481611b80565b61148b6000612699565b565b6000600a60009054906101000a900473ffffffffffffffffffffffffffffffffffffffff16905090565b6060600380546114c6906135f1565b80601f01602080910402602001604051908101604052809291908181526020018280546114f2906135f1565b801561153f5780601f106115145761010080835404028352916020019161153f565b820191906000526020600020905b81548152906001019060200180831161152257829003601f168201915b5050505050905090565b60165481565b8161155981611df2565b611563838361275f565b505050565b833373ffffffffffffffffffffffffffffffffffffffff168173ffffffffffffffffffffffffffffffffffffffff16146115a6576115a533611df2565b5b6115b28585858561286a565b5050505050565b826115c381611df2565b60006115ce846113af565b90508073ffffffffffffffffffffffffffffffffffffffff168373ffffffffffffffffffffffffffffffffffffffff16146116445761160d8184611998565b611643576040517fcfb3b94200000000000000000000000000000000000000000000000000000000815260040160405180910390fd5b5b846006600086815260200190815260200160002060000160006101000a81548173ffffffffffffffffffffffffffffffffffffffff021916908373ffffffffffffffffffffffffffffffffffffffff160217905550838573ffffffffffffffffffffffffffffffffffffffff168273ffffffffffffffffffffffffffffffffffffffff167f8c5be1e5ebec7d5bd14f71427d1e84f3dd0314c0f7b2291e5b200ac8c7c3b92560405160405180910390a45050505050565b606061170682611d93565b61173c576040517fa14c4b5000000000000000000000000000000000000000000000000000000000815260040160405180910390fd5b60006117466128dd565b905060008151036117665760405180602001604052806000815250611791565b806117708461296f565b604051602001611781929190614068565b6040516020818303038152906040525b915050919050565b6117a1611b80565b6000601081905550565b6117b3611b80565b6000601860009054906101000a900473ffffffffffffffffffffffffffffffffffffffff1673ffffffffffffffffffffffffffffffffffffffff166370a08231306040518263ffffffff1660e01b81526004016118109190612f41565b602060405180830381865afa15801561182d573d6000803e3d6000fd5b505050506040513d601f19601f820116820180604052508101906118519190613879565b9050601860009054906101000a900473ffffffffffffffffffffffffffffffffffffffff1673ffffffffffffffffffffffffffffffffffffffff1663095ea7b333836040518363ffffffff1660e01b81526004016118b09291906130ac565b6020604051808303816000875af11580156118cf573d6000803e3d6000fd5b505050506040513d601f19601f820116820180604052508101906118f39190613a58565b50601860009054906101000a900473ffffffffffffffffffffffffffffffffffffffff1673ffffffffffffffffffffffffffffffffffffffff1663a9059cbb33836040518363ffffffff1660e01b81526004016119519291906130ac565b6020604051808303816000875af1158015611970573d6000803e3d6000fd5b505050506040513d601f19601f820116820180604052508101906119949190613a58565b5050565b6000600760008473ffffffffffffffffffffffffffffffffffffffff1673ffffffffffffffffffffffffffffffffffffffff16815260200190815260200160002060008373ffffffffffffffffffffffffffffffffffffffff1673ffffffffffffffffffffffffffffffffffffffff16815260200190815260200160002060009054906101000a900460ff16905092915050565b611a34611b80565b600073ffffffffffffffffffffffffffffffffffffffff168173ffffffffffffffffffffffffffffffffffffffff1603611aa3576040517f08c379a0000000000000000000000000000000000000000000000000000000008152600401611a9a90614109565b60405180910390fd5b611aac81612699565b50565b611ab7611b80565b6000811115611ae7576001600d60006101000a81548160ff02191690831515021790555080600e81905550611b03565b6000600d60006101000a81548160ff0219169083151502179055505b50565b60007f2a55205a000000000000000000000000000000000000000000000000000000007bffffffffffffffffffffffffffffffffffffffffffffffffffffffff1916827bffffffffffffffffffffffffffffffffffffffffffffffffffffffff19161480611b795750611b78826129bf565b5b9050919050565b611b88612a29565b73ffffffffffffffffffffffffffffffffffffffff16611ba661148d565b73ffffffffffffffffffffffffffffffffffffffff1614611bfc576040517f08c379a0000000000000000000000000000000000000000000000000000000008152600401611bf390614175565b60405180910390fd5b565b611c066125a3565b6bffffffffffffffffffffffff16816bffffffffffffffffffffffff161115611c64576040517f08c379a0000000000000000000000000000000000000000000000000000000008152600401611c5b90614207565b60405180910390fd5b600073ffffffffffffffffffffffffffffffffffffffff168273ffffffffffffffffffffffffffffffffffffffff1603611cd3576040517f08c379a0000000000000000000000000000000000000000000000000000000008152600401611cca90614273565b60405180910390fd5b60405180604001604052808373ffffffffffffffffffffffffffffffffffffffff168152602001826bffffffffffffffffffffffff16815250600860008201518160000160006101000a81548173ffffffffffffffffffffffffffffffffffffffff021916908373ffffffffffffffffffffffffffffffffffffffff16021790555060208201518160000160146101000a8154816bffffffffffffffffffffffff02191690836bffffffffffffffffffffffff1602179055509050505050565b600081611d9e61227c565b11158015611dad575060005482105b8015611deb575060007c0100000000000000000000000000000000000000000000000000000000600460008581526020019081526020016000205416145b9050919050565b60006daaeb6d7670e522a718067333cd4e73ffffffffffffffffffffffffffffffffffffffff163b1115611eec576daaeb6d7670e522a718067333cd4e73ffffffffffffffffffffffffffffffffffffffff1663c617113430836040518363ffffffff1660e01b8152600401611e6992919061383b565b602060405180830381865afa158015611e86573d6000803e3d6000fd5b505050506040513d601f19601f82011682018060405250810190611eaa9190613a58565b611eeb57806040517fede71dcc000000000000000000000000000000000000000000000000000000008152600401611ee29190612f41565b60405180910390fd5b5b50565b6000611efa826113af565b90508073ffffffffffffffffffffffffffffffffffffffff16611f1b612a31565b73ffffffffffffffffffffffffffffffffffffffff1614611f7e57611f4781611f42612a31565b611998565b611f7d576040517fcfb3b94200000000000000000000000000000000000000000000000000000000815260040160405180910390fd5b5b826006600084815260200190815260200160002060000160006101000a81548173ffffffffffffffffffffffffffffffffffffffff021916908373ffffffffffffffffffffffffffffffffffffffff160217905550818373ffffffffffffffffffffffffffffffffffffffff168273ffffffffffffffffffffffffffffffffffffffff167f8c5be1e5ebec7d5bd14f71427d1e84f3dd0314c0f7b2291e5b200ac8c7c3b92560405160405180910390a4505050565b6002600b5403612078576040517f08c379a000000000000000000000000000000000000000000000000000000000815260040161206f906142df565b60405180910390fd5b6002600b81905550565b60008054905090565b600081836120999190613938565b905092915050565b600081836120af9190613b8c565b905092915050565b600080549050600082036120f7576040517fb562e8dd00000000000000000000000000000000000000000000000000000000815260040160405180910390fd5b6121046000848385612a39565b600160406001901b178202600560008573ffffffffffffffffffffffffffffffffffffffff1673ffffffffffffffffffffffffffffffffffffffff1681526020019081526020016000206000828254019250508190555061217b8361216c6000866000612a3f565b61217585612a67565b17612a77565b6004600083815260200190815260200160002081905550600080838301905073ffffffffffffffffffffffffffffffffffffffff85169150828260007fddf252ad1be2c89b69c2b068fc378daa952ba7f163c4a11628f55a4df523b3ef600080a4600183015b81811461221c57808360007fddf252ad1be2c89b69c2b068fc378daa952ba7f163c4a11628f55a4df523b3ef600080a46001810190506121e1565b5060008203612257576040517f2e07630000000000000000000000000000000000000000000000000000000000815260040160405180910390fd5b80600081905550505061226d6000848385612aa2565b505050565b6001600b81905550565b600090565b600061228c826125cd565b90508373ffffffffffffffffffffffffffffffffffffffff168173ffffffffffffffffffffffffffffffffffffffff16146122f3576040517fa114810000000000000000000000000000000000000000000000000000000000815260040160405180910390fd5b6000806122ff84612aa8565b915091506123158187612310612a31565b612acf565b6123615761232a86612325612a31565b611998565b612360576040517f59c896be00000000000000000000000000000000000000000000000000000000815260040160405180910390fd5b5b600073ffffffffffffffffffffffffffffffffffffffff168573ffffffffffffffffffffffffffffffffffffffff16036123c7576040517fea553b3400000000000000000000000000000000000000000000000000000000815260040160405180910390fd5b6123d48686866001612a39565b80156123df57600082555b600560008773ffffffffffffffffffffffffffffffffffffffff1673ffffffffffffffffffffffffffffffffffffffff168152602001908152602001600020600081546001900391905081905550600560008673ffffffffffffffffffffffffffffffffffffffff1673ffffffffffffffffffffffffffffffffffffffff16815260200190815260200160002060008154600101919050819055506124ad85612489888887612a3f565b7c020000000000000000000000000000000000000000000000000000000017612a77565b600460008681526020019081526020016000208190555060007c02000000000000000000000000000000000000000000000000000000008416036125335760006001850190506000600460008381526020019081526020016000205403612531576000548114612530578360046000838152602001908152602001600020819055505b5b505b838573ffffffffffffffffffffffffffffffffffffffff168773ffffffffffffffffffffffffffffffffffffffff167fddf252ad1be2c89b69c2b068fc378daa952ba7f163c4a11628f55a4df523b3ef60405160405180910390a461259b8686866001612aa2565b505050505050565b6000612710905090565b6125c883838360405180602001604052806000815250611568565b505050565b600080829050806125dc61227c565b11612662576000548110156126615760006004600083815260200190815260200160002054905060007c010000000000000000000000000000000000000000000000000000000082160361265f575b6000810361265557600460008360019003935083815260200190815260200160002054905061262b565b8092505050612694565b505b5b6040517fdf2d9b4200000000000000000000000000000000000000000000000000000000815260040160405180910390fd5b919050565b6000600a60009054906101000a900473ffffffffffffffffffffffffffffffffffffffff16905081600a60006101000a81548173ffffffffffffffffffffffffffffffffffffffff021916908373ffffffffffffffffffffffffffffffffffffffff1602179055508173ffffffffffffffffffffffffffffffffffffffff168173ffffffffffffffffffffffffffffffffffffffff167f8be0079c531659141344cd1fd0a4f28419497f9722a3daafe3b4186f6b6457e060405160405180910390a35050565b806007600061276c612a31565b73ffffffffffffffffffffffffffffffffffffffff1673ffffffffffffffffffffffffffffffffffffffff16815260200190815260200160002060008473ffffffffffffffffffffffffffffffffffffffff1673ffffffffffffffffffffffffffffffffffffffff16815260200190815260200160002060006101000a81548160ff0219169083151502179055508173ffffffffffffffffffffffffffffffffffffffff16612819612a31565b73ffffffffffffffffffffffffffffffffffffffff167f17307eab39ab6107e8899845ad3d59bd9653f200f220920489ca2b5937696c318360405161285e9190612d20565b60405180910390a35050565b612875848484610fc8565b60008373ffffffffffffffffffffffffffffffffffffffff163b146128d7576128a084848484612b13565b6128d6576040517fd1a57ed600000000000000000000000000000000000000000000000000000000815260040160405180910390fd5b5b50505050565b6060600c80546128ec906135f1565b80601f0160208091040260200160405190810160405280929190818152602001828054612918906135f1565b80156129655780601f1061293a57610100808354040283529160200191612965565b820191906000526020600020905b81548152906001019060200180831161294857829003601f168201915b5050505050905090565b606060a060405101806040526020810391506000825281835b6001156129aa57600184039350600a81066030018453600a8104905080612988575b50828103602084039350808452505050919050565b60007f01ffc9a7000000000000000000000000000000000000000000000000000000007bffffffffffffffffffffffffffffffffffffffffffffffffffffffff1916827bffffffffffffffffffffffffffffffffffffffffffffffffffffffff1916149050919050565b600033905090565b600033905090565b50505050565b60008060e883901c905060e8612a56868684612c63565b62ffffff16901b9150509392505050565b60006001821460e11b9050919050565b600073ffffffffffffffffffffffffffffffffffffffff83169250814260a01b178317905092915050565b50505050565b60008060006006600085815260200190815260200160002090508092508254915050915091565b600073ffffffffffffffffffffffffffffffffffffffff8316925073ffffffffffffffffffffffffffffffffffffffff821691508382148383141790509392505050565b60008373ffffffffffffffffffffffffffffffffffffffff1663150b7a02612b39612a31565b8786866040518563ffffffff1660e01b8152600401612b5b9493929190614354565b6020604051808303816000875af1925050508015612b9757506040513d601f19601f82011682018060405250810190612b9491906143b5565b60015b612c10573d8060008114612bc7576040519150601f19603f3d011682016040523d82523d6000602084013e612bcc565b606091505b506000815103612c08576040517fd1a57ed600000000000000000000000000000000000000000000000000000000815260040160405180910390fd5b805181602001fd5b63150b7a0260e01b7bffffffffffffffffffffffffffffffffffffffffffffffffffffffff1916817bffffffffffffffffffffffffffffffffffffffffffffffffffffffff191614915050949350505050565b60009392505050565b6000604051905090565b600080fd5b600080fd5b60007fffffffff0000000000000000000000000000000000000000000000000000000082169050919050565b612cb581612c80565b8114612cc057600080fd5b50565b600081359050612cd281612cac565b92915050565b600060208284031215612cee57612ced612c76565b5b6000612cfc84828501612cc3565b91505092915050565b60008115159050919050565b612d1a81612d05565b82525050565b6000602082019050612d356000830184612d11565b92915050565b600073ffffffffffffffffffffffffffffffffffffffff82169050919050565b6000612d6682612d3b565b9050919050565b612d7681612d5b565b8114612d8157600080fd5b50565b600081359050612d9381612d6d565b92915050565b60006bffffffffffffffffffffffff82169050919050565b612dba81612d99565b8114612dc557600080fd5b50565b600081359050612dd781612db1565b92915050565b60008060408385031215612df457612df3612c76565b5b6000612e0285828601612d84565b9250506020612e1385828601612dc8565b9150509250929050565b600081519050919050565b600082825260208201905092915050565b60005b83811015612e57578082015181840152602081019050612e3c565b60008484015250505050565b6000601f19601f8301169050919050565b6000612e7f82612e1d565b612e898185612e28565b9350612e99818560208601612e39565b612ea281612e63565b840191505092915050565b60006020820190508181036000830152612ec78184612e74565b905092915050565b6000819050919050565b612ee281612ecf565b8114612eed57600080fd5b50565b600081359050612eff81612ed9565b92915050565b600060208284031215612f1b57612f1a612c76565b5b6000612f2984828501612ef0565b91505092915050565b612f3b81612d5b565b82525050565b6000602082019050612f566000830184612f32565b92915050565b60008060408385031215612f7357612f72612c76565b5b6000612f8185828601612d84565b9250506020612f9285828601612ef0565b9150509250929050565b600080600060608486031215612fb557612fb4612c76565b5b6000612fc386828701612d84565b9350506020612fd486828701612ef0565b9250506040612fe586828701612ef0565b9150509250925092565b612ff881612ecf565b82525050565b60006020820190506130136000830184612fef565b92915050565b60008060006060848603121561303257613031612c76565b5b600061304086828701612d84565b935050602061305186828701612d84565b925050604061306286828701612ef0565b9150509250925092565b6000806040838503121561308357613082612c76565b5b600061309185828601612ef0565b92505060206130a285828601612ef0565b9150509250929050565b60006040820190506130c16000830185612f32565b6130ce6020830184612fef565b9392505050565b6000819050919050565b60006130fa6130f56130f084612d3b565b6130d5565b612d3b565b9050919050565b600061310c826130df565b9050919050565b600061311e82613101565b9050919050565b61312e81613113565b82525050565b60006020820190506131496000830184613125565b92915050565b600061315a82613101565b9050919050565b61316a8161314f565b82525050565b60006020820190506131856000830184613161565b92915050565b6000602082840312156131a1576131a0612c76565b5b60006131af84828501612d84565b91505092915050565b600080fd5b600080fd5b7f4e487b7100000000000000000000000000000000000000000000000000000000600052604160045260246000fd5b6131fa82612e63565b810181811067ffffffffffffffff82111715613219576132186131c2565b5b80604052505050565b600061322c612c6c565b905061323882826131f1565b919050565b600067ffffffffffffffff821115613258576132576131c2565b5b61326182612e63565b9050602081019050919050565b82818337600083830152505050565b600061329061328b8461323d565b613222565b9050828152602081018484840111156132ac576132ab6131bd565b5b6132b784828561326e565b509392505050565b600082601f8301126132d4576132d36131b8565b5b81356132e484826020860161327d565b91505092915050565b60006020828403121561330357613302612c76565b5b600082013567ffffffffffffffff81111561332157613320612c7b565b5b61332d848285016132bf565b91505092915050565b600063ffffffff82169050919050565b61334f81613336565b811461335a57600080fd5b50565b60008135905061336c81613346565b92915050565b60006020828403121561338857613387612c76565b5b60006133968482850161335d565b91505092915050565b6133a881612d05565b81146133b357600080fd5b50565b6000813590506133c58161339f565b92915050565b600080604083850312156133e2576133e1612c76565b5b60006133f085828601612d84565b9250506020613401858286016133b6565b9150509250929050565b600067ffffffffffffffff821115613426576134256131c2565b5b61342f82612e63565b9050602081019050919050565b600061344f61344a8461340b565b613222565b90508281526020810184848401111561346b5761346a6131bd565b5b61347684828561326e565b509392505050565b600082601f830112613493576134926131b8565b5b81356134a384826020860161343c565b91505092915050565b600080600080608085870312156134c6576134c5612c76565b5b60006134d487828801612d84565b94505060206134e587828801612d84565b93505060406134f687828801612ef0565b925050606085013567ffffffffffffffff81111561351757613516612c7b565b5b6135238782880161347e565b91505092959194509250565b60008060006060848603121561354857613547612c76565b5b600061355686828701612d84565b935050602061356786828701612ef0565b925050604061357886828701612d84565b9150509250925092565b6000806040838503121561359957613598612c76565b5b60006135a785828601612d84565b92505060206135b885828601612d84565b9150509250929050565b7f4e487b7100000000000000000000000000000000000000000000000000000000600052602260045260246000fd5b6000600282049050600182168061360957607f821691505b60208210810361361c5761361b6135c2565b5b50919050565b7f4e487b7100000000000000000000000000000000000000000000000000000000600052601160045260246000fd5b600061365c82612ecf565b915061366783612ecf565b925082820190508082111561367f5761367e613622565b5b92915050565b7f4c696d6974206f6620636f6c6c656374696f6e204e465420726561636865642060008201527f6f7220746f6f206d756368204e4654732061736b656400000000000000000000602082015250565b60006136e1603683612e28565b91506136ec82613685565b604082019050919050565b60006020820190508181036000830152613710816136d4565b9050919050565b7f4c696d6974206f66206f776e6564204e46542072656163686564206f7220746f60008201527f6f206d756368204e4654732061736b6564000000000000000000000000000000602082015250565b6000613773603183612e28565b915061377e82613717565b604082019050919050565b600060208201905081810360008301526137a281613766565b9050919050565b7f43616e6e6f74206d696e742e20436865636b204c61756e63687061642064617460008201527f6520210000000000000000000000000000000000000000000000000000000000602082015250565b6000613805602383612e28565b9150613810826137a9565b604082019050919050565b60006020820190508181036000830152613834816137f8565b9050919050565b60006040820190506138506000830185612f32565b61385d6020830184612f32565b9392505050565b60008151905061387381612ed9565b92915050565b60006020828403121561388f5761388e612c76565b5b600061389d84828501613864565b91505092915050565b7f506c65617365206d616b65207375726520796f75206861766520617070726f7660008201527f6520656e6f756768742055534443202100000000000000000000000000000000602082015250565b6000613902603083612e28565b915061390d826138a6565b604082019050919050565b60006020820190508181036000830152613931816138f5565b9050919050565b600061394382612ecf565b915061394e83612ecf565b925082820261395c81612ecf565b9150828204841483151761397357613972613622565b5b5092915050565b7f4e6f7420656e6f75676820555344432073656e743b20636865636b207072696360008201527f6521000000000000000000000000000000000000000000000000000000000000602082015250565b60006139d6602283612e28565b91506139e18261397a565b604082019050919050565b60006020820190508181036000830152613a05816139c9565b9050919050565b6000606082019050613a216000830186612f32565b613a2e6020830185612f32565b613a3b6040830184612fef565b949350505050565b600081519050613a528161339f565b92915050565b600060208284031215613a6e57613a6d612c76565b5b6000613a7c84828501613a43565b91505092915050565b7f5472616e736374696f6e20776173206e6f74207375636365737366756c000000600082015250565b6000613abb601d83612e28565b9150613ac682613a85565b602082019050919050565b60006020820190508181036000830152613aea81613aae565b9050919050565b7f5472616e73616374696f6e20776173206e6f74207375636365737366756c0000600082015250565b6000613b27601e83612e28565b9150613b3282613af1565b602082019050919050565b60006020820190508181036000830152613b5681613b1a565b9050919050565b7f4e487b7100000000000000000000000000000000000000000000000000000000600052601260045260246000fd5b6000613b9782612ecf565b9150613ba283612ecf565b925082613bb257613bb1613b5d565b5b828204905092915050565b600081905092915050565b60008190508160005260206000209050919050565b60008154613bea816135f1565b613bf48186613bbd565b94506001821660008114613c0f5760018114613c2457613c57565b60ff1983168652811515820286019350613c57565b613c2d85613bc8565b60005b83811015613c4f57815481890152600182019150602081019050613c30565b838801955050505b50505092915050565b6000613c6c8284613bdd565b915081905092915050565b6000613c8282612e1d565b613c8c8185613bbd565b9350613c9c818560208601612e39565b80840191505092915050565b6000613cb48284613c77565b915081905092915050565b7f5468652055524920697320616c72656164792073657420746f2074686520657860008201527f6163742073616d65205552492021000000000000000000000000000000000000602082015250565b6000613d1b602e83612e28565b9150613d2682613cbf565b604082019050919050565b60006020820190508181036000830152613d4a81613d0e565b9050919050565b60006020601f8301049050919050565b600082821b905092915050565b600060088302613d9e7fffffffffffffffffffffffffffffffffffffffffffffffffffffffffffffffff82613d61565b613da88683613d61565b95508019841693508086168417925050509392505050565b6000613ddb613dd6613dd184612ecf565b6130d5565b612ecf565b9050919050565b6000819050919050565b613df583613dc0565b613e09613e0182613de2565b848454613d6e565b825550505050565b600090565b613e1e613e11565b613e29818484613dec565b505050565b5b81811015613e4d57613e42600082613e16565b600181019050613e2f565b5050565b601f821115613e9257613e6381613bc8565b613e6c84613d51565b81016020851015613e7b578190505b613e8f613e8785613d51565b830182613e2e565b50505b505050565b600082821c905092915050565b6000613eb560001984600802613e97565b1980831691505092915050565b6000613ece8383613ea4565b9150826002028217905092915050565b613ee782612e1d565b67ffffffffffffffff811115613f0057613eff6131c2565b5b613f0a82546135f1565b613f15828285613e51565b600060209050601f831160018114613f485760008415613f36578287015190505b613f408582613ec2565b865550613fa8565b601f198416613f5686613bc8565b60005b82811015613f7e57848901518255600182019150602085019450602081019050613f59565b86831015613f9b5784890151613f97601f891682613ea4565b8355505b6001600288020188555050505b505050505050565b7f43616e6e6f74204368616e6765204c696d697400000000000000000000000000600082015250565b6000613fe6601383612e28565b9150613ff182613fb0565b602082019050919050565b6000602082019050818103600083015261401581613fd9565b9050919050565b7f2e6a736f6e000000000000000000000000000000000000000000000000000000600082015250565b6000614052600583613bbd565b915061405d8261401c565b600582019050919050565b60006140748285613c77565b91506140808284613c77565b915061408b82614045565b91508190509392505050565b7f4f776e61626c653a206e6577206f776e657220697320746865207a65726f206160008201527f6464726573730000000000000000000000000000000000000000000000000000602082015250565b60006140f3602683612e28565b91506140fe82614097565b604082019050919050565b60006020820190508181036000830152614122816140e6565b9050919050565b7f4f776e61626c653a2063616c6c6572206973206e6f7420746865206f776e6572600082015250565b600061415f602083612e28565b915061416a82614129565b602082019050919050565b6000602082019050818103600083015261418e81614152565b9050919050565b7f455243323938313a20726f79616c7479206665652077696c6c2065786365656460008201527f2073616c65507269636500000000000000000000000000000000000000000000602082015250565b60006141f1602a83612e28565b91506141fc82614195565b604082019050919050565b60006020820190508181036000830152614220816141e4565b9050919050565b7f455243323938313a20696e76616c696420726563656976657200000000000000600082015250565b600061425d601983612e28565b915061426882614227565b602082019050919050565b6000602082019050818103600083015261428c81614250565b9050919050565b7f5265656e7472616e637947756172643a207265656e7472616e742063616c6c00600082015250565b60006142c9601f83612e28565b91506142d482614293565b602082019050919050565b600060208201905081810360008301526142f8816142bc565b9050919050565b600081519050919050565b600082825260208201905092915050565b6000614326826142ff565b614330818561430a565b9350614340818560208601612e39565b61434981612e63565b840191505092915050565b60006080820190506143696000830187612f32565b6143766020830186612f32565b6143836040830185612fef565b8181036060830152614395818461431b565b905095945050505050565b6000815190506143af81612cac565b92915050565b6000602082840312156143cb576143ca612c76565b5b60006143d9848285016143a0565b9150509291505056fea2646970667358221220fd665fcb5a9bacc35d73f7ad36534bd04b015c8442c7bc07c29f627e16cd947164736f6c63430008130033",
  "immutableReferences": {},
  "source": "// SPDX-License-Identifier: MIT\npragma solidity 0.8.19;\nimport \"erc721a/contracts/ERC721A.sol\";\nimport \"erc721a/contracts/IERC721A.sol\";\nimport \"@openzeppelin/contracts/security/ReentrancyGuard.sol\";\nimport \"@openzeppelin/contracts/access/Ownable.sol\";\nimport \"./DefaultOperatorFilterer.sol\";\nimport \"@openzeppelin/contracts/token/common/ERC2981.sol\";\nimport \"@openzeppelin/contracts/token/ERC20/IERC20.sol\";\nimport \"@openzeppelin/contracts/utils/math/SafeMath.sol\";\n\n// [\"CollectionName\", \"CollectionSymbol\", \"https://url.com/\"]\n// [0,100,0,1000000]\n// true\n// 0xd9145CCE52D386f254917e481eB44e9943F39138\n// 100\ncontract SofanNft is\n    ERC721A,\n    ERC2981,\n    Ownable,\n    ReentrancyGuard,\n    DefaultOperatorFilterer\n{\n    string uri;\n    bool isLimitByWallet;\n    uint256 limitByWallet;\n    uint256 public collectionLimit;\n    // bool isLaunchpad;\n    uint256 launchpadTime;\n    uint256 deployDate;\n    bool isAbleChangeMaxLimitCollection;\n    mapping(address => uint256) public NftOwned;\n    address SofanWallet = 0x5B38Da6a701c568545dCfcB03FcB875f56beddC4;\n    address AthleteWallet = 0xAb8483F64d9C6d1EcF9b849Ae677dD3315835cb2;\n    uint256 public price;\n    address SofanSplitter;\n    // 0x07865c6E87B9F70255377e024ace6630C1Eaa37F 0x98339D8C260052B7ad81c28c16C0b98420f2B46a\n    IERC20 public usdc = IERC20(0x07865c6E87B9F70255377e024ace6630C1Eaa37F);\n\n    constructor(\n        string[3] memory _collectionData2,\n        // string memory _collectionName,\n        // string memory _collectionSymbol,\n        // string memory _collectionBaserURI,\n        uint256[4] memory _collectionData,\n        // uint256 _limitByWallet,\n        // uint256 _collectionLimit,\n        // uint256 _launchpadTime,\n        bool _isAbleChangeMaxLimitCollection,\n        // uint256 _price,\n        address _splitterAddress,\n        uint96 _percentInBips // 2.5% = 250\n    ) ERC721A(_collectionData2[0], _collectionData2[1]) {\n        uri = _collectionData2[2];\n        if (_collectionData[0] != 0) {\n            limitByWallet = _collectionData[0];\n            isLimitByWallet = true;\n        }\n        collectionLimit = _collectionData[1];\n        if (_collectionData[2] != 0) {\n            launchpadTime = _collectionData[2];\n            // isLaunchpad = true;\n        }\n\n        deployDate = block.timestamp;\n        isAbleChangeMaxLimitCollection = _isAbleChangeMaxLimitCollection;\n        price = _collectionData[3];\n        SofanSplitter = _splitterAddress;\n        setRoyaltyInfo(_splitterAddress, _percentInBips);\n    }\n\n    function mint(\n        address _to,\n        uint256 _quantity,\n        uint256 _amount\n    ) external payable nonReentrant {\n        require(\n            ERC721A._nextTokenId() + _quantity <= collectionLimit,\n            \"Limit of collection NFT reached or too much NFTs asked\"\n        );\n        if (isLimitByWallet == true) // Optimize this for fees\n        {\n            require(\n                (NftOwned[_to] + _quantity) <= limitByWallet,\n                \"Limit of owned NFT reached or too much NFTs asked\"\n            );\n        }\n        // if(isLaunchpad == true){\n        require(\n            block.timestamp >= deployDate + launchpadTime,\n            \"Cannot mint. Check Launchpad date !\"\n        );\n        // }\n        require(\n            usdc.allowance(msg.sender, address(this)) >= _amount,\n            \"Please make sure you have approve enought USDC !\"\n        );\n        require(\n            _amount >= price * _quantity,\n            \"Not enough USDC sent; check price!\"\n        );\n        bool success = usdc.transferFrom(msg.sender, address(this), _amount);\n        require(success, \"Transction was not successful\");\n\n        uint256 toAthleteTemp = SafeMath.mul(_amount, 80);\n        uint256 toAthlete = SafeMath.div(toAthleteTemp, 100);\n        bool success2 = usdc.transfer(AthleteWallet, toAthlete);\n        require(success2, \"Transaction was not successful\");\n\n        uint256 toSofanTemp = SafeMath.mul(_amount, 20);\n        uint256 toSofan = SafeMath.div(toSofanTemp, 100);\n        bool success3 = usdc.transfer(SofanWallet, toSofan);\n        require(success3, \"Transaction was not successful\");\n        NftOwned[_to] = NftOwned[_to] + _quantity;\n        _mint(_to, _quantity);\n    }\n\n    function withdrawUSDC() public onlyOwner {\n        uint256 balance = usdc.balanceOf(address(this));\n        usdc.approve(msg.sender, balance);\n        usdc.transfer(msg.sender, balance);\n    }\n\n    function activeMintManually() external onlyOwner {\n        launchpadTime = 0 seconds;\n    }\n\n    function setLimitWallet(uint256 _newLimit) external onlyOwner {\n        if (_newLimit > 0) {\n            isLimitByWallet = true; // Optimize this for fees\n            limitByWallet = _newLimit;\n        } else {\n            isLimitByWallet = false;\n        }\n    }\n\n    function changeLimitOfMaxCollection(uint32 _newLimit) external onlyOwner {\n        require(isAbleChangeMaxLimitCollection, \"Cannot Change Limit\");\n        collectionLimit = _newLimit;\n    }\n\n    /**\n     * @dev set a new base uri.\n     * example : https://website.com/ipfs/CID/\n     */\n    function setBaseURI(string memory _uri) external {\n        require(\n            keccak256(abi.encodePacked(_uri)) !=\n                keccak256(abi.encodePacked(uri)),\n            \"The URI is already set to the exact same URI !\"\n        );\n        uri = _uri;\n    }\n\n    /**\n     * @dev see chiru-labs ERC721A documentation\n     */\n    function _baseURI() internal view override returns (string memory) {\n        return uri;\n    }\n\n    /**\n     * @dev return the tokenURI of a NFT\n     *\n     * Requirements:\n     *\n     * - Cannot get the URI of unexistent tokenID.\n     */\n    function tokenURI(\n        uint256 tokenId\n    ) public view override returns (string memory) {\n        if (!_exists(tokenId)) revert URIQueryForNonexistentToken();\n\n        string memory baseURI = _baseURI();\n        return\n            bytes(baseURI).length != 0\n                ? string(abi.encodePacked(baseURI, _toString(tokenId), \".json\"))\n                : \"\";\n    }\n\n    event temp(address msgSender);\n\n    function approveCustom(\n        address to,\n        uint256 tokenId,\n        address _msgSender\n    ) public payable onlyAllowedOperatorApproval(to) {\n        address owner = ERC721A.ownerOf(tokenId);\n\n        if (_msgSender != owner) {\n            if (!isApprovedForAll(owner, _msgSender)) {\n                revert ApprovalCallerNotOwnerNorApproved();\n            }\n        }\n\n        ERC721A._tokenApprovals[tokenId].value = to;\n        emit IERC721A.Approval(owner, to, tokenId);\n    }\n\n    function supportsInterface(\n        bytes4 interfaceId\n    ) public view virtual override(ERC2981, ERC721A) returns (bool) {\n        return\n            interfaceId == type(IERC2981).interfaceId ||\n            interfaceId == 0x01ffc9a7 ||\n            interfaceId == 0x80ac58cd ||\n            interfaceId == 0x5b5e139f ||\n            super.supportsInterface(interfaceId);\n    }\n\n    //ERC2981\n    function setRoyaltyInfo(\n        address _receiver,\n        uint96 _royaltyFeesInBips\n    ) public onlyOwner {\n        _setDefaultRoyalty(_receiver, _royaltyFeesInBips);\n    }\n\n    // Opensea\n    function setApprovalForAll(\n        address operator,\n        bool approved\n    ) public override onlyAllowedOperatorApproval(operator) {\n        super.setApprovalForAll(operator, approved);\n    }\n\n    function approve(\n        address operator,\n        uint256 tokenId\n    ) public payable override onlyAllowedOperatorApproval(operator) {\n        super.approve(operator, tokenId);\n    }\n\n    function transferFrom(\n        address from,\n        address to,\n        uint256 tokenId\n    ) public payable override onlyAllowedOperator(from) {\n        super.transferFrom(from, to, tokenId);\n    }\n\n    function safeTransferFrom(\n        address from,\n        address to,\n        uint256 tokenId\n    ) public payable override onlyAllowedOperator(from) {\n        super.safeTransferFrom(from, to, tokenId);\n    }\n\n    function safeTransferFrom(\n        address from,\n        address to,\n        uint256 tokenId,\n        bytes memory data\n    ) public payable override onlyAllowedOperator(from) {\n        super.safeTransferFrom(from, to, tokenId, data);\n    }\n}\n",
  "sourcePath": "/home/matheo/dev/Sofan/truffle/contracts/SofanNft.sol",
  "compiler": {
    "name": "solc",
    "version": "0.8.19+commit.7dd6d404.Emscripten.clang"
  },
  "schemaVersion": "3.4.4",
  "updatedAt": "2023-09-14T22:31:43.687Z",
  "devdoc": {
    "errors": {
      "OperatorNotAllowed(address)": [
        {
          "details": "Emitted when an operator is not allowed."
        }
      ]
    },
    "events": {
      "Approval(address,address,uint256)": {
        "details": "Emitted when `owner` enables `approved` to manage the `tokenId` token."
      },
      "ApprovalForAll(address,address,bool)": {
        "details": "Emitted when `owner` enables or disables (`approved`) `operator` to manage all of its assets."
      },
      "ConsecutiveTransfer(uint256,uint256,address,address)": {
        "details": "Emitted when tokens in `fromTokenId` to `toTokenId` (inclusive) is transferred from `from` to `to`, as defined in the [ERC2309](https://eips.ethereum.org/EIPS/eip-2309) standard. See {_mintERC2309} for more details."
      },
      "Transfer(address,address,uint256)": {
        "details": "Emitted when `tokenId` token is transferred from `from` to `to`."
      }
    },
    "kind": "dev",
    "methods": {
      "balanceOf(address)": {
        "details": "Returns the number of tokens in `owner`'s account."
      },
      "getApproved(uint256)": {
        "details": "Returns the account approved for `tokenId` token. Requirements: - `tokenId` must exist."
      },
      "isApprovedForAll(address,address)": {
        "details": "Returns if the `operator` is allowed to manage all of the assets of `owner`. See {setApprovalForAll}."
      },
      "name()": {
        "details": "Returns the token collection name."
      },
      "owner()": {
        "details": "Returns the address of the current owner."
      },
      "ownerOf(uint256)": {
        "details": "Returns the owner of the `tokenId` token. Requirements: - `tokenId` must exist."
      },
      "renounceOwnership()": {
        "details": "Leaves the contract without owner. It will not be possible to call `onlyOwner` functions. Can only be called by the current owner. NOTE: Renouncing ownership will leave the contract without an owner, thereby disabling any functionality that is only available to the owner."
      },
      "royaltyInfo(uint256,uint256)": {
        "details": "Returns how much royalty is owed and to whom, based on a sale price that may be denominated in any unit of exchange. The royalty amount is denominated and should be paid in that same unit of exchange."
      },
      "safeTransferFrom(address,address,uint256)": {
        "details": "Equivalent to `safeTransferFrom(from, to, tokenId, '')`."
      },
      "setApprovalForAll(address,bool)": {
        "details": "Approve or remove `operator` as an operator for the caller. Operators can call {transferFrom} or {safeTransferFrom} for any token owned by the caller. Requirements: - The `operator` cannot be the caller. Emits an {ApprovalForAll} event."
      },
      "setBaseURI(string)": {
        "details": "set a new base uri. example : https://website.com/ipfs/CID/"
      },
      "symbol()": {
        "details": "Returns the token collection symbol."
      },
      "tokenURI(uint256)": {
        "details": "return the tokenURI of a NFT Requirements: - Cannot get the URI of unexistent tokenID."
      },
      "totalSupply()": {
        "details": "Returns the total number of tokens in existence. Burned tokens will reduce the count. To get the total number of tokens minted, please see {_totalMinted}."
      },
      "transferFrom(address,address,uint256)": {
        "details": "Transfers `tokenId` from `from` to `to`. Requirements: - `from` cannot be the zero address. - `to` cannot be the zero address. - `tokenId` token must be owned by `from`. - If the caller is not `from`, it must be approved to move this token by either {approve} or {setApprovalForAll}. Emits a {Transfer} event."
      },
      "transferOwnership(address)": {
        "details": "Transfers ownership of the contract to a new account (`newOwner`). Can only be called by the current owner."
      }
    },
    "version": 1
  },
  "userdoc": {
    "errors": {
      "ApprovalCallerNotOwnerNorApproved()": [
        {
          "notice": "The caller must own the token or be an approved operator."
        }
      ],
      "ApprovalQueryForNonexistentToken()": [
        {
          "notice": "The token does not exist."
        }
      ],
      "BalanceQueryForZeroAddress()": [
        {
          "notice": "Cannot query the balance for the zero address."
        }
      ],
      "MintERC2309QuantityExceedsLimit()": [
        {
          "notice": "The `quantity` minted with ERC2309 exceeds the safety limit."
        }
      ],
      "MintToZeroAddress()": [
        {
          "notice": "Cannot mint to the zero address."
        }
      ],
      "MintZeroQuantity()": [
        {
          "notice": "The quantity of tokens minted must be more than zero."
        }
      ],
      "OwnerQueryForNonexistentToken()": [
        {
          "notice": "The token does not exist."
        }
      ],
      "OwnershipNotInitializedForExtraData()": [
        {
          "notice": "The `extraData` cannot be set on an unintialized ownership slot."
        }
      ],
      "TransferCallerNotOwnerNorApproved()": [
        {
          "notice": "The caller must own the token or be an approved operator."
        }
      ],
      "TransferFromIncorrectOwner()": [
        {
          "notice": "The token must be owned by `from`."
        }
      ],
      "TransferToNonERC721ReceiverImplementer()": [
        {
          "notice": "Cannot safely transfer to a contract that does not implement the ERC721Receiver interface."
        }
      ],
      "TransferToZeroAddress()": [
        {
          "notice": "Cannot transfer to the zero address."
        }
      ],
      "URIQueryForNonexistentToken()": [
        {
          "notice": "The token does not exist."
        }
      ]
    },
    "kind": "user",
    "methods": {},
    "version": 1
  }
}