{
  "contractName": "SofanSplitter",
  "abi": [
    {
      "inputs": [
        {
          "internalType": "address[]",
          "name": "payees",
          "type": "address[]"
        },
        {
          "internalType": "uint256[]",
          "name": "shares_",
          "type": "uint256[]"
        }
      ],
      "stateMutability": "payable",
      "type": "constructor"
    },
    {
      "anonymous": false,
      "inputs": [
        {
          "indexed": true,
          "internalType": "contract IERC20",
          "name": "token",
          "type": "address"
        },
        {
          "indexed": false,
          "internalType": "address",
          "name": "to",
          "type": "address"
        },
        {
          "indexed": false,
          "internalType": "uint256",
          "name": "amount",
          "type": "uint256"
        }
      ],
      "name": "ERC20PaymentReleased",
      "type": "event"
    },
    {
      "anonymous": false,
      "inputs": [
        {
          "indexed": false,
          "internalType": "address",
          "name": "account",
          "type": "address"
        },
        {
          "indexed": false,
          "internalType": "uint256",
          "name": "shares",
          "type": "uint256"
        }
      ],
      "name": "PayeeAdded",
      "type": "event"
    },
    {
      "anonymous": false,
      "inputs": [
        {
          "indexed": false,
          "internalType": "address",
          "name": "from",
          "type": "address"
        },
        {
          "indexed": false,
          "internalType": "uint256",
          "name": "amount",
          "type": "uint256"
        }
      ],
      "name": "PaymentReceived",
      "type": "event"
    },
    {
      "anonymous": false,
      "inputs": [
        {
          "indexed": false,
          "internalType": "address",
          "name": "to",
          "type": "address"
        },
        {
          "indexed": false,
          "internalType": "uint256",
          "name": "amount",
          "type": "uint256"
        }
      ],
      "name": "PaymentReleased",
      "type": "event"
    },
    {
      "inputs": [
        {
          "internalType": "uint256",
          "name": "index",
          "type": "uint256"
        }
      ],
      "name": "payee",
      "outputs": [
        {
          "internalType": "address",
          "name": "",
          "type": "address"
        }
      ],
      "stateMutability": "view",
      "type": "function"
    },
    {
      "inputs": [
        {
          "internalType": "address",
          "name": "account",
          "type": "address"
        }
      ],
      "name": "releasable",
      "outputs": [
        {
          "internalType": "uint256",
          "name": "",
          "type": "uint256"
        }
      ],
      "stateMutability": "view",
      "type": "function"
    },
    {
      "inputs": [
        {
          "internalType": "contract IERC20",
          "name": "token",
          "type": "address"
        },
        {
          "internalType": "address",
          "name": "account",
          "type": "address"
        }
      ],
      "name": "releasable",
      "outputs": [
        {
          "internalType": "uint256",
          "name": "",
          "type": "uint256"
        }
      ],
      "stateMutability": "view",
      "type": "function"
    },
    {
      "inputs": [
        {
          "internalType": "address payable",
          "name": "account",
          "type": "address"
        }
      ],
      "name": "release",
      "outputs": [],
      "stateMutability": "nonpayable",
      "type": "function"
    },
    {
      "inputs": [
        {
          "internalType": "contract IERC20",
          "name": "token",
          "type": "address"
        },
        {
          "internalType": "address",
          "name": "account",
          "type": "address"
        }
      ],
      "name": "release",
      "outputs": [],
      "stateMutability": "nonpayable",
      "type": "function"
    },
    {
      "inputs": [
        {
          "internalType": "contract IERC20",
          "name": "token",
          "type": "address"
        },
        {
          "internalType": "address",
          "name": "account",
          "type": "address"
        }
      ],
      "name": "released",
      "outputs": [
        {
          "internalType": "uint256",
          "name": "",
          "type": "uint256"
        }
      ],
      "stateMutability": "view",
      "type": "function"
    },
    {
      "inputs": [
        {
          "internalType": "address",
          "name": "account",
          "type": "address"
        }
      ],
      "name": "released",
      "outputs": [
        {
          "internalType": "uint256",
          "name": "",
          "type": "uint256"
        }
      ],
      "stateMutability": "view",
      "type": "function"
    },
    {
      "inputs": [
        {
          "internalType": "address",
          "name": "account",
          "type": "address"
        }
      ],
      "name": "shares",
      "outputs": [
        {
          "internalType": "uint256",
          "name": "",
          "type": "uint256"
        }
      ],
      "stateMutability": "view",
      "type": "function"
    },
    {
      "inputs": [
        {
          "internalType": "contract IERC20",
          "name": "token",
          "type": "address"
        }
      ],
      "name": "totalReleased",
      "outputs": [
        {
          "internalType": "uint256",
          "name": "",
          "type": "uint256"
        }
      ],
      "stateMutability": "view",
      "type": "function"
    },
    {
      "inputs": [],
      "name": "totalReleased",
      "outputs": [
        {
          "internalType": "uint256",
          "name": "",
          "type": "uint256"
        }
      ],
      "stateMutability": "view",
      "type": "function"
    },
    {
      "inputs": [],
      "name": "totalShares",
      "outputs": [
        {
          "internalType": "uint256",
          "name": "",
          "type": "uint256"
        }
      ],
      "stateMutability": "view",
      "type": "function"
    },
    {
      "stateMutability": "payable",
      "type": "receive"
    }
  ],
  "bytecode": "0x6080604052604051620023373803806200233783398181016040528101906200002991906200066b565b8181805182511462000072576040517f08c379a0000000000000000000000000000000000000000000000000000000008152600401620000699062000777565b60405180910390fd5b6000825111620000b9576040517f08c379a0000000000000000000000000000000000000000000000000000000008152600401620000b090620007e9565b60405180910390fd5b60005b8251811015620001285762000112838281518110620000e057620000df6200080b565b5b6020026020010151838381518110620000fe57620000fd6200080b565b5b60200260200101516200013360201b60201c565b80806200011f9062000869565b915050620000bc565b505050505062000ae2565b600073ffffffffffffffffffffffffffffffffffffffff168273ffffffffffffffffffffffffffffffffffffffff1603620001a5576040517f08c379a00000000000000000000000000000000000000000000000000000000081526004016200019c906200092c565b60405180910390fd5b60008111620001eb576040517f08c379a0000000000000000000000000000000000000000000000000000000008152600401620001e2906200099e565b60405180910390fd5b6000600260008473ffffffffffffffffffffffffffffffffffffffff1673ffffffffffffffffffffffffffffffffffffffff168152602001908152602001600020541462000270576040517f08c379a0000000000000000000000000000000000000000000000000000000008152600401620002679062000a36565b60405180910390fd5b6004829080600181540180825580915050600190039060005260206000200160009091909190916101000a81548173ffffffffffffffffffffffffffffffffffffffff021916908373ffffffffffffffffffffffffffffffffffffffff16021790555080600260008473ffffffffffffffffffffffffffffffffffffffff1673ffffffffffffffffffffffffffffffffffffffff168152602001908152602001600020819055508060005462000327919062000a58565b6000819055507f40c340f65e17194d14ddddb073d3c9f888e3cb52b5aae0c6c7706b4fbc905fac82826040516200036092919062000ab5565b60405180910390a15050565b6000604051905090565b600080fd5b600080fd5b600080fd5b6000601f19601f8301169050919050565b7f4e487b7100000000000000000000000000000000000000000000000000000000600052604160045260246000fd5b620003d08262000385565b810181811067ffffffffffffffff82111715620003f257620003f162000396565b5b80604052505050565b6000620004076200036c565b9050620004158282620003c5565b919050565b600067ffffffffffffffff82111562000438576200043762000396565b5b602082029050602081019050919050565b600080fd5b600073ffffffffffffffffffffffffffffffffffffffff82169050919050565b60006200047b826200044e565b9050919050565b6200048d816200046e565b81146200049957600080fd5b50565b600081519050620004ad8162000482565b92915050565b6000620004ca620004c4846200041a565b620003fb565b90508083825260208201905060208402830185811115620004f057620004ef62000449565b5b835b818110156200051d57806200050888826200049c565b845260208401935050602081019050620004f2565b5050509392505050565b600082601f8301126200053f576200053e62000380565b5b815162000551848260208601620004b3565b91505092915050565b600067ffffffffffffffff82111562000578576200057762000396565b5b602082029050602081019050919050565b6000819050919050565b6200059e8162000589565b8114620005aa57600080fd5b50565b600081519050620005be8162000593565b92915050565b6000620005db620005d5846200055a565b620003fb565b9050808382526020820190506020840283018581111562000601576200060062000449565b5b835b818110156200062e5780620006198882620005ad565b84526020840193505060208101905062000603565b5050509392505050565b600082601f83011262000650576200064f62000380565b5b815162000662848260208601620005c4565b91505092915050565b6000806040838503121562000685576200068462000376565b5b600083015167ffffffffffffffff811115620006a657620006a56200037b565b5b620006b48582860162000527565b925050602083015167ffffffffffffffff811115620006d857620006d76200037b565b5b620006e68582860162000638565b9150509250929050565b600082825260208201905092915050565b7f5061796d656e7453706c69747465723a2070617965657320616e64207368617260008201527f6573206c656e677468206d69736d617463680000000000000000000000000000602082015250565b60006200075f603283620006f0565b91506200076c8262000701565b604082019050919050565b60006020820190508181036000830152620007928162000750565b9050919050565b7f5061796d656e7453706c69747465723a206e6f20706179656573000000000000600082015250565b6000620007d1601a83620006f0565b9150620007de8262000799565b602082019050919050565b600060208201905081810360008301526200080481620007c2565b9050919050565b7f4e487b7100000000000000000000000000000000000000000000000000000000600052603260045260246000fd5b7f4e487b7100000000000000000000000000000000000000000000000000000000600052601160045260246000fd5b6000620008768262000589565b91507fffffffffffffffffffffffffffffffffffffffffffffffffffffffffffffffff8203620008ab57620008aa6200083a565b5b600182019050919050565b7f5061796d656e7453706c69747465723a206163636f756e74206973207468652060008201527f7a65726f20616464726573730000000000000000000000000000000000000000602082015250565b600062000914602c83620006f0565b91506200092182620008b6565b604082019050919050565b60006020820190508181036000830152620009478162000905565b9050919050565b7f5061796d656e7453706c69747465723a20736861726573206172652030000000600082015250565b600062000986601d83620006f0565b915062000993826200094e565b602082019050919050565b60006020820190508181036000830152620009b98162000977565b9050919050565b7f5061796d656e7453706c69747465723a206163636f756e7420616c726561647960008201527f2068617320736861726573000000000000000000000000000000000000000000602082015250565b600062000a1e602b83620006f0565b915062000a2b82620009c0565b604082019050919050565b6000602082019050818103600083015262000a518162000a0f565b9050919050565b600062000a658262000589565b915062000a728362000589565b925082820190508082111562000a8d5762000a8c6200083a565b5b92915050565b62000a9e816200046e565b82525050565b62000aaf8162000589565b82525050565b600060408201905062000acc600083018562000a93565b62000adb602083018462000aa4565b9392505050565b6118458062000af26000396000f3fe6080604052600436106100a05760003560e01c80639852595c116100645780639852595c146101e3578063a3f8eace14610220578063c45ac0501461025d578063ce7c2ac21461029a578063d79779b2146102d7578063e33b7de314610314576100e7565b806319165587146100ec5780633a98ef3914610115578063406072a91461014057806348b750441461017d5780638b83209b146101a6576100e7565b366100e7577f6ef95f06320e7a25a04a175ca677b7052bdd97131872c2192525a629f51be7706100ce61033f565b346040516100dd929190610e4f565b60405180910390a1005b600080fd5b3480156100f857600080fd5b50610113600480360381019061010e9190610ebb565b610347565b005b34801561012157600080fd5b5061012a6104c6565b6040516101379190610ee8565b60405180910390f35b34801561014c57600080fd5b5061016760048036038101906101629190610f6d565b6104cf565b6040516101749190610ee8565b60405180910390f35b34801561018957600080fd5b506101a4600480360381019061019f9190610f6d565b610556565b005b3480156101b257600080fd5b506101cd60048036038101906101c89190610fd9565b610769565b6040516101da9190611006565b60405180910390f35b3480156101ef57600080fd5b5061020a60048036038101906102059190611021565b6107b1565b6040516102179190610ee8565b60405180910390f35b34801561022c57600080fd5b5061024760048036038101906102429190611021565b6107fa565b6040516102549190610ee8565b60405180910390f35b34801561026957600080fd5b50610284600480360381019061027f9190610f6d565b61082d565b6040516102919190610ee8565b60405180910390f35b3480156102a657600080fd5b506102c160048036038101906102bc9190611021565b6108dc565b6040516102ce9190610ee8565b60405180910390f35b3480156102e357600080fd5b506102fe60048036038101906102f9919061104e565b610925565b60405161030b9190610ee8565b60405180910390f35b34801561032057600080fd5b5061032961096e565b6040516103369190610ee8565b60405180910390f35b600033905090565b6000600260008373ffffffffffffffffffffffffffffffffffffffff1673ffffffffffffffffffffffffffffffffffffffff16815260200190815260200160002054116103c9576040517f08c379a00000000000000000000000000000000000000000000000000000000081526004016103c0906110fe565b60405180910390fd5b60006103d4826107fa565b905060008103610419576040517f08c379a000000000000000000000000000000000000000000000000000000000815260040161041090611190565b60405180910390fd5b806001600082825461042b91906111df565b9250508190555080600360008473ffffffffffffffffffffffffffffffffffffffff1673ffffffffffffffffffffffffffffffffffffffff168152602001908152602001600020600082825401925050819055506104898282610978565b7fdf20fd1e76bc69d672e4814fafb2c449bba3a5369d8359adf9e05e6fde87b05682826040516104ba929190611272565b60405180910390a15050565b60008054905090565b6000600660008473ffffffffffffffffffffffffffffffffffffffff1673ffffffffffffffffffffffffffffffffffffffff16815260200190815260200160002060008373ffffffffffffffffffffffffffffffffffffffff1673ffffffffffffffffffffffffffffffffffffffff16815260200190815260200160002054905092915050565b6000600260008373ffffffffffffffffffffffffffffffffffffffff1673ffffffffffffffffffffffffffffffffffffffff16815260200190815260200160002054116105d8576040517f08c379a00000000000000000000000000000000000000000000000000000000081526004016105cf906110fe565b60405180910390fd5b60006105e4838361082d565b905060008103610629576040517f08c379a000000000000000000000000000000000000000000000000000000000815260040161062090611190565b60405180910390fd5b80600560008573ffffffffffffffffffffffffffffffffffffffff1673ffffffffffffffffffffffffffffffffffffffff168152602001908152602001600020600082825461067891906111df565b9250508190555080600660008573ffffffffffffffffffffffffffffffffffffffff1673ffffffffffffffffffffffffffffffffffffffff16815260200190815260200160002060008473ffffffffffffffffffffffffffffffffffffffff1673ffffffffffffffffffffffffffffffffffffffff16815260200190815260200160002060008282540192505081905550610714838383610a6c565b8273ffffffffffffffffffffffffffffffffffffffff167f3be5b7a71e84ed12875d241991c70855ac5817d847039e17a9d895c1ceb0f18a838360405161075c929190610e4f565b60405180910390a2505050565b60006004828154811061077f5761077e61129b565b5b9060005260206000200160009054906101000a900473ffffffffffffffffffffffffffffffffffffffff169050919050565b6000600360008373ffffffffffffffffffffffffffffffffffffffff1673ffffffffffffffffffffffffffffffffffffffff168152602001908152602001600020549050919050565b60008061080561096e565b4761081091906111df565b90506108258382610820866107b1565b610af2565b915050919050565b60008061083984610925565b8473ffffffffffffffffffffffffffffffffffffffff166370a08231306040518263ffffffff1660e01b81526004016108729190611006565b602060405180830381865afa15801561088f573d6000803e3d6000fd5b505050506040513d601f19601f820116820180604052508101906108b391906112df565b6108bd91906111df565b90506108d383826108ce87876104cf565b610af2565b91505092915050565b6000600260008373ffffffffffffffffffffffffffffffffffffffff1673ffffffffffffffffffffffffffffffffffffffff168152602001908152602001600020549050919050565b6000600560008373ffffffffffffffffffffffffffffffffffffffff1673ffffffffffffffffffffffffffffffffffffffff168152602001908152602001600020549050919050565b6000600154905090565b804710156109bb576040517f08c379a00000000000000000000000000000000000000000000000000000000081526004016109b290611358565b60405180910390fd5b60008273ffffffffffffffffffffffffffffffffffffffff16826040516109e1906113a9565b60006040518083038185875af1925050503d8060008114610a1e576040519150601f19603f3d011682016040523d82523d6000602084013e610a23565b606091505b5050905080610a67576040517f08c379a0000000000000000000000000000000000000000000000000000000008152600401610a5e90611430565b60405180910390fd5b505050565b610aed8363a9059cbb60e01b8484604051602401610a8b929190610e4f565b604051602081830303815290604052907bffffffffffffffffffffffffffffffffffffffffffffffffffffffff19166020820180517bffffffffffffffffffffffffffffffffffffffffffffffffffffffff8381831617835250505050610b60565b505050565b600081600054600260008773ffffffffffffffffffffffffffffffffffffffff1673ffffffffffffffffffffffffffffffffffffffff1681526020019081526020016000205485610b439190611450565b610b4d91906114c1565b610b5791906114f2565b90509392505050565b6000610bc2826040518060400160405280602081526020017f5361666545524332303a206c6f772d6c6576656c2063616c6c206661696c65648152508573ffffffffffffffffffffffffffffffffffffffff16610c289092919063ffffffff16565b9050600081511480610be4575080806020019051810190610be3919061155e565b5b610c23576040517f08c379a0000000000000000000000000000000000000000000000000000000008152600401610c1a906115fd565b60405180910390fd5b505050565b6060610c378484600085610c40565b90509392505050565b606082471015610c85576040517f08c379a0000000000000000000000000000000000000000000000000000000008152600401610c7c9061168f565b60405180910390fd5b6000808673ffffffffffffffffffffffffffffffffffffffff168587604051610cae9190611715565b60006040518083038185875af1925050503d8060008114610ceb576040519150601f19603f3d011682016040523d82523d6000602084013e610cf0565b606091505b5091509150610d0187838387610d0d565b92505050949350505050565b60608315610d6f576000835103610d6757610d2785610d82565b610d66576040517f08c379a0000000000000000000000000000000000000000000000000000000008152600401610d5d90611778565b60405180910390fd5b5b829050610d7a565b610d798383610da5565b5b949350505050565b6000808273ffffffffffffffffffffffffffffffffffffffff163b119050919050565b600082511115610db85781518083602001fd5b806040517f08c379a0000000000000000000000000000000000000000000000000000000008152600401610dec91906117ed565b60405180910390fd5b600073ffffffffffffffffffffffffffffffffffffffff82169050919050565b6000610e2082610df5565b9050919050565b610e3081610e15565b82525050565b6000819050919050565b610e4981610e36565b82525050565b6000604082019050610e646000830185610e27565b610e716020830184610e40565b9392505050565b600080fd5b6000610e8882610df5565b9050919050565b610e9881610e7d565b8114610ea357600080fd5b50565b600081359050610eb581610e8f565b92915050565b600060208284031215610ed157610ed0610e78565b5b6000610edf84828501610ea6565b91505092915050565b6000602082019050610efd6000830184610e40565b92915050565b6000610f0e82610e15565b9050919050565b610f1e81610f03565b8114610f2957600080fd5b50565b600081359050610f3b81610f15565b92915050565b610f4a81610e15565b8114610f5557600080fd5b50565b600081359050610f6781610f41565b92915050565b60008060408385031215610f8457610f83610e78565b5b6000610f9285828601610f2c565b9250506020610fa385828601610f58565b9150509250929050565b610fb681610e36565b8114610fc157600080fd5b50565b600081359050610fd381610fad565b92915050565b600060208284031215610fef57610fee610e78565b5b6000610ffd84828501610fc4565b91505092915050565b600060208201905061101b6000830184610e27565b92915050565b60006020828403121561103757611036610e78565b5b600061104584828501610f58565b91505092915050565b60006020828403121561106457611063610e78565b5b600061107284828501610f2c565b91505092915050565b600082825260208201905092915050565b7f5061796d656e7453706c69747465723a206163636f756e7420686173206e6f2060008201527f7368617265730000000000000000000000000000000000000000000000000000602082015250565b60006110e860268361107b565b91506110f38261108c565b604082019050919050565b60006020820190508181036000830152611117816110db565b9050919050565b7f5061796d656e7453706c69747465723a206163636f756e74206973206e6f742060008201527f647565207061796d656e74000000000000000000000000000000000000000000602082015250565b600061117a602b8361107b565b91506111858261111e565b604082019050919050565b600060208201905081810360008301526111a98161116d565b9050919050565b7f4e487b7100000000000000000000000000000000000000000000000000000000600052601160045260246000fd5b60006111ea82610e36565b91506111f583610e36565b925082820190508082111561120d5761120c6111b0565b5b92915050565b6000819050919050565b600061123861123361122e84610df5565b611213565b610df5565b9050919050565b600061124a8261121d565b9050919050565b600061125c8261123f565b9050919050565b61126c81611251565b82525050565b60006040820190506112876000830185611263565b6112946020830184610e40565b9392505050565b7f4e487b7100000000000000000000000000000000000000000000000000000000600052603260045260246000fd5b6000815190506112d981610fad565b92915050565b6000602082840312156112f5576112f4610e78565b5b6000611303848285016112ca565b91505092915050565b7f416464726573733a20696e73756666696369656e742062616c616e6365000000600082015250565b6000611342601d8361107b565b915061134d8261130c565b602082019050919050565b6000602082019050818103600083015261137181611335565b9050919050565b600081905092915050565b50565b6000611393600083611378565b915061139e82611383565b600082019050919050565b60006113b482611386565b9150819050919050565b7f416464726573733a20756e61626c6520746f2073656e642076616c75652c207260008201527f6563697069656e74206d61792068617665207265766572746564000000000000602082015250565b600061141a603a8361107b565b9150611425826113be565b604082019050919050565b600060208201905081810360008301526114498161140d565b9050919050565b600061145b82610e36565b915061146683610e36565b925082820261147481610e36565b9150828204841483151761148b5761148a6111b0565b5b5092915050565b7f4e487b7100000000000000000000000000000000000000000000000000000000600052601260045260246000fd5b60006114cc82610e36565b91506114d783610e36565b9250826114e7576114e6611492565b5b828204905092915050565b60006114fd82610e36565b915061150883610e36565b92508282039050818111156115205761151f6111b0565b5b92915050565b60008115159050919050565b61153b81611526565b811461154657600080fd5b50565b60008151905061155881611532565b92915050565b60006020828403121561157457611573610e78565b5b600061158284828501611549565b91505092915050565b7f5361666545524332303a204552433230206f7065726174696f6e20646964206e60008201527f6f74207375636365656400000000000000000000000000000000000000000000602082015250565b60006115e7602a8361107b565b91506115f28261158b565b604082019050919050565b60006020820190508181036000830152611616816115da565b9050919050565b7f416464726573733a20696e73756666696369656e742062616c616e636520666f60008201527f722063616c6c0000000000000000000000000000000000000000000000000000602082015250565b600061167960268361107b565b91506116848261161d565b604082019050919050565b600060208201905081810360008301526116a88161166c565b9050919050565b600081519050919050565b60005b838110156116d85780820151818401526020810190506116bd565b60008484015250505050565b60006116ef826116af565b6116f98185611378565b93506117098185602086016116ba565b80840191505092915050565b600061172182846116e4565b915081905092915050565b7f416464726573733a2063616c6c20746f206e6f6e2d636f6e7472616374000000600082015250565b6000611762601d8361107b565b915061176d8261172c565b602082019050919050565b6000602082019050818103600083015261179181611755565b9050919050565b600081519050919050565b6000601f19601f8301169050919050565b60006117bf82611798565b6117c9818561107b565b93506117d98185602086016116ba565b6117e2816117a3565b840191505092915050565b6000602082019050818103600083015261180781846117b4565b90509291505056fea26469706673582212203f6bdc5825a7c762f625eb22e6558e1de19a8e0b34240a0defbe6e4d06fe3c7264736f6c63430008130033",
  "immutableReferences": {},
  "source": "// SPDX-License-Identifier: MIT\r\npragma solidity ^0.8.19;\r\nimport \"@openzeppelin/contracts/finance/PaymentSplitter.sol\";\r\n\r\ncontract SofanSplitter is PaymentSplitter{\r\n    constructor(\r\n        address[] memory payees,\r\n        uint256[] memory shares_\r\n    ) payable PaymentSplitter(payees, shares_){\r\n\r\n    }\r\n    \r\n}",
  "sourcePath": "/home/matheo/dev/Sofan/truffle/contracts/SofanSplitter.sol",
  "compiler": {
    "name": "solc",
    "version": "0.8.19+commit.7dd6d404.Emscripten.clang"
  },
  "schemaVersion": "3.4.4",
  "updatedAt": "2023-09-14T22:31:43.729Z",
  "devdoc": {
    "kind": "dev",
    "methods": {
      "payee(uint256)": {
        "details": "Getter for the address of the payee number `index`."
      },
      "releasable(address)": {
        "details": "Getter for the amount of payee's releasable Ether."
      },
      "releasable(address,address)": {
        "details": "Getter for the amount of payee's releasable `token` tokens. `token` should be the address of an IERC20 contract."
      },
      "release(address)": {
        "details": "Triggers a transfer to `account` of the amount of Ether they are owed, according to their percentage of the total shares and their previous withdrawals."
      },
      "release(address,address)": {
        "details": "Triggers a transfer to `account` of the amount of `token` tokens they are owed, according to their percentage of the total shares and their previous withdrawals. `token` must be the address of an IERC20 contract."
      },
      "released(address)": {
        "details": "Getter for the amount of Ether already released to a payee."
      },
      "released(address,address)": {
        "details": "Getter for the amount of `token` tokens already released to a payee. `token` should be the address of an IERC20 contract."
      },
      "shares(address)": {
        "details": "Getter for the amount of shares held by an account."
      },
      "totalReleased()": {
        "details": "Getter for the total amount of Ether already released."
      },
      "totalReleased(address)": {
        "details": "Getter for the total amount of `token` already released. `token` should be the address of an IERC20 contract."
      },
      "totalShares()": {
        "details": "Getter for the total shares held by payees."
      }
    },
    "version": 1
  },
  "userdoc": {
    "kind": "user",
    "methods": {},
    "version": 1
  }
}