{
  "contractName": "Sofan",
  "abi": [
    {
      "inputs": [],
      "stateMutability": "payable",
      "type": "constructor"
    },
    {
      "anonymous": false,
      "inputs": [
        {
          "indexed": true,
          "internalType": "address",
          "name": "previousOwner",
          "type": "address"
        },
        {
          "indexed": true,
          "internalType": "address",
          "name": "newOwner",
          "type": "address"
        }
      ],
      "name": "OwnershipTransferred",
      "type": "event"
    },
    {
      "inputs": [
        {
          "internalType": "address",
          "name": "",
          "type": "address"
        },
        {
          "internalType": "address",
          "name": "",
          "type": "address"
        },
        {
          "internalType": "uint256",
          "name": "",
          "type": "uint256"
        },
        {
          "internalType": "uint256",
          "name": "",
          "type": "uint256"
        }
      ],
      "name": "BidMapping",
      "outputs": [
        {
          "internalType": "uint256",
          "name": "price",
          "type": "uint256"
        },
        {
          "internalType": "address",
          "name": "contractAddress",
          "type": "address"
        },
        {
          "internalType": "uint256",
          "name": "tokenId",
          "type": "uint256"
        },
        {
          "internalType": "address",
          "name": "sender",
          "type": "address"
        },
        {
          "internalType": "enum Sofan.BidStatus",
          "name": "bidStatus",
          "type": "uint8"
        },
        {
          "internalType": "address",
          "name": "receiver",
          "type": "address"
        }
      ],
      "stateMutability": "view",
      "type": "function"
    },
    {
      "inputs": [
        {
          "internalType": "address",
          "name": "",
          "type": "address"
        },
        {
          "internalType": "uint256",
          "name": "",
          "type": "uint256"
        }
      ],
      "name": "CollectionCreatedByWallet",
      "outputs": [
        {
          "internalType": "address",
          "name": "",
          "type": "address"
        }
      ],
      "stateMutability": "view",
      "type": "function"
    },
    {
      "inputs": [
        {
          "internalType": "address",
          "name": "",
          "type": "address"
        },
        {
          "internalType": "uint256",
          "name": "",
          "type": "uint256"
        }
      ],
      "name": "ListingMapping",
      "outputs": [
        {
          "internalType": "address",
          "name": "contractAddress",
          "type": "address"
        },
        {
          "internalType": "uint256",
          "name": "tokenId",
          "type": "uint256"
        },
        {
          "internalType": "uint256",
          "name": "price",
          "type": "uint256"
        },
        {
          "internalType": "address",
          "name": "seller",
          "type": "address"
        },
        {
          "internalType": "enum Sofan.ListingStatus",
          "name": "listingStauts",
          "type": "uint8"
        }
      ],
      "stateMutability": "view",
      "type": "function"
    },
    {
      "inputs": [
        {
          "internalType": "address",
          "name": "",
          "type": "address"
        }
      ],
      "name": "isAthlete",
      "outputs": [
        {
          "internalType": "bool",
          "name": "",
          "type": "bool"
        }
      ],
      "stateMutability": "view",
      "type": "function"
    },
    {
      "inputs": [],
      "name": "owner",
      "outputs": [
        {
          "internalType": "address",
          "name": "",
          "type": "address"
        }
      ],
      "stateMutability": "view",
      "type": "function"
    },
    {
      "inputs": [],
      "name": "renounceOwnership",
      "outputs": [],
      "stateMutability": "nonpayable",
      "type": "function"
    },
    {
      "inputs": [
        {
          "internalType": "uint256",
          "name": "",
          "type": "uint256"
        }
      ],
      "name": "sofanCollection",
      "outputs": [
        {
          "internalType": "address",
          "name": "",
          "type": "address"
        }
      ],
      "stateMutability": "view",
      "type": "function"
    },
    {
      "inputs": [
        {
          "internalType": "address",
          "name": "newOwner",
          "type": "address"
        }
      ],
      "name": "transferOwnership",
      "outputs": [],
      "stateMutability": "nonpayable",
      "type": "function"
    },
    {
      "inputs": [],
      "name": "usdc",
      "outputs": [
        {
          "internalType": "contract IERC20",
          "name": "",
          "type": "address"
        }
      ],
      "stateMutability": "view",
      "type": "function"
    },
    {
      "inputs": [
        {
          "internalType": "address",
          "name": "_walletAddress",
          "type": "address"
        }
      ],
      "name": "getCollectionCreatedByWallet",
      "outputs": [
        {
          "internalType": "address[]",
          "name": "",
          "type": "address[]"
        }
      ],
      "stateMutability": "view",
      "type": "function"
    },
    {
      "inputs": [
        {
          "internalType": "address",
          "name": "_receiver",
          "type": "address"
        },
        {
          "internalType": "address",
          "name": "_contract",
          "type": "address"
        },
        {
          "internalType": "uint256",
          "name": "_tokenId",
          "type": "uint256"
        }
      ],
      "name": "getBid",
      "outputs": [
        {
          "components": [
            {
              "internalType": "uint256",
              "name": "price",
              "type": "uint256"
            },
            {
              "internalType": "address",
              "name": "contractAddress",
              "type": "address"
            },
            {
              "internalType": "uint256",
              "name": "tokenId",
              "type": "uint256"
            },
            {
              "internalType": "address",
              "name": "sender",
              "type": "address"
            },
            {
              "internalType": "enum Sofan.BidStatus",
              "name": "bidStatus",
              "type": "uint8"
            },
            {
              "internalType": "address",
              "name": "receiver",
              "type": "address"
            }
          ],
          "internalType": "struct Sofan.Bid[]",
          "name": "",
          "type": "tuple[]"
        }
      ],
      "stateMutability": "view",
      "type": "function"
    },
    {
      "inputs": [
        {
          "internalType": "address",
          "name": "_seller",
          "type": "address"
        }
      ],
      "name": "getListing",
      "outputs": [
        {
          "components": [
            {
              "internalType": "address",
              "name": "contractAddress",
              "type": "address"
            },
            {
              "internalType": "uint256",
              "name": "tokenId",
              "type": "uint256"
            },
            {
              "internalType": "uint256",
              "name": "price",
              "type": "uint256"
            },
            {
              "internalType": "address",
              "name": "seller",
              "type": "address"
            },
            {
              "internalType": "enum Sofan.ListingStatus",
              "name": "listingStauts",
              "type": "uint8"
            }
          ],
          "internalType": "struct Sofan.Listing[]",
          "name": "",
          "type": "tuple[]"
        }
      ],
      "stateMutability": "view",
      "type": "function"
    },
    {
      "inputs": [
        {
          "internalType": "address",
          "name": "_athleteAddress",
          "type": "address"
        },
        {
          "internalType": "bool",
          "name": "_permission",
          "type": "bool"
        }
      ],
      "name": "setAthlete",
      "outputs": [],
      "stateMutability": "nonpayable",
      "type": "function"
    },
    {
      "inputs": [
        {
          "internalType": "address",
          "name": "_newAddress",
          "type": "address"
        }
      ],
      "name": "setFactoryAddress",
      "outputs": [],
      "stateMutability": "nonpayable",
      "type": "function"
    },
    {
      "inputs": [
        {
          "internalType": "address",
          "name": "_newSofanWallet",
          "type": "address"
        }
      ],
      "name": "setSofanWallet",
      "outputs": [],
      "stateMutability": "nonpayable",
      "type": "function"
    },
    {
      "inputs": [
        {
          "internalType": "address",
          "name": "_newUSDCAddress",
          "type": "address"
        }
      ],
      "name": "SetUSDCAddress",
      "outputs": [],
      "stateMutability": "nonpayable",
      "type": "function"
    },
    {
      "inputs": [
        {
          "internalType": "address",
          "name": "_contract",
          "type": "address"
        },
        {
          "internalType": "uint256",
          "name": "_tokenId",
          "type": "uint256"
        },
        {
          "internalType": "uint256",
          "name": "_offerPrice",
          "type": "uint256"
        },
        {
          "internalType": "address",
          "name": "_receiver",
          "type": "address"
        }
      ],
      "name": "placeBid",
      "outputs": [],
      "stateMutability": "nonpayable",
      "type": "function"
    },
    {
      "inputs": [
        {
          "internalType": "address",
          "name": "_contract",
          "type": "address"
        },
        {
          "internalType": "uint256",
          "name": "_tokenId",
          "type": "uint256"
        },
        {
          "internalType": "uint256",
          "name": "_indexOfBid",
          "type": "uint256"
        }
      ],
      "name": "acceptBid",
      "outputs": [],
      "stateMutability": "nonpayable",
      "type": "function"
    },
    {
      "inputs": [
        {
          "internalType": "address",
          "name": "_contract",
          "type": "address"
        },
        {
          "internalType": "uint256",
          "name": "_tokenId",
          "type": "uint256"
        },
        {
          "internalType": "address",
          "name": "_receiver",
          "type": "address"
        },
        {
          "internalType": "uint256",
          "name": "_index",
          "type": "uint256"
        }
      ],
      "name": "cancelBid",
      "outputs": [],
      "stateMutability": "nonpayable",
      "type": "function"
    },
    {
      "inputs": [
        {
          "internalType": "address",
          "name": "_contract",
          "type": "address"
        },
        {
          "internalType": "uint256",
          "name": "_tokenId",
          "type": "uint256"
        },
        {
          "internalType": "uint256",
          "name": "_price",
          "type": "uint256"
        }
      ],
      "name": "listToSell",
      "outputs": [],
      "stateMutability": "nonpayable",
      "type": "function"
    },
    {
      "inputs": [
        {
          "internalType": "address",
          "name": "_sellerAddress",
          "type": "address"
        },
        {
          "internalType": "uint256",
          "name": "_indexLinsting",
          "type": "uint256"
        }
      ],
      "name": "buyListing",
      "outputs": [],
      "stateMutability": "nonpayable",
      "type": "function"
    },
    {
      "inputs": [
        {
          "internalType": "uint256",
          "name": "_index",
          "type": "uint256"
        }
      ],
      "name": "cancelListing",
      "outputs": [],
      "stateMutability": "nonpayable",
      "type": "function"
    },
    {
      "inputs": [
        {
          "internalType": "address",
          "name": "_collection",
          "type": "address"
        }
      ],
      "name": "addCollectionManually",
      "outputs": [],
      "stateMutability": "nonpayable",
      "type": "function"
    },
    {
      "inputs": [
        {
          "internalType": "string",
          "name": "_collectionName",
          "type": "string"
        },
        {
          "internalType": "string",
          "name": "_collectionSymbol",
          "type": "string"
        },
        {
          "internalType": "string",
          "name": "_collectionBaseURI",
          "type": "string"
        },
        {
          "internalType": "uint8",
          "name": "_limitByWallet",
          "type": "uint8"
        },
        {
          "internalType": "uint256",
          "name": "_collectionLimit",
          "type": "uint256"
        },
        {
          "internalType": "uint256",
          "name": "_launchpadTime",
          "type": "uint256"
        },
        {
          "internalType": "bool",
          "name": "_isAbleChangeMaxLimitCollection",
          "type": "bool"
        },
        {
          "internalType": "uint256",
          "name": "_price",
          "type": "uint256"
        },
        {
          "internalType": "address[]",
          "name": "_payees",
          "type": "address[]"
        },
        {
          "internalType": "uint256[]",
          "name": "_shares_",
          "type": "uint256[]"
        },
        {
          "internalType": "uint96",
          "name": "_percentInBips",
          "type": "uint96"
        }
      ],
      "name": "deployCollection",
      "outputs": [],
      "stateMutability": "payable",
      "type": "function"
    }
  ],
  "bytecode": "0x608060405273d423dcbd697164e282717009044312fdbc6c04f0600260006101000a81548173ffffffffffffffffffffffffffffffffffffffff021916908373ffffffffffffffffffffffffffffffffffffffff16021790555073752b58fc75a746470ae398bed781a4a7825dd3b0600360006101000a81548173ffffffffffffffffffffffffffffffffffffffff021916908373ffffffffffffffffffffffffffffffffffffffff1602179055507307865c6e87b9f70255377e024ace6630c1eaa37f600460006101000a81548173ffffffffffffffffffffffffffffffffffffffff021916908373ffffffffffffffffffffffffffffffffffffffff160217905550600460009054906101000a900473ffffffffffffffffffffffffffffffffffffffff16600560006101000a81548173ffffffffffffffffffffffffffffffffffffffff021916908373ffffffffffffffffffffffffffffffffffffffff160217905550620001866200017a6200039860201b60201c565b620003a060201b60201c565b6001808190555060006040518060400160405280600181526020017f6100000000000000000000000000000000000000000000000000000000000000815250905060006040518060400160405280600181526020017f6100000000000000000000000000000000000000000000000000000000000000815250905060006040518060400160405280600181526020017f610000000000000000000000000000000000000000000000000000000000000081525090506000600167ffffffffffffffff8111156200025b576200025a620008a6565b5b6040519080825280602002602001820160405280156200028a5781602001602082028036833780820191505090505b5090506000600167ffffffffffffffff811115620002ad57620002ac620008a6565b5b604051908082528060200260200182016040528015620002dc5781602001602082028036833780820191505090505b50905073d423dcbd697164e282717009044312fdbc6c04f0826000815181106200030b576200030a620008d5565b5b602002602001019073ffffffffffffffffffffffffffffffffffffffff16908173ffffffffffffffffffffffffffffffffffffffff16815250506001816000815181106200035e576200035d620008d5565b5b6020026020010181815250506200038d8585856000600a60006001620f42408a8a60fa6200046460201b60201c565b505050505062000f46565b600033905090565b60008060009054906101000a900473ffffffffffffffffffffffffffffffffffffffff169050816000806101000a81548173ffffffffffffffffffffffffffffffffffffffff021916908373ffffffffffffffffffffffffffffffffffffffff1602179055508173ffffffffffffffffffffffffffffffffffffffff168173ffffffffffffffffffffffffffffffffffffffff167f8be0079c531659141344cd1fd0a4f28419497f9722a3daafe3b4186f6b6457e060405160405180910390a35050565b600073ffffffffffffffffffffffffffffffffffffffff16600360009054906101000a900473ffffffffffffffffffffffffffffffffffffffff1673ffffffffffffffffffffffffffffffffffffffff1603620004f8576040517f08c379a0000000000000000000000000000000000000000000000000000000008152600401620004ef9062000965565b60405180910390fd5b60011515600a60003373ffffffffffffffffffffffffffffffffffffffff1673ffffffffffffffffffffffffffffffffffffffff16815260200190815260200160002060009054906101000a900460ff1615151480620005a55750600260009054906101000a900473ffffffffffffffffffffffffffffffffffffffff1673ffffffffffffffffffffffffffffffffffffffff163373ffffffffffffffffffffffffffffffffffffffff16145b620005e7576040517f08c379a0000000000000000000000000000000000000000000000000000000008152600401620005de90620009fd565b60405180910390fd5b600060405180606001604052808d81526020018c81526020018b8152509050600060405180608001604052808b60ff1681526020018a8152602001898152602001878152509050600087905060008490506000600360009054906101000a900473ffffffffffffffffffffffffffffffffffffffff1673ffffffffffffffffffffffffffffffffffffffff1663794c32e389896040518363ffffffff1660e01b81526004016200069992919062000bf9565b6020604051808303816000875af1158015620006b9573d6000803e3d6000fd5b505050506040513d601f19601f82011682018060405250810190620006df919062000c6a565b90506000600360009054906101000a900473ffffffffffffffffffffffffffffffffffffffff1673ffffffffffffffffffffffffffffffffffffffff1663720a236387878787876040518663ffffffff1660e01b81526004016200074895949392919062000ee1565b6020604051808303816000875af115801562000768573d6000803e3d6000fd5b505050506040513d601f19601f820116820180604052508101906200078e919062000c6a565b9050600760003373ffffffffffffffffffffffffffffffffffffffff1673ffffffffffffffffffffffffffffffffffffffff168152602001908152602001600020819080600181540180825580915050600190039060005260206000200160009091909190916101000a81548173ffffffffffffffffffffffffffffffffffffffff021916908373ffffffffffffffffffffffffffffffffffffffff1602179055506006819080600181540180825580915050600190039060005260206000200160009091909190916101000a81548173ffffffffffffffffffffffffffffffffffffffff021916908373ffffffffffffffffffffffffffffffffffffffff1602179055505050505050505050505050505050505050565b7f4e487b7100000000000000000000000000000000000000000000000000000000600052604160045260246000fd5b7f4e487b7100000000000000000000000000000000000000000000000000000000600052603260045260246000fd5b600082825260208201905092915050565b7f506c6561736520736574206120666163746f7279206164647265737320210000600082015250565b60006200094d601e8362000904565b91506200095a8262000915565b602082019050919050565b6000602082019050818103600083015262000980816200093e565b9050919050565b7f4465706c6f7920697320616c6c6f77656420666f72206174686c657465206f7260008201527f20536f66616e2c20706c65617365207265616368206f7572207465616d202100602082015250565b6000620009e5603f8362000904565b9150620009f28262000987565b604082019050919050565b6000602082019050818103600083015262000a1881620009d6565b9050919050565b600081519050919050565b600082825260208201905092915050565b6000819050602082019050919050565b600073ffffffffffffffffffffffffffffffffffffffff82169050919050565b600062000a788262000a4b565b9050919050565b62000a8a8162000a6b565b82525050565b600062000a9e838362000a7f565b60208301905092915050565b6000602082019050919050565b600062000ac48262000a1f565b62000ad0818562000a2a565b935062000add8362000a3b565b8060005b8381101562000b1457815162000af8888262000a90565b975062000b058362000aaa565b92505060018101905062000ae1565b5085935050505092915050565b600081519050919050565b600082825260208201905092915050565b6000819050602082019050919050565b6000819050919050565b62000b628162000b4d565b82525050565b600062000b76838362000b57565b60208301905092915050565b6000602082019050919050565b600062000b9c8262000b21565b62000ba8818562000b2c565b935062000bb58362000b3d565b8060005b8381101562000bec57815162000bd0888262000b68565b975062000bdd8362000b82565b92505060018101905062000bb9565b5085935050505092915050565b6000604082019050818103600083015262000c15818562000ab7565b9050818103602083015262000c2b818462000b8f565b90509392505050565b600080fd5b62000c448162000a6b565b811462000c5057600080fd5b50565b60008151905062000c648162000c39565b92915050565b60006020828403121562000c835762000c8262000c34565b5b600062000c938482850162000c53565b91505092915050565b600060039050919050565b600081905092915050565b6000819050919050565b600081519050919050565b600082825260208201905092915050565b60005b8381101562000cf857808201518184015260208101905062000cdb565b60008484015250505050565b6000601f19601f8301169050919050565b600062000d228262000cbc565b62000d2e818562000cc7565b935062000d4081856020860162000cd8565b62000d4b8162000d04565b840191505092915050565b600062000d64838362000d15565b905092915050565b6000602082019050919050565b600062000d868262000c9c565b62000d92818562000ca7565b93508360208202850162000da68562000cb2565b8060005b8581101562000de8578484038952815162000dc6858262000d56565b945062000dd38362000d6c565b925060208a0199505060018101905062000daa565b50829750879550505050505092915050565b600060049050919050565b600081905092915050565b6000819050919050565b6000602082019050919050565b62000e328162000dfa565b62000e3e818462000e05565b925062000e4b8262000e10565b8060005b8381101562000e8257815162000e66878262000b68565b965062000e738362000e1a565b92505060018101905062000e4f565b505050505050565b60008115159050919050565b62000ea18162000e8a565b82525050565b60006bffffffffffffffffffffffff82169050919050565b62000eca8162000ea7565b82525050565b62000edb8162000a6b565b82525050565b600061010082019050818103600083015262000efe818862000d79565b905062000f0f602083018762000e27565b62000f1e60a083018662000e96565b62000f2d60c083018562000ebf565b62000f3c60e083018462000ed0565b9695505050505050565b6163708062000f566000396000f3fe60806040526004361061014b5760003560e01c80636af15ce4116100b65780639e9f43fd1161006f5780639e9f43fd146104ac578063c5538243146104d5578063e13a40f0146104fe578063ea309a7d14610527578063f2fde38b14610564578063f8cacd2d1461058d5761014b565b80636af15ce414610399578063715018a6146103db57806377c2973f146103f257806383c17c551461042f57806385bf7c93146104585780638da5cb5b146104815761014b565b80633542db25116101085780633542db251461027557806338567fe21461029e5780633e413bee146102c75780634170f7dc146102f257806346cb40e51461033357806366200f41146103705761014b565b80630196020c14610150578063084af0b21461018d5780630c97fa64146101ca57806319ef6500146101f35780631c16493414610230578063305a67a81461024c575b600080fd5b34801561015c57600080fd5b5061017760048036038101906101729190614546565b6105b6565b604051610184919061458e565b60405180910390f35b34801561019957600080fd5b506101b460048036038101906101af9190614546565b6105d6565b6040516101c1919061475f565b60405180910390f35b3480156101d657600080fd5b506101f160048036038101906101ec91906147ad565b610871565b005b3480156101ff57600080fd5b5061021a600480360381019061021591906147ed565b6116dc565b6040516102279190614829565b60405180910390f35b61024a60048036038101906102459190614bbe565b61171b565b005b34801561025857600080fd5b50610273600480360381019061026e91906147ed565b611b4c565b005b34801561028157600080fd5b5061029c60048036038101906102979190614d3e565b611cb0565b005b3480156102aa57600080fd5b506102c560048036038101906102c09190614d91565b612006565b005b3480156102d357600080fd5b506102dc61246f565b6040516102e99190614e57565b60405180910390f35b3480156102fe57600080fd5b50610319600480360381019061031491906147ad565b612495565b60405161032a959493929190614e90565b60405180910390f35b34801561033f57600080fd5b5061035a60048036038101906103559190614ee3565b612535565b60405161036791906150a8565b60405180910390f35b34801561037c57600080fd5b5061039760048036038101906103929190614546565b612912565b005b3480156103a557600080fd5b506103c060048036038101906103bb91906150ca565b61295e565b6040516103d296959493929190615140565b60405180910390f35b3480156103e757600080fd5b506103f0612a3e565b005b3480156103fe57600080fd5b5061041960048036038101906104149190614546565b612a52565b6040516104269190615250565b60405180910390f35b34801561043b57600080fd5b5061045660048036038101906104519190614546565b612c28565b005b34801561046457600080fd5b5061047f600480360381019061047a9190615272565b612c74565b005b34801561048d57600080fd5b50610496612cd7565b6040516104a39190614829565b60405180910390f35b3480156104b857600080fd5b506104d360048036038101906104ce9190614546565b612d00565b005b3480156104e157600080fd5b506104fc60048036038101906104f79190614546565b612d6e565b005b34801561050a57600080fd5b5061052560048036038101906105209190614d3e565b612dba565b005b34801561053357600080fd5b5061054e600480360381019061054991906147ad565b613f67565b60405161055b9190614829565b60405180910390f35b34801561057057600080fd5b5061058b60048036038101906105869190614546565b613fb5565b005b34801561059957600080fd5b506105b460048036038101906105af91906152b2565b614038565b005b600a6020528060005260406000206000915054906101000a900460ff1681565b60606000600960008473ffffffffffffffffffffffffffffffffffffffff1673ffffffffffffffffffffffffffffffffffffffff1681526020019081526020016000208054905067ffffffffffffffff8111156106365761063561485f565b5b60405190808252806020026020018201604052801561066f57816020015b61065c6143dd565b8152602001906001900390816106545790505b50905060005b600960008573ffffffffffffffffffffffffffffffffffffffff1673ffffffffffffffffffffffffffffffffffffffff168152602001908152602001600020805490508163ffffffff16101561086757600960008573ffffffffffffffffffffffffffffffffffffffff1673ffffffffffffffffffffffffffffffffffffffff1681526020019081526020016000208163ffffffff168154811061071c5761071b615319565b5b90600052602060002090600402016040518060a00160405290816000820160009054906101000a900473ffffffffffffffffffffffffffffffffffffffff1673ffffffffffffffffffffffffffffffffffffffff1673ffffffffffffffffffffffffffffffffffffffff16815260200160018201548152602001600282015481526020016003820160009054906101000a900473ffffffffffffffffffffffffffffffffffffffff1673ffffffffffffffffffffffffffffffffffffffff1673ffffffffffffffffffffffffffffffffffffffff1681526020016003820160149054906101000a900460ff16600281111561081a576108196145fd565b5b600281111561082c5761082b6145fd565b5b81525050828263ffffffff168151811061084957610848615319565b5b6020026020010181905250808061085f90615387565b915050610675565b5080915050919050565b61087961423b565b3073ffffffffffffffffffffffffffffffffffffffff16600960008473ffffffffffffffffffffffffffffffffffffffff1673ffffffffffffffffffffffffffffffffffffffff16815260200190815260200160002082815481106108e1576108e0615319565b5b906000526020600020906004020160000160009054906101000a900473ffffffffffffffffffffffffffffffffffffffff1673ffffffffffffffffffffffffffffffffffffffff1663081812fc600960008673ffffffffffffffffffffffffffffffffffffffff1673ffffffffffffffffffffffffffffffffffffffff168152602001908152602001600020848154811061097f5761097e615319565b5b9060005260206000209060040201600101546040518263ffffffff1660e01b81526004016109ad91906153b3565b602060405180830381865afa1580156109ca573d6000803e3d6000fd5b505050506040513d601f19601f820116820180604052508101906109ee91906153e3565b73ffffffffffffffffffffffffffffffffffffffff1614610a44576040517f08c379a0000000000000000000000000000000000000000000000000000000008152600401610a3b90615493565b60405180910390fd5b600960008373ffffffffffffffffffffffffffffffffffffffff1673ffffffffffffffffffffffffffffffffffffffff1681526020019081526020016000208181548110610a9557610a94615319565b5b906000526020600020906004020160030160009054906101000a900473ffffffffffffffffffffffffffffffffffffffff1673ffffffffffffffffffffffffffffffffffffffff16600960008473ffffffffffffffffffffffffffffffffffffffff1673ffffffffffffffffffffffffffffffffffffffff1681526020019081526020016000208281548110610b2e57610b2d615319565b5b906000526020600020906004020160000160009054906101000a900473ffffffffffffffffffffffffffffffffffffffff1673ffffffffffffffffffffffffffffffffffffffff16636352211e600960008673ffffffffffffffffffffffffffffffffffffffff1673ffffffffffffffffffffffffffffffffffffffff1681526020019081526020016000208481548110610bcc57610bcb615319565b5b9060005260206000209060040201600101546040518263ffffffff1660e01b8152600401610bfa91906153b3565b602060405180830381865afa158015610c17573d6000803e3d6000fd5b505050506040513d601f19601f82011682018060405250810190610c3b91906153e3565b73ffffffffffffffffffffffffffffffffffffffff1614610c91576040517f08c379a0000000000000000000000000000000000000000000000000000000008152600401610c8890615525565b60405180910390fd5b60016002811115610ca557610ca46145fd565b5b600960008473ffffffffffffffffffffffffffffffffffffffff1673ffffffffffffffffffffffffffffffffffffffff1681526020019081526020016000208281548110610cf657610cf5615319565b5b906000526020600020906004020160030160149054906101000a900460ff166002811115610d2757610d266145fd565b5b14610d67576040517f08c379a0000000000000000000000000000000000000000000000000000000008152600401610d5e906155b7565b60405180910390fd5b600960008373ffffffffffffffffffffffffffffffffffffffff1673ffffffffffffffffffffffffffffffffffffffff1681526020019081526020016000208181548110610db857610db7615319565b5b906000526020600020906004020160020154600560009054906101000a900473ffffffffffffffffffffffffffffffffffffffff1673ffffffffffffffffffffffffffffffffffffffff1663dd62ed3e33306040518363ffffffff1660e01b8152600401610e279291906155d7565b602060405180830381865afa158015610e44573d6000803e3d6000fd5b505050506040513d601f19601f82011682018060405250810190610e689190615615565b1015610ea9576040517f08c379a0000000000000000000000000000000000000000000000000000000008152600401610ea09061568e565b60405180910390fd5b600960008373ffffffffffffffffffffffffffffffffffffffff1673ffffffffffffffffffffffffffffffffffffffff1681526020019081526020016000208181548110610efa57610ef9615319565b5b906000526020600020906004020160020154600560009054906101000a900473ffffffffffffffffffffffffffffffffffffffff1673ffffffffffffffffffffffffffffffffffffffff166370a08231336040518263ffffffff1660e01b8152600401610f679190614829565b602060405180830381865afa158015610f84573d6000803e3d6000fd5b505050506040513d601f19601f82011682018060405250810190610fa89190615615565b1015610fe9576040517f08c379a0000000000000000000000000000000000000000000000000000000008152600401610fe090615720565b60405180910390fd5b6000600960008473ffffffffffffffffffffffffffffffffffffffff1673ffffffffffffffffffffffffffffffffffffffff168152602001908152602001600020828154811061103c5761103b615319565b5b906000526020600020906004020160030160146101000a81548160ff0219169083600281111561106f5761106e6145fd565b5b0217905550600960008373ffffffffffffffffffffffffffffffffffffffff1673ffffffffffffffffffffffffffffffffffffffff16815260200190815260200160002081815481106110c5576110c4615319565b5b906000526020600020906004020160000160009054906101000a900473ffffffffffffffffffffffffffffffffffffffff1673ffffffffffffffffffffffffffffffffffffffff166323b872dd600960008573ffffffffffffffffffffffffffffffffffffffff1673ffffffffffffffffffffffffffffffffffffffff168152602001908152602001600020838154811061116357611162615319565b5b906000526020600020906004020160030160009054906101000a900473ffffffffffffffffffffffffffffffffffffffff1633600960008773ffffffffffffffffffffffffffffffffffffffff1673ffffffffffffffffffffffffffffffffffffffff16815260200190815260200160002085815481106111e7576111e6615319565b5b9060005260206000209060040201600101546040518463ffffffff1660e01b815260040161121793929190615740565b600060405180830381600087803b15801561123157600080fd5b505af1158015611245573d6000803e3d6000fd5b50505050600080600960008573ffffffffffffffffffffffffffffffffffffffff1673ffffffffffffffffffffffffffffffffffffffff168152602001908152602001600020838154811061129d5761129c615319565b5b906000526020600020906004020160000160009054906101000a900473ffffffffffffffffffffffffffffffffffffffff1673ffffffffffffffffffffffffffffffffffffffff16632a55205a600960008773ffffffffffffffffffffffffffffffffffffffff1673ffffffffffffffffffffffffffffffffffffffff168152602001908152602001600020858154811061133b5761133a615319565b5b906000526020600020906004020160010154600960008873ffffffffffffffffffffffffffffffffffffffff1673ffffffffffffffffffffffffffffffffffffffff168152602001908152602001600020868154811061139e5761139d615319565b5b9060005260206000209060040201600201546040518363ffffffff1660e01b81526004016113cd929190615777565b6040805180830381865afa1580156113e9573d6000803e3d6000fd5b505050506040513d601f19601f8201168201806040525081019061140d91906157a0565b915091506000600560009054906101000a900473ffffffffffffffffffffffffffffffffffffffff1673ffffffffffffffffffffffffffffffffffffffff166323b872dd3385856040518463ffffffff1660e01b815260040161147293929190615740565b6020604051808303816000875af1158015611491573d6000803e3d6000fd5b505050506040513d601f19601f820116820180604052508101906114b591906157f5565b9050806114f7576040517f08c379a00000000000000000000000000000000000000000000000000000000081526004016114ee9061586e565b60405180910390fd5b6000600560009054906101000a900473ffffffffffffffffffffffffffffffffffffffff1673ffffffffffffffffffffffffffffffffffffffff166323b872dd33600960008a73ffffffffffffffffffffffffffffffffffffffff1673ffffffffffffffffffffffffffffffffffffffff168152602001908152602001600020888154811061158957611588615319565b5b906000526020600020906004020160030160009054906101000a900473ffffffffffffffffffffffffffffffffffffffff1686600960008c73ffffffffffffffffffffffffffffffffffffffff1673ffffffffffffffffffffffffffffffffffffffff1681526020019081526020016000208a8154811061160d5761160c615319565b5b906000526020600020906004020160020154611629919061588e565b6040518463ffffffff1660e01b815260040161164793929190615740565b6020604051808303816000875af1158015611666573d6000803e3d6000fd5b505050506040513d601f19601f8201168201806040525081019061168a91906157f5565b9050806116cc576040517f08c379a00000000000000000000000000000000000000000000000000000000081526004016116c39061590e565b60405180910390fd5b505050506116d861428a565b5050565b600681815481106116ec57600080fd5b906000526020600020016000915054906101000a900473ffffffffffffffffffffffffffffffffffffffff1681565b600073ffffffffffffffffffffffffffffffffffffffff16600360009054906101000a900473ffffffffffffffffffffffffffffffffffffffff1673ffffffffffffffffffffffffffffffffffffffff16036117ac576040517f08c379a00000000000000000000000000000000000000000000000000000000081526004016117a39061597a565b60405180910390fd5b60011515600a60003373ffffffffffffffffffffffffffffffffffffffff1673ffffffffffffffffffffffffffffffffffffffff16815260200190815260200160002060009054906101000a900460ff16151514806118585750600260009054906101000a900473ffffffffffffffffffffffffffffffffffffffff1673ffffffffffffffffffffffffffffffffffffffff163373ffffffffffffffffffffffffffffffffffffffff16145b611897576040517f08c379a000000000000000000000000000000000000000000000000000000000815260040161188e90615a0c565b60405180910390fd5b600060405180606001604052808d81526020018c81526020018b8152509050600060405180608001604052808b60ff1681526020018a8152602001898152602001878152509050600087905060008490506000600360009054906101000a900473ffffffffffffffffffffffffffffffffffffffff1673ffffffffffffffffffffffffffffffffffffffff1663794c32e389896040518363ffffffff1660e01b8152600401611947929190615adb565b6020604051808303816000875af1158015611966573d6000803e3d6000fd5b505050506040513d601f19601f8201168201806040525081019061198a91906153e3565b90506000600360009054906101000a900473ffffffffffffffffffffffffffffffffffffffff1673ffffffffffffffffffffffffffffffffffffffff1663720a236387878787876040518663ffffffff1660e01b81526004016119f1959493929190615cda565b6020604051808303816000875af1158015611a10573d6000803e3d6000fd5b505050506040513d601f19601f82011682018060405250810190611a3491906153e3565b9050600760003373ffffffffffffffffffffffffffffffffffffffff1673ffffffffffffffffffffffffffffffffffffffff168152602001908152602001600020819080600181540180825580915050600190039060005260206000200160009091909190916101000a81548173ffffffffffffffffffffffffffffffffffffffff021916908373ffffffffffffffffffffffffffffffffffffffff1602179055506006819080600181540180825580915050600190039060005260206000200160009091909190916101000a81548173ffffffffffffffffffffffffffffffffffffffff021916908373ffffffffffffffffffffffffffffffffffffffff1602179055505050505050505050505050505050505050565b60016002811115611b6057611b5f6145fd565b5b600960003373ffffffffffffffffffffffffffffffffffffffff1673ffffffffffffffffffffffffffffffffffffffff1681526020019081526020016000208281548110611bb157611bb0615319565b5b906000526020600020906004020160030160149054906101000a900460ff166002811115611be257611be16145fd565b5b14611c22576040517f08c379a0000000000000000000000000000000000000000000000000000000008152600401611c19906155b7565b60405180910390fd5b6002600960003373ffffffffffffffffffffffffffffffffffffffff1673ffffffffffffffffffffffffffffffffffffffff1681526020019081526020016000208281548110611c7557611c74615319565b5b906000526020600020906004020160030160146101000a81548160ff02191690836002811115611ca857611ca76145fd565b5b021790555050565b611cb861423b565b8273ffffffffffffffffffffffffffffffffffffffff16636352211e836040518263ffffffff1660e01b8152600401611cf191906153b3565b602060405180830381865afa158015611d0e573d6000803e3d6000fd5b505050506040513d601f19601f82011682018060405250810190611d3291906153e3565b73ffffffffffffffffffffffffffffffffffffffff163373ffffffffffffffffffffffffffffffffffffffff1614611d9f576040517f08c379a0000000000000000000000000000000000000000000000000000000008152600401611d9690615d81565b60405180910390fd5b60008111611de2576040517f08c379a0000000000000000000000000000000000000000000000000000000008152600401611dd990615ded565b60405180910390fd5b60006040518060a001604052808573ffffffffffffffffffffffffffffffffffffffff1681526020018481526020018381526020013373ffffffffffffffffffffffffffffffffffffffff16815260200160016002811115611e4757611e466145fd565b5b8152509050600960003373ffffffffffffffffffffffffffffffffffffffff1673ffffffffffffffffffffffffffffffffffffffff16815260200190815260200160002081908060018154018082558091505060019003906000526020600020906004020160009091909190915060008201518160000160006101000a81548173ffffffffffffffffffffffffffffffffffffffff021916908373ffffffffffffffffffffffffffffffffffffffff160217905550602082015181600101556040820151816002015560608201518160030160006101000a81548173ffffffffffffffffffffffffffffffffffffffff021916908373ffffffffffffffffffffffffffffffffffffffff16021790555060808201518160030160146101000a81548160ff02191690836002811115611f8257611f816145fd565b5b021790555050508373ffffffffffffffffffffffffffffffffffffffff1663b9ce8b1c3085336040518463ffffffff1660e01b8152600401611fc693929190615e0d565b600060405180830381600087803b158015611fe057600080fd5b505af1158015611ff4573d6000803e3d6000fd5b505050505061200161428a565b505050565b60008211612049576040517f08c379a000000000000000000000000000000000000000000000000000000000815260040161204090615e90565b60405180910390fd5b81600560009054906101000a900473ffffffffffffffffffffffffffffffffffffffff1673ffffffffffffffffffffffffffffffffffffffff1663dd62ed3e33306040518363ffffffff1660e01b81526004016120a79291906155d7565b602060405180830381865afa1580156120c4573d6000803e3d6000fd5b505050506040513d601f19601f820116820180604052508101906120e89190615615565b1015612129576040517f08c379a000000000000000000000000000000000000000000000000000000000815260040161212090615f22565b60405180910390fd5b8373ffffffffffffffffffffffffffffffffffffffff16636352211e846040518263ffffffff1660e01b815260040161216291906153b3565b602060405180830381865afa15801561217f573d6000803e3d6000fd5b505050506040513d601f19601f820116820180604052508101906121a391906153e3565b73ffffffffffffffffffffffffffffffffffffffff168173ffffffffffffffffffffffffffffffffffffffff1614612210576040517f08c379a000000000000000000000000000000000000000000000000000000000815260040161220790615f8e565b60405180910390fd5b60006040518060c001604052808481526020018673ffffffffffffffffffffffffffffffffffffffff1681526020018581526020013373ffffffffffffffffffffffffffffffffffffffff16815260200160006002811115612275576122746145fd565b5b81526020018373ffffffffffffffffffffffffffffffffffffffff168152509050600860008373ffffffffffffffffffffffffffffffffffffffff1673ffffffffffffffffffffffffffffffffffffffff16815260200190815260200160002060008673ffffffffffffffffffffffffffffffffffffffff1673ffffffffffffffffffffffffffffffffffffffff16815260200190815260200160002060008581526020019081526020016000208190806001815401808255809150506001900390600052602060002090600502016000909190919091506000820151816000015560208201518160010160006101000a81548173ffffffffffffffffffffffffffffffffffffffff021916908373ffffffffffffffffffffffffffffffffffffffff1602179055506040820151816002015560608201518160030160006101000a81548173ffffffffffffffffffffffffffffffffffffffff021916908373ffffffffffffffffffffffffffffffffffffffff16021790555060808201518160030160146101000a81548160ff0219169083600281111561241a576124196145fd565b5b021790555060a08201518160040160006101000a81548173ffffffffffffffffffffffffffffffffffffffff021916908373ffffffffffffffffffffffffffffffffffffffff16021790555050505050505050565b600560009054906101000a900473ffffffffffffffffffffffffffffffffffffffff1681565b600960205281600052604060002081815481106124b157600080fd5b9060005260206000209060040201600091509150508060000160009054906101000a900473ffffffffffffffffffffffffffffffffffffffff16908060010154908060020154908060030160009054906101000a900473ffffffffffffffffffffffffffffffffffffffff16908060030160149054906101000a900460ff16905085565b60606000600860008673ffffffffffffffffffffffffffffffffffffffff1673ffffffffffffffffffffffffffffffffffffffff16815260200190815260200160002060008573ffffffffffffffffffffffffffffffffffffffff1673ffffffffffffffffffffffffffffffffffffffff16815260200190815260200160002060008481526020019081526020016000208054905067ffffffffffffffff8111156125e3576125e261485f565b5b60405190808252806020026020018201604052801561261c57816020015b61260961444a565b8152602001906001900390816126015790505b50905060005b600860008773ffffffffffffffffffffffffffffffffffffffff1673ffffffffffffffffffffffffffffffffffffffff16815260200190815260200160002060008673ffffffffffffffffffffffffffffffffffffffff1673ffffffffffffffffffffffffffffffffffffffff1681526020019081526020016000206000858152602001908152602001600020805490508163ffffffff16101561290657600860008773ffffffffffffffffffffffffffffffffffffffff1673ffffffffffffffffffffffffffffffffffffffff16815260200190815260200160002060008673ffffffffffffffffffffffffffffffffffffffff1673ffffffffffffffffffffffffffffffffffffffff16815260200190815260200160002060008581526020019081526020016000208163ffffffff168154811061276557612764615319565b5b90600052602060002090600502016040518060c0016040529081600082015481526020016001820160009054906101000a900473ffffffffffffffffffffffffffffffffffffffff1673ffffffffffffffffffffffffffffffffffffffff1673ffffffffffffffffffffffffffffffffffffffff168152602001600282015481526020016003820160009054906101000a900473ffffffffffffffffffffffffffffffffffffffff1673ffffffffffffffffffffffffffffffffffffffff1673ffffffffffffffffffffffffffffffffffffffff1681526020016003820160149054906101000a900460ff166002811115612863576128626145fd565b5b6002811115612875576128746145fd565b5b81526020016004820160009054906101000a900473ffffffffffffffffffffffffffffffffffffffff1673ffffffffffffffffffffffffffffffffffffffff1673ffffffffffffffffffffffffffffffffffffffff1681525050828263ffffffff16815181106128e8576128e7615319565b5b602002602001018190525080806128fe90615387565b915050612622565b50809150509392505050565b61291a614293565b80600260006101000a81548173ffffffffffffffffffffffffffffffffffffffff021916908373ffffffffffffffffffffffffffffffffffffffff16021790555050565b6008602052836000526040600020602052826000526040600020602052816000526040600020818154811061299257600080fd5b90600052602060002090600502016000935093505050508060000154908060010160009054906101000a900473ffffffffffffffffffffffffffffffffffffffff16908060020154908060030160009054906101000a900473ffffffffffffffffffffffffffffffffffffffff16908060030160149054906101000a900460ff16908060040160009054906101000a900473ffffffffffffffffffffffffffffffffffffffff16905086565b612a46614293565b612a506000614311565b565b60606000600760008473ffffffffffffffffffffffffffffffffffffffff1673ffffffffffffffffffffffffffffffffffffffff1681526020019081526020016000208054905067ffffffffffffffff811115612ab257612ab161485f565b5b604051908082528060200260200182016040528015612ae05781602001602082028036833780820191505090505b50905060005b600760008573ffffffffffffffffffffffffffffffffffffffff1673ffffffffffffffffffffffffffffffffffffffff168152602001908152602001600020805490508163ffffffff161015612c1e57600760008573ffffffffffffffffffffffffffffffffffffffff1673ffffffffffffffffffffffffffffffffffffffff1681526020019081526020016000208163ffffffff1681548110612b8d57612b8c615319565b5b9060005260206000200160009054906101000a900473ffffffffffffffffffffffffffffffffffffffff16828263ffffffff1681518110612bd157612bd0615319565b5b602002602001019073ffffffffffffffffffffffffffffffffffffffff16908173ffffffffffffffffffffffffffffffffffffffff16815250508080612c1690615387565b915050612ae6565b5080915050919050565b612c30614293565b80600360006101000a81548173ffffffffffffffffffffffffffffffffffffffff021916908373ffffffffffffffffffffffffffffffffffffffff16021790555050565b612c7c614293565b80600a60008473ffffffffffffffffffffffffffffffffffffffff1673ffffffffffffffffffffffffffffffffffffffff16815260200190815260200160002060006101000a81548160ff0219169083151502179055505050565b60008060009054906101000a900473ffffffffffffffffffffffffffffffffffffffff16905090565b612d08614293565b6006819080600181540180825580915050600190039060005260206000200160009091909190916101000a81548173ffffffffffffffffffffffffffffffffffffffff021916908373ffffffffffffffffffffffffffffffffffffffff16021790555050565b612d76614293565b80600460006101000a81548173ffffffffffffffffffffffffffffffffffffffff021916908373ffffffffffffffffffffffffffffffffffffffff16021790555050565b612dc261423b565b8273ffffffffffffffffffffffffffffffffffffffff16636352211e836040518263ffffffff1660e01b8152600401612dfb91906153b3565b602060405180830381865afa158015612e18573d6000803e3d6000fd5b505050506040513d601f19601f82011682018060405250810190612e3c91906153e3565b73ffffffffffffffffffffffffffffffffffffffff163373ffffffffffffffffffffffffffffffffffffffff1614612ea9576040517f08c379a0000000000000000000000000000000000000000000000000000000008152600401612ea090615d81565b60405180910390fd5b600860003373ffffffffffffffffffffffffffffffffffffffff1673ffffffffffffffffffffffffffffffffffffffff16815260200190815260200160002060008473ffffffffffffffffffffffffffffffffffffffff1673ffffffffffffffffffffffffffffffffffffffff16815260200190815260200160002060008381526020019081526020016000208181548110612f4857612f47615319565b5b906000526020600020906005020160040160009054906101000a900473ffffffffffffffffffffffffffffffffffffffff1673ffffffffffffffffffffffffffffffffffffffff163373ffffffffffffffffffffffffffffffffffffffff1614612fe7576040517f08c379a0000000000000000000000000000000000000000000000000000000008152600401612fde90615ffa565b60405180910390fd5b60006002811115612ffb57612ffa6145fd565b5b600860003373ffffffffffffffffffffffffffffffffffffffff1673ffffffffffffffffffffffffffffffffffffffff16815260200190815260200160002060008573ffffffffffffffffffffffffffffffffffffffff1673ffffffffffffffffffffffffffffffffffffffff1681526020019081526020016000206000848152602001908152602001600020828154811061309a57613099615319565b5b906000526020600020906005020160030160149054906101000a900460ff1660028111156130cb576130ca6145fd565b5b1461310b576040517f08c379a00000000000000000000000000000000000000000000000000000000081526004016131029061608c565b60405180910390fd5b600860003373ffffffffffffffffffffffffffffffffffffffff1673ffffffffffffffffffffffffffffffffffffffff16815260200190815260200160002060008473ffffffffffffffffffffffffffffffffffffffff1673ffffffffffffffffffffffffffffffffffffffff168152602001908152602001600020600083815260200190815260200160002081815481106131aa576131a9615319565b5b906000526020600020906005020160000154600560009054906101000a900473ffffffffffffffffffffffffffffffffffffffff1673ffffffffffffffffffffffffffffffffffffffff1663dd62ed3e600860003373ffffffffffffffffffffffffffffffffffffffff1673ffffffffffffffffffffffffffffffffffffffff16815260200190815260200160002060008773ffffffffffffffffffffffffffffffffffffffff1673ffffffffffffffffffffffffffffffffffffffff1681526020019081526020016000206000868152602001908152602001600020848154811061329957613298615319565b5b906000526020600020906005020160030160009054906101000a900473ffffffffffffffffffffffffffffffffffffffff16306040518363ffffffff1660e01b81526004016132e99291906155d7565b602060405180830381865afa158015613306573d6000803e3d6000fd5b505050506040513d601f19601f8201168201806040525081019061332a9190615615565b101561336b576040517f08c379a00000000000000000000000000000000000000000000000000000000081526004016133629061611e565b60405180910390fd5b600860003373ffffffffffffffffffffffffffffffffffffffff1673ffffffffffffffffffffffffffffffffffffffff16815260200190815260200160002060008473ffffffffffffffffffffffffffffffffffffffff1673ffffffffffffffffffffffffffffffffffffffff1681526020019081526020016000206000838152602001908152602001600020818154811061340a57613409615319565b5b906000526020600020906005020160000154600560009054906101000a900473ffffffffffffffffffffffffffffffffffffffff1673ffffffffffffffffffffffffffffffffffffffff166370a08231600860003373ffffffffffffffffffffffffffffffffffffffff1673ffffffffffffffffffffffffffffffffffffffff16815260200190815260200160002060008773ffffffffffffffffffffffffffffffffffffffff1673ffffffffffffffffffffffffffffffffffffffff168152602001908152602001600020600086815260200190815260200160002084815481106134f9576134f8615319565b5b906000526020600020906005020160030160009054906101000a900473ffffffffffffffffffffffffffffffffffffffff166040518263ffffffff1660e01b81526004016135479190614829565b602060405180830381865afa158015613564573d6000803e3d6000fd5b505050506040513d601f19601f820116820180604052508101906135889190615615565b10156135c9576040517f08c379a00000000000000000000000000000000000000000000000000000000081526004016135c0906161b0565b60405180910390fd5b60005b600860003373ffffffffffffffffffffffffffffffffffffffff1673ffffffffffffffffffffffffffffffffffffffff16815260200190815260200160002060008573ffffffffffffffffffffffffffffffffffffffff1673ffffffffffffffffffffffffffffffffffffffff1681526020019081526020016000206000848152602001908152602001600020805490508163ffffffff16101561384e57818163ffffffff160361375b576001600860003373ffffffffffffffffffffffffffffffffffffffff1673ffffffffffffffffffffffffffffffffffffffff16815260200190815260200160002060008673ffffffffffffffffffffffffffffffffffffffff1673ffffffffffffffffffffffffffffffffffffffff16815260200190815260200160002060008581526020019081526020016000208263ffffffff168154811061371e5761371d615319565b5b906000526020600020906005020160030160146101000a81548160ff02191690836002811115613751576137506145fd565b5b021790555061383b565b6002600860003373ffffffffffffffffffffffffffffffffffffffff1673ffffffffffffffffffffffffffffffffffffffff16815260200190815260200160002060008673ffffffffffffffffffffffffffffffffffffffff1673ffffffffffffffffffffffffffffffffffffffff16815260200190815260200160002060008581526020019081526020016000208263ffffffff168154811061380257613801615319565b5b906000526020600020906005020160030160146101000a81548160ff02191690836002811115613835576138346145fd565b5b02179055505b808061384690615387565b9150506135cc565b508273ffffffffffffffffffffffffffffffffffffffff1663b9ce8b1c3084336040518463ffffffff1660e01b815260040161388c93929190615e0d565b600060405180830381600087803b1580156138a657600080fd5b505af11580156138ba573d6000803e3d6000fd5b505050508273ffffffffffffffffffffffffffffffffffffffff166323b872dd33600860003373ffffffffffffffffffffffffffffffffffffffff1673ffffffffffffffffffffffffffffffffffffffff16815260200190815260200160002060008773ffffffffffffffffffffffffffffffffffffffff1673ffffffffffffffffffffffffffffffffffffffff1681526020019081526020016000206000868152602001908152602001600020848154811061397a57613979615319565b5b906000526020600020906005020160030160009054906101000a900473ffffffffffffffffffffffffffffffffffffffff16856040518463ffffffff1660e01b81526004016139cb93929190615740565b600060405180830381600087803b1580156139e557600080fd5b505af11580156139f9573d6000803e3d6000fd5b505050506000808473ffffffffffffffffffffffffffffffffffffffff16632a55205a85600860003373ffffffffffffffffffffffffffffffffffffffff1673ffffffffffffffffffffffffffffffffffffffff16815260200190815260200160002060008973ffffffffffffffffffffffffffffffffffffffff1673ffffffffffffffffffffffffffffffffffffffff16815260200190815260200160002060008881526020019081526020016000208681548110613abc57613abb615319565b5b9060005260206000209060050201600001546040518363ffffffff1660e01b8152600401613aeb929190615777565b6040805180830381865afa158015613b07573d6000803e3d6000fd5b505050506040513d601f19601f82011682018060405250810190613b2b91906157a0565b915091506000600560009054906101000a900473ffffffffffffffffffffffffffffffffffffffff1673ffffffffffffffffffffffffffffffffffffffff166323b872dd600860003373ffffffffffffffffffffffffffffffffffffffff1673ffffffffffffffffffffffffffffffffffffffff16815260200190815260200160002060008973ffffffffffffffffffffffffffffffffffffffff1673ffffffffffffffffffffffffffffffffffffffff16815260200190815260200160002060008881526020019081526020016000208681548110613c0e57613c0d615319565b5b906000526020600020906005020160030160009054906101000a900473ffffffffffffffffffffffffffffffffffffffff1685856040518463ffffffff1660e01b8152600401613c6093929190615740565b6020604051808303816000875af1158015613c7f573d6000803e3d6000fd5b505050506040513d601f19601f82011682018060405250810190613ca391906157f5565b905080613ce5576040517f08c379a0000000000000000000000000000000000000000000000000000000008152600401613cdc9061586e565b60405180910390fd5b6000600560009054906101000a900473ffffffffffffffffffffffffffffffffffffffff1673ffffffffffffffffffffffffffffffffffffffff166323b872dd600860003373ffffffffffffffffffffffffffffffffffffffff1673ffffffffffffffffffffffffffffffffffffffff16815260200190815260200160002060008a73ffffffffffffffffffffffffffffffffffffffff1673ffffffffffffffffffffffffffffffffffffffff16815260200190815260200160002060008981526020019081526020016000208781548110613dc457613dc3615319565b5b906000526020600020906005020160030160009054906101000a900473ffffffffffffffffffffffffffffffffffffffff163386600860003373ffffffffffffffffffffffffffffffffffffffff1673ffffffffffffffffffffffffffffffffffffffff16815260200190815260200160002060008d73ffffffffffffffffffffffffffffffffffffffff1673ffffffffffffffffffffffffffffffffffffffff16815260200190815260200160002060008c81526020019081526020016000208a81548110613e9757613e96615319565b5b906000526020600020906005020160000154613eb3919061588e565b6040518463ffffffff1660e01b8152600401613ed193929190615740565b6020604051808303816000875af1158015613ef0573d6000803e3d6000fd5b505050506040513d601f19601f82011682018060405250810190613f1491906157f5565b905080613f56576040517f08c379a0000000000000000000000000000000000000000000000000000000008152600401613f4d9061586e565b60405180910390fd5b50505050613f6261428a565b505050565b60076020528160005260406000208181548110613f8357600080fd5b906000526020600020016000915091509054906101000a900473ffffffffffffffffffffffffffffffffffffffff1681565b613fbd614293565b600073ffffffffffffffffffffffffffffffffffffffff168173ffffffffffffffffffffffffffffffffffffffff160361402c576040517f08c379a000000000000000000000000000000000000000000000000000000000815260040161402390616242565b60405180910390fd5b61403581614311565b50565b6000600281111561404c5761404b6145fd565b5b600860008473ffffffffffffffffffffffffffffffffffffffff1673ffffffffffffffffffffffffffffffffffffffff16815260200190815260200160002060008673ffffffffffffffffffffffffffffffffffffffff1673ffffffffffffffffffffffffffffffffffffffff168152602001908152602001600020600085815260200190815260200160002082815481106140eb576140ea615319565b5b906000526020600020906005020160030160149054906101000a900460ff16600281111561411c5761411b6145fd565b5b1461415c576040517f08c379a00000000000000000000000000000000000000000000000000000000081526004016141539061608c565b60405180910390fd5b6002600860008473ffffffffffffffffffffffffffffffffffffffff1673ffffffffffffffffffffffffffffffffffffffff16815260200190815260200160002060008673ffffffffffffffffffffffffffffffffffffffff1673ffffffffffffffffffffffffffffffffffffffff168152602001908152602001600020600085815260200190815260200160002082815481106141fd576141fc615319565b5b906000526020600020906005020160030160146101000a81548160ff021916908360028111156142305761422f6145fd565b5b021790555050505050565b600260015403614280576040517f08c379a0000000000000000000000000000000000000000000000000000000008152600401614277906162ae565b60405180910390fd5b6002600181905550565b60018081905550565b61429b6143d5565b73ffffffffffffffffffffffffffffffffffffffff166142b9612cd7565b73ffffffffffffffffffffffffffffffffffffffff161461430f576040517f08c379a00000000000000000000000000000000000000000000000000000000081526004016143069061631a565b60405180910390fd5b565b60008060009054906101000a900473ffffffffffffffffffffffffffffffffffffffff169050816000806101000a81548173ffffffffffffffffffffffffffffffffffffffff021916908373ffffffffffffffffffffffffffffffffffffffff1602179055508173ffffffffffffffffffffffffffffffffffffffff168173ffffffffffffffffffffffffffffffffffffffff167f8be0079c531659141344cd1fd0a4f28419497f9722a3daafe3b4186f6b6457e060405160405180910390a35050565b600033905090565b6040518060a00160405280600073ffffffffffffffffffffffffffffffffffffffff1681526020016000815260200160008152602001600073ffffffffffffffffffffffffffffffffffffffff16815260200160006002811115614444576144436145fd565b5b81525090565b6040518060c0016040528060008152602001600073ffffffffffffffffffffffffffffffffffffffff16815260200160008152602001600073ffffffffffffffffffffffffffffffffffffffff168152602001600060028111156144b1576144b06145fd565b5b8152602001600073ffffffffffffffffffffffffffffffffffffffff1681525090565b6000604051905090565b600080fd5b600080fd5b600073ffffffffffffffffffffffffffffffffffffffff82169050919050565b6000614513826144e8565b9050919050565b61452381614508565b811461452e57600080fd5b50565b6000813590506145408161451a565b92915050565b60006020828403121561455c5761455b6144de565b5b600061456a84828501614531565b91505092915050565b60008115159050919050565b61458881614573565b82525050565b60006020820190506145a3600083018461457f565b92915050565b600081519050919050565b600082825260208201905092915050565b6000819050602082019050919050565b6145de81614508565b82525050565b6000819050919050565b6145f7816145e4565b82525050565b7f4e487b7100000000000000000000000000000000000000000000000000000000600052602160045260246000fd5b6003811061463d5761463c6145fd565b5b50565b600081905061464e8261462c565b919050565b600061465e82614640565b9050919050565b61466e81614653565b82525050565b60a08201600082015161468a60008501826145d5565b50602082015161469d60208501826145ee565b5060408201516146b060408501826145ee565b5060608201516146c360608501826145d5565b5060808201516146d66080850182614665565b50505050565b60006146e88383614674565b60a08301905092915050565b6000602082019050919050565b600061470c826145a9565b61471681856145b4565b9350614721836145c5565b8060005b8381101561475257815161473988826146dc565b9750614744836146f4565b925050600181019050614725565b5085935050505092915050565b600060208201905081810360008301526147798184614701565b905092915050565b61478a816145e4565b811461479557600080fd5b50565b6000813590506147a781614781565b92915050565b600080604083850312156147c4576147c36144de565b5b60006147d285828601614531565b92505060206147e385828601614798565b9150509250929050565b600060208284031215614803576148026144de565b5b600061481184828501614798565b91505092915050565b61482381614508565b82525050565b600060208201905061483e600083018461481a565b92915050565b600080fd5b600080fd5b6000601f19601f8301169050919050565b7f4e487b7100000000000000000000000000000000000000000000000000000000600052604160045260246000fd5b6148978261484e565b810181811067ffffffffffffffff821117156148b6576148b561485f565b5b80604052505050565b60006148c96144d4565b90506148d5828261488e565b919050565b600067ffffffffffffffff8211156148f5576148f461485f565b5b6148fe8261484e565b9050602081019050919050565b82818337600083830152505050565b600061492d614928846148da565b6148bf565b90508281526020810184848401111561494957614948614849565b5b61495484828561490b565b509392505050565b600082601f83011261497157614970614844565b5b813561498184826020860161491a565b91505092915050565b600060ff82169050919050565b6149a08161498a565b81146149ab57600080fd5b50565b6000813590506149bd81614997565b92915050565b6149cc81614573565b81146149d757600080fd5b50565b6000813590506149e9816149c3565b92915050565b600067ffffffffffffffff821115614a0a57614a0961485f565b5b602082029050602081019050919050565b600080fd5b6000614a33614a2e846149ef565b6148bf565b90508083825260208201905060208402830185811115614a5657614a55614a1b565b5b835b81811015614a7f5780614a6b8882614531565b845260208401935050602081019050614a58565b5050509392505050565b600082601f830112614a9e57614a9d614844565b5b8135614aae848260208601614a20565b91505092915050565b600067ffffffffffffffff821115614ad257614ad161485f565b5b602082029050602081019050919050565b6000614af6614af184614ab7565b6148bf565b90508083825260208201905060208402830185811115614b1957614b18614a1b565b5b835b81811015614b425780614b2e8882614798565b845260208401935050602081019050614b1b565b5050509392505050565b600082601f830112614b6157614b60614844565b5b8135614b71848260208601614ae3565b91505092915050565b60006bffffffffffffffffffffffff82169050919050565b614b9b81614b7a565b8114614ba657600080fd5b50565b600081359050614bb881614b92565b92915050565b60008060008060008060008060008060006101608c8e031215614be457614be36144de565b5b60008c013567ffffffffffffffff811115614c0257614c016144e3565b5b614c0e8e828f0161495c565b9b505060208c013567ffffffffffffffff811115614c2f57614c2e6144e3565b5b614c3b8e828f0161495c565b9a505060408c013567ffffffffffffffff811115614c5c57614c5b6144e3565b5b614c688e828f0161495c565b9950506060614c798e828f016149ae565b9850506080614c8a8e828f01614798565b97505060a0614c9b8e828f01614798565b96505060c0614cac8e828f016149da565b95505060e0614cbd8e828f01614798565b9450506101008c013567ffffffffffffffff811115614cdf57614cde6144e3565b5b614ceb8e828f01614a89565b9350506101208c013567ffffffffffffffff811115614d0d57614d0c6144e3565b5b614d198e828f01614b4c565b925050610140614d2b8e828f01614ba9565b9150509295989b509295989b9093969950565b600080600060608486031215614d5757614d566144de565b5b6000614d6586828701614531565b9350506020614d7686828701614798565b9250506040614d8786828701614798565b9150509250925092565b60008060008060808587031215614dab57614daa6144de565b5b6000614db987828801614531565b9450506020614dca87828801614798565b9350506040614ddb87828801614798565b9250506060614dec87828801614531565b91505092959194509250565b6000819050919050565b6000614e1d614e18614e13846144e8565b614df8565b6144e8565b9050919050565b6000614e2f82614e02565b9050919050565b6000614e4182614e24565b9050919050565b614e5181614e36565b82525050565b6000602082019050614e6c6000830184614e48565b92915050565b614e7b816145e4565b82525050565b614e8a81614653565b82525050565b600060a082019050614ea5600083018861481a565b614eb26020830187614e72565b614ebf6040830186614e72565b614ecc606083018561481a565b614ed96080830184614e81565b9695505050505050565b600080600060608486031215614efc57614efb6144de565b5b6000614f0a86828701614531565b9350506020614f1b86828701614531565b9250506040614f2c86828701614798565b9150509250925092565b600081519050919050565b600082825260208201905092915050565b6000819050602082019050919050565b60038110614f7357614f726145fd565b5b50565b6000819050614f8482614f62565b919050565b6000614f9482614f76565b9050919050565b614fa481614f89565b82525050565b60c082016000820151614fc060008501826145ee565b506020820151614fd360208501826145d5565b506040820151614fe660408501826145ee565b506060820151614ff960608501826145d5565b50608082015161500c6080850182614f9b565b5060a082015161501f60a08501826145d5565b50505050565b60006150318383614faa565b60c08301905092915050565b6000602082019050919050565b600061505582614f36565b61505f8185614f41565b935061506a83614f52565b8060005b8381101561509b5781516150828882615025565b975061508d8361503d565b92505060018101905061506e565b5085935050505092915050565b600060208201905081810360008301526150c2818461504a565b905092915050565b600080600080608085870312156150e4576150e36144de565b5b60006150f287828801614531565b945050602061510387828801614531565b935050604061511487828801614798565b925050606061512587828801614798565b91505092959194509250565b61513a81614f89565b82525050565b600060c0820190506151556000830189614e72565b615162602083018861481a565b61516f6040830187614e72565b61517c606083018661481a565b6151896080830185615131565b61519660a083018461481a565b979650505050505050565b600081519050919050565b600082825260208201905092915050565b6000819050602082019050919050565b60006151d983836145d5565b60208301905092915050565b6000602082019050919050565b60006151fd826151a1565b61520781856151ac565b9350615212836151bd565b8060005b8381101561524357815161522a88826151cd565b9750615235836151e5565b925050600181019050615216565b5085935050505092915050565b6000602082019050818103600083015261526a81846151f2565b905092915050565b60008060408385031215615289576152886144de565b5b600061529785828601614531565b92505060206152a8858286016149da565b9150509250929050565b600080600080608085870312156152cc576152cb6144de565b5b60006152da87828801614531565b94505060206152eb87828801614798565b93505060406152fc87828801614531565b925050606061530d87828801614798565b91505092959194509250565b7f4e487b7100000000000000000000000000000000000000000000000000000000600052603260045260246000fd5b7f4e487b7100000000000000000000000000000000000000000000000000000000600052601160045260246000fd5b600063ffffffff82169050919050565b600061539282615377565b915063ffffffff82036153a8576153a7615348565b5b600182019050919050565b60006020820190506153c86000830184614e72565b92915050565b6000815190506153dd8161451a565b92915050565b6000602082840312156153f9576153f86144de565b5b6000615407848285016153ce565b91505092915050565b600082825260208201905092915050565b7f5468652073656c6c6572206e65656420746f20617070726f766520746865206d60008201527f61726b6574706c61636520210000000000000000000000000000000000000000602082015250565b600061547d602c83615410565b915061548882615421565b604082019050919050565b600060208201905081810360008301526154ac81615470565b9050919050565b7f5468652073656c6c6572206973206e6f742074686520746f6b656e206f776e6560008201527f7220210000000000000000000000000000000000000000000000000000000000602082015250565b600061550f602383615410565b915061551a826154b3565b604082019050919050565b6000602082019050818103600083015261553e81615502565b9050919050565b7f4c697374696e6720697320616c72656164792063616e63656c6564206f72207360008201527f656c6c6564000000000000000000000000000000000000000000000000000000602082015250565b60006155a1602583615410565b91506155ac82615545565b604082019050919050565b600060208201905081810360008301526155d081615594565b9050919050565b60006040820190506155ec600083018561481a565b6155f9602083018461481a565b9392505050565b60008151905061560f81614781565b92915050565b60006020828403121561562b5761562a6144de565b5b600061563984828501615600565b91505092915050565b7f596f7520646f6e277420616c6c6f7720656e6f75676874205553444320210000600082015250565b6000615678601e83615410565b915061568382615642565b602082019050919050565b600060208201905081810360008301526156a78161566b565b9050919050565b7f596f7520646f6e2774206861766520656e6f75676874205553444320696e207960008201527f6f75722062616c616e6365202100000000000000000000000000000000000000602082015250565b600061570a602d83615410565b9150615715826156ae565b604082019050919050565b60006020820190508181036000830152615739816156fd565b9050919050565b6000606082019050615755600083018661481a565b615762602083018561481a565b61576f6040830184614e72565b949350505050565b600060408201905061578c6000830185614e72565b6157996020830184614e72565b9392505050565b600080604083850312156157b7576157b66144de565b5b60006157c5858286016153ce565b92505060206157d685828601615600565b9150509250929050565b6000815190506157ef816149c3565b92915050565b60006020828403121561580b5761580a6144de565b5b6000615819848285016157e0565b91505092915050565b7f5472616e73616374696f6e20776173206e6f74207375636365737366756c0000600082015250565b6000615858601e83615410565b915061586382615822565b602082019050919050565b600060208201905081810360008301526158878161584b565b9050919050565b6000615899826145e4565b91506158a4836145e4565b92508282039050818111156158bc576158bb615348565b5b92915050565b7f5472616e736374696f6e20776173206e6f74207375636365737366756c000000600082015250565b60006158f8601d83615410565b9150615903826158c2565b602082019050919050565b60006020820190508181036000830152615927816158eb565b9050919050565b7f506c6561736520736574206120666163746f7279206164647265737320210000600082015250565b6000615964601e83615410565b915061596f8261592e565b602082019050919050565b6000602082019050818103600083015261599381615957565b9050919050565b7f4465706c6f7920697320616c6c6f77656420666f72206174686c657465206f7260008201527f20536f66616e2c20706c65617365207265616368206f7572207465616d202100602082015250565b60006159f6603f83615410565b9150615a018261599a565b604082019050919050565b60006020820190508181036000830152615a25816159e9565b9050919050565b600081519050919050565b600082825260208201905092915050565b6000819050602082019050919050565b6000615a6483836145ee565b60208301905092915050565b6000602082019050919050565b6000615a8882615a2c565b615a928185615a37565b9350615a9d83615a48565b8060005b83811015615ace578151615ab58882615a58565b9750615ac083615a70565b925050600181019050615aa1565b5085935050505092915050565b60006040820190508181036000830152615af581856151f2565b90508181036020830152615b098184615a7d565b90509392505050565b600060039050919050565b600081905092915050565b6000819050919050565b600081519050919050565b600082825260208201905092915050565b60005b83811015615b6c578082015181840152602081019050615b51565b60008484015250505050565b6000615b8382615b32565b615b8d8185615b3d565b9350615b9d818560208601615b4e565b615ba68161484e565b840191505092915050565b6000615bbd8383615b78565b905092915050565b6000602082019050919050565b6000615bdd82615b12565b615be78185615b1d565b935083602082028501615bf985615b28565b8060005b85811015615c355784840389528151615c168582615bb1565b9450615c2183615bc5565b925060208a01995050600181019050615bfd565b50829750879550505050505092915050565b600060049050919050565b600081905092915050565b6000819050919050565b6000602082019050919050565b615c7d81615c47565b615c878184615c52565b9250615c9282615c5d565b8060005b83811015615cc3578151615caa8782615a58565b9650615cb583615c67565b925050600181019050615c96565b505050505050565b615cd481614b7a565b82525050565b6000610100820190508181036000830152615cf58188615bd2565b9050615d046020830187615c74565b615d1160a083018661457f565b615d1e60c0830185615ccb565b615d2b60e083018461481a565b9695505050505050565b7f596f75277265206e6f7420746865206f776e6572202100000000000000000000600082015250565b6000615d6b601683615410565b9150615d7682615d35565b602082019050919050565b60006020820190508181036000830152615d9a81615d5e565b9050919050565b7f43616e6e6f74206c69737420666f722030202100000000000000000000000000600082015250565b6000615dd7601383615410565b9150615de282615da1565b602082019050919050565b60006020820190508181036000830152615e0681615dca565b9050919050565b6000606082019050615e22600083018661481a565b615e2f6020830185614e72565b615e3c604083018461481a565b949350505050565b7f43616e6e6f7420706c6163652061206269642061742030205553444320210000600082015250565b6000615e7a601e83615410565b9150615e8582615e44565b602082019050919050565b60006020820190508181036000830152615ea981615e6d565b9050919050565b7f506c65617365207472616e736665722074686520726967687420616d6f756e7460008201527f206f662055534443202100000000000000000000000000000000000000000000602082015250565b6000615f0c602a83615410565b9150615f1782615eb0565b604082019050919050565b60006020820190508181036000830152615f3b81615eff565b9050919050565b7f5265636569766572206973206e6f7420746865206f776e657220210000000000600082015250565b6000615f78601b83615410565b9150615f8382615f42565b602082019050919050565b60006020820190508181036000830152615fa781615f6b565b9050919050565b7f596f75277265206e6f7420746865207265636569766572202100000000000000600082015250565b6000615fe4601983615410565b9150615fef82615fae565b602082019050919050565b6000602082019050818103600083015261601381615fd7565b9050919050565b7f42696420697320616c7265616479206163636570746564206f7220726566757360008201527f6564000000000000000000000000000000000000000000000000000000000000602082015250565b6000616076602283615410565b91506160818261601a565b604082019050919050565b600060208201905081810360008301526160a581616069565b9050919050565b7f5468652073656e6465722063616e63656c65642074686520616c6c6f77616e6360008201527f65206f6620555344432021000000000000000000000000000000000000000000602082015250565b6000616108602b83615410565b9150616113826160ac565b604082019050919050565b60006020820190508181036000830152616137816160fb565b9050919050565b7f5468652073656e64657220646f65736e2774206861766520656e6f756768742060008201527f5553444300000000000000000000000000000000000000000000000000000000602082015250565b600061619a602483615410565b91506161a58261613e565b604082019050919050565b600060208201905081810360008301526161c98161618d565b9050919050565b7f4f776e61626c653a206e6577206f776e657220697320746865207a65726f206160008201527f6464726573730000000000000000000000000000000000000000000000000000602082015250565b600061622c602683615410565b9150616237826161d0565b604082019050919050565b6000602082019050818103600083015261625b8161621f565b9050919050565b7f5265656e7472616e637947756172643a207265656e7472616e742063616c6c00600082015250565b6000616298601f83615410565b91506162a382616262565b602082019050919050565b600060208201905081810360008301526162c78161628b565b9050919050565b7f4f776e61626c653a2063616c6c6572206973206e6f7420746865206f776e6572600082015250565b6000616304602083615410565b915061630f826162ce565b602082019050919050565b60006020820190508181036000830152616333816162f7565b905091905056fea2646970667358221220b706c11b4a3936cf7d6e275d848210bf1a398c3241e3dfee159e1ac819e6131c64736f6c63430008130033",
  "immutableReferences": {},
  "source": "// SPDX-License-Identifier: MIT\r\npragma solidity 0.8.19;\r\nimport \"./SofanFactory.sol\";\r\nimport \"./SofanNftTemplate.sol\";\r\nimport \"@openzeppelin/contracts/access/Ownable.sol\";\r\nimport \"@openzeppelin/contracts/security/ReentrancyGuard.sol\";\r\nimport \"./Proxy.sol\";\r\ncontract Sofan is Ownable, ReentrancyGuard {\r\n    address sofanMultiSig = 0xd423DCBd697164e282717009044312fDBC6C04f0;\r\n    address sofanFactory = 0x752B58Fc75A746470AE398beD781A4A7825dd3b0;\r\n    // 0x07865c6E87B9F70255377e024ace6630C1Eaa37F 0x98339D8C260052B7ad81c28c16C0b98420f2B46a\r\n    address usdcAddress = 0x07865c6E87B9F70255377e024ace6630C1Eaa37F;\r\n    IERC20 public usdc = IERC20(usdcAddress);\r\n    address[] public sofanCollection;\r\n    // address[] atheleteAddress;\r\n    enum BidStatus {waiting, accepted, refused}\r\n    enum ListingStatus {selled, Listed, canceled}\r\n    struct Bid {\r\n        uint256 price;\r\n        address contractAddress;\r\n        uint256 tokenId;\r\n        address sender;\r\n        BidStatus bidStatus;\r\n        address receiver;\r\n    }\r\n    struct Listing{\r\n        address contractAddress;\r\n        uint256 tokenId;\r\n        uint256 price;\r\n        address seller;\r\n        ListingStatus listingStauts;\r\n    }\r\n    mapping(address => address[]) public CollectionCreatedByWallet;\r\n    // Dtenteur => contrat => tokenId\r\n    mapping(address => mapping(address => mapping(uint256 => Bid[]))) public BidMapping;\r\n    mapping(address => Listing[]) public ListingMapping;\r\n    mapping(address => bool) public isAthlete;\r\n    \r\n    \r\n    function getCollectionCreatedByWallet(address _walletAddress) external view returns(address[] memory){\r\n        address[] memory temp = new address[](CollectionCreatedByWallet[_walletAddress].length);\r\n        for (uint32 i = 0; i < CollectionCreatedByWallet[_walletAddress].length; i++) \r\n        {\r\n            temp[i] = CollectionCreatedByWallet[_walletAddress][i];\r\n        }\r\n        return temp;\r\n    }\r\n\r\n    function getBid(address _receiver, address _contract, uint _tokenId) external view returns(Bid[] memory){\r\n        Bid[] memory temp = new Bid[](BidMapping[_receiver][_contract][_tokenId].length);\r\n        for (uint32 i = 0; i < BidMapping[_receiver][_contract][_tokenId].length; i++) \r\n        {\r\n            temp[i] = BidMapping[_receiver][_contract][_tokenId][i];\r\n        }\r\n        return temp;\r\n    }\r\n\r\n    function getListing(address _seller) external view returns(Listing[] memory){\r\n        Listing[] memory temp = new Listing[](ListingMapping[_seller].length);\r\n        for (uint32 i = 0; i < ListingMapping[_seller].length; i++) \r\n        {\r\n            temp[i] = ListingMapping[_seller][i];\r\n        }\r\n        return temp;\r\n    }\r\n\r\n    function setAthlete(address _athleteAddress, bool _permission) external onlyOwner {\r\n        isAthlete[_athleteAddress] = _permission;\r\n    }\r\n\r\n    function setFactoryAddress(address _newAddress) external onlyOwner {\r\n        sofanFactory = _newAddress;\r\n    }\r\n\r\n    function setSofanWallet(address _newSofanWallet) external onlyOwner {\r\n        sofanMultiSig = _newSofanWallet;\r\n    }\r\n\r\n    function SetUSDCAddress(address _newUSDCAddress) external onlyOwner {\r\n        usdcAddress = _newUSDCAddress;\r\n    }\r\n\r\n     function placeBid(\r\n        address _contract,\r\n        uint256 _tokenId,\r\n        uint256 _offerPrice,\r\n        address _receiver\r\n    ) public{\r\n        require(_offerPrice > 0, \"Cannot place a bid at 0 USDC !\");\r\n        require(usdc.allowance(msg.sender, address(this)) >= _offerPrice, \"Please transfer the right amount of USDC !\");\r\n        require(_receiver == SofanNftTemplate(_contract).ownerOf(_tokenId), \"Receiver is not the owner !\");\r\n\r\n        Bid memory temp = Bid(_offerPrice, _contract, _tokenId, msg.sender, BidStatus.waiting, _receiver);\r\n        BidMapping[_receiver][_contract][_tokenId].push(temp);\r\n    }\r\n\r\n     function acceptBid(\r\n        address _contract,\r\n        uint256 _tokenId,\r\n        uint256 _indexOfBid\r\n    ) external nonReentrant {\r\n        require(msg.sender == SofanNftTemplate(_contract).ownerOf(_tokenId), \"You're not the owner !\");\r\n        require(msg.sender == BidMapping[msg.sender][_contract][_tokenId][_indexOfBid].receiver, \"You're not the receiver !\");\r\n        require(BidMapping[msg.sender][_contract][_tokenId][_indexOfBid].bidStatus == BidStatus.waiting, \"Bid is already accepted or refused\");\r\n        require(usdc.allowance(BidMapping[msg.sender][_contract][_tokenId][_indexOfBid].sender, address(this)) >= BidMapping[msg.sender][_contract][_tokenId][_indexOfBid].price, \"The sender canceled the allowance of USDC !\");\r\n        require(usdc.balanceOf(BidMapping[msg.sender][_contract][_tokenId][_indexOfBid].sender) >= BidMapping[msg.sender][_contract][_tokenId][_indexOfBid].price, \"The sender doesn't have enought USDC\");\r\n\r\n        // Change bid status of '_tokenId' to 'accepted' and other to 'refused' \r\n        for (uint32 i = 0; i < BidMapping[msg.sender][_contract][_tokenId].length; i++) \r\n        {\r\n            if (i == _indexOfBid) {\r\n                BidMapping[msg.sender][_contract][_tokenId][i].bidStatus = BidStatus.accepted;\r\n            } else {\r\n                BidMapping[msg.sender][_contract][_tokenId][i].bidStatus = BidStatus.refused;\r\n            }\r\n        }\r\n        \r\n        SofanNftTemplate(_contract).approveCustom(address(this), _tokenId, msg.sender); \r\n        SofanNftTemplate(_contract).transferFrom(msg.sender, BidMapping[msg.sender][_contract][_tokenId][_indexOfBid].sender, _tokenId);\r\n        (address splitter, uint256 royaltiesAmount) = SofanNftTemplate(_contract).royaltyInfo(_tokenId, BidMapping[msg.sender][_contract][_tokenId][_indexOfBid].price);\r\n        bool success3 = usdc.transferFrom(BidMapping[msg.sender][_contract][_tokenId][_indexOfBid].sender, splitter, royaltiesAmount);\r\n        require(success3, \"Transaction was not successful\");\r\n        bool success2 = usdc.transferFrom(BidMapping[msg.sender][_contract][_tokenId][_indexOfBid].sender, msg.sender, (BidMapping[msg.sender][_contract][_tokenId][_indexOfBid].price - royaltiesAmount));\r\n        require(success2, \"Transaction was not successful\");\r\n    }\r\n\r\n    function cancelBid(\r\n        address _contract,\r\n        uint256 _tokenId,\r\n        address _receiver,\r\n        uint _index\r\n        ) public {\r\n        require(BidMapping[_receiver][_contract][_tokenId][_index].bidStatus == BidStatus.waiting, \"Bid is already accepted or refused\");\r\n        BidMapping[_receiver][_contract][_tokenId][_index].bidStatus = BidStatus.refused;\r\n    }\r\n\r\n    function listToSell(\r\n        address _contract,\r\n        uint256 _tokenId,\r\n        uint256 _price\r\n    ) external  nonReentrant {\r\n        require(msg.sender == SofanNftTemplate(_contract).ownerOf(_tokenId), \"You're not the owner !\");\r\n        require(_price > 0, \"Cannot list for 0 !\");\r\n        Listing memory listing = Listing(_contract, _tokenId, _price, msg.sender, ListingStatus.Listed);\r\n        ListingMapping[msg.sender].push(listing);\r\n        SofanNftTemplate(_contract).approveCustom(address(this), _tokenId, msg.sender);\r\n    }\r\n\r\n    function buyListing(\r\n        address _sellerAddress,\r\n        uint _indexLinsting\r\n    ) external nonReentrant{\r\n        require(SofanNftTemplate(ListingMapping[_sellerAddress][_indexLinsting].contractAddress).getApproved(ListingMapping[_sellerAddress][_indexLinsting].tokenId) == address(this), \"The seller need to approve the marketplace !\");\r\n        require(SofanNftTemplate(ListingMapping[_sellerAddress][_indexLinsting].contractAddress).ownerOf(ListingMapping[_sellerAddress][_indexLinsting].tokenId) == ListingMapping[_sellerAddress][_indexLinsting].seller, \"The seller is not the token owner !\");\r\n        require(ListingMapping[_sellerAddress][_indexLinsting].listingStauts == ListingStatus.Listed, \"Listing is already canceled or selled\");\r\n        require(usdc.allowance(msg.sender, address(this)) >= ListingMapping[_sellerAddress][_indexLinsting].price, \"You don't allow enought USDC !\");\r\n        require(usdc.balanceOf(msg.sender) >= ListingMapping[_sellerAddress][_indexLinsting].price, \"You don't have enought USDC in your balance !\");\r\n        ListingMapping[_sellerAddress][_indexLinsting].listingStauts = ListingStatus.selled;\r\n        SofanNftTemplate(ListingMapping[_sellerAddress][_indexLinsting].contractAddress).transferFrom(ListingMapping[_sellerAddress][_indexLinsting].seller, msg.sender, ListingMapping[_sellerAddress][_indexLinsting].tokenId);\r\n\r\n        (address splitter, uint256 royaltiesAmount) = SofanNftTemplate(ListingMapping[_sellerAddress][_indexLinsting].contractAddress).royaltyInfo(ListingMapping[_sellerAddress][_indexLinsting].tokenId, ListingMapping[_sellerAddress][_indexLinsting].price);\r\n        bool success3 = usdc.transferFrom(msg.sender, splitter, royaltiesAmount);\r\n        require(success3, \"Transaction was not successful\");\r\n        bool success2 = usdc.transferFrom(msg.sender, ListingMapping[_sellerAddress][_indexLinsting].seller, (ListingMapping[_sellerAddress][_indexLinsting].price - royaltiesAmount));\r\n        require(success2, \"Transction was not successful\");\r\n    }\r\n\r\n    function cancelListing(uint _index) external {\r\n        require(ListingMapping[msg.sender][_index].listingStauts == ListingStatus.Listed, \"Listing is already canceled or selled\");\r\n        ListingMapping[msg.sender][_index].listingStauts = ListingStatus.canceled;\r\n    }\r\n\r\n    function addCollectionManually(address _collection) external onlyOwner{\r\n        sofanCollection.push(_collection);\r\n    }\r\n    \r\n    function deployCollection(\r\n        string memory _collectionName,\r\n        string memory _collectionSymbol,\r\n        string memory _collectionBaseURI,\r\n        uint8 _limitByWallet,\r\n        uint256 _collectionLimit,\r\n        uint256 _launchpadTime,\r\n        bool _isAbleChangeMaxLimitCollection,\r\n        uint256 _price,\r\n        address[] memory _payees,\r\n        uint256[] memory _shares_,\r\n        uint96 _percentInBips // 2.5% = 250\r\n    ) public payable {\r\n        require(sofanFactory != address(0), \"Please set a factory address !\");\r\n        require(isAthlete[msg.sender] == true || msg.sender == sofanMultiSig, \"Deploy is allowed for athlete or Sofan, please reach our team !\");\r\n\r\n        string[3] memory collectionData2 = [_collectionName, _collectionSymbol, _collectionBaseURI];\r\n        uint[4] memory collectionData = [_limitByWallet, _collectionLimit, _launchpadTime, _price];\r\n        bool isAbleChangeMaxLimitCollection = _isAbleChangeMaxLimitCollection;\r\n        uint96 percentInBips = _percentInBips;\r\n        address splitterAddress =  SofanFactory(sofanFactory).deploySplitter(\r\n            _payees,\r\n            _shares_\r\n        );\r\n\r\n        address collectionAddress = SofanFactory(sofanFactory).deploy(\r\n            collectionData2,\r\n            collectionData,\r\n            isAbleChangeMaxLimitCollection,\r\n            percentInBips,\r\n            splitterAddress\r\n        );\r\n        CollectionCreatedByWallet[msg.sender].push(collectionAddress);\r\n        sofanCollection.push(collectionAddress);\r\n    }\r\n\r\n     // delete after test\r\n    constructor() payable {\r\n        string memory _t = \"a\"; string memory _r = \"a\"; string memory _e = \"a\"; address[] memory _p = new address[](1); uint256[] memory _s = new uint256[](1);\r\n        _p[0] = 0xd423DCBd697164e282717009044312fDBC6C04f0; _s[0] = 1;\r\n        deployCollection(_t, _r, _e, 0, 10, 0, true, 1000000, _p, _s, 250);\r\n    }\r\n    \r\n}",
  "sourcePath": "/home/matheo/dev/Sofan/truffle/contracts/Sofan.sol",
  "compiler": {
    "name": "solc",
    "version": "0.8.19+commit.7dd6d404.Emscripten.clang"
  },
  "schemaVersion": "3.4.4",
  "updatedAt": "2023-08-01T01:00:11.198Z",
  "devdoc": {
    "kind": "dev",
    "methods": {
      "owner()": {
        "details": "Returns the address of the current owner."
      },
      "renounceOwnership()": {
        "details": "Leaves the contract without owner. It will not be possible to call `onlyOwner` functions. Can only be called by the current owner. NOTE: Renouncing ownership will leave the contract without an owner, thereby disabling any functionality that is only available to the owner."
      },
      "transferOwnership(address)": {
        "details": "Transfers ownership of the contract to a new account (`newOwner`). Can only be called by the current owner."
      }
    },
    "version": 1
  },
  "userdoc": {
    "kind": "user",
    "methods": {},
    "version": 1
  }
}