{
  "contractName": "SofanNftTemplate",
  "abi": [
    {
      "inputs": [
        {
          "internalType": "string[3]",
          "name": "_collectionData2",
          "type": "string[3]"
        },
        {
          "internalType": "uint256[4]",
          "name": "_collectionData",
          "type": "uint256[4]"
        },
        {
          "internalType": "bool",
          "name": "_isAbleChangeMaxLimitCollection",
          "type": "bool"
        },
        {
          "internalType": "address",
          "name": "_splitterAddress",
          "type": "address"
        },
        {
          "internalType": "uint96",
          "name": "_percentInBips",
          "type": "uint96"
        }
      ],
      "stateMutability": "nonpayable",
      "type": "constructor"
    },
    {
      "inputs": [],
      "name": "ApprovalCallerNotOwnerNorApproved",
      "type": "error"
    },
    {
      "inputs": [],
      "name": "ApprovalQueryForNonexistentToken",
      "type": "error"
    },
    {
      "inputs": [],
      "name": "BalanceQueryForZeroAddress",
      "type": "error"
    },
    {
      "inputs": [],
      "name": "MintERC2309QuantityExceedsLimit",
      "type": "error"
    },
    {
      "inputs": [],
      "name": "MintToZeroAddress",
      "type": "error"
    },
    {
      "inputs": [],
      "name": "MintZeroQuantity",
      "type": "error"
    },
    {
      "inputs": [
        {
          "internalType": "address",
          "name": "operator",
          "type": "address"
        }
      ],
      "name": "OperatorNotAllowed",
      "type": "error"
    },
    {
      "inputs": [],
      "name": "OwnerQueryForNonexistentToken",
      "type": "error"
    },
    {
      "inputs": [],
      "name": "OwnershipNotInitializedForExtraData",
      "type": "error"
    },
    {
      "inputs": [],
      "name": "TransferCallerNotOwnerNorApproved",
      "type": "error"
    },
    {
      "inputs": [],
      "name": "TransferFromIncorrectOwner",
      "type": "error"
    },
    {
      "inputs": [],
      "name": "TransferToNonERC721ReceiverImplementer",
      "type": "error"
    },
    {
      "inputs": [],
      "name": "TransferToZeroAddress",
      "type": "error"
    },
    {
      "inputs": [],
      "name": "URIQueryForNonexistentToken",
      "type": "error"
    },
    {
      "anonymous": false,
      "inputs": [
        {
          "indexed": true,
          "internalType": "address",
          "name": "owner",
          "type": "address"
        },
        {
          "indexed": true,
          "internalType": "address",
          "name": "approved",
          "type": "address"
        },
        {
          "indexed": true,
          "internalType": "uint256",
          "name": "tokenId",
          "type": "uint256"
        }
      ],
      "name": "Approval",
      "type": "event"
    },
    {
      "anonymous": false,
      "inputs": [
        {
          "indexed": true,
          "internalType": "address",
          "name": "owner",
          "type": "address"
        },
        {
          "indexed": true,
          "internalType": "address",
          "name": "operator",
          "type": "address"
        },
        {
          "indexed": false,
          "internalType": "bool",
          "name": "approved",
          "type": "bool"
        }
      ],
      "name": "ApprovalForAll",
      "type": "event"
    },
    {
      "anonymous": false,
      "inputs": [
        {
          "indexed": true,
          "internalType": "uint256",
          "name": "fromTokenId",
          "type": "uint256"
        },
        {
          "indexed": false,
          "internalType": "uint256",
          "name": "toTokenId",
          "type": "uint256"
        },
        {
          "indexed": true,
          "internalType": "address",
          "name": "from",
          "type": "address"
        },
        {
          "indexed": true,
          "internalType": "address",
          "name": "to",
          "type": "address"
        }
      ],
      "name": "ConsecutiveTransfer",
      "type": "event"
    },
    {
      "anonymous": false,
      "inputs": [
        {
          "indexed": true,
          "internalType": "address",
          "name": "previousOwner",
          "type": "address"
        },
        {
          "indexed": true,
          "internalType": "address",
          "name": "newOwner",
          "type": "address"
        }
      ],
      "name": "OwnershipTransferred",
      "type": "event"
    },
    {
      "anonymous": false,
      "inputs": [
        {
          "indexed": true,
          "internalType": "address",
          "name": "from",
          "type": "address"
        },
        {
          "indexed": true,
          "internalType": "address",
          "name": "to",
          "type": "address"
        },
        {
          "indexed": true,
          "internalType": "uint256",
          "name": "tokenId",
          "type": "uint256"
        }
      ],
      "name": "Transfer",
      "type": "event"
    },
    {
      "anonymous": false,
      "inputs": [
        {
          "indexed": false,
          "internalType": "address",
          "name": "msgSender",
          "type": "address"
        }
      ],
      "name": "temp",
      "type": "event"
    },
    {
      "inputs": [
        {
          "internalType": "address",
          "name": "",
          "type": "address"
        }
      ],
      "name": "NftOwned",
      "outputs": [
        {
          "internalType": "uint256",
          "name": "",
          "type": "uint256"
        }
      ],
      "stateMutability": "view",
      "type": "function"
    },
    {
      "inputs": [],
      "name": "OPERATOR_FILTER_REGISTRY",
      "outputs": [
        {
          "internalType": "contract IOperatorFilterRegistry",
          "name": "",
          "type": "address"
        }
      ],
      "stateMutability": "view",
      "type": "function"
    },
    {
      "inputs": [
        {
          "internalType": "address",
          "name": "owner",
          "type": "address"
        }
      ],
      "name": "balanceOf",
      "outputs": [
        {
          "internalType": "uint256",
          "name": "",
          "type": "uint256"
        }
      ],
      "stateMutability": "view",
      "type": "function"
    },
    {
      "inputs": [],
      "name": "collectionLimit",
      "outputs": [
        {
          "internalType": "uint256",
          "name": "",
          "type": "uint256"
        }
      ],
      "stateMutability": "view",
      "type": "function"
    },
    {
      "inputs": [
        {
          "internalType": "uint256",
          "name": "tokenId",
          "type": "uint256"
        }
      ],
      "name": "getApproved",
      "outputs": [
        {
          "internalType": "address",
          "name": "",
          "type": "address"
        }
      ],
      "stateMutability": "view",
      "type": "function"
    },
    {
      "inputs": [
        {
          "internalType": "address",
          "name": "owner",
          "type": "address"
        },
        {
          "internalType": "address",
          "name": "operator",
          "type": "address"
        }
      ],
      "name": "isApprovedForAll",
      "outputs": [
        {
          "internalType": "bool",
          "name": "",
          "type": "bool"
        }
      ],
      "stateMutability": "view",
      "type": "function"
    },
    {
      "inputs": [],
      "name": "name",
      "outputs": [
        {
          "internalType": "string",
          "name": "",
          "type": "string"
        }
      ],
      "stateMutability": "view",
      "type": "function"
    },
    {
      "inputs": [],
      "name": "owner",
      "outputs": [
        {
          "internalType": "address",
          "name": "",
          "type": "address"
        }
      ],
      "stateMutability": "view",
      "type": "function"
    },
    {
      "inputs": [
        {
          "internalType": "uint256",
          "name": "tokenId",
          "type": "uint256"
        }
      ],
      "name": "ownerOf",
      "outputs": [
        {
          "internalType": "address",
          "name": "",
          "type": "address"
        }
      ],
      "stateMutability": "view",
      "type": "function"
    },
    {
      "inputs": [],
      "name": "renounceOwnership",
      "outputs": [],
      "stateMutability": "nonpayable",
      "type": "function"
    },
    {
      "inputs": [
        {
          "internalType": "uint256",
          "name": "tokenId",
          "type": "uint256"
        },
        {
          "internalType": "uint256",
          "name": "salePrice",
          "type": "uint256"
        }
      ],
      "name": "royaltyInfo",
      "outputs": [
        {
          "internalType": "address",
          "name": "",
          "type": "address"
        },
        {
          "internalType": "uint256",
          "name": "",
          "type": "uint256"
        }
      ],
      "stateMutability": "view",
      "type": "function"
    },
    {
      "inputs": [],
      "name": "symbol",
      "outputs": [
        {
          "internalType": "string",
          "name": "",
          "type": "string"
        }
      ],
      "stateMutability": "view",
      "type": "function"
    },
    {
      "inputs": [],
      "name": "totalSupply",
      "outputs": [
        {
          "internalType": "uint256",
          "name": "",
          "type": "uint256"
        }
      ],
      "stateMutability": "view",
      "type": "function"
    },
    {
      "inputs": [
        {
          "internalType": "address",
          "name": "newOwner",
          "type": "address"
        }
      ],
      "name": "transferOwnership",
      "outputs": [],
      "stateMutability": "nonpayable",
      "type": "function"
    },
    {
      "inputs": [],
      "name": "usdc",
      "outputs": [
        {
          "internalType": "contract IERC20",
          "name": "",
          "type": "address"
        }
      ],
      "stateMutability": "view",
      "type": "function"
    },
    {
      "inputs": [
        {
          "internalType": "address",
          "name": "_to",
          "type": "address"
        },
        {
          "internalType": "uint256",
          "name": "_quantity",
          "type": "uint256"
        },
        {
          "internalType": "uint256",
          "name": "_amount",
          "type": "uint256"
        }
      ],
      "name": "mint",
      "outputs": [],
      "stateMutability": "payable",
      "type": "function"
    },
    {
      "inputs": [],
      "name": "withdrawUSDC",
      "outputs": [],
      "stateMutability": "nonpayable",
      "type": "function"
    },
    {
      "inputs": [],
      "name": "activeMintManually",
      "outputs": [],
      "stateMutability": "nonpayable",
      "type": "function"
    },
    {
      "inputs": [
        {
          "internalType": "uint256",
          "name": "_newLimit",
          "type": "uint256"
        }
      ],
      "name": "setLimitWallet",
      "outputs": [],
      "stateMutability": "nonpayable",
      "type": "function"
    },
    {
      "inputs": [
        {
          "internalType": "uint32",
          "name": "_newLimit",
          "type": "uint32"
        }
      ],
      "name": "changeLimitOfMaxCollection",
      "outputs": [],
      "stateMutability": "nonpayable",
      "type": "function"
    },
    {
      "inputs": [
        {
          "internalType": "string",
          "name": "_uri",
          "type": "string"
        }
      ],
      "name": "setBaseURI",
      "outputs": [],
      "stateMutability": "nonpayable",
      "type": "function"
    },
    {
      "inputs": [
        {
          "internalType": "uint256",
          "name": "tokenId",
          "type": "uint256"
        }
      ],
      "name": "tokenURI",
      "outputs": [
        {
          "internalType": "string",
          "name": "",
          "type": "string"
        }
      ],
      "stateMutability": "view",
      "type": "function"
    },
    {
      "inputs": [
        {
          "internalType": "address",
          "name": "to",
          "type": "address"
        },
        {
          "internalType": "uint256",
          "name": "tokenId",
          "type": "uint256"
        },
        {
          "internalType": "address",
          "name": "_msgSender",
          "type": "address"
        }
      ],
      "name": "approveCustom",
      "outputs": [],
      "stateMutability": "payable",
      "type": "function"
    },
    {
      "inputs": [
        {
          "internalType": "bytes4",
          "name": "interfaceId",
          "type": "bytes4"
        }
      ],
      "name": "supportsInterface",
      "outputs": [
        {
          "internalType": "bool",
          "name": "",
          "type": "bool"
        }
      ],
      "stateMutability": "view",
      "type": "function"
    },
    {
      "inputs": [
        {
          "internalType": "address",
          "name": "_receiver",
          "type": "address"
        },
        {
          "internalType": "uint96",
          "name": "_royaltyFeesInBips",
          "type": "uint96"
        }
      ],
      "name": "setRoyaltyInfo",
      "outputs": [],
      "stateMutability": "nonpayable",
      "type": "function"
    },
    {
      "inputs": [
        {
          "internalType": "address",
          "name": "operator",
          "type": "address"
        },
        {
          "internalType": "bool",
          "name": "approved",
          "type": "bool"
        }
      ],
      "name": "setApprovalForAll",
      "outputs": [],
      "stateMutability": "nonpayable",
      "type": "function"
    },
    {
      "inputs": [
        {
          "internalType": "address",
          "name": "operator",
          "type": "address"
        },
        {
          "internalType": "uint256",
          "name": "tokenId",
          "type": "uint256"
        }
      ],
      "name": "approve",
      "outputs": [],
      "stateMutability": "payable",
      "type": "function"
    },
    {
      "inputs": [
        {
          "internalType": "address",
          "name": "from",
          "type": "address"
        },
        {
          "internalType": "address",
          "name": "to",
          "type": "address"
        },
        {
          "internalType": "uint256",
          "name": "tokenId",
          "type": "uint256"
        }
      ],
      "name": "transferFrom",
      "outputs": [],
      "stateMutability": "payable",
      "type": "function"
    },
    {
      "inputs": [
        {
          "internalType": "address",
          "name": "from",
          "type": "address"
        },
        {
          "internalType": "address",
          "name": "to",
          "type": "address"
        },
        {
          "internalType": "uint256",
          "name": "tokenId",
          "type": "uint256"
        }
      ],
      "name": "safeTransferFrom",
      "outputs": [],
      "stateMutability": "payable",
      "type": "function"
    },
    {
      "inputs": [
        {
          "internalType": "address",
          "name": "from",
          "type": "address"
        },
        {
          "internalType": "address",
          "name": "to",
          "type": "address"
        },
        {
          "internalType": "uint256",
          "name": "tokenId",
          "type": "uint256"
        },
        {
          "internalType": "bytes",
          "name": "data",
          "type": "bytes"
        }
      ],
      "name": "safeTransferFrom",
      "outputs": [],
      "stateMutability": "payable",
      "type": "function"
    }
  ],
  "bytecode": "0x6080604052735b38da6a701c568545dcfcb03fcb875f56beddc4601460006101000a81548173ffffffffffffffffffffffffffffffffffffffff021916908373ffffffffffffffffffffffffffffffffffffffff16021790555073ab8483f64d9c6d1ecf9b849ae677dd3315835cb2601560006101000a81548173ffffffffffffffffffffffffffffffffffffffff021916908373ffffffffffffffffffffffffffffffffffffffff16021790555073d9145cce52d386f254917e481eb44e9943f39138601760006101000a81548173ffffffffffffffffffffffffffffffffffffffff021916908373ffffffffffffffffffffffffffffffffffffffff1602179055507307865c6e87b9f70255377e024ace6630c1eaa37f601860006101000a81548173ffffffffffffffffffffffffffffffffffffffff021916908373ffffffffffffffffffffffffffffffffffffffff1602179055503480156200016557600080fd5b50604051620057693803806200576983398181016040528101906200018b919062000d96565b733cc6cdda760b79bafa08df41ecfa224f810dceb6600186600060038110620001b957620001b862000e3e565b5b602002015187600160038110620001d557620001d462000e3e565b5b60200201518160029081620001eb9190620010ae565b508060039081620001fd9190620010ae565b506200020e620005ce60201b60201c565b6000819055505050620002366200022a620005d360201b60201c565b620005db60201b60201c565b6001600b8190555060006daaeb6d7670e522a718067333cd4e73ffffffffffffffffffffffffffffffffffffffff163b111562000433578015620002f9576daaeb6d7670e522a718067333cd4e73ffffffffffffffffffffffffffffffffffffffff16637d3e3dbe30846040518363ffffffff1660e01b8152600401620002bf929190620011a6565b600060405180830381600087803b158015620002da57600080fd5b505af1158015620002ef573d6000803e3d6000fd5b5050505062000432565b600073ffffffffffffffffffffffffffffffffffffffff168273ffffffffffffffffffffffffffffffffffffffff1614620003b3576daaeb6d7670e522a718067333cd4e73ffffffffffffffffffffffffffffffffffffffff1663a0af290330846040518363ffffffff1660e01b815260040162000379929190620011a6565b600060405180830381600087803b1580156200039457600080fd5b505af1158015620003a9573d6000803e3d6000fd5b5050505062000431565b6daaeb6d7670e522a718067333cd4e73ffffffffffffffffffffffffffffffffffffffff16634420e486306040518263ffffffff1660e01b8152600401620003fc9190620011d3565b600060405180830381600087803b1580156200041757600080fd5b505af11580156200042c573d6000803e3d6000fd5b505050505b5b5b5050846002600381106200044c576200044b62000e3e565b5b6020020151600c9081620004619190620010ae565b506000846000600481106200047b576200047a62000e3e565b5b602002015114620004c457836000600481106200049d576200049c62000e3e565b5b6020020151600e819055506001600d60006101000a81548160ff0219169083151502179055505b83600160048110620004db57620004da62000e3e565b5b6020020151600f81905550600084600260048110620004ff57620004fe62000e3e565b5b6020020151146200052d578360026004811062000521576200052062000e3e565b5b60200201516010819055505b4260118190555082601260006101000a81548160ff0219169083151502179055508360036004811062000565576200056462000e3e565b5b602002015160168190555081601760006101000a81548173ffffffffffffffffffffffffffffffffffffffff021916908373ffffffffffffffffffffffffffffffffffffffff160217905550620005c38282620006a160201b60201c565b50505050506200137d565b600090565b600033905090565b6000600a60009054906101000a900473ffffffffffffffffffffffffffffffffffffffff16905081600a60006101000a81548173ffffffffffffffffffffffffffffffffffffffff021916908373ffffffffffffffffffffffffffffffffffffffff1602179055508173ffffffffffffffffffffffffffffffffffffffff168173ffffffffffffffffffffffffffffffffffffffff167f8be0079c531659141344cd1fd0a4f28419497f9722a3daafe3b4186f6b6457e060405160405180910390a35050565b620006b1620006c760201b60201c565b620006c382826200075860201b60201c565b5050565b620006d7620005d360201b60201c565b73ffffffffffffffffffffffffffffffffffffffff16620006fd620008fb60201b60201c565b73ffffffffffffffffffffffffffffffffffffffff161462000756576040517f08c379a00000000000000000000000000000000000000000000000000000000081526004016200074d9062001251565b60405180910390fd5b565b620007686200092560201b60201c565b6bffffffffffffffffffffffff16816bffffffffffffffffffffffff161115620007c9576040517f08c379a0000000000000000000000000000000000000000000000000000000008152600401620007c090620012e9565b60405180910390fd5b600073ffffffffffffffffffffffffffffffffffffffff168273ffffffffffffffffffffffffffffffffffffffff16036200083b576040517f08c379a000000000000000000000000000000000000000000000000000000000815260040162000832906200135b565b60405180910390fd5b60405180604001604052808373ffffffffffffffffffffffffffffffffffffffff168152602001826bffffffffffffffffffffffff16815250600860008201518160000160006101000a81548173ffffffffffffffffffffffffffffffffffffffff021916908373ffffffffffffffffffffffffffffffffffffffff16021790555060208201518160000160146101000a8154816bffffffffffffffffffffffff02191690836bffffffffffffffffffffffff1602179055509050505050565b6000600a60009054906101000a900473ffffffffffffffffffffffffffffffffffffffff16905090565b6000612710905090565b6000604051905090565b600080fd5b600080fd5b600080fd5b6000601f19601f8301169050919050565b7f4e487b7100000000000000000000000000000000000000000000000000000000600052604160045260246000fd5b620009938262000948565b810181811067ffffffffffffffff82111715620009b557620009b462000959565b5b80604052505050565b6000620009ca6200092f565b9050620009d8828262000988565b919050565b600067ffffffffffffffff821115620009fb57620009fa62000959565b5b602082029050919050565b600080fd5b600080fd5b600067ffffffffffffffff82111562000a2e5762000a2d62000959565b5b62000a398262000948565b9050602081019050919050565b60005b8381101562000a6657808201518184015260208101905062000a49565b60008484015250505050565b600062000a8962000a838462000a10565b620009be565b90508281526020810184848401111562000aa85762000aa762000a0b565b5b62000ab584828562000a46565b509392505050565b600082601f83011262000ad55762000ad462000943565b5b815162000ae784826020860162000a72565b91505092915050565b600062000b0762000b0184620009dd565b620009be565b9050806020840283018581111562000b245762000b2362000a06565b5b835b8181101562000b7257805167ffffffffffffffff81111562000b4d5762000b4c62000943565b5b80860162000b5c898262000abd565b8552602085019450505060208101905062000b26565b5050509392505050565b600082601f83011262000b945762000b9362000943565b5b600362000ba384828562000af0565b91505092915050565b600067ffffffffffffffff82111562000bca5762000bc962000959565b5b602082029050919050565b6000819050919050565b62000bea8162000bd5565b811462000bf657600080fd5b50565b60008151905062000c0a8162000bdf565b92915050565b600062000c2762000c218462000bac565b620009be565b9050806020840283018581111562000c445762000c4362000a06565b5b835b8181101562000c71578062000c5c888262000bf9565b84526020840193505060208101905062000c46565b5050509392505050565b600082601f83011262000c935762000c9262000943565b5b600462000ca284828562000c10565b91505092915050565b60008115159050919050565b62000cc28162000cab565b811462000cce57600080fd5b50565b60008151905062000ce28162000cb7565b92915050565b600073ffffffffffffffffffffffffffffffffffffffff82169050919050565b600062000d158262000ce8565b9050919050565b62000d278162000d08565b811462000d3357600080fd5b50565b60008151905062000d478162000d1c565b92915050565b60006bffffffffffffffffffffffff82169050919050565b62000d708162000d4d565b811462000d7c57600080fd5b50565b60008151905062000d908162000d65565b92915050565b6000806000806000610100868803121562000db65762000db562000939565b5b600086015167ffffffffffffffff81111562000dd75762000dd66200093e565b5b62000de58882890162000b7c565b955050602062000df88882890162000c7b565b94505060a062000e0b8882890162000cd1565b93505060c062000e1e8882890162000d36565b92505060e062000e318882890162000d7f565b9150509295509295909350565b7f4e487b7100000000000000000000000000000000000000000000000000000000600052603260045260246000fd5b600081519050919050565b7f4e487b7100000000000000000000000000000000000000000000000000000000600052602260045260246000fd5b6000600282049050600182168062000ec057607f821691505b60208210810362000ed65762000ed562000e78565b5b50919050565b60008190508160005260206000209050919050565b60006020601f8301049050919050565b600082821b905092915050565b60006008830262000f407fffffffffffffffffffffffffffffffffffffffffffffffffffffffffffffffff8262000f01565b62000f4c868362000f01565b95508019841693508086168417925050509392505050565b6000819050919050565b600062000f8f62000f8962000f838462000bd5565b62000f64565b62000bd5565b9050919050565b6000819050919050565b62000fab8362000f6e565b62000fc362000fba8262000f96565b84845462000f0e565b825550505050565b600090565b62000fda62000fcb565b62000fe781848462000fa0565b505050565b5b818110156200100f576200100360008262000fd0565b60018101905062000fed565b5050565b601f8211156200105e57620010288162000edc565b620010338462000ef1565b8101602085101562001043578190505b6200105b620010528562000ef1565b83018262000fec565b50505b505050565b600082821c905092915050565b6000620010836000198460080262001063565b1980831691505092915050565b60006200109e838362001070565b9150826002028217905092915050565b620010b98262000e6d565b67ffffffffffffffff811115620010d557620010d462000959565b5b620010e1825462000ea7565b620010ee82828562001013565b600060209050601f83116001811462001126576000841562001111578287015190505b6200111d858262001090565b8655506200118d565b601f198416620011368662000edc565b60005b82811015620011605784890151825560018201915060208501945060208101905062001139565b868310156200118057848901516200117c601f89168262001070565b8355505b6001600288020188555050505b505050505050565b620011a08162000d08565b82525050565b6000604082019050620011bd600083018562001195565b620011cc602083018462001195565b9392505050565b6000602082019050620011ea600083018462001195565b92915050565b600082825260208201905092915050565b7f4f776e61626c653a2063616c6c6572206973206e6f7420746865206f776e6572600082015250565b600062001239602083620011f0565b9150620012468262001201565b602082019050919050565b600060208201905081810360008301526200126c816200122a565b9050919050565b7f455243323938313a20726f79616c7479206665652077696c6c2065786365656460008201527f2073616c65507269636500000000000000000000000000000000000000000000602082015250565b6000620012d1602a83620011f0565b9150620012de8262001273565b604082019050919050565b600060208201905081810360008301526200130481620012c2565b9050919050565b7f455243323938313a20696e76616c696420726563656976657200000000000000600082015250565b600062001343601983620011f0565b915062001350826200130b565b602082019050919050565b60006020820190508181036000830152620013768162001334565b9050919050565b6143dc806200138d6000396000f3fe6080604052600436106101cd5760003560e01c80635fa3002c116100f7578063b88d4fde11610095578063d8fc063d11610064578063d8fc063d14610625578063e985e9c51461063c578063f2fde38b14610679578063fe92b093146106a2576101cd565b8063b88d4fde14610599578063b9ce8b1c146105b5578063c87b56dd146105d1578063cdfd0e2c1461060e576101cd565b8063715018a6116100d1578063715018a6146105035780638da5cb5b1461051a57806395d89b4114610545578063a22cb46514610570576101cd565b80635fa3002c146104605780636352211e1461048957806370a08231146104c6576101cd565b806323b872dd1161016f57806341f434341161013e57806341f43434146103b357806342842e0e146103de5780635412033c146103fa57806355f804b314610437576101cd565b806323b872dd146103035780632a55205a1461031f5780633499efa51461035d5780633e413bee14610388576101cd565b8063081812fc116101ab578063081812fc14610263578063095ea7b3146102a0578063156e29f6146102bc57806318160ddd146102d8576101cd565b806301ffc9a7146101d257806302fa7c471461020f57806306fdde0314610238575b600080fd5b3480156101de57600080fd5b506101f960048036038101906101f49190612c9c565b6106cb565b6040516102069190612ce4565b60405180910390f35b34801561021b57600080fd5b5061023660048036038101906102319190612da1565b6107d5565b005b34801561024457600080fd5b5061024d6107eb565b60405161025a9190612e71565b60405180910390f35b34801561026f57600080fd5b5061028a60048036038101906102859190612ec9565b61087d565b6040516102979190612f05565b60405180910390f35b6102ba60048036038101906102b59190612f20565b6108fc565b005b6102d660048036038101906102d19190612f60565b610915565b005b3480156102e457600080fd5b506102ed610f7b565b6040516102fa9190612fc2565b60405180910390f35b61031d60048036038101906103189190612fdd565b610f92565b005b34801561032b57600080fd5b5061034660048036038101906103419190613030565b610fe1565b604051610354929190613070565b60405180910390f35b34801561036957600080fd5b506103726111cb565b60405161037f9190612fc2565b60405180910390f35b34801561039457600080fd5b5061039d6111d1565b6040516103aa91906130f8565b60405180910390f35b3480156103bf57600080fd5b506103c86111f7565b6040516103d59190613134565b60405180910390f35b6103f860048036038101906103f39190612fdd565b611209565b005b34801561040657600080fd5b50610421600480360381019061041c919061314f565b611258565b60405161042e9190612fc2565b60405180910390f35b34801561044357600080fd5b5061045e600480360381019061045991906132b1565b611270565b005b34801561046c57600080fd5b5061048760048036038101906104829190613336565b611312565b005b34801561049557600080fd5b506104b060048036038101906104ab9190612ec9565b611379565b6040516104bd9190612f05565b60405180910390f35b3480156104d257600080fd5b506104ed60048036038101906104e8919061314f565b61138b565b6040516104fa9190612fc2565b60405180910390f35b34801561050f57600080fd5b50610518611443565b005b34801561052657600080fd5b5061052f611457565b60405161053c9190612f05565b60405180910390f35b34801561055157600080fd5b5061055a611481565b6040516105679190612e71565b60405180910390f35b34801561057c57600080fd5b506105976004803603810190610592919061338f565b611513565b005b6105b360048036038101906105ae9190613470565b61152c565b005b6105cf60048036038101906105ca91906134f3565b61157d565b005b3480156105dd57600080fd5b506105f860048036038101906105f39190612ec9565b6116bf565b6040516106059190612e71565b60405180910390f35b34801561061a57600080fd5b5061062361175d565b005b34801561063157600080fd5b5061063a61176f565b005b34801561064857600080fd5b50610663600480360381019061065e9190613546565b61195c565b6040516106709190612ce4565b60405180910390f35b34801561068557600080fd5b506106a0600480360381019061069b919061314f565b6119f0565b005b3480156106ae57600080fd5b506106c960048036038101906106c49190612ec9565b611a73565b005b60007f2a55205a000000000000000000000000000000000000000000000000000000007bffffffffffffffffffffffffffffffffffffffffffffffffffffffff1916827bffffffffffffffffffffffffffffffffffffffffffffffffffffffff1916148061075e57506301ffc9a760e01b827bffffffffffffffffffffffffffffffffffffffffffffffffffffffff1916145b8061078e57506380ac58cd60e01b827bffffffffffffffffffffffffffffffffffffffffffffffffffffffff1916145b806107be5750635b5e139f60e01b827bffffffffffffffffffffffffffffffffffffffffffffffffffffffff1916145b806107ce57506107cd82611aca565b5b9050919050565b6107dd611b44565b6107e78282611bc2565b5050565b6060600280546107fa906135b5565b80601f0160208091040260200160405190810160405280929190818152602001828054610826906135b5565b80156108735780601f1061084857610100808354040283529160200191610873565b820191906000526020600020905b81548152906001019060200180831161085657829003601f168201915b5050505050905090565b600061088882611d57565b6108be576040517fcf4700e400000000000000000000000000000000000000000000000000000000815260040160405180910390fd5b6006600083815260200190815260200160002060000160009054906101000a900473ffffffffffffffffffffffffffffffffffffffff169050919050565b8161090681611db6565b6109108383611eb3565b505050565b61091d611ff7565b600f5482610929612046565b6109339190613615565b1115610974576040517f08c379a000000000000000000000000000000000000000000000000000000000815260040161096b906136bb565b60405180910390fd5b60011515600d60009054906101000a900460ff16151503610a1f57600e5482601360008673ffffffffffffffffffffffffffffffffffffffff1673ffffffffffffffffffffffffffffffffffffffff168152602001908152602001600020546109dd9190613615565b1115610a1e576040517f08c379a0000000000000000000000000000000000000000000000000000000008152600401610a159061374d565b60405180910390fd5b5b601054601154610a2f9190613615565b421015610a71576040517f08c379a0000000000000000000000000000000000000000000000000000000008152600401610a68906137df565b60405180910390fd5b80601860009054906101000a900473ffffffffffffffffffffffffffffffffffffffff1673ffffffffffffffffffffffffffffffffffffffff1663dd62ed3e33306040518363ffffffff1660e01b8152600401610acf9291906137ff565b602060405180830381865afa158015610aec573d6000803e3d6000fd5b505050506040513d601f19601f82011682018060405250810190610b10919061383d565b1015610b51576040517f08c379a0000000000000000000000000000000000000000000000000000000008152600401610b48906138dc565b60405180910390fd5b81601654610b5f91906138fc565b811015610ba1576040517f08c379a0000000000000000000000000000000000000000000000000000000008152600401610b98906139b0565b60405180910390fd5b6000601860009054906101000a900473ffffffffffffffffffffffffffffffffffffffff1673ffffffffffffffffffffffffffffffffffffffff166323b872dd3330856040518463ffffffff1660e01b8152600401610c02939291906139d0565b6020604051808303816000875af1158015610c21573d6000803e3d6000fd5b505050506040513d601f19601f82011682018060405250810190610c459190613a1c565b905080610c87576040517f08c379a0000000000000000000000000000000000000000000000000000000008152600401610c7e90613a95565b60405180910390fd5b6000610c9483605061204f565b90506000610ca3826064612065565b90506000601860009054906101000a900473ffffffffffffffffffffffffffffffffffffffff1673ffffffffffffffffffffffffffffffffffffffff1663a9059cbb601560009054906101000a900473ffffffffffffffffffffffffffffffffffffffff16846040518363ffffffff1660e01b8152600401610d26929190613070565b6020604051808303816000875af1158015610d45573d6000803e3d6000fd5b505050506040513d601f19601f82011682018060405250810190610d699190613a1c565b905080610dab576040517f08c379a0000000000000000000000000000000000000000000000000000000008152600401610da290613b01565b60405180910390fd5b6000610db886601461204f565b90506000610dc7826064612065565b90506000601860009054906101000a900473ffffffffffffffffffffffffffffffffffffffff1673ffffffffffffffffffffffffffffffffffffffff1663a9059cbb601460009054906101000a900473ffffffffffffffffffffffffffffffffffffffff16846040518363ffffffff1660e01b8152600401610e4a929190613070565b6020604051808303816000875af1158015610e69573d6000803e3d6000fd5b505050506040513d601f19601f82011682018060405250810190610e8d9190613a1c565b905080610ecf576040517f08c379a0000000000000000000000000000000000000000000000000000000008152600401610ec690613b01565b60405180910390fd5b88601360008c73ffffffffffffffffffffffffffffffffffffffff1673ffffffffffffffffffffffffffffffffffffffff16815260200190815260200160002054610f1a9190613615565b601360008c73ffffffffffffffffffffffffffffffffffffffff1673ffffffffffffffffffffffffffffffffffffffff16815260200190815260200160002081905550610f678a8a61207b565b50505050505050610f76612236565b505050565b6000610f85612240565b6001546000540303905090565b823373ffffffffffffffffffffffffffffffffffffffff168173ffffffffffffffffffffffffffffffffffffffff1614610fd057610fcf33611db6565b5b610fdb848484612245565b50505050565b6000806000600960008681526020019081526020016000206040518060400160405290816000820160009054906101000a900473ffffffffffffffffffffffffffffffffffffffff1673ffffffffffffffffffffffffffffffffffffffff1673ffffffffffffffffffffffffffffffffffffffff1681526020016000820160149054906101000a90046bffffffffffffffffffffffff166bffffffffffffffffffffffff166bffffffffffffffffffffffff16815250509050600073ffffffffffffffffffffffffffffffffffffffff16816000015173ffffffffffffffffffffffffffffffffffffffff16036111765760086040518060400160405290816000820160009054906101000a900473ffffffffffffffffffffffffffffffffffffffff1673ffffffffffffffffffffffffffffffffffffffff1673ffffffffffffffffffffffffffffffffffffffff1681526020016000820160149054906101000a90046bffffffffffffffffffffffff166bffffffffffffffffffffffff166bffffffffffffffffffffffff168152505090505b6000611180612567565b6bffffffffffffffffffffffff1682602001516bffffffffffffffffffffffff16866111ac91906138fc565b6111b69190613b50565b90508160000151819350935050509250929050565b600f5481565b601860009054906101000a900473ffffffffffffffffffffffffffffffffffffffff1681565b6daaeb6d7670e522a718067333cd4e81565b823373ffffffffffffffffffffffffffffffffffffffff168173ffffffffffffffffffffffffffffffffffffffff16146112475761124633611db6565b5b611252848484612571565b50505050565b60136020528060005260406000206000915090505481565b600c6040516020016112829190613c24565b60405160208183030381529060405280519060200120816040516020016112a99190613c6c565b60405160208183030381529060405280519060200120036112ff576040517f08c379a00000000000000000000000000000000000000000000000000000000081526004016112f690613cf5565b60405180910390fd5b80600c908161130e9190613ea2565b5050565b61131a611b44565b601260009054906101000a900460ff16611369576040517f08c379a000000000000000000000000000000000000000000000000000000000815260040161136090613fc0565b60405180910390fd5b8063ffffffff16600f8190555050565b600061138482612591565b9050919050565b60008073ffffffffffffffffffffffffffffffffffffffff168273ffffffffffffffffffffffffffffffffffffffff16036113f2576040517f8f4eb60400000000000000000000000000000000000000000000000000000000815260040160405180910390fd5b67ffffffffffffffff600560008473ffffffffffffffffffffffffffffffffffffffff1673ffffffffffffffffffffffffffffffffffffffff16815260200190815260200160002054169050919050565b61144b611b44565b611455600061265d565b565b6000600a60009054906101000a900473ffffffffffffffffffffffffffffffffffffffff16905090565b606060038054611490906135b5565b80601f01602080910402602001604051908101604052809291908181526020018280546114bc906135b5565b80156115095780601f106114de57610100808354040283529160200191611509565b820191906000526020600020905b8154815290600101906020018083116114ec57829003601f168201915b5050505050905090565b8161151d81611db6565b6115278383612723565b505050565b833373ffffffffffffffffffffffffffffffffffffffff168173ffffffffffffffffffffffffffffffffffffffff161461156a5761156933611db6565b5b6115768585858561282e565b5050505050565b8261158781611db6565b600061159284611379565b90508073ffffffffffffffffffffffffffffffffffffffff168373ffffffffffffffffffffffffffffffffffffffff1614611608576115d1818461195c565b611607576040517fcfb3b94200000000000000000000000000000000000000000000000000000000815260040160405180910390fd5b5b846006600086815260200190815260200160002060000160006101000a81548173ffffffffffffffffffffffffffffffffffffffff021916908373ffffffffffffffffffffffffffffffffffffffff160217905550838573ffffffffffffffffffffffffffffffffffffffff168273ffffffffffffffffffffffffffffffffffffffff167f8c5be1e5ebec7d5bd14f71427d1e84f3dd0314c0f7b2291e5b200ac8c7c3b92560405160405180910390a45050505050565b60606116ca82611d57565b611700576040517fa14c4b5000000000000000000000000000000000000000000000000000000000815260040160405180910390fd5b600061170a6128a1565b9050600081510361172a5760405180602001604052806000815250611755565b8061173484612933565b60405160200161174592919061402c565b6040516020818303038152906040525b915050919050565b611765611b44565b6000601081905550565b611777611b44565b6000601860009054906101000a900473ffffffffffffffffffffffffffffffffffffffff1673ffffffffffffffffffffffffffffffffffffffff166370a08231306040518263ffffffff1660e01b81526004016117d49190612f05565b602060405180830381865afa1580156117f1573d6000803e3d6000fd5b505050506040513d601f19601f82011682018060405250810190611815919061383d565b9050601860009054906101000a900473ffffffffffffffffffffffffffffffffffffffff1673ffffffffffffffffffffffffffffffffffffffff1663095ea7b333836040518363ffffffff1660e01b8152600401611874929190613070565b6020604051808303816000875af1158015611893573d6000803e3d6000fd5b505050506040513d601f19601f820116820180604052508101906118b79190613a1c565b50601860009054906101000a900473ffffffffffffffffffffffffffffffffffffffff1673ffffffffffffffffffffffffffffffffffffffff1663a9059cbb33836040518363ffffffff1660e01b8152600401611915929190613070565b6020604051808303816000875af1158015611934573d6000803e3d6000fd5b505050506040513d601f19601f820116820180604052508101906119589190613a1c565b5050565b6000600760008473ffffffffffffffffffffffffffffffffffffffff1673ffffffffffffffffffffffffffffffffffffffff16815260200190815260200160002060008373ffffffffffffffffffffffffffffffffffffffff1673ffffffffffffffffffffffffffffffffffffffff16815260200190815260200160002060009054906101000a900460ff16905092915050565b6119f8611b44565b600073ffffffffffffffffffffffffffffffffffffffff168173ffffffffffffffffffffffffffffffffffffffff1603611a67576040517f08c379a0000000000000000000000000000000000000000000000000000000008152600401611a5e906140cd565b60405180910390fd5b611a708161265d565b50565b611a7b611b44565b6000811115611aab576001600d60006101000a81548160ff02191690831515021790555080600e81905550611ac7565b6000600d60006101000a81548160ff0219169083151502179055505b50565b60007f2a55205a000000000000000000000000000000000000000000000000000000007bffffffffffffffffffffffffffffffffffffffffffffffffffffffff1916827bffffffffffffffffffffffffffffffffffffffffffffffffffffffff19161480611b3d5750611b3c82612983565b5b9050919050565b611b4c6129ed565b73ffffffffffffffffffffffffffffffffffffffff16611b6a611457565b73ffffffffffffffffffffffffffffffffffffffff1614611bc0576040517f08c379a0000000000000000000000000000000000000000000000000000000008152600401611bb790614139565b60405180910390fd5b565b611bca612567565b6bffffffffffffffffffffffff16816bffffffffffffffffffffffff161115611c28576040517f08c379a0000000000000000000000000000000000000000000000000000000008152600401611c1f906141cb565b60405180910390fd5b600073ffffffffffffffffffffffffffffffffffffffff168273ffffffffffffffffffffffffffffffffffffffff1603611c97576040517f08c379a0000000000000000000000000000000000000000000000000000000008152600401611c8e90614237565b60405180910390fd5b60405180604001604052808373ffffffffffffffffffffffffffffffffffffffff168152602001826bffffffffffffffffffffffff16815250600860008201518160000160006101000a81548173ffffffffffffffffffffffffffffffffffffffff021916908373ffffffffffffffffffffffffffffffffffffffff16021790555060208201518160000160146101000a8154816bffffffffffffffffffffffff02191690836bffffffffffffffffffffffff1602179055509050505050565b600081611d62612240565b11158015611d71575060005482105b8015611daf575060007c0100000000000000000000000000000000000000000000000000000000600460008581526020019081526020016000205416145b9050919050565b60006daaeb6d7670e522a718067333cd4e73ffffffffffffffffffffffffffffffffffffffff163b1115611eb0576daaeb6d7670e522a718067333cd4e73ffffffffffffffffffffffffffffffffffffffff1663c617113430836040518363ffffffff1660e01b8152600401611e2d9291906137ff565b602060405180830381865afa158015611e4a573d6000803e3d6000fd5b505050506040513d601f19601f82011682018060405250810190611e6e9190613a1c565b611eaf57806040517fede71dcc000000000000000000000000000000000000000000000000000000008152600401611ea69190612f05565b60405180910390fd5b5b50565b6000611ebe82611379565b90508073ffffffffffffffffffffffffffffffffffffffff16611edf6129f5565b73ffffffffffffffffffffffffffffffffffffffff1614611f4257611f0b81611f066129f5565b61195c565b611f41576040517fcfb3b94200000000000000000000000000000000000000000000000000000000815260040160405180910390fd5b5b826006600084815260200190815260200160002060000160006101000a81548173ffffffffffffffffffffffffffffffffffffffff021916908373ffffffffffffffffffffffffffffffffffffffff160217905550818373ffffffffffffffffffffffffffffffffffffffff168273ffffffffffffffffffffffffffffffffffffffff167f8c5be1e5ebec7d5bd14f71427d1e84f3dd0314c0f7b2291e5b200ac8c7c3b92560405160405180910390a4505050565b6002600b540361203c576040517f08c379a0000000000000000000000000000000000000000000000000000000008152600401612033906142a3565b60405180910390fd5b6002600b81905550565b60008054905090565b6000818361205d91906138fc565b905092915050565b600081836120739190613b50565b905092915050565b600080549050600082036120bb576040517fb562e8dd00000000000000000000000000000000000000000000000000000000815260040160405180910390fd5b6120c860008483856129fd565b600160406001901b178202600560008573ffffffffffffffffffffffffffffffffffffffff1673ffffffffffffffffffffffffffffffffffffffff1681526020019081526020016000206000828254019250508190555061213f836121306000866000612a03565b61213985612a2b565b17612a3b565b6004600083815260200190815260200160002081905550600080838301905073ffffffffffffffffffffffffffffffffffffffff85169150828260007fddf252ad1be2c89b69c2b068fc378daa952ba7f163c4a11628f55a4df523b3ef600080a4600183015b8181146121e057808360007fddf252ad1be2c89b69c2b068fc378daa952ba7f163c4a11628f55a4df523b3ef600080a46001810190506121a5565b506000820361221b576040517f2e07630000000000000000000000000000000000000000000000000000000000815260040160405180910390fd5b8060008190555050506122316000848385612a66565b505050565b6001600b81905550565b600090565b600061225082612591565b90508373ffffffffffffffffffffffffffffffffffffffff168173ffffffffffffffffffffffffffffffffffffffff16146122b7576040517fa114810000000000000000000000000000000000000000000000000000000000815260040160405180910390fd5b6000806122c384612a6c565b915091506122d981876122d46129f5565b612a93565b612325576122ee866122e96129f5565b61195c565b612324576040517f59c896be00000000000000000000000000000000000000000000000000000000815260040160405180910390fd5b5b600073ffffffffffffffffffffffffffffffffffffffff168573ffffffffffffffffffffffffffffffffffffffff160361238b576040517fea553b3400000000000000000000000000000000000000000000000000000000815260040160405180910390fd5b61239886868660016129fd565b80156123a357600082555b600560008773ffffffffffffffffffffffffffffffffffffffff1673ffffffffffffffffffffffffffffffffffffffff168152602001908152602001600020600081546001900391905081905550600560008673ffffffffffffffffffffffffffffffffffffffff1673ffffffffffffffffffffffffffffffffffffffff16815260200190815260200160002060008154600101919050819055506124718561244d888887612a03565b7c020000000000000000000000000000000000000000000000000000000017612a3b565b600460008681526020019081526020016000208190555060007c02000000000000000000000000000000000000000000000000000000008416036124f757600060018501905060006004600083815260200190815260200160002054036124f55760005481146124f4578360046000838152602001908152602001600020819055505b5b505b838573ffffffffffffffffffffffffffffffffffffffff168773ffffffffffffffffffffffffffffffffffffffff167fddf252ad1be2c89b69c2b068fc378daa952ba7f163c4a11628f55a4df523b3ef60405160405180910390a461255f8686866001612a66565b505050505050565b6000612710905090565b61258c8383836040518060200160405280600081525061152c565b505050565b600080829050806125a0612240565b11612626576000548110156126255760006004600083815260200190815260200160002054905060007c0100000000000000000000000000000000000000000000000000000000821603612623575b600081036126195760046000836001900393508381526020019081526020016000205490506125ef565b8092505050612658565b505b5b6040517fdf2d9b4200000000000000000000000000000000000000000000000000000000815260040160405180910390fd5b919050565b6000600a60009054906101000a900473ffffffffffffffffffffffffffffffffffffffff16905081600a60006101000a81548173ffffffffffffffffffffffffffffffffffffffff021916908373ffffffffffffffffffffffffffffffffffffffff1602179055508173ffffffffffffffffffffffffffffffffffffffff168173ffffffffffffffffffffffffffffffffffffffff167f8be0079c531659141344cd1fd0a4f28419497f9722a3daafe3b4186f6b6457e060405160405180910390a35050565b80600760006127306129f5565b73ffffffffffffffffffffffffffffffffffffffff1673ffffffffffffffffffffffffffffffffffffffff16815260200190815260200160002060008473ffffffffffffffffffffffffffffffffffffffff1673ffffffffffffffffffffffffffffffffffffffff16815260200190815260200160002060006101000a81548160ff0219169083151502179055508173ffffffffffffffffffffffffffffffffffffffff166127dd6129f5565b73ffffffffffffffffffffffffffffffffffffffff167f17307eab39ab6107e8899845ad3d59bd9653f200f220920489ca2b5937696c31836040516128229190612ce4565b60405180910390a35050565b612839848484610f92565b60008373ffffffffffffffffffffffffffffffffffffffff163b1461289b5761286484848484612ad7565b61289a576040517fd1a57ed600000000000000000000000000000000000000000000000000000000815260040160405180910390fd5b5b50505050565b6060600c80546128b0906135b5565b80601f01602080910402602001604051908101604052809291908181526020018280546128dc906135b5565b80156129295780601f106128fe57610100808354040283529160200191612929565b820191906000526020600020905b81548152906001019060200180831161290c57829003601f168201915b5050505050905090565b606060a060405101806040526020810391506000825281835b60011561296e57600184039350600a81066030018453600a810490508061294c575b50828103602084039350808452505050919050565b60007f01ffc9a7000000000000000000000000000000000000000000000000000000007bffffffffffffffffffffffffffffffffffffffffffffffffffffffff1916827bffffffffffffffffffffffffffffffffffffffffffffffffffffffff1916149050919050565b600033905090565b600033905090565b50505050565b60008060e883901c905060e8612a1a868684612c27565b62ffffff16901b9150509392505050565b60006001821460e11b9050919050565b600073ffffffffffffffffffffffffffffffffffffffff83169250814260a01b178317905092915050565b50505050565b60008060006006600085815260200190815260200160002090508092508254915050915091565b600073ffffffffffffffffffffffffffffffffffffffff8316925073ffffffffffffffffffffffffffffffffffffffff821691508382148383141790509392505050565b60008373ffffffffffffffffffffffffffffffffffffffff1663150b7a02612afd6129f5565b8786866040518563ffffffff1660e01b8152600401612b1f9493929190614318565b6020604051808303816000875af1925050508015612b5b57506040513d601f19601f82011682018060405250810190612b589190614379565b60015b612bd4573d8060008114612b8b576040519150601f19603f3d011682016040523d82523d6000602084013e612b90565b606091505b506000815103612bcc576040517fd1a57ed600000000000000000000000000000000000000000000000000000000815260040160405180910390fd5b805181602001fd5b63150b7a0260e01b7bffffffffffffffffffffffffffffffffffffffffffffffffffffffff1916817bffffffffffffffffffffffffffffffffffffffffffffffffffffffff191614915050949350505050565b60009392505050565b6000604051905090565b600080fd5b600080fd5b60007fffffffff0000000000000000000000000000000000000000000000000000000082169050919050565b612c7981612c44565b8114612c8457600080fd5b50565b600081359050612c9681612c70565b92915050565b600060208284031215612cb257612cb1612c3a565b5b6000612cc084828501612c87565b91505092915050565b60008115159050919050565b612cde81612cc9565b82525050565b6000602082019050612cf96000830184612cd5565b92915050565b600073ffffffffffffffffffffffffffffffffffffffff82169050919050565b6000612d2a82612cff565b9050919050565b612d3a81612d1f565b8114612d4557600080fd5b50565b600081359050612d5781612d31565b92915050565b60006bffffffffffffffffffffffff82169050919050565b612d7e81612d5d565b8114612d8957600080fd5b50565b600081359050612d9b81612d75565b92915050565b60008060408385031215612db857612db7612c3a565b5b6000612dc685828601612d48565b9250506020612dd785828601612d8c565b9150509250929050565b600081519050919050565b600082825260208201905092915050565b60005b83811015612e1b578082015181840152602081019050612e00565b60008484015250505050565b6000601f19601f8301169050919050565b6000612e4382612de1565b612e4d8185612dec565b9350612e5d818560208601612dfd565b612e6681612e27565b840191505092915050565b60006020820190508181036000830152612e8b8184612e38565b905092915050565b6000819050919050565b612ea681612e93565b8114612eb157600080fd5b50565b600081359050612ec381612e9d565b92915050565b600060208284031215612edf57612ede612c3a565b5b6000612eed84828501612eb4565b91505092915050565b612eff81612d1f565b82525050565b6000602082019050612f1a6000830184612ef6565b92915050565b60008060408385031215612f3757612f36612c3a565b5b6000612f4585828601612d48565b9250506020612f5685828601612eb4565b9150509250929050565b600080600060608486031215612f7957612f78612c3a565b5b6000612f8786828701612d48565b9350506020612f9886828701612eb4565b9250506040612fa986828701612eb4565b9150509250925092565b612fbc81612e93565b82525050565b6000602082019050612fd76000830184612fb3565b92915050565b600080600060608486031215612ff657612ff5612c3a565b5b600061300486828701612d48565b935050602061301586828701612d48565b925050604061302686828701612eb4565b9150509250925092565b6000806040838503121561304757613046612c3a565b5b600061305585828601612eb4565b925050602061306685828601612eb4565b9150509250929050565b60006040820190506130856000830185612ef6565b6130926020830184612fb3565b9392505050565b6000819050919050565b60006130be6130b96130b484612cff565b613099565b612cff565b9050919050565b60006130d0826130a3565b9050919050565b60006130e2826130c5565b9050919050565b6130f2816130d7565b82525050565b600060208201905061310d60008301846130e9565b92915050565b600061311e826130c5565b9050919050565b61312e81613113565b82525050565b60006020820190506131496000830184613125565b92915050565b60006020828403121561316557613164612c3a565b5b600061317384828501612d48565b91505092915050565b600080fd5b600080fd5b7f4e487b7100000000000000000000000000000000000000000000000000000000600052604160045260246000fd5b6131be82612e27565b810181811067ffffffffffffffff821117156131dd576131dc613186565b5b80604052505050565b60006131f0612c30565b90506131fc82826131b5565b919050565b600067ffffffffffffffff82111561321c5761321b613186565b5b61322582612e27565b9050602081019050919050565b82818337600083830152505050565b600061325461324f84613201565b6131e6565b9050828152602081018484840111156132705761326f613181565b5b61327b848285613232565b509392505050565b600082601f8301126132985761329761317c565b5b81356132a8848260208601613241565b91505092915050565b6000602082840312156132c7576132c6612c3a565b5b600082013567ffffffffffffffff8111156132e5576132e4612c3f565b5b6132f184828501613283565b91505092915050565b600063ffffffff82169050919050565b613313816132fa565b811461331e57600080fd5b50565b6000813590506133308161330a565b92915050565b60006020828403121561334c5761334b612c3a565b5b600061335a84828501613321565b91505092915050565b61336c81612cc9565b811461337757600080fd5b50565b60008135905061338981613363565b92915050565b600080604083850312156133a6576133a5612c3a565b5b60006133b485828601612d48565b92505060206133c58582860161337a565b9150509250929050565b600067ffffffffffffffff8211156133ea576133e9613186565b5b6133f382612e27565b9050602081019050919050565b600061341361340e846133cf565b6131e6565b90508281526020810184848401111561342f5761342e613181565b5b61343a848285613232565b509392505050565b600082601f8301126134575761345661317c565b5b8135613467848260208601613400565b91505092915050565b6000806000806080858703121561348a57613489612c3a565b5b600061349887828801612d48565b94505060206134a987828801612d48565b93505060406134ba87828801612eb4565b925050606085013567ffffffffffffffff8111156134db576134da612c3f565b5b6134e787828801613442565b91505092959194509250565b60008060006060848603121561350c5761350b612c3a565b5b600061351a86828701612d48565b935050602061352b86828701612eb4565b925050604061353c86828701612d48565b9150509250925092565b6000806040838503121561355d5761355c612c3a565b5b600061356b85828601612d48565b925050602061357c85828601612d48565b9150509250929050565b7f4e487b7100000000000000000000000000000000000000000000000000000000600052602260045260246000fd5b600060028204905060018216806135cd57607f821691505b6020821081036135e0576135df613586565b5b50919050565b7f4e487b7100000000000000000000000000000000000000000000000000000000600052601160045260246000fd5b600061362082612e93565b915061362b83612e93565b9250828201905080821115613643576136426135e6565b5b92915050565b7f4c696d6974206f6620636f6c6c656374696f6e204e465420726561636865642060008201527f6f7220746f6f206d756368204e4654732061736b656400000000000000000000602082015250565b60006136a5603683612dec565b91506136b082613649565b604082019050919050565b600060208201905081810360008301526136d481613698565b9050919050565b7f4c696d6974206f66206f776e6564204e46542072656163686564206f7220746f60008201527f6f206d756368204e4654732061736b6564000000000000000000000000000000602082015250565b6000613737603183612dec565b9150613742826136db565b604082019050919050565b600060208201905081810360008301526137668161372a565b9050919050565b7f43616e6e6f74206d696e742e20436865636b204c61756e63687061642064617460008201527f6520210000000000000000000000000000000000000000000000000000000000602082015250565b60006137c9602383612dec565b91506137d48261376d565b604082019050919050565b600060208201905081810360008301526137f8816137bc565b9050919050565b60006040820190506138146000830185612ef6565b6138216020830184612ef6565b9392505050565b60008151905061383781612e9d565b92915050565b60006020828403121561385357613852612c3a565b5b600061386184828501613828565b91505092915050565b7f506c65617365206d616b65207375726520796f75206861766520617070726f7660008201527f6520656e6f756768742055534443202100000000000000000000000000000000602082015250565b60006138c6603083612dec565b91506138d18261386a565b604082019050919050565b600060208201905081810360008301526138f5816138b9565b9050919050565b600061390782612e93565b915061391283612e93565b925082820261392081612e93565b91508282048414831517613937576139366135e6565b5b5092915050565b7f4e6f7420656e6f75676820555344432073656e743b20636865636b207072696360008201527f6521000000000000000000000000000000000000000000000000000000000000602082015250565b600061399a602283612dec565b91506139a58261393e565b604082019050919050565b600060208201905081810360008301526139c98161398d565b9050919050565b60006060820190506139e56000830186612ef6565b6139f26020830185612ef6565b6139ff6040830184612fb3565b949350505050565b600081519050613a1681613363565b92915050565b600060208284031215613a3257613a31612c3a565b5b6000613a4084828501613a07565b91505092915050565b7f5472616e736374696f6e20776173206e6f74207375636365737366756c000000600082015250565b6000613a7f601d83612dec565b9150613a8a82613a49565b602082019050919050565b60006020820190508181036000830152613aae81613a72565b9050919050565b7f5472616e73616374696f6e20776173206e6f74207375636365737366756c0000600082015250565b6000613aeb601e83612dec565b9150613af682613ab5565b602082019050919050565b60006020820190508181036000830152613b1a81613ade565b9050919050565b7f4e487b7100000000000000000000000000000000000000000000000000000000600052601260045260246000fd5b6000613b5b82612e93565b9150613b6683612e93565b925082613b7657613b75613b21565b5b828204905092915050565b600081905092915050565b60008190508160005260206000209050919050565b60008154613bae816135b5565b613bb88186613b81565b94506001821660008114613bd35760018114613be857613c1b565b60ff1983168652811515820286019350613c1b565b613bf185613b8c565b60005b83811015613c1357815481890152600182019150602081019050613bf4565b838801955050505b50505092915050565b6000613c308284613ba1565b915081905092915050565b6000613c4682612de1565b613c508185613b81565b9350613c60818560208601612dfd565b80840191505092915050565b6000613c788284613c3b565b915081905092915050565b7f5468652055524920697320616c72656164792073657420746f2074686520657860008201527f6163742073616d65205552492021000000000000000000000000000000000000602082015250565b6000613cdf602e83612dec565b9150613cea82613c83565b604082019050919050565b60006020820190508181036000830152613d0e81613cd2565b9050919050565b60006020601f8301049050919050565b600082821b905092915050565b600060088302613d627fffffffffffffffffffffffffffffffffffffffffffffffffffffffffffffffff82613d25565b613d6c8683613d25565b95508019841693508086168417925050509392505050565b6000613d9f613d9a613d9584612e93565b613099565b612e93565b9050919050565b6000819050919050565b613db983613d84565b613dcd613dc582613da6565b848454613d32565b825550505050565b600090565b613de2613dd5565b613ded818484613db0565b505050565b5b81811015613e1157613e06600082613dda565b600181019050613df3565b5050565b601f821115613e5657613e2781613b8c565b613e3084613d15565b81016020851015613e3f578190505b613e53613e4b85613d15565b830182613df2565b50505b505050565b600082821c905092915050565b6000613e7960001984600802613e5b565b1980831691505092915050565b6000613e928383613e68565b9150826002028217905092915050565b613eab82612de1565b67ffffffffffffffff811115613ec457613ec3613186565b5b613ece82546135b5565b613ed9828285613e15565b600060209050601f831160018114613f0c5760008415613efa578287015190505b613f048582613e86565b865550613f6c565b601f198416613f1a86613b8c565b60005b82811015613f4257848901518255600182019150602085019450602081019050613f1d565b86831015613f5f5784890151613f5b601f891682613e68565b8355505b6001600288020188555050505b505050505050565b7f43616e6e6f74204368616e6765204c696d697400000000000000000000000000600082015250565b6000613faa601383612dec565b9150613fb582613f74565b602082019050919050565b60006020820190508181036000830152613fd981613f9d565b9050919050565b7f2e6a736f6e000000000000000000000000000000000000000000000000000000600082015250565b6000614016600583613b81565b915061402182613fe0565b600582019050919050565b60006140388285613c3b565b91506140448284613c3b565b915061404f82614009565b91508190509392505050565b7f4f776e61626c653a206e6577206f776e657220697320746865207a65726f206160008201527f6464726573730000000000000000000000000000000000000000000000000000602082015250565b60006140b7602683612dec565b91506140c28261405b565b604082019050919050565b600060208201905081810360008301526140e6816140aa565b9050919050565b7f4f776e61626c653a2063616c6c6572206973206e6f7420746865206f776e6572600082015250565b6000614123602083612dec565b915061412e826140ed565b602082019050919050565b6000602082019050818103600083015261415281614116565b9050919050565b7f455243323938313a20726f79616c7479206665652077696c6c2065786365656460008201527f2073616c65507269636500000000000000000000000000000000000000000000602082015250565b60006141b5602a83612dec565b91506141c082614159565b604082019050919050565b600060208201905081810360008301526141e4816141a8565b9050919050565b7f455243323938313a20696e76616c696420726563656976657200000000000000600082015250565b6000614221601983612dec565b915061422c826141eb565b602082019050919050565b6000602082019050818103600083015261425081614214565b9050919050565b7f5265656e7472616e637947756172643a207265656e7472616e742063616c6c00600082015250565b600061428d601f83612dec565b915061429882614257565b602082019050919050565b600060208201905081810360008301526142bc81614280565b9050919050565b600081519050919050565b600082825260208201905092915050565b60006142ea826142c3565b6142f481856142ce565b9350614304818560208601612dfd565b61430d81612e27565b840191505092915050565b600060808201905061432d6000830187612ef6565b61433a6020830186612ef6565b6143476040830185612fb3565b818103606083015261435981846142df565b905095945050505050565b60008151905061437381612c70565b92915050565b60006020828403121561438f5761438e612c3a565b5b600061439d84828501614364565b9150509291505056fea26469706673582212209f4d14c1f254e91a49db68f5ae767cf956dae8833b715804531cd747e3e3d16e64736f6c63430008130033",
  "immutableReferences": {},
  "source": "// SPDX-License-Identifier: MIT\npragma solidity 0.8.19;\nimport \"erc721a/contracts/ERC721A.sol\";\nimport \"erc721a/contracts/IERC721A.sol\";\nimport \"@openzeppelin/contracts/security/ReentrancyGuard.sol\";\nimport \"@openzeppelin/contracts/access/Ownable.sol\";\nimport \"./DefaultOperatorFilterer.sol\";\nimport \"@openzeppelin/contracts/token/common/ERC2981.sol\";\nimport \"@openzeppelin/contracts/token/ERC20/IERC20.sol\";\nimport \"@openzeppelin/contracts/utils/math/SafeMath.sol\";\n\n// [\"CollectionName\", \"CollectionSymbol\", \"https://url.com/\"]\n// [0,100,0,1000000]\n// true\n// 0xd9145CCE52D386f254917e481eB44e9943F39138\n// 100\ncontract SofanNftTemplate is\n    ERC721A,\n    ERC2981,\n    Ownable,\n    ReentrancyGuard,\n    DefaultOperatorFilterer\n{\n    string uri;\n    bool isLimitByWallet;\n    uint256 limitByWallet;\n    uint256 public collectionLimit;\n    // bool isLaunchpad;\n    uint256 launchpadTime;\n    uint256 deployDate;\n    bool isAbleChangeMaxLimitCollection;\n    mapping(address => uint256) public NftOwned;\n    address SofanWallet = 0x5B38Da6a701c568545dCfcB03FcB875f56beddC4;\n    address AthleteWallet = 0xAb8483F64d9C6d1EcF9b849Ae677dD3315835cb2;\n    uint256 price;\n    address SofanSplitter = 0xd9145CCE52D386f254917e481eB44e9943F39138;\n    // 0x07865c6E87B9F70255377e024ace6630C1Eaa37F 0x98339D8C260052B7ad81c28c16C0b98420f2B46a\n    IERC20 public usdc = IERC20(0x07865c6E87B9F70255377e024ace6630C1Eaa37F);\n\n    // Solve ownership problem --> integrate deployer to marketplace (can reach max contract size limit) or after deployer deploy SofanNftTemplate the deployer transfer the ownership to msg.sender\n    // set athleteWallet and SofanWallet by adding parameters -> will probably hit the arguments size limit\n    constructor(\n        string[3] memory _collectionData2,\n        // string memory _collectionName,\n        // string memory _collectionSymbol,\n        // string memory _collectionBaserURI,\n        uint256[4] memory _collectionData,\n        // uint256 _limitByWallet,\n        // uint256 _collectionLimit,\n        // uint256 _launchpadTime,\n        bool _isAbleChangeMaxLimitCollection,\n        // uint256 _price,\n        address _splitterAddress,\n        uint96 _percentInBips // 2.5% = 250\n    ) ERC721A(_collectionData2[0], _collectionData2[1]) {\n        uri = _collectionData2[2];\n        if (_collectionData[0] != 0) {\n            limitByWallet = _collectionData[0];\n            isLimitByWallet = true;\n        }\n        collectionLimit = _collectionData[1];\n        if (_collectionData[2] != 0) {\n            launchpadTime = _collectionData[2];\n            // isLaunchpad = true;\n        }\n\n        deployDate = block.timestamp;\n        isAbleChangeMaxLimitCollection = _isAbleChangeMaxLimitCollection;\n        price = _collectionData[3];\n        SofanSplitter = _splitterAddress;\n        setRoyaltyInfo(_splitterAddress, _percentInBips);\n    }\n\n    // Ajouter un parametre `_amount` pour gerer la quantit d'usdc envoy\n    function mint(\n        address _to,\n        uint256 _quantity,\n        uint256 _amount\n    ) external payable nonReentrant {\n        require(\n            ERC721A._nextTokenId() + _quantity <= collectionLimit,\n            \"Limit of collection NFT reached or too much NFTs asked\"\n        );\n        if (isLimitByWallet == true) // Optimize this for fees\n        {\n            require(\n                (NftOwned[_to] + _quantity) <= limitByWallet,\n                \"Limit of owned NFT reached or too much NFTs asked\"\n            );\n        }\n        // if(isLaunchpad == true){\n        require(\n            block.timestamp >= deployDate + launchpadTime,\n            \"Cannot mint. Check Launchpad date !\"\n        );\n        // }\n        // A changer avec allowance du contrat USDC, ajouter masse require\n        require(\n            usdc.allowance(msg.sender, address(this)) >= _amount,\n            \"Please make sure you have approve enought USDC !\"\n        );\n        require(\n            _amount >= price * _quantity,\n            \"Not enough USDC sent; check price!\"\n        );\n        // A changer avec transferFrom du contrat USDC\n        bool success = usdc.transferFrom(msg.sender, address(this), _amount);\n        require(success, \"Transction was not successful\");\n        \n        uint256 toAthleteTemp = SafeMath.mul(_amount, 80);\n        uint256 toAthlete = SafeMath.div(toAthleteTemp, 100);\n        bool success2 = usdc.transfer(AthleteWallet, toAthlete);\n        require(success2, \"Transaction was not successful\");\n\n        uint256 toSofanTemp = SafeMath.mul(_amount, 20);\n        uint256 toSofan = SafeMath.div(toSofanTemp, 100);\n        bool success3 = usdc.transfer(SofanWallet, toSofan);\n        require(success3, \"Transaction was not successful\");\n        // (bool success2, ) = payable(AthleteWallet).call{\n        //     value: ((address(this).balance * 80) / 100)\n        // }(\"\");\n        // require(success2, \"Transfer failed.\");\n        // (bool success, ) = payable(SofanWallet).call{\n        //     value: ((address(this).balance * 100) / 100)\n        // }(\"\");\n        // require(success, \"Transfer failed.\");\n        NftOwned[_to] = NftOwned[_to] + _quantity;\n        _mint(_to, _quantity);\n    }\n\n    function withdrawUSDC() public onlyOwner {\n        uint256 balance = usdc.balanceOf(address(this));\n        usdc.approve(msg.sender, balance);\n        usdc.transfer(msg.sender, balance);\n    }\n\n    function activeMintManually() external onlyOwner {\n        launchpadTime = 0 seconds;\n    }\n\n    function setLimitWallet(uint256 _newLimit) external onlyOwner {\n        if (_newLimit > 0) {\n            isLimitByWallet = true; // Optimize this for fees\n            limitByWallet = _newLimit;\n        } else {\n            isLimitByWallet = false;\n        }\n    }\n\n    function changeLimitOfMaxCollection(uint32 _newLimit) external onlyOwner {\n        require(isAbleChangeMaxLimitCollection, \"Cannot Change Limit\");\n        collectionLimit = _newLimit;\n    }\n\n    /**\n     * @dev set a new base uri.\n     * example : https://website.com/ipfs/CID/\n     */\n    function setBaseURI(string memory _uri) external {\n        require(\n            keccak256(abi.encodePacked(_uri)) !=\n                keccak256(abi.encodePacked(uri)),\n            \"The URI is already set to the exact same URI !\"\n        );\n        uri = _uri;\n    }\n\n    /**\n     * @dev see chiru-labs ERC721A documentation\n     */\n    function _baseURI() internal view override returns (string memory) {\n        return uri;\n    }\n\n    /**\n     * @dev return the tokenURI of a NFT\n     *\n     * Requirements:\n     *\n     * - Cannot get the URI of unexistent tokenID.\n     */\n    function tokenURI(uint256 tokenId)\n        public\n        view\n        override\n        returns (string memory)\n    {\n        if (!_exists(tokenId)) revert URIQueryForNonexistentToken();\n\n        string memory baseURI = _baseURI();\n        return\n            bytes(baseURI).length != 0\n                ? string(abi.encodePacked(baseURI, _toString(tokenId), \".json\"))\n                : \"\";\n    }\n\n    event temp(address msgSender);\n\n    function approveCustom(\n        address to,\n        uint256 tokenId,\n        address _msgSender\n    ) public payable onlyAllowedOperatorApproval(to) {\n        address owner = ERC721A.ownerOf(tokenId);\n\n        if (_msgSender != owner) {\n            if (!isApprovedForAll(owner, _msgSender)) {\n                revert ApprovalCallerNotOwnerNorApproved();\n            }\n        }\n\n        ERC721A._tokenApprovals[tokenId].value = to;\n        emit IERC721A.Approval(owner, to, tokenId);\n    }\n\n    function supportsInterface(bytes4 interfaceId)\n        public\n        view\n        virtual\n        override(ERC2981, ERC721A)\n        returns (bool)\n    {\n        return\n            interfaceId == type(IERC2981).interfaceId ||\n            interfaceId == 0x01ffc9a7 ||\n            interfaceId == 0x80ac58cd ||\n            interfaceId == 0x5b5e139f ||\n            super.supportsInterface(interfaceId);\n    }\n\n    //ERC2981\n    function setRoyaltyInfo(address _receiver, uint96 _royaltyFeesInBips)\n        public\n        onlyOwner\n    {\n        _setDefaultRoyalty(_receiver, _royaltyFeesInBips);\n    }\n\n    // Opensea\n    function setApprovalForAll(address operator, bool approved)\n        public\n        override\n        onlyAllowedOperatorApproval(operator)\n    {\n        super.setApprovalForAll(operator, approved);\n    }\n\n    function approve(address operator, uint256 tokenId)\n        public\n        payable\n        override\n        onlyAllowedOperatorApproval(operator)\n    {\n        super.approve(operator, tokenId);\n    }\n\n    function transferFrom(\n        address from,\n        address to,\n        uint256 tokenId\n    ) public payable override onlyAllowedOperator(from) {\n        super.transferFrom(from, to, tokenId);\n    }\n\n    function safeTransferFrom(\n        address from,\n        address to,\n        uint256 tokenId\n    ) public payable override onlyAllowedOperator(from) {\n        super.safeTransferFrom(from, to, tokenId);\n    }\n\n    function safeTransferFrom(\n        address from,\n        address to,\n        uint256 tokenId,\n        bytes memory data\n    ) public payable override onlyAllowedOperator(from) {\n        super.safeTransferFrom(from, to, tokenId, data);\n    }\n}\n",
  "sourcePath": "/home/matheo/dev/Sofan/truffle/contracts/SofanNftTemplate.sol",
  "compiler": {
    "name": "solc",
    "version": "0.8.19+commit.7dd6d404.Emscripten.clang"
  },
  "schemaVersion": "3.4.4",
  "updatedAt": "2023-08-23T13:26:01.628Z",
  "devdoc": {
    "errors": {
      "OperatorNotAllowed(address)": [
        {
          "details": "Emitted when an operator is not allowed."
        }
      ]
    },
    "events": {
      "Approval(address,address,uint256)": {
        "details": "Emitted when `owner` enables `approved` to manage the `tokenId` token."
      },
      "ApprovalForAll(address,address,bool)": {
        "details": "Emitted when `owner` enables or disables (`approved`) `operator` to manage all of its assets."
      },
      "ConsecutiveTransfer(uint256,uint256,address,address)": {
        "details": "Emitted when tokens in `fromTokenId` to `toTokenId` (inclusive) is transferred from `from` to `to`, as defined in the [ERC2309](https://eips.ethereum.org/EIPS/eip-2309) standard. See {_mintERC2309} for more details."
      },
      "Transfer(address,address,uint256)": {
        "details": "Emitted when `tokenId` token is transferred from `from` to `to`."
      }
    },
    "kind": "dev",
    "methods": {
      "balanceOf(address)": {
        "details": "Returns the number of tokens in `owner`'s account."
      },
      "getApproved(uint256)": {
        "details": "Returns the account approved for `tokenId` token. Requirements: - `tokenId` must exist."
      },
      "isApprovedForAll(address,address)": {
        "details": "Returns if the `operator` is allowed to manage all of the assets of `owner`. See {setApprovalForAll}."
      },
      "name()": {
        "details": "Returns the token collection name."
      },
      "owner()": {
        "details": "Returns the address of the current owner."
      },
      "ownerOf(uint256)": {
        "details": "Returns the owner of the `tokenId` token. Requirements: - `tokenId` must exist."
      },
      "renounceOwnership()": {
        "details": "Leaves the contract without owner. It will not be possible to call `onlyOwner` functions. Can only be called by the current owner. NOTE: Renouncing ownership will leave the contract without an owner, thereby disabling any functionality that is only available to the owner."
      },
      "royaltyInfo(uint256,uint256)": {
        "details": "Returns how much royalty is owed and to whom, based on a sale price that may be denominated in any unit of exchange. The royalty amount is denominated and should be paid in that same unit of exchange."
      },
      "safeTransferFrom(address,address,uint256)": {
        "details": "Equivalent to `safeTransferFrom(from, to, tokenId, '')`."
      },
      "setApprovalForAll(address,bool)": {
        "details": "Approve or remove `operator` as an operator for the caller. Operators can call {transferFrom} or {safeTransferFrom} for any token owned by the caller. Requirements: - The `operator` cannot be the caller. Emits an {ApprovalForAll} event."
      },
      "setBaseURI(string)": {
        "details": "set a new base uri. example : https://website.com/ipfs/CID/"
      },
      "symbol()": {
        "details": "Returns the token collection symbol."
      },
      "tokenURI(uint256)": {
        "details": "return the tokenURI of a NFT Requirements: - Cannot get the URI of unexistent tokenID."
      },
      "totalSupply()": {
        "details": "Returns the total number of tokens in existence. Burned tokens will reduce the count. To get the total number of tokens minted, please see {_totalMinted}."
      },
      "transferFrom(address,address,uint256)": {
        "details": "Transfers `tokenId` from `from` to `to`. Requirements: - `from` cannot be the zero address. - `to` cannot be the zero address. - `tokenId` token must be owned by `from`. - If the caller is not `from`, it must be approved to move this token by either {approve} or {setApprovalForAll}. Emits a {Transfer} event."
      },
      "transferOwnership(address)": {
        "details": "Transfers ownership of the contract to a new account (`newOwner`). Can only be called by the current owner."
      }
    },
    "version": 1
  },
  "userdoc": {
    "errors": {
      "ApprovalCallerNotOwnerNorApproved()": [
        {
          "notice": "The caller must own the token or be an approved operator."
        }
      ],
      "ApprovalQueryForNonexistentToken()": [
        {
          "notice": "The token does not exist."
        }
      ],
      "BalanceQueryForZeroAddress()": [
        {
          "notice": "Cannot query the balance for the zero address."
        }
      ],
      "MintERC2309QuantityExceedsLimit()": [
        {
          "notice": "The `quantity` minted with ERC2309 exceeds the safety limit."
        }
      ],
      "MintToZeroAddress()": [
        {
          "notice": "Cannot mint to the zero address."
        }
      ],
      "MintZeroQuantity()": [
        {
          "notice": "The quantity of tokens minted must be more than zero."
        }
      ],
      "OwnerQueryForNonexistentToken()": [
        {
          "notice": "The token does not exist."
        }
      ],
      "OwnershipNotInitializedForExtraData()": [
        {
          "notice": "The `extraData` cannot be set on an unintialized ownership slot."
        }
      ],
      "TransferCallerNotOwnerNorApproved()": [
        {
          "notice": "The caller must own the token or be an approved operator."
        }
      ],
      "TransferFromIncorrectOwner()": [
        {
          "notice": "The token must be owned by `from`."
        }
      ],
      "TransferToNonERC721ReceiverImplementer()": [
        {
          "notice": "Cannot safely transfer to a contract that does not implement the ERC721Receiver interface."
        }
      ],
      "TransferToZeroAddress()": [
        {
          "notice": "Cannot transfer to the zero address."
        }
      ],
      "URIQueryForNonexistentToken()": [
        {
          "notice": "The token does not exist."
        }
      ]
    },
    "kind": "user",
    "methods": {},
    "version": 1
  }
}