{
  "contractName": "SofanFactory",
  "abi": [
    {
      "anonymous": false,
      "inputs": [
        {
          "indexed": false,
          "internalType": "address",
          "name": "_address",
          "type": "address"
        }
      ],
      "name": "Deploy",
      "type": "event"
    },
    {
      "anonymous": false,
      "inputs": [
        {
          "indexed": false,
          "internalType": "address",
          "name": "_address",
          "type": "address"
        }
      ],
      "name": "DeploySplitter",
      "type": "event"
    },
    {
      "inputs": [
        {
          "internalType": "string[3]",
          "name": "_collectionData2",
          "type": "string[3]"
        },
        {
          "internalType": "uint256[4]",
          "name": "_collectionData",
          "type": "uint256[4]"
        },
        {
          "internalType": "bool",
          "name": "_isAbleChangeMaxLimitCollection",
          "type": "bool"
        },
        {
          "internalType": "uint96",
          "name": "_percentInBips",
          "type": "uint96"
        },
        {
          "internalType": "address",
          "name": "_splitterAddress",
          "type": "address"
        }
      ],
      "name": "deploy",
      "outputs": [
        {
          "internalType": "address",
          "name": "",
          "type": "address"
        }
      ],
      "stateMutability": "nonpayable",
      "type": "function"
    },
    {
      "inputs": [
        {
          "internalType": "address[]",
          "name": "_payees",
          "type": "address[]"
        },
        {
          "internalType": "uint256[]",
          "name": "_shares_",
          "type": "uint256[]"
        }
      ],
      "name": "deploySplitter",
      "outputs": [
        {
          "internalType": "address",
          "name": "",
          "type": "address"
        }
      ],
      "stateMutability": "nonpayable",
      "type": "function"
    }
  ],
  "bytecode": "0x608060405234801561001057600080fd5b506185ef806100206000396000f3fe60806040523480156200001157600080fd5b50600436106200003a5760003560e01c8063720a2363146200003f578063794c32e31462000075575b600080fd5b6200005d600480360381019062000057919062000324565b620000ab565b6040516200006c9190620003dd565b60405180910390f35b6200009360048036038101906200008d91906200067b565b62000137565b604051620000a29190620003dd565b60405180910390f35b6000808686868587604051620000c190620001ba565b620000d1959493929190620008dd565b604051809103906000f080158015620000ee573d6000803e3d6000fd5b5090507f55ea6c6b31543d8e2ec6a72f71a79c0f4b72ed0d4757172b043d8f4f4cd8484881604051620001229190620003dd565b60405180910390a18091505095945050505050565b60008083836040516200014a90620001c8565b6200015792919062000ade565b604051809103906000f08015801562000174573d6000803e3d6000fd5b5090507f7e08390f060f6e5492ebc3b3147ef901bbf4af358750e2a4250e10b845b32a6a81604051620001a89190620003dd565b60405180910390a18091505092915050565b6157698062000b1a83390190565b612337806200628383390190565b6000604051905090565b600080fd5b600080fd5b600080fd5b6000819050826020600302820111156200020e576200020d620001ea565b5b92915050565b600081905082602060040282011115620002335762000232620001ea565b5b92915050565b60008115159050919050565b620002508162000239565b81146200025c57600080fd5b50565b600081359050620002708162000245565b92915050565b60006bffffffffffffffffffffffff82169050919050565b620002998162000276565b8114620002a557600080fd5b50565b600081359050620002b9816200028e565b92915050565b600073ffffffffffffffffffffffffffffffffffffffff82169050919050565b6000620002ec82620002bf565b9050919050565b620002fe81620002df565b81146200030a57600080fd5b50565b6000813590506200031e81620002f3565b92915050565b60008060008060006101008688031215620003445762000343620001e0565b5b600086013567ffffffffffffffff811115620003655762000364620001e5565b5b6200037388828901620001ef565b9550506020620003868882890162000214565b94505060a062000399888289016200025f565b93505060c0620003ac88828901620002a8565b92505060e0620003bf888289016200030d565b9150509295509295909350565b620003d781620002df565b82525050565b6000602082019050620003f46000830184620003cc565b92915050565b600080fd5b6000601f19601f8301169050919050565b7f4e487b7100000000000000000000000000000000000000000000000000000000600052604160045260246000fd5b6200044a82620003ff565b810181811067ffffffffffffffff821117156200046c576200046b62000410565b5b80604052505050565b600062000481620001d6565b90506200048f82826200043f565b919050565b600067ffffffffffffffff821115620004b257620004b162000410565b5b602082029050602081019050919050565b6000620004da620004d48462000494565b62000475565b905080838252602082019050602084028301858111156200050057620004ff620001ea565b5b835b818110156200052d57806200051888826200030d565b84526020840193505060208101905062000502565b5050509392505050565b600082601f8301126200054f576200054e620003fa565b5b813562000561848260208601620004c3565b91505092915050565b600067ffffffffffffffff82111562000588576200058762000410565b5b602082029050602081019050919050565b6000819050919050565b620005ae8162000599565b8114620005ba57600080fd5b50565b600081359050620005ce81620005a3565b92915050565b6000620005eb620005e5846200056a565b62000475565b90508083825260208201905060208402830185811115620006115762000610620001ea565b5b835b818110156200063e5780620006298882620005bd565b84526020840193505060208101905062000613565b5050509392505050565b600082601f83011262000660576200065f620003fa565b5b813562000672848260208601620005d4565b91505092915050565b60008060408385031215620006955762000694620001e0565b5b600083013567ffffffffffffffff811115620006b657620006b5620001e5565b5b620006c48582860162000537565b925050602083013567ffffffffffffffff811115620006e857620006e7620001e5565b5b620006f68582860162000648565b9150509250929050565b600060039050919050565b600081905092915050565b6000819050919050565b600082825260208201905092915050565b82818337600083830152505050565b60006200074e838562000720565b93506200075d83858462000731565b6200076883620003ff565b840190509392505050565b60006200078284848462000740565b90509392505050565b600080fd5b600080fd5b600080fd5b60008083356001602003843603038112620007ba57620007b962000795565b5b83810192508235915060208301925067ffffffffffffffff821115620007e557620007e46200078b565b5b600182023603831315620007fe57620007fd62000790565b5b509250929050565b6000602082019050919050565b6000620008208262000700565b6200082c81856200070b565b935083602082028501620008408562000716565b8060005b858110156200088e5784840389526200085e82846200079a565b6200086b86828462000773565b9550620008788462000806565b935060208b019a50505060018101905062000844565b50829750879550505050505092915050565b82818337505050565b620008b760808383620008a0565b5050565b620008c68162000239565b82525050565b620008d78162000276565b82525050565b6000610100820190508181036000830152620008fa818862000813565b90506200090b6020830187620008a9565b6200091a60a0830186620008bb565b6200092960c0830185620003cc565b6200093860e0830184620008cc565b9695505050505050565b600081519050919050565b600082825260208201905092915050565b6000819050602082019050919050565b6200097981620002df565b82525050565b60006200098d83836200096e565b60208301905092915050565b6000602082019050919050565b6000620009b38262000942565b620009bf81856200094d565b9350620009cc836200095e565b8060005b8381101562000a03578151620009e788826200097f565b9750620009f48362000999565b925050600181019050620009d0565b5085935050505092915050565b600081519050919050565b600082825260208201905092915050565b6000819050602082019050919050565b62000a478162000599565b82525050565b600062000a5b838362000a3c565b60208301905092915050565b6000602082019050919050565b600062000a818262000a10565b62000a8d818562000a1b565b935062000a9a8362000a2c565b8060005b8381101562000ad157815162000ab5888262000a4d565b975062000ac28362000a67565b92505060018101905062000a9e565b5085935050505092915050565b6000604082019050818103600083015262000afa8185620009a6565b9050818103602083015262000b10818462000a74565b9050939250505056fe6080604052735b38da6a701c568545dcfcb03fcb875f56beddc4601460006101000a81548173ffffffffffffffffffffffffffffffffffffffff021916908373ffffffffffffffffffffffffffffffffffffffff16021790555073ab8483f64d9c6d1ecf9b849ae677dd3315835cb2601560006101000a81548173ffffffffffffffffffffffffffffffffffffffff021916908373ffffffffffffffffffffffffffffffffffffffff16021790555073d9145cce52d386f254917e481eb44e9943f39138601760006101000a81548173ffffffffffffffffffffffffffffffffffffffff021916908373ffffffffffffffffffffffffffffffffffffffff1602179055507307865c6e87b9f70255377e024ace6630c1eaa37f601860006101000a81548173ffffffffffffffffffffffffffffffffffffffff021916908373ffffffffffffffffffffffffffffffffffffffff1602179055503480156200016557600080fd5b50604051620057693803806200576983398181016040528101906200018b919062000d96565b733cc6cdda760b79bafa08df41ecfa224f810dceb6600186600060038110620001b957620001b862000e3e565b5b602002015187600160038110620001d557620001d462000e3e565b5b60200201518160029081620001eb9190620010ae565b508060039081620001fd9190620010ae565b506200020e620005ce60201b60201c565b6000819055505050620002366200022a620005d360201b60201c565b620005db60201b60201c565b6001600b8190555060006daaeb6d7670e522a718067333cd4e73ffffffffffffffffffffffffffffffffffffffff163b111562000433578015620002f9576daaeb6d7670e522a718067333cd4e73ffffffffffffffffffffffffffffffffffffffff16637d3e3dbe30846040518363ffffffff1660e01b8152600401620002bf929190620011a6565b600060405180830381600087803b158015620002da57600080fd5b505af1158015620002ef573d6000803e3d6000fd5b5050505062000432565b600073ffffffffffffffffffffffffffffffffffffffff168273ffffffffffffffffffffffffffffffffffffffff1614620003b3576daaeb6d7670e522a718067333cd4e73ffffffffffffffffffffffffffffffffffffffff1663a0af290330846040518363ffffffff1660e01b815260040162000379929190620011a6565b600060405180830381600087803b1580156200039457600080fd5b505af1158015620003a9573d6000803e3d6000fd5b5050505062000431565b6daaeb6d7670e522a718067333cd4e73ffffffffffffffffffffffffffffffffffffffff16634420e486306040518263ffffffff1660e01b8152600401620003fc9190620011d3565b600060405180830381600087803b1580156200041757600080fd5b505af11580156200042c573d6000803e3d6000fd5b505050505b5b5b5050846002600381106200044c576200044b62000e3e565b5b6020020151600c9081620004619190620010ae565b506000846000600481106200047b576200047a62000e3e565b5b602002015114620004c457836000600481106200049d576200049c62000e3e565b5b6020020151600e819055506001600d60006101000a81548160ff0219169083151502179055505b83600160048110620004db57620004da62000e3e565b5b6020020151600f81905550600084600260048110620004ff57620004fe62000e3e565b5b6020020151146200052d578360026004811062000521576200052062000e3e565b5b60200201516010819055505b4260118190555082601260006101000a81548160ff0219169083151502179055508360036004811062000565576200056462000e3e565b5b602002015160168190555081601760006101000a81548173ffffffffffffffffffffffffffffffffffffffff021916908373ffffffffffffffffffffffffffffffffffffffff160217905550620005c38282620006a160201b60201c565b50505050506200137d565b600090565b600033905090565b6000600a60009054906101000a900473ffffffffffffffffffffffffffffffffffffffff16905081600a60006101000a81548173ffffffffffffffffffffffffffffffffffffffff021916908373ffffffffffffffffffffffffffffffffffffffff1602179055508173ffffffffffffffffffffffffffffffffffffffff168173ffffffffffffffffffffffffffffffffffffffff167f8be0079c531659141344cd1fd0a4f28419497f9722a3daafe3b4186f6b6457e060405160405180910390a35050565b620006b1620006c760201b60201c565b620006c382826200075860201b60201c565b5050565b620006d7620005d360201b60201c565b73ffffffffffffffffffffffffffffffffffffffff16620006fd620008fb60201b60201c565b73ffffffffffffffffffffffffffffffffffffffff161462000756576040517f08c379a00000000000000000000000000000000000000000000000000000000081526004016200074d9062001251565b60405180910390fd5b565b620007686200092560201b60201c565b6bffffffffffffffffffffffff16816bffffffffffffffffffffffff161115620007c9576040517f08c379a0000000000000000000000000000000000000000000000000000000008152600401620007c090620012e9565b60405180910390fd5b600073ffffffffffffffffffffffffffffffffffffffff168273ffffffffffffffffffffffffffffffffffffffff16036200083b576040517f08c379a000000000000000000000000000000000000000000000000000000000815260040162000832906200135b565b60405180910390fd5b60405180604001604052808373ffffffffffffffffffffffffffffffffffffffff168152602001826bffffffffffffffffffffffff16815250600860008201518160000160006101000a81548173ffffffffffffffffffffffffffffffffffffffff021916908373ffffffffffffffffffffffffffffffffffffffff16021790555060208201518160000160146101000a8154816bffffffffffffffffffffffff02191690836bffffffffffffffffffffffff1602179055509050505050565b6000600a60009054906101000a900473ffffffffffffffffffffffffffffffffffffffff16905090565b6000612710905090565b6000604051905090565b600080fd5b600080fd5b600080fd5b6000601f19601f8301169050919050565b7f4e487b7100000000000000000000000000000000000000000000000000000000600052604160045260246000fd5b620009938262000948565b810181811067ffffffffffffffff82111715620009b557620009b462000959565b5b80604052505050565b6000620009ca6200092f565b9050620009d8828262000988565b919050565b600067ffffffffffffffff821115620009fb57620009fa62000959565b5b602082029050919050565b600080fd5b600080fd5b600067ffffffffffffffff82111562000a2e5762000a2d62000959565b5b62000a398262000948565b9050602081019050919050565b60005b8381101562000a6657808201518184015260208101905062000a49565b60008484015250505050565b600062000a8962000a838462000a10565b620009be565b90508281526020810184848401111562000aa85762000aa762000a0b565b5b62000ab584828562000a46565b509392505050565b600082601f83011262000ad55762000ad462000943565b5b815162000ae784826020860162000a72565b91505092915050565b600062000b0762000b0184620009dd565b620009be565b9050806020840283018581111562000b245762000b2362000a06565b5b835b8181101562000b7257805167ffffffffffffffff81111562000b4d5762000b4c62000943565b5b80860162000b5c898262000abd565b8552602085019450505060208101905062000b26565b5050509392505050565b600082601f83011262000b945762000b9362000943565b5b600362000ba384828562000af0565b91505092915050565b600067ffffffffffffffff82111562000bca5762000bc962000959565b5b602082029050919050565b6000819050919050565b62000bea8162000bd5565b811462000bf657600080fd5b50565b60008151905062000c0a8162000bdf565b92915050565b600062000c2762000c218462000bac565b620009be565b9050806020840283018581111562000c445762000c4362000a06565b5b835b8181101562000c71578062000c5c888262000bf9565b84526020840193505060208101905062000c46565b5050509392505050565b600082601f83011262000c935762000c9262000943565b5b600462000ca284828562000c10565b91505092915050565b60008115159050919050565b62000cc28162000cab565b811462000cce57600080fd5b50565b60008151905062000ce28162000cb7565b92915050565b600073ffffffffffffffffffffffffffffffffffffffff82169050919050565b600062000d158262000ce8565b9050919050565b62000d278162000d08565b811462000d3357600080fd5b50565b60008151905062000d478162000d1c565b92915050565b60006bffffffffffffffffffffffff82169050919050565b62000d708162000d4d565b811462000d7c57600080fd5b50565b60008151905062000d908162000d65565b92915050565b6000806000806000610100868803121562000db65762000db562000939565b5b600086015167ffffffffffffffff81111562000dd75762000dd66200093e565b5b62000de58882890162000b7c565b955050602062000df88882890162000c7b565b94505060a062000e0b8882890162000cd1565b93505060c062000e1e8882890162000d36565b92505060e062000e318882890162000d7f565b9150509295509295909350565b7f4e487b7100000000000000000000000000000000000000000000000000000000600052603260045260246000fd5b600081519050919050565b7f4e487b7100000000000000000000000000000000000000000000000000000000600052602260045260246000fd5b6000600282049050600182168062000ec057607f821691505b60208210810362000ed65762000ed562000e78565b5b50919050565b60008190508160005260206000209050919050565b60006020601f8301049050919050565b600082821b905092915050565b60006008830262000f407fffffffffffffffffffffffffffffffffffffffffffffffffffffffffffffffff8262000f01565b62000f4c868362000f01565b95508019841693508086168417925050509392505050565b6000819050919050565b600062000f8f62000f8962000f838462000bd5565b62000f64565b62000bd5565b9050919050565b6000819050919050565b62000fab8362000f6e565b62000fc362000fba8262000f96565b84845462000f0e565b825550505050565b600090565b62000fda62000fcb565b62000fe781848462000fa0565b505050565b5b818110156200100f576200100360008262000fd0565b60018101905062000fed565b5050565b601f8211156200105e57620010288162000edc565b620010338462000ef1565b8101602085101562001043578190505b6200105b620010528562000ef1565b83018262000fec565b50505b505050565b600082821c905092915050565b6000620010836000198460080262001063565b1980831691505092915050565b60006200109e838362001070565b9150826002028217905092915050565b620010b98262000e6d565b67ffffffffffffffff811115620010d557620010d462000959565b5b620010e1825462000ea7565b620010ee82828562001013565b600060209050601f83116001811462001126576000841562001111578287015190505b6200111d858262001090565b8655506200118d565b601f198416620011368662000edc565b60005b82811015620011605784890151825560018201915060208501945060208101905062001139565b868310156200118057848901516200117c601f89168262001070565b8355505b6001600288020188555050505b505050505050565b620011a08162000d08565b82525050565b6000604082019050620011bd600083018562001195565b620011cc602083018462001195565b9392505050565b6000602082019050620011ea600083018462001195565b92915050565b600082825260208201905092915050565b7f4f776e61626c653a2063616c6c6572206973206e6f7420746865206f776e6572600082015250565b600062001239602083620011f0565b9150620012468262001201565b602082019050919050565b600060208201905081810360008301526200126c816200122a565b9050919050565b7f455243323938313a20726f79616c7479206665652077696c6c2065786365656460008201527f2073616c65507269636500000000000000000000000000000000000000000000602082015250565b6000620012d1602a83620011f0565b9150620012de8262001273565b604082019050919050565b600060208201905081810360008301526200130481620012c2565b9050919050565b7f455243323938313a20696e76616c696420726563656976657200000000000000600082015250565b600062001343601983620011f0565b915062001350826200130b565b602082019050919050565b60006020820190508181036000830152620013768162001334565b9050919050565b6143dc806200138d6000396000f3fe6080604052600436106101cd5760003560e01c80635fa3002c116100f7578063b88d4fde11610095578063d8fc063d11610064578063d8fc063d14610625578063e985e9c51461063c578063f2fde38b14610679578063fe92b093146106a2576101cd565b8063b88d4fde14610599578063b9ce8b1c146105b5578063c87b56dd146105d1578063cdfd0e2c1461060e576101cd565b8063715018a6116100d1578063715018a6146105035780638da5cb5b1461051a57806395d89b4114610545578063a22cb46514610570576101cd565b80635fa3002c146104605780636352211e1461048957806370a08231146104c6576101cd565b806323b872dd1161016f57806341f434341161013e57806341f43434146103b357806342842e0e146103de5780635412033c146103fa57806355f804b314610437576101cd565b806323b872dd146103035780632a55205a1461031f5780633499efa51461035d5780633e413bee14610388576101cd565b8063081812fc116101ab578063081812fc14610263578063095ea7b3146102a0578063156e29f6146102bc57806318160ddd146102d8576101cd565b806301ffc9a7146101d257806302fa7c471461020f57806306fdde0314610238575b600080fd5b3480156101de57600080fd5b506101f960048036038101906101f49190612c9c565b6106cb565b6040516102069190612ce4565b60405180910390f35b34801561021b57600080fd5b5061023660048036038101906102319190612da1565b6107d5565b005b34801561024457600080fd5b5061024d6107eb565b60405161025a9190612e71565b60405180910390f35b34801561026f57600080fd5b5061028a60048036038101906102859190612ec9565b61087d565b6040516102979190612f05565b60405180910390f35b6102ba60048036038101906102b59190612f20565b6108fc565b005b6102d660048036038101906102d19190612f60565b610915565b005b3480156102e457600080fd5b506102ed610f7b565b6040516102fa9190612fc2565b60405180910390f35b61031d60048036038101906103189190612fdd565b610f92565b005b34801561032b57600080fd5b5061034660048036038101906103419190613030565b610fe1565b604051610354929190613070565b60405180910390f35b34801561036957600080fd5b506103726111cb565b60405161037f9190612fc2565b60405180910390f35b34801561039457600080fd5b5061039d6111d1565b6040516103aa91906130f8565b60405180910390f35b3480156103bf57600080fd5b506103c86111f7565b6040516103d59190613134565b60405180910390f35b6103f860048036038101906103f39190612fdd565b611209565b005b34801561040657600080fd5b50610421600480360381019061041c919061314f565b611258565b60405161042e9190612fc2565b60405180910390f35b34801561044357600080fd5b5061045e600480360381019061045991906132b1565b611270565b005b34801561046c57600080fd5b5061048760048036038101906104829190613336565b611312565b005b34801561049557600080fd5b506104b060048036038101906104ab9190612ec9565b611379565b6040516104bd9190612f05565b60405180910390f35b3480156104d257600080fd5b506104ed60048036038101906104e8919061314f565b61138b565b6040516104fa9190612fc2565b60405180910390f35b34801561050f57600080fd5b50610518611443565b005b34801561052657600080fd5b5061052f611457565b60405161053c9190612f05565b60405180910390f35b34801561055157600080fd5b5061055a611481565b6040516105679190612e71565b60405180910390f35b34801561057c57600080fd5b506105976004803603810190610592919061338f565b611513565b005b6105b360048036038101906105ae9190613470565b61152c565b005b6105cf60048036038101906105ca91906134f3565b61157d565b005b3480156105dd57600080fd5b506105f860048036038101906105f39190612ec9565b6116bf565b6040516106059190612e71565b60405180910390f35b34801561061a57600080fd5b5061062361175d565b005b34801561063157600080fd5b5061063a61176f565b005b34801561064857600080fd5b50610663600480360381019061065e9190613546565b61195c565b6040516106709190612ce4565b60405180910390f35b34801561068557600080fd5b506106a0600480360381019061069b919061314f565b6119f0565b005b3480156106ae57600080fd5b506106c960048036038101906106c49190612ec9565b611a73565b005b60007f2a55205a000000000000000000000000000000000000000000000000000000007bffffffffffffffffffffffffffffffffffffffffffffffffffffffff1916827bffffffffffffffffffffffffffffffffffffffffffffffffffffffff1916148061075e57506301ffc9a760e01b827bffffffffffffffffffffffffffffffffffffffffffffffffffffffff1916145b8061078e57506380ac58cd60e01b827bffffffffffffffffffffffffffffffffffffffffffffffffffffffff1916145b806107be5750635b5e139f60e01b827bffffffffffffffffffffffffffffffffffffffffffffffffffffffff1916145b806107ce57506107cd82611aca565b5b9050919050565b6107dd611b44565b6107e78282611bc2565b5050565b6060600280546107fa906135b5565b80601f0160208091040260200160405190810160405280929190818152602001828054610826906135b5565b80156108735780601f1061084857610100808354040283529160200191610873565b820191906000526020600020905b81548152906001019060200180831161085657829003601f168201915b5050505050905090565b600061088882611d57565b6108be576040517fcf4700e400000000000000000000000000000000000000000000000000000000815260040160405180910390fd5b6006600083815260200190815260200160002060000160009054906101000a900473ffffffffffffffffffffffffffffffffffffffff169050919050565b8161090681611db6565b6109108383611eb3565b505050565b61091d611ff7565b600f5482610929612046565b6109339190613615565b1115610974576040517f08c379a000000000000000000000000000000000000000000000000000000000815260040161096b906136bb565b60405180910390fd5b60011515600d60009054906101000a900460ff16151503610a1f57600e5482601360008673ffffffffffffffffffffffffffffffffffffffff1673ffffffffffffffffffffffffffffffffffffffff168152602001908152602001600020546109dd9190613615565b1115610a1e576040517f08c379a0000000000000000000000000000000000000000000000000000000008152600401610a159061374d565b60405180910390fd5b5b601054601154610a2f9190613615565b421015610a71576040517f08c379a0000000000000000000000000000000000000000000000000000000008152600401610a68906137df565b60405180910390fd5b80601860009054906101000a900473ffffffffffffffffffffffffffffffffffffffff1673ffffffffffffffffffffffffffffffffffffffff1663dd62ed3e33306040518363ffffffff1660e01b8152600401610acf9291906137ff565b602060405180830381865afa158015610aec573d6000803e3d6000fd5b505050506040513d601f19601f82011682018060405250810190610b10919061383d565b1015610b51576040517f08c379a0000000000000000000000000000000000000000000000000000000008152600401610b48906138dc565b60405180910390fd5b81601654610b5f91906138fc565b811015610ba1576040517f08c379a0000000000000000000000000000000000000000000000000000000008152600401610b98906139b0565b60405180910390fd5b6000601860009054906101000a900473ffffffffffffffffffffffffffffffffffffffff1673ffffffffffffffffffffffffffffffffffffffff166323b872dd3330856040518463ffffffff1660e01b8152600401610c02939291906139d0565b6020604051808303816000875af1158015610c21573d6000803e3d6000fd5b505050506040513d601f19601f82011682018060405250810190610c459190613a1c565b905080610c87576040517f08c379a0000000000000000000000000000000000000000000000000000000008152600401610c7e90613a95565b60405180910390fd5b6000610c9483605061204f565b90506000610ca3826064612065565b90506000601860009054906101000a900473ffffffffffffffffffffffffffffffffffffffff1673ffffffffffffffffffffffffffffffffffffffff1663a9059cbb601560009054906101000a900473ffffffffffffffffffffffffffffffffffffffff16846040518363ffffffff1660e01b8152600401610d26929190613070565b6020604051808303816000875af1158015610d45573d6000803e3d6000fd5b505050506040513d601f19601f82011682018060405250810190610d699190613a1c565b905080610dab576040517f08c379a0000000000000000000000000000000000000000000000000000000008152600401610da290613b01565b60405180910390fd5b6000610db886601461204f565b90506000610dc7826064612065565b90506000601860009054906101000a900473ffffffffffffffffffffffffffffffffffffffff1673ffffffffffffffffffffffffffffffffffffffff1663a9059cbb601460009054906101000a900473ffffffffffffffffffffffffffffffffffffffff16846040518363ffffffff1660e01b8152600401610e4a929190613070565b6020604051808303816000875af1158015610e69573d6000803e3d6000fd5b505050506040513d601f19601f82011682018060405250810190610e8d9190613a1c565b905080610ecf576040517f08c379a0000000000000000000000000000000000000000000000000000000008152600401610ec690613b01565b60405180910390fd5b88601360008c73ffffffffffffffffffffffffffffffffffffffff1673ffffffffffffffffffffffffffffffffffffffff16815260200190815260200160002054610f1a9190613615565b601360008c73ffffffffffffffffffffffffffffffffffffffff1673ffffffffffffffffffffffffffffffffffffffff16815260200190815260200160002081905550610f678a8a61207b565b50505050505050610f76612236565b505050565b6000610f85612240565b6001546000540303905090565b823373ffffffffffffffffffffffffffffffffffffffff168173ffffffffffffffffffffffffffffffffffffffff1614610fd057610fcf33611db6565b5b610fdb848484612245565b50505050565b6000806000600960008681526020019081526020016000206040518060400160405290816000820160009054906101000a900473ffffffffffffffffffffffffffffffffffffffff1673ffffffffffffffffffffffffffffffffffffffff1673ffffffffffffffffffffffffffffffffffffffff1681526020016000820160149054906101000a90046bffffffffffffffffffffffff166bffffffffffffffffffffffff166bffffffffffffffffffffffff16815250509050600073ffffffffffffffffffffffffffffffffffffffff16816000015173ffffffffffffffffffffffffffffffffffffffff16036111765760086040518060400160405290816000820160009054906101000a900473ffffffffffffffffffffffffffffffffffffffff1673ffffffffffffffffffffffffffffffffffffffff1673ffffffffffffffffffffffffffffffffffffffff1681526020016000820160149054906101000a90046bffffffffffffffffffffffff166bffffffffffffffffffffffff166bffffffffffffffffffffffff168152505090505b6000611180612567565b6bffffffffffffffffffffffff1682602001516bffffffffffffffffffffffff16866111ac91906138fc565b6111b69190613b50565b90508160000151819350935050509250929050565b600f5481565b601860009054906101000a900473ffffffffffffffffffffffffffffffffffffffff1681565b6daaeb6d7670e522a718067333cd4e81565b823373ffffffffffffffffffffffffffffffffffffffff168173ffffffffffffffffffffffffffffffffffffffff16146112475761124633611db6565b5b611252848484612571565b50505050565b60136020528060005260406000206000915090505481565b600c6040516020016112829190613c24565b60405160208183030381529060405280519060200120816040516020016112a99190613c6c565b60405160208183030381529060405280519060200120036112ff576040517f08c379a00000000000000000000000000000000000000000000000000000000081526004016112f690613cf5565b60405180910390fd5b80600c908161130e9190613ea2565b5050565b61131a611b44565b601260009054906101000a900460ff16611369576040517f08c379a000000000000000000000000000000000000000000000000000000000815260040161136090613fc0565b60405180910390fd5b8063ffffffff16600f8190555050565b600061138482612591565b9050919050565b60008073ffffffffffffffffffffffffffffffffffffffff168273ffffffffffffffffffffffffffffffffffffffff16036113f2576040517f8f4eb60400000000000000000000000000000000000000000000000000000000815260040160405180910390fd5b67ffffffffffffffff600560008473ffffffffffffffffffffffffffffffffffffffff1673ffffffffffffffffffffffffffffffffffffffff16815260200190815260200160002054169050919050565b61144b611b44565b611455600061265d565b565b6000600a60009054906101000a900473ffffffffffffffffffffffffffffffffffffffff16905090565b606060038054611490906135b5565b80601f01602080910402602001604051908101604052809291908181526020018280546114bc906135b5565b80156115095780601f106114de57610100808354040283529160200191611509565b820191906000526020600020905b8154815290600101906020018083116114ec57829003601f168201915b5050505050905090565b8161151d81611db6565b6115278383612723565b505050565b833373ffffffffffffffffffffffffffffffffffffffff168173ffffffffffffffffffffffffffffffffffffffff161461156a5761156933611db6565b5b6115768585858561282e565b5050505050565b8261158781611db6565b600061159284611379565b90508073ffffffffffffffffffffffffffffffffffffffff168373ffffffffffffffffffffffffffffffffffffffff1614611608576115d1818461195c565b611607576040517fcfb3b94200000000000000000000000000000000000000000000000000000000815260040160405180910390fd5b5b846006600086815260200190815260200160002060000160006101000a81548173ffffffffffffffffffffffffffffffffffffffff021916908373ffffffffffffffffffffffffffffffffffffffff160217905550838573ffffffffffffffffffffffffffffffffffffffff168273ffffffffffffffffffffffffffffffffffffffff167f8c5be1e5ebec7d5bd14f71427d1e84f3dd0314c0f7b2291e5b200ac8c7c3b92560405160405180910390a45050505050565b60606116ca82611d57565b611700576040517fa14c4b5000000000000000000000000000000000000000000000000000000000815260040160405180910390fd5b600061170a6128a1565b9050600081510361172a5760405180602001604052806000815250611755565b8061173484612933565b60405160200161174592919061402c565b6040516020818303038152906040525b915050919050565b611765611b44565b6000601081905550565b611777611b44565b6000601860009054906101000a900473ffffffffffffffffffffffffffffffffffffffff1673ffffffffffffffffffffffffffffffffffffffff166370a08231306040518263ffffffff1660e01b81526004016117d49190612f05565b602060405180830381865afa1580156117f1573d6000803e3d6000fd5b505050506040513d601f19601f82011682018060405250810190611815919061383d565b9050601860009054906101000a900473ffffffffffffffffffffffffffffffffffffffff1673ffffffffffffffffffffffffffffffffffffffff1663095ea7b333836040518363ffffffff1660e01b8152600401611874929190613070565b6020604051808303816000875af1158015611893573d6000803e3d6000fd5b505050506040513d601f19601f820116820180604052508101906118b79190613a1c565b50601860009054906101000a900473ffffffffffffffffffffffffffffffffffffffff1673ffffffffffffffffffffffffffffffffffffffff1663a9059cbb33836040518363ffffffff1660e01b8152600401611915929190613070565b6020604051808303816000875af1158015611934573d6000803e3d6000fd5b505050506040513d601f19601f820116820180604052508101906119589190613a1c565b5050565b6000600760008473ffffffffffffffffffffffffffffffffffffffff1673ffffffffffffffffffffffffffffffffffffffff16815260200190815260200160002060008373ffffffffffffffffffffffffffffffffffffffff1673ffffffffffffffffffffffffffffffffffffffff16815260200190815260200160002060009054906101000a900460ff16905092915050565b6119f8611b44565b600073ffffffffffffffffffffffffffffffffffffffff168173ffffffffffffffffffffffffffffffffffffffff1603611a67576040517f08c379a0000000000000000000000000000000000000000000000000000000008152600401611a5e906140cd565b60405180910390fd5b611a708161265d565b50565b611a7b611b44565b6000811115611aab576001600d60006101000a81548160ff02191690831515021790555080600e81905550611ac7565b6000600d60006101000a81548160ff0219169083151502179055505b50565b60007f2a55205a000000000000000000000000000000000000000000000000000000007bffffffffffffffffffffffffffffffffffffffffffffffffffffffff1916827bffffffffffffffffffffffffffffffffffffffffffffffffffffffff19161480611b3d5750611b3c82612983565b5b9050919050565b611b4c6129ed565b73ffffffffffffffffffffffffffffffffffffffff16611b6a611457565b73ffffffffffffffffffffffffffffffffffffffff1614611bc0576040517f08c379a0000000000000000000000000000000000000000000000000000000008152600401611bb790614139565b60405180910390fd5b565b611bca612567565b6bffffffffffffffffffffffff16816bffffffffffffffffffffffff161115611c28576040517f08c379a0000000000000000000000000000000000000000000000000000000008152600401611c1f906141cb565b60405180910390fd5b600073ffffffffffffffffffffffffffffffffffffffff168273ffffffffffffffffffffffffffffffffffffffff1603611c97576040517f08c379a0000000000000000000000000000000000000000000000000000000008152600401611c8e90614237565b60405180910390fd5b60405180604001604052808373ffffffffffffffffffffffffffffffffffffffff168152602001826bffffffffffffffffffffffff16815250600860008201518160000160006101000a81548173ffffffffffffffffffffffffffffffffffffffff021916908373ffffffffffffffffffffffffffffffffffffffff16021790555060208201518160000160146101000a8154816bffffffffffffffffffffffff02191690836bffffffffffffffffffffffff1602179055509050505050565b600081611d62612240565b11158015611d71575060005482105b8015611daf575060007c0100000000000000000000000000000000000000000000000000000000600460008581526020019081526020016000205416145b9050919050565b60006daaeb6d7670e522a718067333cd4e73ffffffffffffffffffffffffffffffffffffffff163b1115611eb0576daaeb6d7670e522a718067333cd4e73ffffffffffffffffffffffffffffffffffffffff1663c617113430836040518363ffffffff1660e01b8152600401611e2d9291906137ff565b602060405180830381865afa158015611e4a573d6000803e3d6000fd5b505050506040513d601f19601f82011682018060405250810190611e6e9190613a1c565b611eaf57806040517fede71dcc000000000000000000000000000000000000000000000000000000008152600401611ea69190612f05565b60405180910390fd5b5b50565b6000611ebe82611379565b90508073ffffffffffffffffffffffffffffffffffffffff16611edf6129f5565b73ffffffffffffffffffffffffffffffffffffffff1614611f4257611f0b81611f066129f5565b61195c565b611f41576040517fcfb3b94200000000000000000000000000000000000000000000000000000000815260040160405180910390fd5b5b826006600084815260200190815260200160002060000160006101000a81548173ffffffffffffffffffffffffffffffffffffffff021916908373ffffffffffffffffffffffffffffffffffffffff160217905550818373ffffffffffffffffffffffffffffffffffffffff168273ffffffffffffffffffffffffffffffffffffffff167f8c5be1e5ebec7d5bd14f71427d1e84f3dd0314c0f7b2291e5b200ac8c7c3b92560405160405180910390a4505050565b6002600b540361203c576040517f08c379a0000000000000000000000000000000000000000000000000000000008152600401612033906142a3565b60405180910390fd5b6002600b81905550565b60008054905090565b6000818361205d91906138fc565b905092915050565b600081836120739190613b50565b905092915050565b600080549050600082036120bb576040517fb562e8dd00000000000000000000000000000000000000000000000000000000815260040160405180910390fd5b6120c860008483856129fd565b600160406001901b178202600560008573ffffffffffffffffffffffffffffffffffffffff1673ffffffffffffffffffffffffffffffffffffffff1681526020019081526020016000206000828254019250508190555061213f836121306000866000612a03565b61213985612a2b565b17612a3b565b6004600083815260200190815260200160002081905550600080838301905073ffffffffffffffffffffffffffffffffffffffff85169150828260007fddf252ad1be2c89b69c2b068fc378daa952ba7f163c4a11628f55a4df523b3ef600080a4600183015b8181146121e057808360007fddf252ad1be2c89b69c2b068fc378daa952ba7f163c4a11628f55a4df523b3ef600080a46001810190506121a5565b506000820361221b576040517f2e07630000000000000000000000000000000000000000000000000000000000815260040160405180910390fd5b8060008190555050506122316000848385612a66565b505050565b6001600b81905550565b600090565b600061225082612591565b90508373ffffffffffffffffffffffffffffffffffffffff168173ffffffffffffffffffffffffffffffffffffffff16146122b7576040517fa114810000000000000000000000000000000000000000000000000000000000815260040160405180910390fd5b6000806122c384612a6c565b915091506122d981876122d46129f5565b612a93565b612325576122ee866122e96129f5565b61195c565b612324576040517f59c896be00000000000000000000000000000000000000000000000000000000815260040160405180910390fd5b5b600073ffffffffffffffffffffffffffffffffffffffff168573ffffffffffffffffffffffffffffffffffffffff160361238b576040517fea553b3400000000000000000000000000000000000000000000000000000000815260040160405180910390fd5b61239886868660016129fd565b80156123a357600082555b600560008773ffffffffffffffffffffffffffffffffffffffff1673ffffffffffffffffffffffffffffffffffffffff168152602001908152602001600020600081546001900391905081905550600560008673ffffffffffffffffffffffffffffffffffffffff1673ffffffffffffffffffffffffffffffffffffffff16815260200190815260200160002060008154600101919050819055506124718561244d888887612a03565b7c020000000000000000000000000000000000000000000000000000000017612a3b565b600460008681526020019081526020016000208190555060007c02000000000000000000000000000000000000000000000000000000008416036124f757600060018501905060006004600083815260200190815260200160002054036124f55760005481146124f4578360046000838152602001908152602001600020819055505b5b505b838573ffffffffffffffffffffffffffffffffffffffff168773ffffffffffffffffffffffffffffffffffffffff167fddf252ad1be2c89b69c2b068fc378daa952ba7f163c4a11628f55a4df523b3ef60405160405180910390a461255f8686866001612a66565b505050505050565b6000612710905090565b61258c8383836040518060200160405280600081525061152c565b505050565b600080829050806125a0612240565b11612626576000548110156126255760006004600083815260200190815260200160002054905060007c0100000000000000000000000000000000000000000000000000000000821603612623575b600081036126195760046000836001900393508381526020019081526020016000205490506125ef565b8092505050612658565b505b5b6040517fdf2d9b4200000000000000000000000000000000000000000000000000000000815260040160405180910390fd5b919050565b6000600a60009054906101000a900473ffffffffffffffffffffffffffffffffffffffff16905081600a60006101000a81548173ffffffffffffffffffffffffffffffffffffffff021916908373ffffffffffffffffffffffffffffffffffffffff1602179055508173ffffffffffffffffffffffffffffffffffffffff168173ffffffffffffffffffffffffffffffffffffffff167f8be0079c531659141344cd1fd0a4f28419497f9722a3daafe3b4186f6b6457e060405160405180910390a35050565b80600760006127306129f5565b73ffffffffffffffffffffffffffffffffffffffff1673ffffffffffffffffffffffffffffffffffffffff16815260200190815260200160002060008473ffffffffffffffffffffffffffffffffffffffff1673ffffffffffffffffffffffffffffffffffffffff16815260200190815260200160002060006101000a81548160ff0219169083151502179055508173ffffffffffffffffffffffffffffffffffffffff166127dd6129f5565b73ffffffffffffffffffffffffffffffffffffffff167f17307eab39ab6107e8899845ad3d59bd9653f200f220920489ca2b5937696c31836040516128229190612ce4565b60405180910390a35050565b612839848484610f92565b60008373ffffffffffffffffffffffffffffffffffffffff163b1461289b5761286484848484612ad7565b61289a576040517fd1a57ed600000000000000000000000000000000000000000000000000000000815260040160405180910390fd5b5b50505050565b6060600c80546128b0906135b5565b80601f01602080910402602001604051908101604052809291908181526020018280546128dc906135b5565b80156129295780601f106128fe57610100808354040283529160200191612929565b820191906000526020600020905b81548152906001019060200180831161290c57829003601f168201915b5050505050905090565b606060a060405101806040526020810391506000825281835b60011561296e57600184039350600a81066030018453600a810490508061294c575b50828103602084039350808452505050919050565b60007f01ffc9a7000000000000000000000000000000000000000000000000000000007bffffffffffffffffffffffffffffffffffffffffffffffffffffffff1916827bffffffffffffffffffffffffffffffffffffffffffffffffffffffff1916149050919050565b600033905090565b600033905090565b50505050565b60008060e883901c905060e8612a1a868684612c27565b62ffffff16901b9150509392505050565b60006001821460e11b9050919050565b600073ffffffffffffffffffffffffffffffffffffffff83169250814260a01b178317905092915050565b50505050565b60008060006006600085815260200190815260200160002090508092508254915050915091565b600073ffffffffffffffffffffffffffffffffffffffff8316925073ffffffffffffffffffffffffffffffffffffffff821691508382148383141790509392505050565b60008373ffffffffffffffffffffffffffffffffffffffff1663150b7a02612afd6129f5565b8786866040518563ffffffff1660e01b8152600401612b1f9493929190614318565b6020604051808303816000875af1925050508015612b5b57506040513d601f19601f82011682018060405250810190612b589190614379565b60015b612bd4573d8060008114612b8b576040519150601f19603f3d011682016040523d82523d6000602084013e612b90565b606091505b506000815103612bcc576040517fd1a57ed600000000000000000000000000000000000000000000000000000000815260040160405180910390fd5b805181602001fd5b63150b7a0260e01b7bffffffffffffffffffffffffffffffffffffffffffffffffffffffff1916817bffffffffffffffffffffffffffffffffffffffffffffffffffffffff191614915050949350505050565b60009392505050565b6000604051905090565b600080fd5b600080fd5b60007fffffffff0000000000000000000000000000000000000000000000000000000082169050919050565b612c7981612c44565b8114612c8457600080fd5b50565b600081359050612c9681612c70565b92915050565b600060208284031215612cb257612cb1612c3a565b5b6000612cc084828501612c87565b91505092915050565b60008115159050919050565b612cde81612cc9565b82525050565b6000602082019050612cf96000830184612cd5565b92915050565b600073ffffffffffffffffffffffffffffffffffffffff82169050919050565b6000612d2a82612cff565b9050919050565b612d3a81612d1f565b8114612d4557600080fd5b50565b600081359050612d5781612d31565b92915050565b60006bffffffffffffffffffffffff82169050919050565b612d7e81612d5d565b8114612d8957600080fd5b50565b600081359050612d9b81612d75565b92915050565b60008060408385031215612db857612db7612c3a565b5b6000612dc685828601612d48565b9250506020612dd785828601612d8c565b9150509250929050565b600081519050919050565b600082825260208201905092915050565b60005b83811015612e1b578082015181840152602081019050612e00565b60008484015250505050565b6000601f19601f8301169050919050565b6000612e4382612de1565b612e4d8185612dec565b9350612e5d818560208601612dfd565b612e6681612e27565b840191505092915050565b60006020820190508181036000830152612e8b8184612e38565b905092915050565b6000819050919050565b612ea681612e93565b8114612eb157600080fd5b50565b600081359050612ec381612e9d565b92915050565b600060208284031215612edf57612ede612c3a565b5b6000612eed84828501612eb4565b91505092915050565b612eff81612d1f565b82525050565b6000602082019050612f1a6000830184612ef6565b92915050565b60008060408385031215612f3757612f36612c3a565b5b6000612f4585828601612d48565b9250506020612f5685828601612eb4565b9150509250929050565b600080600060608486031215612f7957612f78612c3a565b5b6000612f8786828701612d48565b9350506020612f9886828701612eb4565b9250506040612fa986828701612eb4565b9150509250925092565b612fbc81612e93565b82525050565b6000602082019050612fd76000830184612fb3565b92915050565b600080600060608486031215612ff657612ff5612c3a565b5b600061300486828701612d48565b935050602061301586828701612d48565b925050604061302686828701612eb4565b9150509250925092565b6000806040838503121561304757613046612c3a565b5b600061305585828601612eb4565b925050602061306685828601612eb4565b9150509250929050565b60006040820190506130856000830185612ef6565b6130926020830184612fb3565b9392505050565b6000819050919050565b60006130be6130b96130b484612cff565b613099565b612cff565b9050919050565b60006130d0826130a3565b9050919050565b60006130e2826130c5565b9050919050565b6130f2816130d7565b82525050565b600060208201905061310d60008301846130e9565b92915050565b600061311e826130c5565b9050919050565b61312e81613113565b82525050565b60006020820190506131496000830184613125565b92915050565b60006020828403121561316557613164612c3a565b5b600061317384828501612d48565b91505092915050565b600080fd5b600080fd5b7f4e487b7100000000000000000000000000000000000000000000000000000000600052604160045260246000fd5b6131be82612e27565b810181811067ffffffffffffffff821117156131dd576131dc613186565b5b80604052505050565b60006131f0612c30565b90506131fc82826131b5565b919050565b600067ffffffffffffffff82111561321c5761321b613186565b5b61322582612e27565b9050602081019050919050565b82818337600083830152505050565b600061325461324f84613201565b6131e6565b9050828152602081018484840111156132705761326f613181565b5b61327b848285613232565b509392505050565b600082601f8301126132985761329761317c565b5b81356132a8848260208601613241565b91505092915050565b6000602082840312156132c7576132c6612c3a565b5b600082013567ffffffffffffffff8111156132e5576132e4612c3f565b5b6132f184828501613283565b91505092915050565b600063ffffffff82169050919050565b613313816132fa565b811461331e57600080fd5b50565b6000813590506133308161330a565b92915050565b60006020828403121561334c5761334b612c3a565b5b600061335a84828501613321565b91505092915050565b61336c81612cc9565b811461337757600080fd5b50565b60008135905061338981613363565b92915050565b600080604083850312156133a6576133a5612c3a565b5b60006133b485828601612d48565b92505060206133c58582860161337a565b9150509250929050565b600067ffffffffffffffff8211156133ea576133e9613186565b5b6133f382612e27565b9050602081019050919050565b600061341361340e846133cf565b6131e6565b90508281526020810184848401111561342f5761342e613181565b5b61343a848285613232565b509392505050565b600082601f8301126134575761345661317c565b5b8135613467848260208601613400565b91505092915050565b6000806000806080858703121561348a57613489612c3a565b5b600061349887828801612d48565b94505060206134a987828801612d48565b93505060406134ba87828801612eb4565b925050606085013567ffffffffffffffff8111156134db576134da612c3f565b5b6134e787828801613442565b91505092959194509250565b60008060006060848603121561350c5761350b612c3a565b5b600061351a86828701612d48565b935050602061352b86828701612eb4565b925050604061353c86828701612d48565b9150509250925092565b6000806040838503121561355d5761355c612c3a565b5b600061356b85828601612d48565b925050602061357c85828601612d48565b9150509250929050565b7f4e487b7100000000000000000000000000000000000000000000000000000000600052602260045260246000fd5b600060028204905060018216806135cd57607f821691505b6020821081036135e0576135df613586565b5b50919050565b7f4e487b7100000000000000000000000000000000000000000000000000000000600052601160045260246000fd5b600061362082612e93565b915061362b83612e93565b9250828201905080821115613643576136426135e6565b5b92915050565b7f4c696d6974206f6620636f6c6c656374696f6e204e465420726561636865642060008201527f6f7220746f6f206d756368204e4654732061736b656400000000000000000000602082015250565b60006136a5603683612dec565b91506136b082613649565b604082019050919050565b600060208201905081810360008301526136d481613698565b9050919050565b7f4c696d6974206f66206f776e6564204e46542072656163686564206f7220746f60008201527f6f206d756368204e4654732061736b6564000000000000000000000000000000602082015250565b6000613737603183612dec565b9150613742826136db565b604082019050919050565b600060208201905081810360008301526137668161372a565b9050919050565b7f43616e6e6f74206d696e742e20436865636b204c61756e63687061642064617460008201527f6520210000000000000000000000000000000000000000000000000000000000602082015250565b60006137c9602383612dec565b91506137d48261376d565b604082019050919050565b600060208201905081810360008301526137f8816137bc565b9050919050565b60006040820190506138146000830185612ef6565b6138216020830184612ef6565b9392505050565b60008151905061383781612e9d565b92915050565b60006020828403121561385357613852612c3a565b5b600061386184828501613828565b91505092915050565b7f506c65617365206d616b65207375726520796f75206861766520617070726f7660008201527f6520656e6f756768742055534443202100000000000000000000000000000000602082015250565b60006138c6603083612dec565b91506138d18261386a565b604082019050919050565b600060208201905081810360008301526138f5816138b9565b9050919050565b600061390782612e93565b915061391283612e93565b925082820261392081612e93565b91508282048414831517613937576139366135e6565b5b5092915050565b7f4e6f7420656e6f75676820555344432073656e743b20636865636b207072696360008201527f6521000000000000000000000000000000000000000000000000000000000000602082015250565b600061399a602283612dec565b91506139a58261393e565b604082019050919050565b600060208201905081810360008301526139c98161398d565b9050919050565b60006060820190506139e56000830186612ef6565b6139f26020830185612ef6565b6139ff6040830184612fb3565b949350505050565b600081519050613a1681613363565b92915050565b600060208284031215613a3257613a31612c3a565b5b6000613a4084828501613a07565b91505092915050565b7f5472616e736374696f6e20776173206e6f74207375636365737366756c000000600082015250565b6000613a7f601d83612dec565b9150613a8a82613a49565b602082019050919050565b60006020820190508181036000830152613aae81613a72565b9050919050565b7f5472616e73616374696f6e20776173206e6f74207375636365737366756c0000600082015250565b6000613aeb601e83612dec565b9150613af682613ab5565b602082019050919050565b60006020820190508181036000830152613b1a81613ade565b9050919050565b7f4e487b7100000000000000000000000000000000000000000000000000000000600052601260045260246000fd5b6000613b5b82612e93565b9150613b6683612e93565b925082613b7657613b75613b21565b5b828204905092915050565b600081905092915050565b60008190508160005260206000209050919050565b60008154613bae816135b5565b613bb88186613b81565b94506001821660008114613bd35760018114613be857613c1b565b60ff1983168652811515820286019350613c1b565b613bf185613b8c565b60005b83811015613c1357815481890152600182019150602081019050613bf4565b838801955050505b50505092915050565b6000613c308284613ba1565b915081905092915050565b6000613c4682612de1565b613c508185613b81565b9350613c60818560208601612dfd565b80840191505092915050565b6000613c788284613c3b565b915081905092915050565b7f5468652055524920697320616c72656164792073657420746f2074686520657860008201527f6163742073616d65205552492021000000000000000000000000000000000000602082015250565b6000613cdf602e83612dec565b9150613cea82613c83565b604082019050919050565b60006020820190508181036000830152613d0e81613cd2565b9050919050565b60006020601f8301049050919050565b600082821b905092915050565b600060088302613d627fffffffffffffffffffffffffffffffffffffffffffffffffffffffffffffffff82613d25565b613d6c8683613d25565b95508019841693508086168417925050509392505050565b6000613d9f613d9a613d9584612e93565b613099565b612e93565b9050919050565b6000819050919050565b613db983613d84565b613dcd613dc582613da6565b848454613d32565b825550505050565b600090565b613de2613dd5565b613ded818484613db0565b505050565b5b81811015613e1157613e06600082613dda565b600181019050613df3565b5050565b601f821115613e5657613e2781613b8c565b613e3084613d15565b81016020851015613e3f578190505b613e53613e4b85613d15565b830182613df2565b50505b505050565b600082821c905092915050565b6000613e7960001984600802613e5b565b1980831691505092915050565b6000613e928383613e68565b9150826002028217905092915050565b613eab82612de1565b67ffffffffffffffff811115613ec457613ec3613186565b5b613ece82546135b5565b613ed9828285613e15565b600060209050601f831160018114613f0c5760008415613efa578287015190505b613f048582613e86565b865550613f6c565b601f198416613f1a86613b8c565b60005b82811015613f4257848901518255600182019150602085019450602081019050613f1d565b86831015613f5f5784890151613f5b601f891682613e68565b8355505b6001600288020188555050505b505050505050565b7f43616e6e6f74204368616e6765204c696d697400000000000000000000000000600082015250565b6000613faa601383612dec565b9150613fb582613f74565b602082019050919050565b60006020820190508181036000830152613fd981613f9d565b9050919050565b7f2e6a736f6e000000000000000000000000000000000000000000000000000000600082015250565b6000614016600583613b81565b915061402182613fe0565b600582019050919050565b60006140388285613c3b565b91506140448284613c3b565b915061404f82614009565b91508190509392505050565b7f4f776e61626c653a206e6577206f776e657220697320746865207a65726f206160008201527f6464726573730000000000000000000000000000000000000000000000000000602082015250565b60006140b7602683612dec565b91506140c28261405b565b604082019050919050565b600060208201905081810360008301526140e6816140aa565b9050919050565b7f4f776e61626c653a2063616c6c6572206973206e6f7420746865206f776e6572600082015250565b6000614123602083612dec565b915061412e826140ed565b602082019050919050565b6000602082019050818103600083015261415281614116565b9050919050565b7f455243323938313a20726f79616c7479206665652077696c6c2065786365656460008201527f2073616c65507269636500000000000000000000000000000000000000000000602082015250565b60006141b5602a83612dec565b91506141c082614159565b604082019050919050565b600060208201905081810360008301526141e4816141a8565b9050919050565b7f455243323938313a20696e76616c696420726563656976657200000000000000600082015250565b6000614221601983612dec565b915061422c826141eb565b602082019050919050565b6000602082019050818103600083015261425081614214565b9050919050565b7f5265656e7472616e637947756172643a207265656e7472616e742063616c6c00600082015250565b600061428d601f83612dec565b915061429882614257565b602082019050919050565b600060208201905081810360008301526142bc81614280565b9050919050565b600081519050919050565b600082825260208201905092915050565b60006142ea826142c3565b6142f481856142ce565b9350614304818560208601612dfd565b61430d81612e27565b840191505092915050565b600060808201905061432d6000830187612ef6565b61433a6020830186612ef6565b6143476040830185612fb3565b818103606083015261435981846142df565b905095945050505050565b60008151905061437381612c70565b92915050565b60006020828403121561438f5761438e612c3a565b5b600061439d84828501614364565b9150509291505056fea26469706673582212209f4d14c1f254e91a49db68f5ae767cf956dae8833b715804531cd747e3e3d16e64736f6c634300081300336080604052604051620023373803806200233783398181016040528101906200002991906200066b565b8181805182511462000072576040517f08c379a0000000000000000000000000000000000000000000000000000000008152600401620000699062000777565b60405180910390fd5b6000825111620000b9576040517f08c379a0000000000000000000000000000000000000000000000000000000008152600401620000b090620007e9565b60405180910390fd5b60005b8251811015620001285762000112838281518110620000e057620000df6200080b565b5b6020026020010151838381518110620000fe57620000fd6200080b565b5b60200260200101516200013360201b60201c565b80806200011f9062000869565b915050620000bc565b505050505062000ae2565b600073ffffffffffffffffffffffffffffffffffffffff168273ffffffffffffffffffffffffffffffffffffffff1603620001a5576040517f08c379a00000000000000000000000000000000000000000000000000000000081526004016200019c906200092c565b60405180910390fd5b60008111620001eb576040517f08c379a0000000000000000000000000000000000000000000000000000000008152600401620001e2906200099e565b60405180910390fd5b6000600260008473ffffffffffffffffffffffffffffffffffffffff1673ffffffffffffffffffffffffffffffffffffffff168152602001908152602001600020541462000270576040517f08c379a0000000000000000000000000000000000000000000000000000000008152600401620002679062000a36565b60405180910390fd5b6004829080600181540180825580915050600190039060005260206000200160009091909190916101000a81548173ffffffffffffffffffffffffffffffffffffffff021916908373ffffffffffffffffffffffffffffffffffffffff16021790555080600260008473ffffffffffffffffffffffffffffffffffffffff1673ffffffffffffffffffffffffffffffffffffffff168152602001908152602001600020819055508060005462000327919062000a58565b6000819055507f40c340f65e17194d14ddddb073d3c9f888e3cb52b5aae0c6c7706b4fbc905fac82826040516200036092919062000ab5565b60405180910390a15050565b6000604051905090565b600080fd5b600080fd5b600080fd5b6000601f19601f8301169050919050565b7f4e487b7100000000000000000000000000000000000000000000000000000000600052604160045260246000fd5b620003d08262000385565b810181811067ffffffffffffffff82111715620003f257620003f162000396565b5b80604052505050565b6000620004076200036c565b9050620004158282620003c5565b919050565b600067ffffffffffffffff82111562000438576200043762000396565b5b602082029050602081019050919050565b600080fd5b600073ffffffffffffffffffffffffffffffffffffffff82169050919050565b60006200047b826200044e565b9050919050565b6200048d816200046e565b81146200049957600080fd5b50565b600081519050620004ad8162000482565b92915050565b6000620004ca620004c4846200041a565b620003fb565b90508083825260208201905060208402830185811115620004f057620004ef62000449565b5b835b818110156200051d57806200050888826200049c565b845260208401935050602081019050620004f2565b5050509392505050565b600082601f8301126200053f576200053e62000380565b5b815162000551848260208601620004b3565b91505092915050565b600067ffffffffffffffff82111562000578576200057762000396565b5b602082029050602081019050919050565b6000819050919050565b6200059e8162000589565b8114620005aa57600080fd5b50565b600081519050620005be8162000593565b92915050565b6000620005db620005d5846200055a565b620003fb565b9050808382526020820190506020840283018581111562000601576200060062000449565b5b835b818110156200062e5780620006198882620005ad565b84526020840193505060208101905062000603565b5050509392505050565b600082601f83011262000650576200064f62000380565b5b815162000662848260208601620005c4565b91505092915050565b6000806040838503121562000685576200068462000376565b5b600083015167ffffffffffffffff811115620006a657620006a56200037b565b5b620006b48582860162000527565b925050602083015167ffffffffffffffff811115620006d857620006d76200037b565b5b620006e68582860162000638565b9150509250929050565b600082825260208201905092915050565b7f5061796d656e7453706c69747465723a2070617965657320616e64207368617260008201527f6573206c656e677468206d69736d617463680000000000000000000000000000602082015250565b60006200075f603283620006f0565b91506200076c8262000701565b604082019050919050565b60006020820190508181036000830152620007928162000750565b9050919050565b7f5061796d656e7453706c69747465723a206e6f20706179656573000000000000600082015250565b6000620007d1601a83620006f0565b9150620007de8262000799565b602082019050919050565b600060208201905081810360008301526200080481620007c2565b9050919050565b7f4e487b7100000000000000000000000000000000000000000000000000000000600052603260045260246000fd5b7f4e487b7100000000000000000000000000000000000000000000000000000000600052601160045260246000fd5b6000620008768262000589565b91507fffffffffffffffffffffffffffffffffffffffffffffffffffffffffffffffff8203620008ab57620008aa6200083a565b5b600182019050919050565b7f5061796d656e7453706c69747465723a206163636f756e74206973207468652060008201527f7a65726f20616464726573730000000000000000000000000000000000000000602082015250565b600062000914602c83620006f0565b91506200092182620008b6565b604082019050919050565b60006020820190508181036000830152620009478162000905565b9050919050565b7f5061796d656e7453706c69747465723a20736861726573206172652030000000600082015250565b600062000986601d83620006f0565b915062000993826200094e565b602082019050919050565b60006020820190508181036000830152620009b98162000977565b9050919050565b7f5061796d656e7453706c69747465723a206163636f756e7420616c726561647960008201527f2068617320736861726573000000000000000000000000000000000000000000602082015250565b600062000a1e602b83620006f0565b915062000a2b82620009c0565b604082019050919050565b6000602082019050818103600083015262000a518162000a0f565b9050919050565b600062000a658262000589565b915062000a728362000589565b925082820190508082111562000a8d5762000a8c6200083a565b5b92915050565b62000a9e816200046e565b82525050565b62000aaf8162000589565b82525050565b600060408201905062000acc600083018562000a93565b62000adb602083018462000aa4565b9392505050565b6118458062000af26000396000f3fe6080604052600436106100a05760003560e01c80639852595c116100645780639852595c146101e3578063a3f8eace14610220578063c45ac0501461025d578063ce7c2ac21461029a578063d79779b2146102d7578063e33b7de314610314576100e7565b806319165587146100ec5780633a98ef3914610115578063406072a91461014057806348b750441461017d5780638b83209b146101a6576100e7565b366100e7577f6ef95f06320e7a25a04a175ca677b7052bdd97131872c2192525a629f51be7706100ce61033f565b346040516100dd929190610e4f565b60405180910390a1005b600080fd5b3480156100f857600080fd5b50610113600480360381019061010e9190610ebb565b610347565b005b34801561012157600080fd5b5061012a6104c6565b6040516101379190610ee8565b60405180910390f35b34801561014c57600080fd5b5061016760048036038101906101629190610f6d565b6104cf565b6040516101749190610ee8565b60405180910390f35b34801561018957600080fd5b506101a4600480360381019061019f9190610f6d565b610556565b005b3480156101b257600080fd5b506101cd60048036038101906101c89190610fd9565b610769565b6040516101da9190611006565b60405180910390f35b3480156101ef57600080fd5b5061020a60048036038101906102059190611021565b6107b1565b6040516102179190610ee8565b60405180910390f35b34801561022c57600080fd5b5061024760048036038101906102429190611021565b6107fa565b6040516102549190610ee8565b60405180910390f35b34801561026957600080fd5b50610284600480360381019061027f9190610f6d565b61082d565b6040516102919190610ee8565b60405180910390f35b3480156102a657600080fd5b506102c160048036038101906102bc9190611021565b6108dc565b6040516102ce9190610ee8565b60405180910390f35b3480156102e357600080fd5b506102fe60048036038101906102f9919061104e565b610925565b60405161030b9190610ee8565b60405180910390f35b34801561032057600080fd5b5061032961096e565b6040516103369190610ee8565b60405180910390f35b600033905090565b6000600260008373ffffffffffffffffffffffffffffffffffffffff1673ffffffffffffffffffffffffffffffffffffffff16815260200190815260200160002054116103c9576040517f08c379a00000000000000000000000000000000000000000000000000000000081526004016103c0906110fe565b60405180910390fd5b60006103d4826107fa565b905060008103610419576040517f08c379a000000000000000000000000000000000000000000000000000000000815260040161041090611190565b60405180910390fd5b806001600082825461042b91906111df565b9250508190555080600360008473ffffffffffffffffffffffffffffffffffffffff1673ffffffffffffffffffffffffffffffffffffffff168152602001908152602001600020600082825401925050819055506104898282610978565b7fdf20fd1e76bc69d672e4814fafb2c449bba3a5369d8359adf9e05e6fde87b05682826040516104ba929190611272565b60405180910390a15050565b60008054905090565b6000600660008473ffffffffffffffffffffffffffffffffffffffff1673ffffffffffffffffffffffffffffffffffffffff16815260200190815260200160002060008373ffffffffffffffffffffffffffffffffffffffff1673ffffffffffffffffffffffffffffffffffffffff16815260200190815260200160002054905092915050565b6000600260008373ffffffffffffffffffffffffffffffffffffffff1673ffffffffffffffffffffffffffffffffffffffff16815260200190815260200160002054116105d8576040517f08c379a00000000000000000000000000000000000000000000000000000000081526004016105cf906110fe565b60405180910390fd5b60006105e4838361082d565b905060008103610629576040517f08c379a000000000000000000000000000000000000000000000000000000000815260040161062090611190565b60405180910390fd5b80600560008573ffffffffffffffffffffffffffffffffffffffff1673ffffffffffffffffffffffffffffffffffffffff168152602001908152602001600020600082825461067891906111df565b9250508190555080600660008573ffffffffffffffffffffffffffffffffffffffff1673ffffffffffffffffffffffffffffffffffffffff16815260200190815260200160002060008473ffffffffffffffffffffffffffffffffffffffff1673ffffffffffffffffffffffffffffffffffffffff16815260200190815260200160002060008282540192505081905550610714838383610a6c565b8273ffffffffffffffffffffffffffffffffffffffff167f3be5b7a71e84ed12875d241991c70855ac5817d847039e17a9d895c1ceb0f18a838360405161075c929190610e4f565b60405180910390a2505050565b60006004828154811061077f5761077e61129b565b5b9060005260206000200160009054906101000a900473ffffffffffffffffffffffffffffffffffffffff169050919050565b6000600360008373ffffffffffffffffffffffffffffffffffffffff1673ffffffffffffffffffffffffffffffffffffffff168152602001908152602001600020549050919050565b60008061080561096e565b4761081091906111df565b90506108258382610820866107b1565b610af2565b915050919050565b60008061083984610925565b8473ffffffffffffffffffffffffffffffffffffffff166370a08231306040518263ffffffff1660e01b81526004016108729190611006565b602060405180830381865afa15801561088f573d6000803e3d6000fd5b505050506040513d601f19601f820116820180604052508101906108b391906112df565b6108bd91906111df565b90506108d383826108ce87876104cf565b610af2565b91505092915050565b6000600260008373ffffffffffffffffffffffffffffffffffffffff1673ffffffffffffffffffffffffffffffffffffffff168152602001908152602001600020549050919050565b6000600560008373ffffffffffffffffffffffffffffffffffffffff1673ffffffffffffffffffffffffffffffffffffffff168152602001908152602001600020549050919050565b6000600154905090565b804710156109bb576040517f08c379a00000000000000000000000000000000000000000000000000000000081526004016109b290611358565b60405180910390fd5b60008273ffffffffffffffffffffffffffffffffffffffff16826040516109e1906113a9565b60006040518083038185875af1925050503d8060008114610a1e576040519150601f19603f3d011682016040523d82523d6000602084013e610a23565b606091505b5050905080610a67576040517f08c379a0000000000000000000000000000000000000000000000000000000008152600401610a5e90611430565b60405180910390fd5b505050565b610aed8363a9059cbb60e01b8484604051602401610a8b929190610e4f565b604051602081830303815290604052907bffffffffffffffffffffffffffffffffffffffffffffffffffffffff19166020820180517bffffffffffffffffffffffffffffffffffffffffffffffffffffffff8381831617835250505050610b60565b505050565b600081600054600260008773ffffffffffffffffffffffffffffffffffffffff1673ffffffffffffffffffffffffffffffffffffffff1681526020019081526020016000205485610b439190611450565b610b4d91906114c1565b610b5791906114f2565b90509392505050565b6000610bc2826040518060400160405280602081526020017f5361666545524332303a206c6f772d6c6576656c2063616c6c206661696c65648152508573ffffffffffffffffffffffffffffffffffffffff16610c289092919063ffffffff16565b9050600081511480610be4575080806020019051810190610be3919061155e565b5b610c23576040517f08c379a0000000000000000000000000000000000000000000000000000000008152600401610c1a906115fd565b60405180910390fd5b505050565b6060610c378484600085610c40565b90509392505050565b606082471015610c85576040517f08c379a0000000000000000000000000000000000000000000000000000000008152600401610c7c9061168f565b60405180910390fd5b6000808673ffffffffffffffffffffffffffffffffffffffff168587604051610cae9190611715565b60006040518083038185875af1925050503d8060008114610ceb576040519150601f19603f3d011682016040523d82523d6000602084013e610cf0565b606091505b5091509150610d0187838387610d0d565b92505050949350505050565b60608315610d6f576000835103610d6757610d2785610d82565b610d66576040517f08c379a0000000000000000000000000000000000000000000000000000000008152600401610d5d90611778565b60405180910390fd5b5b829050610d7a565b610d798383610da5565b5b949350505050565b6000808273ffffffffffffffffffffffffffffffffffffffff163b119050919050565b600082511115610db85781518083602001fd5b806040517f08c379a0000000000000000000000000000000000000000000000000000000008152600401610dec91906117ed565b60405180910390fd5b600073ffffffffffffffffffffffffffffffffffffffff82169050919050565b6000610e2082610df5565b9050919050565b610e3081610e15565b82525050565b6000819050919050565b610e4981610e36565b82525050565b6000604082019050610e646000830185610e27565b610e716020830184610e40565b9392505050565b600080fd5b6000610e8882610df5565b9050919050565b610e9881610e7d565b8114610ea357600080fd5b50565b600081359050610eb581610e8f565b92915050565b600060208284031215610ed157610ed0610e78565b5b6000610edf84828501610ea6565b91505092915050565b6000602082019050610efd6000830184610e40565b92915050565b6000610f0e82610e15565b9050919050565b610f1e81610f03565b8114610f2957600080fd5b50565b600081359050610f3b81610f15565b92915050565b610f4a81610e15565b8114610f5557600080fd5b50565b600081359050610f6781610f41565b92915050565b60008060408385031215610f8457610f83610e78565b5b6000610f9285828601610f2c565b9250506020610fa385828601610f58565b9150509250929050565b610fb681610e36565b8114610fc157600080fd5b50565b600081359050610fd381610fad565b92915050565b600060208284031215610fef57610fee610e78565b5b6000610ffd84828501610fc4565b91505092915050565b600060208201905061101b6000830184610e27565b92915050565b60006020828403121561103757611036610e78565b5b600061104584828501610f58565b91505092915050565b60006020828403121561106457611063610e78565b5b600061107284828501610f2c565b91505092915050565b600082825260208201905092915050565b7f5061796d656e7453706c69747465723a206163636f756e7420686173206e6f2060008201527f7368617265730000000000000000000000000000000000000000000000000000602082015250565b60006110e860268361107b565b91506110f38261108c565b604082019050919050565b60006020820190508181036000830152611117816110db565b9050919050565b7f5061796d656e7453706c69747465723a206163636f756e74206973206e6f742060008201527f647565207061796d656e74000000000000000000000000000000000000000000602082015250565b600061117a602b8361107b565b91506111858261111e565b604082019050919050565b600060208201905081810360008301526111a98161116d565b9050919050565b7f4e487b7100000000000000000000000000000000000000000000000000000000600052601160045260246000fd5b60006111ea82610e36565b91506111f583610e36565b925082820190508082111561120d5761120c6111b0565b5b92915050565b6000819050919050565b600061123861123361122e84610df5565b611213565b610df5565b9050919050565b600061124a8261121d565b9050919050565b600061125c8261123f565b9050919050565b61126c81611251565b82525050565b60006040820190506112876000830185611263565b6112946020830184610e40565b9392505050565b7f4e487b7100000000000000000000000000000000000000000000000000000000600052603260045260246000fd5b6000815190506112d981610fad565b92915050565b6000602082840312156112f5576112f4610e78565b5b6000611303848285016112ca565b91505092915050565b7f416464726573733a20696e73756666696369656e742062616c616e6365000000600082015250565b6000611342601d8361107b565b915061134d8261130c565b602082019050919050565b6000602082019050818103600083015261137181611335565b9050919050565b600081905092915050565b50565b6000611393600083611378565b915061139e82611383565b600082019050919050565b60006113b482611386565b9150819050919050565b7f416464726573733a20756e61626c6520746f2073656e642076616c75652c207260008201527f6563697069656e74206d61792068617665207265766572746564000000000000602082015250565b600061141a603a8361107b565b9150611425826113be565b604082019050919050565b600060208201905081810360008301526114498161140d565b9050919050565b600061145b82610e36565b915061146683610e36565b925082820261147481610e36565b9150828204841483151761148b5761148a6111b0565b5b5092915050565b7f4e487b7100000000000000000000000000000000000000000000000000000000600052601260045260246000fd5b60006114cc82610e36565b91506114d783610e36565b9250826114e7576114e6611492565b5b828204905092915050565b60006114fd82610e36565b915061150883610e36565b92508282039050818111156115205761151f6111b0565b5b92915050565b60008115159050919050565b61153b81611526565b811461154657600080fd5b50565b60008151905061155881611532565b92915050565b60006020828403121561157457611573610e78565b5b600061158284828501611549565b91505092915050565b7f5361666545524332303a204552433230206f7065726174696f6e20646964206e60008201527f6f74207375636365656400000000000000000000000000000000000000000000602082015250565b60006115e7602a8361107b565b91506115f28261158b565b604082019050919050565b60006020820190508181036000830152611616816115da565b9050919050565b7f416464726573733a20696e73756666696369656e742062616c616e636520666f60008201527f722063616c6c0000000000000000000000000000000000000000000000000000602082015250565b600061167960268361107b565b91506116848261161d565b604082019050919050565b600060208201905081810360008301526116a88161166c565b9050919050565b600081519050919050565b60005b838110156116d85780820151818401526020810190506116bd565b60008484015250505050565b60006116ef826116af565b6116f98185611378565b93506117098185602086016116ba565b80840191505092915050565b600061172182846116e4565b915081905092915050565b7f416464726573733a2063616c6c20746f206e6f6e2d636f6e7472616374000000600082015250565b6000611762601d8361107b565b915061176d8261172c565b602082019050919050565b6000602082019050818103600083015261179181611755565b9050919050565b600081519050919050565b6000601f19601f8301169050919050565b60006117bf82611798565b6117c9818561107b565b93506117d98185602086016116ba565b6117e2816117a3565b840191505092915050565b6000602082019050818103600083015261180781846117b4565b90509291505056fea26469706673582212203f6bdc5825a7c762f625eb22e6558e1de19a8e0b34240a0defbe6e4d06fe3c7264736f6c63430008130033a26469706673582212207fa0b89e12af838affbc2fb9eddd3ecd22beb691a584e655ac9d2f26bc0d2e3364736f6c63430008130033",
  "immutableReferences": {},
  "source": "// SPDX-License-Identifier: MIT\r\npragma solidity ^0.8.19;\r\n\r\nimport \"./SofanNftTemplate.sol\";\r\nimport \"./SofanSplitter.sol\";\r\n/// @title A NFT Factory example\r\n/// @author JWMatheo\r\n/// @notice You can use this contract in order to create other contract !\r\n/// @dev Create new contract 'MonNFT' instance\r\ncontract SofanFactory {\r\n    event Deploy(address _address);\r\n    /**\r\n     * @notice Deploy your NFT Collection.\r\n     * @dev Deploy a new NFT contract and return his address.\r\n     *\r\n     * Emits a {Deploy} event.\r\n     */\r\n    // function deploy(\r\n    //     // uint _salt,\r\n    //     string calldata _collectionName,\r\n    //     string calldata _collectionSymbol,\r\n    //     string calldata _collectionBaserURI,\r\n    //     uint8 _limitByWallet,\r\n    //     uint256 _collectionLimit,\r\n    //     uint256 _launchpadTime,\r\n    //     bool _isAbleChangeMaxLimitCollection,\r\n    //     uint256 _price,\r\n    //     address _splitterAddress,\r\n    //     uint96 _percentInBips // 2.5% = 250\r\n\r\n    // ) external returns (address) {\r\n    //     // address[2] memory payees = [_sofanMultSig, _athleteWallet];\r\n    //     // SofanSplitter _splitter = new SofanSplitter(\r\n\r\n    //     // );\r\n    //     SofanNftTemplate _contract = new SofanNftTemplate(\r\n    //         // {\r\n    //         //     salt: bytes32(_salt)\r\n    //         // }\r\n    //         _collectionName,\r\n    //         _collectionSymbol,\r\n    //         _collectionBaserURI,\r\n    //         _limitByWallet,\r\n    //         _collectionLimit,\r\n    //         _launchpadTime,\r\n    //         _isAbleChangeMaxLimitCollection,\r\n    //         _price,\r\n    //         _splitterAddress,\r\n    //         _percentInBips\r\n    //     );\r\n    //     emit Deploy(address(_contract));\r\n    //     return address(_contract);\r\n    // }\r\n    // function deploy(\r\n    //     string calldata _collectionName,\r\n    //     string calldata _collectionSymbol,\r\n    //     string calldata _collectionBaserURI,\r\n    //     uint32 _limitByWallet,\r\n    //     uint32 _collectionLimit,\r\n    //     uint32 _launchpadTime,\r\n    //     bool _isAbleChangeMaxLimitCollection,\r\n    //     uint256 _price,\r\n    //     address _splitterAddress,\r\n    //     uint32 _percentInBips\r\n    // ) external returns(address){\r\n        \r\n    // }\r\n\r\n    function deploy(\r\n        // 0 : collectionName, 1 : collectionLimit, 2 : _collectionBaserURI\r\n        string[3] calldata _collectionData2,\r\n        // 0 : limitByWallet, 1 : collectionLimit, 2 : launchpadTime, 3 : price\r\n        uint[4] calldata _collectionData,\r\n        bool _isAbleChangeMaxLimitCollection,\r\n        uint96 _percentInBips,\r\n        address _splitterAddress\r\n    ) external returns(address) {\r\n        SofanNftTemplate _contract = new SofanNftTemplate(\r\n            _collectionData2,\r\n            _collectionData,\r\n            _isAbleChangeMaxLimitCollection,\r\n            _splitterAddress,\r\n            _percentInBips\r\n        );\r\n        emit Deploy(address(_contract));\r\n        return address(_contract);\r\n    }\r\n\r\n    event DeploySplitter(address _address);\r\n    function deploySplitter( address[] memory _payees, uint256[] memory _shares_) external returns(address) {\r\n        SofanSplitter _contract = new SofanSplitter(\r\n            _payees,\r\n            _shares_\r\n        );\r\n        emit DeploySplitter(address(_contract));\r\n        return address(_contract);\r\n    }\r\n}\r\n",
  "sourcePath": "/home/matheo/dev/Sofan/truffle/contracts/SofanFactory.sol",
  "compiler": {
    "name": "solc",
    "version": "0.8.19+commit.7dd6d404.Emscripten.clang"
  },
  "schemaVersion": "3.4.4",
  "updatedAt": "2023-08-01T01:00:11.228Z",
  "devdoc": {
    "author": "JWMatheo",
    "details": "Create new contract 'MonNFT' instance",
    "kind": "dev",
    "methods": {
      "deploy(string[3],uint256[4],bool,uint96,address)": {
        "details": "Deploy a new NFT contract and return his address. Emits a {Deploy} event."
      }
    },
    "title": "A NFT Factory example",
    "version": 1
  },
  "userdoc": {
    "kind": "user",
    "methods": {
      "deploy(string[3],uint256[4],bool,uint96,address)": {
        "notice": "Deploy your NFT Collection."
      }
    },
    "notice": "You can use this contract in order to create other contract !",
    "version": 1
  }
}