{
  "contractName": "SofanNft",
  "abi": [
    {
      "inputs": [
        {
          "internalType": "string[3]",
          "name": "_collectionData2",
          "type": "string[3]"
        },
        {
          "internalType": "uint256[4]",
          "name": "_collectionData",
          "type": "uint256[4]"
        },
        {
          "internalType": "bool",
          "name": "_isAbleChangeMaxLimitCollection",
          "type": "bool"
        },
        {
          "internalType": "address",
          "name": "_splitterAddress",
          "type": "address"
        },
        {
          "internalType": "uint96",
          "name": "_percentInBips",
          "type": "uint96"
        }
      ],
      "stateMutability": "nonpayable",
      "type": "constructor"
    },
    {
      "inputs": [],
      "name": "ApprovalCallerNotOwnerNorApproved",
      "type": "error"
    },
    {
      "inputs": [],
      "name": "ApprovalQueryForNonexistentToken",
      "type": "error"
    },
    {
      "inputs": [],
      "name": "BalanceQueryForZeroAddress",
      "type": "error"
    },
    {
      "inputs": [],
      "name": "MintERC2309QuantityExceedsLimit",
      "type": "error"
    },
    {
      "inputs": [],
      "name": "MintToZeroAddress",
      "type": "error"
    },
    {
      "inputs": [],
      "name": "MintZeroQuantity",
      "type": "error"
    },
    {
      "inputs": [
        {
          "internalType": "address",
          "name": "operator",
          "type": "address"
        }
      ],
      "name": "OperatorNotAllowed",
      "type": "error"
    },
    {
      "inputs": [],
      "name": "OwnerQueryForNonexistentToken",
      "type": "error"
    },
    {
      "inputs": [],
      "name": "OwnershipNotInitializedForExtraData",
      "type": "error"
    },
    {
      "inputs": [],
      "name": "TransferCallerNotOwnerNorApproved",
      "type": "error"
    },
    {
      "inputs": [],
      "name": "TransferFromIncorrectOwner",
      "type": "error"
    },
    {
      "inputs": [],
      "name": "TransferToNonERC721ReceiverImplementer",
      "type": "error"
    },
    {
      "inputs": [],
      "name": "TransferToZeroAddress",
      "type": "error"
    },
    {
      "inputs": [],
      "name": "URIQueryForNonexistentToken",
      "type": "error"
    },
    {
      "anonymous": false,
      "inputs": [
        {
          "indexed": true,
          "internalType": "address",
          "name": "owner",
          "type": "address"
        },
        {
          "indexed": true,
          "internalType": "address",
          "name": "approved",
          "type": "address"
        },
        {
          "indexed": true,
          "internalType": "uint256",
          "name": "tokenId",
          "type": "uint256"
        }
      ],
      "name": "Approval",
      "type": "event"
    },
    {
      "anonymous": false,
      "inputs": [
        {
          "indexed": true,
          "internalType": "address",
          "name": "owner",
          "type": "address"
        },
        {
          "indexed": true,
          "internalType": "address",
          "name": "operator",
          "type": "address"
        },
        {
          "indexed": false,
          "internalType": "bool",
          "name": "approved",
          "type": "bool"
        }
      ],
      "name": "ApprovalForAll",
      "type": "event"
    },
    {
      "anonymous": false,
      "inputs": [
        {
          "indexed": true,
          "internalType": "uint256",
          "name": "fromTokenId",
          "type": "uint256"
        },
        {
          "indexed": false,
          "internalType": "uint256",
          "name": "toTokenId",
          "type": "uint256"
        },
        {
          "indexed": true,
          "internalType": "address",
          "name": "from",
          "type": "address"
        },
        {
          "indexed": true,
          "internalType": "address",
          "name": "to",
          "type": "address"
        }
      ],
      "name": "ConsecutiveTransfer",
      "type": "event"
    },
    {
      "anonymous": false,
      "inputs": [
        {
          "indexed": true,
          "internalType": "address",
          "name": "previousOwner",
          "type": "address"
        },
        {
          "indexed": true,
          "internalType": "address",
          "name": "newOwner",
          "type": "address"
        }
      ],
      "name": "OwnershipTransferred",
      "type": "event"
    },
    {
      "anonymous": false,
      "inputs": [
        {
          "indexed": true,
          "internalType": "address",
          "name": "from",
          "type": "address"
        },
        {
          "indexed": true,
          "internalType": "address",
          "name": "to",
          "type": "address"
        },
        {
          "indexed": true,
          "internalType": "uint256",
          "name": "tokenId",
          "type": "uint256"
        }
      ],
      "name": "Transfer",
      "type": "event"
    },
    {
      "anonymous": false,
      "inputs": [
        {
          "indexed": false,
          "internalType": "address",
          "name": "msgSender",
          "type": "address"
        }
      ],
      "name": "temp",
      "type": "event"
    },
    {
      "inputs": [],
      "name": "AthleteWallet",
      "outputs": [
        {
          "internalType": "address",
          "name": "",
          "type": "address"
        }
      ],
      "stateMutability": "view",
      "type": "function"
    },
    {
      "inputs": [],
      "name": "OPERATOR_FILTER_REGISTRY",
      "outputs": [
        {
          "internalType": "contract IOperatorFilterRegistry",
          "name": "",
          "type": "address"
        }
      ],
      "stateMutability": "view",
      "type": "function"
    },
    {
      "inputs": [],
      "name": "SofanWallet",
      "outputs": [
        {
          "internalType": "address",
          "name": "",
          "type": "address"
        }
      ],
      "stateMutability": "view",
      "type": "function"
    },
    {
      "inputs": [],
      "name": "_defaultRoyaltyInfo",
      "outputs": [
        {
          "internalType": "address",
          "name": "receiver",
          "type": "address"
        },
        {
          "internalType": "uint96",
          "name": "royaltyFraction",
          "type": "uint96"
        }
      ],
      "stateMutability": "view",
      "type": "function"
    },
    {
      "inputs": [
        {
          "internalType": "address",
          "name": "owner",
          "type": "address"
        }
      ],
      "name": "balanceOf",
      "outputs": [
        {
          "internalType": "uint256",
          "name": "",
          "type": "uint256"
        }
      ],
      "stateMutability": "view",
      "type": "function"
    },
    {
      "inputs": [],
      "name": "collectionLimit",
      "outputs": [
        {
          "internalType": "uint256",
          "name": "",
          "type": "uint256"
        }
      ],
      "stateMutability": "view",
      "type": "function"
    },
    {
      "inputs": [
        {
          "internalType": "uint256",
          "name": "tokenId",
          "type": "uint256"
        }
      ],
      "name": "getApproved",
      "outputs": [
        {
          "internalType": "address",
          "name": "",
          "type": "address"
        }
      ],
      "stateMutability": "view",
      "type": "function"
    },
    {
      "inputs": [],
      "name": "isAbleChangeMaxLimitCollection",
      "outputs": [
        {
          "internalType": "bool",
          "name": "",
          "type": "bool"
        }
      ],
      "stateMutability": "view",
      "type": "function"
    },
    {
      "inputs": [
        {
          "internalType": "address",
          "name": "owner",
          "type": "address"
        },
        {
          "internalType": "address",
          "name": "operator",
          "type": "address"
        }
      ],
      "name": "isApprovedForAll",
      "outputs": [
        {
          "internalType": "bool",
          "name": "",
          "type": "bool"
        }
      ],
      "stateMutability": "view",
      "type": "function"
    },
    {
      "inputs": [],
      "name": "isLimitByWallet",
      "outputs": [
        {
          "internalType": "bool",
          "name": "",
          "type": "bool"
        }
      ],
      "stateMutability": "view",
      "type": "function"
    },
    {
      "inputs": [],
      "name": "launchpadTime",
      "outputs": [
        {
          "internalType": "uint256",
          "name": "",
          "type": "uint256"
        }
      ],
      "stateMutability": "view",
      "type": "function"
    },
    {
      "inputs": [],
      "name": "limitByWallet",
      "outputs": [
        {
          "internalType": "uint256",
          "name": "",
          "type": "uint256"
        }
      ],
      "stateMutability": "view",
      "type": "function"
    },
    {
      "inputs": [],
      "name": "name",
      "outputs": [
        {
          "internalType": "string",
          "name": "",
          "type": "string"
        }
      ],
      "stateMutability": "view",
      "type": "function"
    },
    {
      "inputs": [],
      "name": "owner",
      "outputs": [
        {
          "internalType": "address",
          "name": "",
          "type": "address"
        }
      ],
      "stateMutability": "view",
      "type": "function"
    },
    {
      "inputs": [
        {
          "internalType": "uint256",
          "name": "tokenId",
          "type": "uint256"
        }
      ],
      "name": "ownerOf",
      "outputs": [
        {
          "internalType": "address",
          "name": "",
          "type": "address"
        }
      ],
      "stateMutability": "view",
      "type": "function"
    },
    {
      "inputs": [],
      "name": "price",
      "outputs": [
        {
          "internalType": "uint256",
          "name": "",
          "type": "uint256"
        }
      ],
      "stateMutability": "view",
      "type": "function"
    },
    {
      "inputs": [],
      "name": "renounceOwnership",
      "outputs": [],
      "stateMutability": "nonpayable",
      "type": "function"
    },
    {
      "inputs": [
        {
          "internalType": "uint256",
          "name": "tokenId",
          "type": "uint256"
        },
        {
          "internalType": "uint256",
          "name": "salePrice",
          "type": "uint256"
        }
      ],
      "name": "royaltyInfo",
      "outputs": [
        {
          "internalType": "address",
          "name": "",
          "type": "address"
        },
        {
          "internalType": "uint256",
          "name": "",
          "type": "uint256"
        }
      ],
      "stateMutability": "view",
      "type": "function"
    },
    {
      "inputs": [],
      "name": "symbol",
      "outputs": [
        {
          "internalType": "string",
          "name": "",
          "type": "string"
        }
      ],
      "stateMutability": "view",
      "type": "function"
    },
    {
      "inputs": [],
      "name": "totalSupply",
      "outputs": [
        {
          "internalType": "uint256",
          "name": "",
          "type": "uint256"
        }
      ],
      "stateMutability": "view",
      "type": "function"
    },
    {
      "inputs": [
        {
          "internalType": "address",
          "name": "newOwner",
          "type": "address"
        }
      ],
      "name": "transferOwnership",
      "outputs": [],
      "stateMutability": "nonpayable",
      "type": "function"
    },
    {
      "inputs": [],
      "name": "uri",
      "outputs": [
        {
          "internalType": "string",
          "name": "",
          "type": "string"
        }
      ],
      "stateMutability": "view",
      "type": "function"
    },
    {
      "inputs": [],
      "name": "usdc",
      "outputs": [
        {
          "internalType": "contract IERC20",
          "name": "",
          "type": "address"
        }
      ],
      "stateMutability": "view",
      "type": "function"
    },
    {
      "inputs": [
        {
          "internalType": "address",
          "name": "_newUSDCAddress",
          "type": "address"
        }
      ],
      "name": "setUsdcAddress",
      "outputs": [],
      "stateMutability": "nonpayable",
      "type": "function"
    },
    {
      "inputs": [
        {
          "internalType": "address",
          "name": "_newAthleteWallet",
          "type": "address"
        }
      ],
      "name": "setAthleteWallet",
      "outputs": [],
      "stateMutability": "nonpayable",
      "type": "function"
    },
    {
      "inputs": [
        {
          "internalType": "address",
          "name": "_newSofanWallet",
          "type": "address"
        }
      ],
      "name": "setSofanWallet",
      "outputs": [],
      "stateMutability": "nonpayable",
      "type": "function"
    },
    {
      "inputs": [
        {
          "internalType": "address",
          "name": "_to",
          "type": "address"
        },
        {
          "internalType": "uint256",
          "name": "_quantity",
          "type": "uint256"
        },
        {
          "internalType": "uint256",
          "name": "_amount",
          "type": "uint256"
        }
      ],
      "name": "mint",
      "outputs": [],
      "stateMutability": "payable",
      "type": "function"
    },
    {
      "inputs": [],
      "name": "withdrawUSDC",
      "outputs": [],
      "stateMutability": "nonpayable",
      "type": "function"
    },
    {
      "inputs": [],
      "name": "activeMintManually",
      "outputs": [],
      "stateMutability": "nonpayable",
      "type": "function"
    },
    {
      "inputs": [
        {
          "internalType": "uint256",
          "name": "_newLimit",
          "type": "uint256"
        }
      ],
      "name": "setLimitWallet",
      "outputs": [],
      "stateMutability": "nonpayable",
      "type": "function"
    },
    {
      "inputs": [
        {
          "internalType": "uint32",
          "name": "_newLimit",
          "type": "uint32"
        }
      ],
      "name": "changeLimitOfMaxCollection",
      "outputs": [],
      "stateMutability": "nonpayable",
      "type": "function"
    },
    {
      "inputs": [
        {
          "internalType": "string",
          "name": "_uri",
          "type": "string"
        }
      ],
      "name": "setBaseURI",
      "outputs": [],
      "stateMutability": "nonpayable",
      "type": "function"
    },
    {
      "inputs": [
        {
          "internalType": "uint256",
          "name": "tokenId",
          "type": "uint256"
        }
      ],
      "name": "tokenURI",
      "outputs": [
        {
          "internalType": "string",
          "name": "",
          "type": "string"
        }
      ],
      "stateMutability": "view",
      "type": "function"
    },
    {
      "inputs": [
        {
          "internalType": "bytes4",
          "name": "interfaceId",
          "type": "bytes4"
        }
      ],
      "name": "supportsInterface",
      "outputs": [
        {
          "internalType": "bool",
          "name": "",
          "type": "bool"
        }
      ],
      "stateMutability": "view",
      "type": "function"
    },
    {
      "inputs": [
        {
          "internalType": "address",
          "name": "_receiver",
          "type": "address"
        },
        {
          "internalType": "uint96",
          "name": "_royaltyFeesInBips",
          "type": "uint96"
        }
      ],
      "name": "setRoyaltyInfo",
      "outputs": [],
      "stateMutability": "nonpayable",
      "type": "function"
    },
    {
      "inputs": [
        {
          "internalType": "address",
          "name": "operator",
          "type": "address"
        },
        {
          "internalType": "bool",
          "name": "approved",
          "type": "bool"
        }
      ],
      "name": "setApprovalForAll",
      "outputs": [],
      "stateMutability": "nonpayable",
      "type": "function"
    },
    {
      "inputs": [
        {
          "internalType": "address",
          "name": "operator",
          "type": "address"
        },
        {
          "internalType": "uint256",
          "name": "tokenId",
          "type": "uint256"
        }
      ],
      "name": "approve",
      "outputs": [],
      "stateMutability": "payable",
      "type": "function"
    },
    {
      "inputs": [
        {
          "internalType": "address",
          "name": "from",
          "type": "address"
        },
        {
          "internalType": "address",
          "name": "to",
          "type": "address"
        },
        {
          "internalType": "uint256",
          "name": "tokenId",
          "type": "uint256"
        }
      ],
      "name": "transferFrom",
      "outputs": [],
      "stateMutability": "payable",
      "type": "function"
    },
    {
      "inputs": [
        {
          "internalType": "address",
          "name": "from",
          "type": "address"
        },
        {
          "internalType": "address",
          "name": "to",
          "type": "address"
        },
        {
          "internalType": "uint256",
          "name": "tokenId",
          "type": "uint256"
        }
      ],
      "name": "safeTransferFrom",
      "outputs": [],
      "stateMutability": "payable",
      "type": "function"
    },
    {
      "inputs": [
        {
          "internalType": "address",
          "name": "from",
          "type": "address"
        },
        {
          "internalType": "address",
          "name": "to",
          "type": "address"
        },
        {
          "internalType": "uint256",
          "name": "tokenId",
          "type": "uint256"
        },
        {
          "internalType": "bytes",
          "name": "data",
          "type": "bytes"
        }
      ],
      "name": "safeTransferFrom",
      "outputs": [],
      "stateMutability": "payable",
      "type": "function"
    }
  ],
  "bytecode": "0x60806040523480156200001157600080fd5b5060405162002d8e38038062002d8e833981016040819052620000349162000548565b84516020860151733cc6cdda760b79bafa08df41ecfa224f810dceb69160019160026200006283826200073f565b5060036200007182826200073f565b5050600080555062000083336200024b565b6001600b556daaeb6d7670e522a718067333cd4e3b15620001cd5780156200011b57604051633e9f1edf60e11b81523060048201526001600160a01b03831660248201526daaeb6d7670e522a718067333cd4e90637d3e3dbe906044015b600060405180830381600087803b158015620000fc57600080fd5b505af115801562000111573d6000803e3d6000fd5b50505050620001cd565b6001600160a01b038216156200016c5760405163a0af290360e01b81523060048201526001600160a01b03831660248201526daaeb6d7670e522a718067333cd4e9063a0af290390604401620000e1565b604051632210724360e11b81523060048201526daaeb6d7670e522a718067333cd4e90634420e48690602401600060405180830381600087803b158015620001b357600080fd5b505af1158015620001c8573d6000803e3d6000fd5b505050505b50506040850151600c90620001e390826200073f565b50835115620001ff578351600e55600d805460ff191660011790555b6020840151600f556040840151156200021b5760408401516010555b6011805460ff191684151517905583600360200201516013556200024082826200029d565b50505050506200080b565b600a80546001600160a01b038381166001600160a01b0319831681179093556040519116919082907f8be0079c531659141344cd1fd0a4f28419497f9722a3daafe3b4186f6b6457e090600090a35050565b620002a7620002b7565b620002b3828262000319565b5050565b600a546001600160a01b03163314620003175760405162461bcd60e51b815260206004820181905260248201527f4f776e61626c653a2063616c6c6572206973206e6f7420746865206f776e657260448201526064015b60405180910390fd5b565b6127106001600160601b0382161115620003895760405162461bcd60e51b815260206004820152602a60248201527f455243323938313a20726f79616c7479206665652077696c6c206578636565646044820152692073616c65507269636560b01b60648201526084016200030e565b6001600160a01b038216620003e15760405162461bcd60e51b815260206004820152601960248201527f455243323938313a20696e76616c69642072656365697665720000000000000060448201526064016200030e565b604080518082019091526001600160a01b039092168083526001600160601b039091166020909201829052600160a01b90910217600855565b634e487b7160e01b600052604160045260246000fd5b604051606081016001600160401b03811182821017156200045557620004556200041a565b60405290565b604051601f8201601f191681016001600160401b03811182821017156200048657620004866200041a565b604052919050565b600082601f830112620004a057600080fd5b604051608081016001600160401b0381118282101715620004c557620004c56200041a565b604052806080840185811115620004db57600080fd5b845b81811015620004f7578051835260209283019201620004dd565b509195945050505050565b805180151581146200051357600080fd5b919050565b80516001600160a01b03811681146200051357600080fd5b80516001600160601b03811681146200051357600080fd5b600080600080600061010086880312156200056257600080fd5b85516001600160401b03808211156200057a57600080fd5b818801915088601f8301126200058f57600080fd5b6200059962000430565b80606084018b811115620005ac57600080fd5b845b818110156200065c57805185811115620005c757600080fd5b8601601f81018e13620005d957600080fd5b805186811115620005ee57620005ee6200041a565b62000603601f8201601f19166020016200045b565b8181528f60208385010111156200061957600080fd5b60005b828110156200063a576020818501810151838301820152016200061c565b50600060208383010152808752505050602084019350602081019050620005ae565b5050809850505050506200067487602088016200048e565b93506200068460a0870162000502565b92506200069460c0870162000518565b9150620006a460e0870162000530565b90509295509295909350565b600181811c90821680620006c557607f821691505b602082108103620006e657634e487b7160e01b600052602260045260246000fd5b50919050565b601f8211156200073a57600081815260208120601f850160051c81016020861015620007155750805b601f850160051c820191505b81811015620007365782815560010162000721565b5050505b505050565b81516001600160401b038111156200075b576200075b6200041a565b62000773816200076c8454620006b0565b84620006ec565b602080601f831160018114620007ab5760008415620007925750858301515b600019600386901b1c1916600185901b17855562000736565b600085815260208120601f198616915b82811015620007dc57888601518255948401946001909101908401620007bb565b5085821015620007fb5787850151600019600388901b60f8161c191681555b5050505050600190811b01905550565b612573806200081b6000396000f3fe60806040526004361061023b5760003560e01c80636f69ec341161012e578063b88d4fde116100ab578063d8fc063d1161006f578063d8fc063d1461069b578063e985e9c5146106b0578063eac989f8146106d0578063f2fde38b146106e5578063fe92b0931461070557600080fd5b8063b88d4fde14610619578063c7ff15961461062c578063c87b56dd14610646578063cdfd0e2c14610666578063d38bcdee1461067b57600080fd5b806395d89b41116100f257806395d89b4114610598578063a035b1fe146105ad578063a22cb465146105c3578063a46d0b38146105e3578063a592b935146105f957600080fd5b80636f69ec34146104d257806370a082311461052b578063715018a61461054b5780638da5cb5b14610560578063914175a11461057e57600080fd5b80633499efa5116101bc57806342ac1b7f1161018057806342ac1b7f1461042d57806355f804b3146104525780635fa3002c146104725780636352211e1461049257806366200f41146104b257600080fd5b80633499efa5146103ac5780633dda1be4146103c25780633e413bee146103d857806341f43434146103f857806342842e0e1461041a57600080fd5b8063156e29f611610203578063156e29f61461030457806318160ddd146103175780631b02a3c21461033a57806323b872dd1461035a5780632a55205a1461036d57600080fd5b806301ffc9a71461024057806302fa7c471461027557806306fdde0314610297578063081812fc146102b9578063095ea7b3146102f1575b600080fd5b34801561024c57600080fd5b5061026061025b366004611e88565b610725565b60405190151581526020015b60405180910390f35b34801561028157600080fd5b50610295610290366004611ec1565b6107a1565b005b3480156102a357600080fd5b506102ac6107b7565b60405161026c9190611f54565b3480156102c557600080fd5b506102d96102d4366004611f67565b610849565b6040516001600160a01b03909116815260200161026c565b6102956102ff366004611f80565b61088d565b610295610312366004611faa565b6108a6565b34801561032357600080fd5b50600154600054035b60405190815260200161026c565b34801561034657600080fd5b506012546102d9906001600160a01b031681565b610295610368366004611fdd565b610e2b565b34801561037957600080fd5b5061038d610388366004612019565b610e56565b604080516001600160a01b03909316835260208301919091520161026c565b3480156103b857600080fd5b5061032c600f5481565b3480156103ce57600080fd5b5061032c600e5481565b3480156103e457600080fd5b506014546102d9906001600160a01b031681565b34801561040457600080fd5b506102d96daaeb6d7670e522a718067333cd4e81565b610295610428366004611fdd565b610f02565b34801561043957600080fd5b506011546102d99061010090046001600160a01b031681565b34801561045e57600080fd5b5061029561046d3660046120c7565b610f27565b34801561047e57600080fd5b5061029561048d366004612110565b610fee565b34801561049e57600080fd5b506102d96104ad366004611f67565b611049565b3480156104be57600080fd5b506102956104cd366004612136565b611054565b3480156104de57600080fd5b50600854610504906001600160a01b03811690600160a01b90046001600160601b031682565b604080516001600160a01b0390931683526001600160601b0390911660208301520161026c565b34801561053757600080fd5b5061032c610546366004612136565b611084565b34801561055757600080fd5b506102956110d3565b34801561056c57600080fd5b50600a546001600160a01b03166102d9565b34801561058a57600080fd5b506011546102609060ff1681565b3480156105a457600080fd5b506102ac6110e7565b3480156105b957600080fd5b5061032c60135481565b3480156105cf57600080fd5b506102956105de36600461215f565b6110f6565b3480156105ef57600080fd5b5061032c60105481565b34801561060557600080fd5b50610295610614366004612136565b61110a565b61029561062736600461218b565b611134565b34801561063857600080fd5b50600d546102609060ff1681565b34801561065257600080fd5b506102ac610661366004611f67565b611161565b34801561067257600080fd5b506102956111e5565b34801561068757600080fd5b50610295610696366004612136565b6111f4565b3480156106a757600080fd5b5061029561121e565b3480156106bc57600080fd5b506102606106cb366004612207565b611439565b3480156106dc57600080fd5b506102ac611467565b3480156106f157600080fd5b50610295610700366004612136565b6114f5565b34801561071157600080fd5b50610295610720366004611f67565b61156e565b60006001600160e01b0319821663152a902d60e11b148061075657506301ffc9a760e01b6001600160e01b03198316145b8061077157506380ac58cd60e01b6001600160e01b03198316145b8061078c5750635b5e139f60e01b6001600160e01b03198316145b8061079b575061079b8261159b565b92915050565b6107a96115d0565b6107b3828261162a565b5050565b6060600280546107c69061223a565b80601f01602080910402602001604051908101604052809291908181526020018280546107f29061223a565b801561083f5780601f106108145761010080835404028352916020019161083f565b820191906000526020600020905b81548152906001019060200180831161082257829003601f168201915b5050505050905090565b600061085482611727565b610871576040516333d1c03960e21b815260040160405180910390fd5b506000908152600660205260409020546001600160a01b031690565b816108978161174e565b6108a18383611807565b505050565b6108ae6118a7565b600f54826108bb60005490565b6108c5919061228a565b11156109375760405162461bcd60e51b815260206004820152603660248201527f4c696d6974206f6620636f6c6c656374696f6e204e46542072656163686564206044820152751bdc881d1bdbc81b5d58da081391951cc8185cdad95960521b60648201526084015b60405180910390fd5b600d5460ff1615156001036109c557600e548261095385611084565b61095d919061228a565b11156109c55760405162461bcd60e51b815260206004820152603160248201527f4c696d6974206f66206f776e6564204e46542072656163686564206f7220746f6044820152701bc81b5d58da081391951cc8185cdad959607a1b606482015260840161092e565b601054421015610a235760405162461bcd60e51b815260206004820152602360248201527f43616e6e6f74206d696e742e20436865636b204c61756e63687061642064617460448201526265202160e81b606482015260840161092e565b601454604051636eb1769f60e11b815233600482015230602482015282916001600160a01b03169063dd62ed3e90604401602060405180830381865afa158015610a71573d6000803e3d6000fd5b505050506040513d601f19601f82011682018060405250810190610a95919061229d565b1015610afb5760405162461bcd60e51b815260206004820152602f60248201527f506c65617365206d616b65207375726520796f75206861766520617070726f7660448201526e6520656e6f7567682055534443202160881b606482015260840161092e565b81601354610b0991906122b6565b811015610b635760405162461bcd60e51b815260206004820152602260248201527f4e6f7420656e6f75676820555344432073656e743b20636865636b2070726963604482015261652160f01b606482015260840161092e565b60135415610e17576014546040516323b872dd60e01b8152336004820152306024820152604481018390526000916001600160a01b0316906323b872dd906064016020604051808303816000875af1158015610bc3573d6000803e3d6000fd5b505050506040513d601f19601f82011682018060405250810190610be791906122cd565b905080610c365760405162461bcd60e51b815260206004820152601d60248201527f5472616e736374696f6e20776173206e6f74207375636365737366756c000000604482015260640161092e565b6000610c43836050611900565b90506000610c5282606461190c565b60145460125460405163a9059cbb60e01b81526001600160a01b0391821660048201526024810184905292935060009291169063a9059cbb906044016020604051808303816000875af1158015610cad573d6000803e3d6000fd5b505050506040513d601f19601f82011682018060405250810190610cd191906122cd565b905080610d205760405162461bcd60e51b815260206004820152601e60248201527f5472616e73616374696f6e20776173206e6f74207375636365737366756c0000604482015260640161092e565b6000610d2d866014611900565b90506000610d3c82606461190c565b60145460115460405163a9059cbb60e01b81526001600160a01b03610100909204821660048201526024810184905292935060009291169063a9059cbb906044016020604051808303816000875af1158015610d9c573d6000803e3d6000fd5b505050506040513d601f19601f82011682018060405250810190610dc091906122cd565b905080610e0f5760405162461bcd60e51b815260206004820152601e60248201527f5472616e73616374696f6e20776173206e6f74207375636365737366756c0000604482015260640161092e565b505050505050505b610e218383611918565b6108a16001600b55565b826001600160a01b0381163314610e4557610e453361174e565b610e50848484611a16565b50505050565b60008281526009602090815260408083208151808301909252546001600160a01b038116808352600160a01b9091046001600160601b0316928201929092528291610ecb5750604080518082019091526008546001600160a01b0381168252600160a01b90046001600160601b031660208201525b602081015160009061271090610eea906001600160601b0316876122b6565b610ef491906122ea565b915196919550909350505050565b826001600160a01b0381163314610f1c57610f1c3361174e565b610e50848484611baf565b610f2f6115d0565b600c604051602001610f41919061230c565b6040516020818303038152906040528051906020012081604051602001610f689190612382565b6040516020818303038152906040528051906020012003610fe25760405162461bcd60e51b815260206004820152602e60248201527f5468652055524920697320616c72656164792073657420746f2074686520657860448201526d6163742073616d6520555249202160901b606482015260840161092e565b600c6107b382826123e4565b610ff66115d0565b60115460ff1661103e5760405162461bcd60e51b815260206004820152601360248201527210d85b9b9bdd0810da185b99d948131a5b5a5d606a1b604482015260640161092e565b63ffffffff16600f55565b600061079b82611bca565b61105c6115d0565b601180546001600160a01b0390921661010002610100600160a81b0319909216919091179055565b60006001600160a01b0382166110ad576040516323d3ad8160e21b815260040160405180910390fd5b506001600160a01b031660009081526005602052604090205467ffffffffffffffff1690565b6110db6115d0565b6110e56000611c31565b565b6060600380546107c69061223a565b816111008161174e565b6108a18383611c83565b6111126115d0565b601280546001600160a01b0319166001600160a01b0392909216919091179055565b836001600160a01b038116331461114e5761114e3361174e565b61115a85858585611cef565b5050505050565b606061116c82611727565b61118957604051630a14c4b560e41b815260040160405180910390fd5b6000611193611d33565b905080516000036111b357604051806020016040528060008152506111de565b806111bd84611d42565b6040516020016111ce9291906124a4565b6040516020818303038152906040525b9392505050565b6111ed6115d0565b6000601055565b6111fc6115d0565b601480546001600160a01b0319166001600160a01b0392909216919091179055565b6112266115d0565b6014546040516370a0823160e01b81523060048201526000916001600160a01b0316906370a0823190602401602060405180830381865afa15801561126f573d6000803e3d6000fd5b505050506040513d601f19601f82011682018060405250810190611293919061229d565b116112e05760405162461bcd60e51b815260206004820152601760248201527f4e6f205553444320696e2074686520636f6e7472616374000000000000000000604482015260640161092e565b6014546040516370a0823160e01b81523060048201526000916001600160a01b0316906370a0823190602401602060405180830381865afa158015611329573d6000803e3d6000fd5b505050506040513d601f19601f8201168201806040525081019061134d919061229d565b60145460405163095ea7b360e01b8152336004820152602481018390529192506001600160a01b03169063095ea7b3906044016020604051808303816000875af115801561139f573d6000803e3d6000fd5b505050506040513d601f19601f820116820180604052508101906113c391906122cd565b5060145460405163a9059cbb60e01b8152336004820152602481018390526001600160a01b039091169063a9059cbb906044016020604051808303816000875af1158015611415573d6000803e3d6000fd5b505050506040513d601f19601f820116820180604052508101906107b391906122cd565b6001600160a01b03918216600090815260076020908152604080832093909416825291909152205460ff1690565b600c80546114749061223a565b80601f01602080910402602001604051908101604052809291908181526020018280546114a09061223a565b80156114ed5780601f106114c2576101008083540402835291602001916114ed565b820191906000526020600020905b8154815290600101906020018083116114d057829003601f168201915b505050505081565b6114fd6115d0565b6001600160a01b0381166115625760405162461bcd60e51b815260206004820152602660248201527f4f776e61626c653a206e6577206f776e657220697320746865207a65726f206160448201526564647265737360d01b606482015260840161092e565b61156b81611c31565b50565b6115766115d0565b801561158e57600d805460ff19166001179055600e55565b600d805460ff1916905550565b60006001600160e01b0319821663152a902d60e11b148061079b57506301ffc9a760e01b6001600160e01b031983161461079b565b600a546001600160a01b031633146110e55760405162461bcd60e51b815260206004820181905260248201527f4f776e61626c653a2063616c6c6572206973206e6f7420746865206f776e6572604482015260640161092e565b6127106001600160601b03821611156116985760405162461bcd60e51b815260206004820152602a60248201527f455243323938313a20726f79616c7479206665652077696c6c206578636565646044820152692073616c65507269636560b01b606482015260840161092e565b6001600160a01b0382166116ee5760405162461bcd60e51b815260206004820152601960248201527f455243323938313a20696e76616c696420726563656976657200000000000000604482015260640161092e565b604080518082019091526001600160a01b039092168083526001600160601b039091166020909201829052600160a01b90910217600855565b600080548210801561079b575050600090815260046020526040902054600160e01b161590565b6daaeb6d7670e522a718067333cd4e3b1561156b57604051633185c44d60e21b81523060048201526001600160a01b03821660248201526daaeb6d7670e522a718067333cd4e9063c617113490604401602060405180830381865afa1580156117bb573d6000803e3d6000fd5b505050506040513d601f19601f820116820180604052508101906117df91906122cd565b61156b57604051633b79c77360e21b81526001600160a01b038216600482015260240161092e565b600061181282611049565b9050336001600160a01b0382161461184b5761182e8133611439565b61184b576040516367d9dca160e11b815260040160405180910390fd5b60008281526006602052604080822080546001600160a01b0319166001600160a01b0387811691821790925591518593918516917f8c5be1e5ebec7d5bd14f71427d1e84f3dd0314c0f7b2291e5b200ac8c7c3b92591a4505050565b6002600b54036118f95760405162461bcd60e51b815260206004820152601f60248201527f5265656e7472616e637947756172643a207265656e7472616e742063616c6c00604482015260640161092e565b6002600b55565b60006111de82846122b6565b60006111de82846122ea565b600080549082900361193d5760405163b562e8dd60e01b815260040160405180910390fd5b6001600160a01b03831660008181526005602090815260408083208054680100000000000000018802019055848352600490915281206001851460e11b4260a01b178317905582840190839083907fddf252ad1be2c89b69c2b068fc378daa952ba7f163c4a11628f55a4df523b3ef8180a4600183015b8181146119ec57808360007fddf252ad1be2c89b69c2b068fc378daa952ba7f163c4a11628f55a4df523b3ef600080a46001016119b4565b5081600003611a0d57604051622e076360e81b815260040160405180910390fd5b60005550505050565b6000611a2182611bca565b9050836001600160a01b0316816001600160a01b031614611a545760405162a1148160e81b815260040160405180910390fd5b60008281526006602052604090208054338082146001600160a01b03881690911417611aa157611a848633611439565b611aa157604051632ce44b5f60e11b815260040160405180910390fd5b6001600160a01b038516611ac857604051633a954ecd60e21b815260040160405180910390fd5b8015611ad357600082555b6001600160a01b038681166000908152600560205260408082208054600019019055918716808252919020805460010190554260a01b17600160e11b17600085815260046020526040812091909155600160e11b84169003611b6557600184016000818152600460205260408120549003611b63576000548114611b635760008181526004602052604090208490555b505b83856001600160a01b0316876001600160a01b03167fddf252ad1be2c89b69c2b068fc378daa952ba7f163c4a11628f55a4df523b3ef60405160405180910390a45b505050505050565b6108a183838360405180602001604052806000815250611134565b600081600054811015611c185760008181526004602052604081205490600160e01b82169003611c16575b806000036111de575060001901600081815260046020526040902054611bf5565b505b604051636f96cda160e11b815260040160405180910390fd5b600a80546001600160a01b038381166001600160a01b0319831681179093556040519116919082907f8be0079c531659141344cd1fd0a4f28419497f9722a3daafe3b4186f6b6457e090600090a35050565b3360008181526007602090815260408083206001600160a01b03871680855290835292819020805460ff191686151590811790915590519081529192917f17307eab39ab6107e8899845ad3d59bd9653f200f220920489ca2b5937696c31910160405180910390a35050565b611cfa848484610e2b565b6001600160a01b0383163b15610e5057611d1684848484611d86565b610e50576040516368d2bf6b60e11b815260040160405180910390fd5b6060600c80546107c69061223a565b606060a06040510180604052602081039150506000815280825b600183039250600a81066030018353600a900480611d5c5750819003601f19909101908152919050565b604051630a85bd0160e11b81526000906001600160a01b0385169063150b7a0290611dbb9033908990889088906004016124e3565b6020604051808303816000875af1925050508015611df6575060408051601f3d908101601f19168201909252611df391810190612520565b60015b611e54573d808015611e24576040519150601f19603f3d011682016040523d82523d6000602084013e611e29565b606091505b508051600003611e4c576040516368d2bf6b60e11b815260040160405180910390fd5b805181602001fd5b6001600160e01b031916630a85bd0160e11b1490505b949350505050565b6001600160e01b03198116811461156b57600080fd5b600060208284031215611e9a57600080fd5b81356111de81611e72565b80356001600160a01b0381168114611ebc57600080fd5b919050565b60008060408385031215611ed457600080fd5b611edd83611ea5565b915060208301356001600160601b0381168114611ef957600080fd5b809150509250929050565b60005b83811015611f1f578181015183820152602001611f07565b50506000910152565b60008151808452611f40816020860160208601611f04565b601f01601f19169290920160200192915050565b6020815260006111de6020830184611f28565b600060208284031215611f7957600080fd5b5035919050565b60008060408385031215611f9357600080fd5b611f9c83611ea5565b946020939093013593505050565b600080600060608486031215611fbf57600080fd5b611fc884611ea5565b95602085013595506040909401359392505050565b600080600060608486031215611ff257600080fd5b611ffb84611ea5565b925061200960208501611ea5565b9150604084013590509250925092565b6000806040838503121561202c57600080fd5b50508035926020909101359150565b634e487b7160e01b600052604160045260246000fd5b600067ffffffffffffffff8084111561206c5761206c61203b565b604051601f8501601f19908116603f011681019082821181831017156120945761209461203b565b816040528093508581528686860111156120ad57600080fd5b858560208301376000602087830101525050509392505050565b6000602082840312156120d957600080fd5b813567ffffffffffffffff8111156120f057600080fd5b8201601f8101841361210157600080fd5b611e6a84823560208401612051565b60006020828403121561212257600080fd5b813563ffffffff811681146111de57600080fd5b60006020828403121561214857600080fd5b6111de82611ea5565b801515811461156b57600080fd5b6000806040838503121561217257600080fd5b61217b83611ea5565b91506020830135611ef981612151565b600080600080608085870312156121a157600080fd5b6121aa85611ea5565b93506121b860208601611ea5565b925060408501359150606085013567ffffffffffffffff8111156121db57600080fd5b8501601f810187136121ec57600080fd5b6121fb87823560208401612051565b91505092959194509250565b6000806040838503121561221a57600080fd5b61222383611ea5565b915061223160208401611ea5565b90509250929050565b600181811c9082168061224e57607f821691505b60208210810361226e57634e487b7160e01b600052602260045260246000fd5b50919050565b634e487b7160e01b600052601160045260246000fd5b8082018082111561079b5761079b612274565b6000602082840312156122af57600080fd5b5051919050565b808202811582820484141761079b5761079b612274565b6000602082840312156122df57600080fd5b81516111de81612151565b60008261230757634e487b7160e01b600052601260045260246000fd5b500490565b600080835461231a8161223a565b60018281168015612332576001811461234757612376565b60ff1984168752821515830287019450612376565b8760005260208060002060005b8581101561236d5781548a820152908401908201612354565b50505082870194505b50929695505050505050565b60008251612394818460208701611f04565b9190910192915050565b601f8211156108a157600081815260208120601f850160051c810160208610156123c55750805b601f850160051c820191505b81811015611ba7578281556001016123d1565b815167ffffffffffffffff8111156123fe576123fe61203b565b6124128161240c845461223a565b8461239e565b602080601f831160018114612447576000841561242f5750858301515b600019600386901b1c1916600185901b178555611ba7565b600085815260208120601f198616915b8281101561247657888601518255948401946001909101908401612457565b50858210156124945787850151600019600388901b60f8161c191681555b5050505050600190811b01905550565b600083516124b6818460208801611f04565b8351908301906124ca818360208801611f04565b64173539b7b760d91b9101908152600501949350505050565b6001600160a01b038581168252841660208201526040810183905260806060820181905260009061251690830184611f28565b9695505050505050565b60006020828403121561253257600080fd5b81516111de81611e7256fea2646970667358221220d5bac82f61d3b87e6621fb0021d0bfd6eb8c8f5d1ca2f8e5908ba8008e6d1d9a64736f6c63430008130033",
  "immutableReferences": {},
  "source": "// SPDX-License-Identifier: MIT\npragma solidity 0.8.19;\nimport \"erc721a/contracts/ERC721A.sol\";\nimport \"erc721a/contracts/IERC721A.sol\";\nimport \"@openzeppelin/contracts/security/ReentrancyGuard.sol\";\nimport \"@openzeppelin/contracts/access/Ownable.sol\";\nimport \"./DefaultOperatorFilterer.sol\";\nimport \"@openzeppelin/contracts/token/common/ERC2981.sol\";\nimport \"@openzeppelin/contracts/token/ERC20/IERC20.sol\";\nimport \"@openzeppelin/contracts/utils/math/SafeMath.sol\";\n\n// [\"CollectionName\", \"CollectionSymbol\", \"https://url.com/\"]\n// [0,100,0,1000000]\n// true\n// 0xd9145CCE52D386f254917e481eB44e9943F39138\n// 100\ncontract SofanNft is\n    ERC721A,\n    ERC2981,\n    Ownable,\n    ReentrancyGuard,\n    DefaultOperatorFilterer\n{\n    string public uri; // not pub\n    bool public isLimitByWallet; \n    uint256 public limitByWallet;\n    //TODO: Add bool for collection Limit or if == 0 then can mint + add a func to change Collection Limit\n    uint256 public collectionLimit;\n    // bool isLaunchpad;\n    // TODO: DONE delete deployDate and set launchpadTime to a futur timestamp instead of adding time to deployDate in order to optimize gas fee\n    uint256 public launchpadTime;\n    // uint256 public deployDate; // not pub\n    bool public isAbleChangeMaxLimitCollection;\n    // mapping(address => uint256) public NftOwned;\n    address public SofanWallet;\n    address public AthleteWallet;\n    uint256 public price;\n    // address public SofanSplitter;\n    // 0x07865c6E87B9F70255377e024ace6630C1Eaa37F 0x98339D8C260052B7ad81c28c16C0b98420f2B46a\n    IERC20 public usdc;\n    // Check if can put 0x07865c6E87B9F70255377e024ace6630C1Eaa37F into an address var and try to change var\n    constructor(\n        string[3] memory _collectionData2,\n        // string memory _collectionName,\n        // string memory _collectionSymbol,\n        // string memory _collectionBaserURI,\n        uint256[4] memory _collectionData,\n        // uint256 _limitByWallet,\n        // uint256 _collectionLimit,\n        // uint256 _launchpadTime,\n        bool _isAbleChangeMaxLimitCollection,\n        // uint256 _price,\n        address _splitterAddress,\n        uint96 _percentInBips // 2.5% = 250\n    ) ERC721A(_collectionData2[0], _collectionData2[1]) {\n        uri = _collectionData2[2];\n        if (_collectionData[0] != 0) {\n            limitByWallet = _collectionData[0];\n            isLimitByWallet = true;\n        }\n        collectionLimit = _collectionData[1];\n        if (_collectionData[2] != 0) {\n            launchpadTime = _collectionData[2];\n            // isLaunchpad = true;\n        }\n\n        // deployDate = block.timestamp;\n        isAbleChangeMaxLimitCollection = _isAbleChangeMaxLimitCollection;\n        price = _collectionData[3];\n        // SofanSplitter = _splitterAddress;\n        setRoyaltyInfo(_splitterAddress, _percentInBips);\n    }\n    function setUsdcAddress(address _newUSDCAddress) external onlyOwner{\n        usdc = IERC20(_newUSDCAddress);\n    }\n    function setAthleteWallet(address _newAthleteWallet) external onlyOwner{\n        AthleteWallet = _newAthleteWallet;\n    }\n    function setSofanWallet(address _newSofanWallet) external onlyOwner{\n        SofanWallet = _newSofanWallet;\n    }\n    // _amount is a useless parameter but a helper for our front end as no event\n    function mint(\n        address _to,\n        uint256 _quantity,\n        uint256 _amount\n    ) external payable nonReentrant {\n        require(\n            ERC721A._nextTokenId() + _quantity <= collectionLimit,\n            \"Limit of collection NFT reached or too much NFTs asked\"\n        );\n        if (isLimitByWallet == true) // Optimize this for fees\n        {\n            require(\n                (ERC721A.balanceOf(_to) + _quantity) <= limitByWallet,\n                \"Limit of owned NFT reached or too much NFTs asked\"\n            );\n        }\n        // if(isLaunchpad == true){\n        require(\n            // block.timestamp >= deployDate + launchpadTime,\n            block.timestamp >= launchpadTime,\n            \"Cannot mint. Check Launchpad date !\"\n        );\n        // }\n        require(\n            usdc.allowance(msg.sender, address(this)) >= _amount,\n            \"Please make sure you have approve enough USDC !\"\n        );\n        require(\n            _amount >= price * _quantity,\n            \"Not enough USDC sent; check price!\"\n        );\n        // transfer only if price > 0. What if price = 1\n        if(price !=0){\n        bool success = usdc.transferFrom(msg.sender, address(this), _amount);\n        require(success, \"Transction was not successful\");\n\n        uint256 toAthleteTemp = SafeMath.mul(_amount, 80);\n        uint256 toAthlete = SafeMath.div(toAthleteTemp, 100);\n        bool success2 = usdc.transfer(AthleteWallet, toAthlete);\n        require(success2, \"Transaction was not successful\");\n\n        uint256 toSofanTemp = SafeMath.mul(_amount, 20);\n        uint256 toSofan = SafeMath.div(toSofanTemp, 100);\n        bool success3 = usdc.transfer(SofanWallet, toSofan);\n        require(success3, \"Transaction was not successful\");\n        // NftOwned[_to] = NftOwned[_to] + _quantity;\n        }\n        _mint(_to, _quantity);\n    }\n\n    function withdrawUSDC() public onlyOwner {\n        require(usdc.balanceOf(address(this)) > 0, \"No USDC in the contract\");\n        uint256 balance = usdc.balanceOf(address(this));\n        usdc.approve(msg.sender, balance);\n        usdc.transfer(msg.sender, balance);\n    }\n\n    function activeMintManually() external onlyOwner {\n        launchpadTime = 0 seconds;\n    }\n\n    function setLimitWallet(uint256 _newLimit) external onlyOwner {\n        if (_newLimit > 0) {\n            isLimitByWallet = true; // Optimize this for fees\n            limitByWallet = _newLimit;\n        } else {\n            isLimitByWallet = false;\n        }\n    }\n\n    function changeLimitOfMaxCollection(uint32 _newLimit) external onlyOwner {\n        require(isAbleChangeMaxLimitCollection, \"Cannot Change Limit\");\n        collectionLimit = _newLimit;\n    }\n\n    /**\n     * @dev set a new base uri.\n     * example : https://website.com/ipfs/CID/\n     */\n    function setBaseURI(string memory _uri) external onlyOwner{\n        require(\n            keccak256(abi.encodePacked(_uri)) !=\n                keccak256(abi.encodePacked(uri)),\n            \"The URI is already set to the exact same URI !\"\n        );\n        uri = _uri;\n    }\n\n    /**\n     * @dev see chiru-labs ERC721A documentation\n     */\n    function _baseURI() internal view override returns (string memory) {\n        return uri;\n    }\n\n    /**\n     * @dev return the tokenURI of a NFT\n     *\n     * Requirements:\n     *\n     * - Cannot get the URI of unexistent tokenID.\n     */\n    function tokenURI(\n        uint256 tokenId\n    ) public view override returns (string memory) {\n        if (!_exists(tokenId)) revert URIQueryForNonexistentToken();\n\n        string memory baseURI = _baseURI();\n        return\n            bytes(baseURI).length != 0\n                ? string(abi.encodePacked(baseURI, _toString(tokenId), \".json\"))\n                : \"\";\n    }\n\n    event temp(address msgSender);\n\n    // function approveCustom(\n    //     address to,\n    //     uint256 tokenId,\n    //     address _msgSender\n    // ) public payable onlyAllowedOperatorApproval(to) {\n    //     address owner = ERC721A.ownerOf(tokenId);\n\n    //     if (_msgSender != owner) {\n    //         if (!isApprovedForAll(owner, _msgSender)) {\n    //             revert ApprovalCallerNotOwnerNorApproved();\n    //         }\n    //     }\n\n    //     ERC721A._tokenApprovals[tokenId].value = to;\n    //     emit IERC721A.Approval(owner, to, tokenId);\n    // }\n\n    function supportsInterface(\n        bytes4 interfaceId\n    ) public view virtual override(ERC2981, ERC721A) returns (bool) {\n        return\n            interfaceId == type(IERC2981).interfaceId ||\n            interfaceId == 0x01ffc9a7 ||\n            interfaceId == 0x80ac58cd ||\n            interfaceId == 0x5b5e139f ||\n            super.supportsInterface(interfaceId);\n    }\n\n    //ERC2981\n    function setRoyaltyInfo(\n        address _receiver,\n        uint96 _royaltyFeesInBips\n    ) public onlyOwner {\n        _setDefaultRoyalty(_receiver, _royaltyFeesInBips);\n    }\n\n    // Opensea\n    function setApprovalForAll(\n        address operator,\n        bool approved\n    ) public override onlyAllowedOperatorApproval(operator) {\n        super.setApprovalForAll(operator, approved);\n    }\n\n    function approve(\n        address operator,\n        uint256 tokenId\n    ) public payable override onlyAllowedOperatorApproval(operator) {\n        super.approve(operator, tokenId);\n    }\n\n    function transferFrom(\n        address from,\n        address to,\n        uint256 tokenId\n    ) public payable override onlyAllowedOperator(from) {\n        super.transferFrom(from, to, tokenId);\n    }\n\n    function safeTransferFrom(\n        address from,\n        address to,\n        uint256 tokenId\n    ) public payable override onlyAllowedOperator(from) {\n        super.safeTransferFrom(from, to, tokenId);\n    }\n\n    function safeTransferFrom(\n        address from,\n        address to,\n        uint256 tokenId,\n        bytes memory data\n    ) public payable override onlyAllowedOperator(from) {\n        super.safeTransferFrom(from, to, tokenId, data);\n    }\n}\n",
  "sourcePath": "/home/matheo/dev/Sofan/truffle/contracts/SofanNft.sol",
  "compiler": {
    "name": "solc",
    "version": "0.8.19+commit.7dd6d404.Emscripten.clang"
  },
  "schemaVersion": "3.4.4",
  "updatedAt": "2023-09-19T19:13:36.464Z",
  "devdoc": {
    "errors": {
      "OperatorNotAllowed(address)": [
        {
          "details": "Emitted when an operator is not allowed."
        }
      ]
    },
    "events": {
      "Approval(address,address,uint256)": {
        "details": "Emitted when `owner` enables `approved` to manage the `tokenId` token."
      },
      "ApprovalForAll(address,address,bool)": {
        "details": "Emitted when `owner` enables or disables (`approved`) `operator` to manage all of its assets."
      },
      "ConsecutiveTransfer(uint256,uint256,address,address)": {
        "details": "Emitted when tokens in `fromTokenId` to `toTokenId` (inclusive) is transferred from `from` to `to`, as defined in the [ERC2309](https://eips.ethereum.org/EIPS/eip-2309) standard. See {_mintERC2309} for more details."
      },
      "Transfer(address,address,uint256)": {
        "details": "Emitted when `tokenId` token is transferred from `from` to `to`."
      }
    },
    "kind": "dev",
    "methods": {
      "balanceOf(address)": {
        "details": "Returns the number of tokens in `owner`'s account."
      },
      "getApproved(uint256)": {
        "details": "Returns the account approved for `tokenId` token. Requirements: - `tokenId` must exist."
      },
      "isApprovedForAll(address,address)": {
        "details": "Returns if the `operator` is allowed to manage all of the assets of `owner`. See {setApprovalForAll}."
      },
      "name()": {
        "details": "Returns the token collection name."
      },
      "owner()": {
        "details": "Returns the address of the current owner."
      },
      "ownerOf(uint256)": {
        "details": "Returns the owner of the `tokenId` token. Requirements: - `tokenId` must exist."
      },
      "renounceOwnership()": {
        "details": "Leaves the contract without owner. It will not be possible to call `onlyOwner` functions. Can only be called by the current owner. NOTE: Renouncing ownership will leave the contract without an owner, thereby disabling any functionality that is only available to the owner."
      },
      "royaltyInfo(uint256,uint256)": {
        "details": "Returns how much royalty is owed and to whom, based on a sale price that may be denominated in any unit of exchange. The royalty amount is denominated and should be paid in that same unit of exchange."
      },
      "safeTransferFrom(address,address,uint256)": {
        "details": "Equivalent to `safeTransferFrom(from, to, tokenId, '')`."
      },
      "setApprovalForAll(address,bool)": {
        "details": "Approve or remove `operator` as an operator for the caller. Operators can call {transferFrom} or {safeTransferFrom} for any token owned by the caller. Requirements: - The `operator` cannot be the caller. Emits an {ApprovalForAll} event."
      },
      "setBaseURI(string)": {
        "details": "set a new base uri. example : https://website.com/ipfs/CID/"
      },
      "symbol()": {
        "details": "Returns the token collection symbol."
      },
      "tokenURI(uint256)": {
        "details": "return the tokenURI of a NFT Requirements: - Cannot get the URI of unexistent tokenID."
      },
      "totalSupply()": {
        "details": "Returns the total number of tokens in existence. Burned tokens will reduce the count. To get the total number of tokens minted, please see {_totalMinted}."
      },
      "transferFrom(address,address,uint256)": {
        "details": "Transfers `tokenId` from `from` to `to`. Requirements: - `from` cannot be the zero address. - `to` cannot be the zero address. - `tokenId` token must be owned by `from`. - If the caller is not `from`, it must be approved to move this token by either {approve} or {setApprovalForAll}. Emits a {Transfer} event."
      },
      "transferOwnership(address)": {
        "details": "Transfers ownership of the contract to a new account (`newOwner`). Can only be called by the current owner."
      }
    },
    "version": 1
  },
  "userdoc": {
    "errors": {
      "ApprovalCallerNotOwnerNorApproved()": [
        {
          "notice": "The caller must own the token or be an approved operator."
        }
      ],
      "ApprovalQueryForNonexistentToken()": [
        {
          "notice": "The token does not exist."
        }
      ],
      "BalanceQueryForZeroAddress()": [
        {
          "notice": "Cannot query the balance for the zero address."
        }
      ],
      "MintERC2309QuantityExceedsLimit()": [
        {
          "notice": "The `quantity` minted with ERC2309 exceeds the safety limit."
        }
      ],
      "MintToZeroAddress()": [
        {
          "notice": "Cannot mint to the zero address."
        }
      ],
      "MintZeroQuantity()": [
        {
          "notice": "The quantity of tokens minted must be more than zero."
        }
      ],
      "OwnerQueryForNonexistentToken()": [
        {
          "notice": "The token does not exist."
        }
      ],
      "OwnershipNotInitializedForExtraData()": [
        {
          "notice": "The `extraData` cannot be set on an unintialized ownership slot."
        }
      ],
      "TransferCallerNotOwnerNorApproved()": [
        {
          "notice": "The caller must own the token or be an approved operator."
        }
      ],
      "TransferFromIncorrectOwner()": [
        {
          "notice": "The token must be owned by `from`."
        }
      ],
      "TransferToNonERC721ReceiverImplementer()": [
        {
          "notice": "Cannot safely transfer to a contract that does not implement the ERC721Receiver interface."
        }
      ],
      "TransferToZeroAddress()": [
        {
          "notice": "Cannot transfer to the zero address."
        }
      ],
      "URIQueryForNonexistentToken()": [
        {
          "notice": "The token does not exist."
        }
      ]
    },
    "kind": "user",
    "methods": {},
    "version": 1
  }
}