{
  "contractName": "TEST",
  "abi": [
    {
      "inputs": [
        {
          "internalType": "address",
          "name": "",
          "type": "address"
        },
        {
          "internalType": "uint256",
          "name": "",
          "type": "uint256"
        }
      ],
      "name": "mapToArrayOfAddress",
      "outputs": [
        {
          "internalType": "address",
          "name": "",
          "type": "address"
        }
      ],
      "stateMutability": "view",
      "type": "function"
    },
    {
      "inputs": [
        {
          "internalType": "address",
          "name": "_wallet",
          "type": "address"
        }
      ],
      "name": "addAddress",
      "outputs": [],
      "stateMutability": "nonpayable",
      "type": "function"
    },
    {
      "inputs": [
        {
          "internalType": "address",
          "name": "_address",
          "type": "address"
        }
      ],
      "name": "getArrayFromMapping",
      "outputs": [
        {
          "internalType": "address[]",
          "name": "",
          "type": "address[]"
        }
      ],
      "stateMutability": "view",
      "type": "function"
    }
  ],
  "bytecode": "0x608060405234801561001057600080fd5b50610694806100206000396000f3fe608060405234801561001057600080fd5b50600436106100415760003560e01c806338eada1c1461004657806385dc4ab414610062578063de9e987314610092575b600080fd5b610060600480360381019061005b91906103e8565b6100c2565b005b61007c600480360381019061007791906103e8565b610164565b60405161008991906104d3565b60405180910390f35b6100ac60048036038101906100a7919061052b565b610337565b6040516100b9919061057a565b60405180910390f35b6000803373ffffffffffffffffffffffffffffffffffffffff1673ffffffffffffffffffffffffffffffffffffffff168152602001908152602001600020819080600181540180825580915050600190039060005260206000200160009091909190916101000a81548173ffffffffffffffffffffffffffffffffffffffff021916908373ffffffffffffffffffffffffffffffffffffffff16021790555050565b606060008060008473ffffffffffffffffffffffffffffffffffffffff1673ffffffffffffffffffffffffffffffffffffffff1681526020019081526020016000208054905067ffffffffffffffff8111156101c3576101c2610595565b5b6040519080825280602002602001820160405280156101f15781602001602082028036833780820191505090505b50905060005b6000808573ffffffffffffffffffffffffffffffffffffffff1673ffffffffffffffffffffffffffffffffffffffff168152602001908152602001600020805490508163ffffffff16101561032d576000808573ffffffffffffffffffffffffffffffffffffffff1673ffffffffffffffffffffffffffffffffffffffff1681526020019081526020016000208163ffffffff168154811061029c5761029b6105c4565b5b9060005260206000200160009054906101000a900473ffffffffffffffffffffffffffffffffffffffff16828263ffffffff16815181106102e0576102df6105c4565b5b602002602001019073ffffffffffffffffffffffffffffffffffffffff16908173ffffffffffffffffffffffffffffffffffffffff1681525050808061032590610632565b9150506101f7565b5080915050919050565b6000602052816000526040600020818154811061035357600080fd5b906000526020600020016000915091509054906101000a900473ffffffffffffffffffffffffffffffffffffffff1681565b600080fd5b600073ffffffffffffffffffffffffffffffffffffffff82169050919050565b60006103b58261038a565b9050919050565b6103c5816103aa565b81146103d057600080fd5b50565b6000813590506103e2816103bc565b92915050565b6000602082840312156103fe576103fd610385565b5b600061040c848285016103d3565b91505092915050565b600081519050919050565b600082825260208201905092915050565b6000819050602082019050919050565b61044a816103aa565b82525050565b600061045c8383610441565b60208301905092915050565b6000602082019050919050565b600061048082610415565b61048a8185610420565b935061049583610431565b8060005b838110156104c65781516104ad8882610450565b97506104b883610468565b925050600181019050610499565b5085935050505092915050565b600060208201905081810360008301526104ed8184610475565b905092915050565b6000819050919050565b610508816104f5565b811461051357600080fd5b50565b600081359050610525816104ff565b92915050565b6000806040838503121561054257610541610385565b5b6000610550858286016103d3565b925050602061056185828601610516565b9150509250929050565b610574816103aa565b82525050565b600060208201905061058f600083018461056b565b92915050565b7f4e487b7100000000000000000000000000000000000000000000000000000000600052604160045260246000fd5b7f4e487b7100000000000000000000000000000000000000000000000000000000600052603260045260246000fd5b7f4e487b7100000000000000000000000000000000000000000000000000000000600052601160045260246000fd5b600063ffffffff82169050919050565b600061063d82610622565b915063ffffffff8203610653576106526105f3565b5b60018201905091905056fea2646970667358221220755f1dab909faf95494f0982aeec0f44a2473ca97c5ebb62fabe685dcb6811d564736f6c63430008130033",
  "immutableReferences": {},
  "source": "// SPDX-License-Identifier: MIT\r\npragma solidity 0.8.19;\r\n\r\ncontract TEST {\r\n\r\n    // mapping(address => address[]) mapAddress;\r\n\r\n    // function addAddress(address _wallet) external {\r\n    //     mapAddress[msg.sender].push(_wallet);\r\n    // }\r\n\r\n    // function getAddress() external view returns(address[] memory) {\r\n    //     address[] memory temp = new address[](mapAddress[msg.sender].length);\r\n    //      for (uint32 i = 0; i < mapAddress[msg.sender].length; i++) \r\n    //     {\r\n    //         temp[i] = mapAddress[msg.sender][i];\r\n    //     }\r\n    //     // temp[0] = mapAddress[msg.sender][0];\r\n    //     return temp;\r\n    // }\r\nmapping(address => address[]) public mapToArrayOfAddress;\r\n\r\nfunction addAddress(address _wallet) external {\r\n        mapToArrayOfAddress[msg.sender].push(_wallet);\r\n    }\r\nfunction getArrayFromMapping(address _address) external view returns(address[] memory){\r\n        address[] memory temp = new address[](mapToArrayOfAddress[_address].length);\r\n        for (uint32 i = 0; i < mapToArrayOfAddress[_address].length; i++) \r\n        {\r\n            temp[i] = mapToArrayOfAddress[_address][i];\r\n        }\r\n        return temp;\r\n    }\r\n}",
  "sourcePath": "/home/matheo/dev/Sofan/truffle/contracts/TEST.sol",
  "compiler": {
    "name": "solc",
    "version": "0.8.19+commit.7dd6d404.Emscripten.clang"
  },
  "schemaVersion": "3.4.4",
  "updatedAt": "2023-07-31T23:51:33.641Z",
  "devdoc": {
    "kind": "dev",
    "methods": {},
    "version": 1
  },
  "userdoc": {
    "kind": "user",
    "methods": {},
    "version": 1
  }
}