{
  "contractName": "USDC",
  "abi": [
    {
      "inputs": [],
      "name": "paused",
      "outputs": [
        {
          "internalType": "bool",
          "name": "",
          "type": "bool"
        }
      ],
      "stateMutability": "view",
      "type": "function"
    },
    {
      "inputs": [
        {
          "internalType": "address",
          "name": "_to",
          "type": "address"
        },
        {
          "internalType": "uint256",
          "name": "_amount",
          "type": "uint256"
        }
      ],
      "name": "mint",
      "outputs": [
        {
          "internalType": "bool",
          "name": "",
          "type": "bool"
        }
      ],
      "stateMutability": "nonpayable",
      "type": "function"
    },
    {
      "inputs": [
        {
          "internalType": "address",
          "name": "spender",
          "type": "address"
        },
        {
          "internalType": "uint256",
          "name": "amount",
          "type": "uint256"
        }
      ],
      "name": "approve",
      "outputs": [
        {
          "internalType": "bool",
          "name": "",
          "type": "bool"
        }
      ],
      "stateMutability": "nonpayable",
      "type": "function"
    }
  ],
  "bytecode": "0x608060405260008060006101000a81548160ff02191690831515021790555034801561002a57600080fd5b506105c48061003a6000396000f3fe608060405234801561001057600080fd5b50600436106100415760003560e01c8063095ea7b31461004657806340c10f19146100765780635c975abb146100a6575b600080fd5b610060600480360381019061005b9190610377565b6100c4565b60405161006d91906103d2565b60405180910390f35b610090600480360381019061008b9190610377565b6100cc565b60405161009d91906103d2565b60405180910390f35b6100ae6102cd565b6040516100bb91906103d2565b60405180910390f35b600092915050565b60008060009054906101000a900460ff161561011d576040517f08c379a00000000000000000000000000000000000000000000000000000000081526004016101149061044a565b60405180910390fd5b600160003373ffffffffffffffffffffffffffffffffffffffff1673ffffffffffffffffffffffffffffffffffffffff16815260200190815260200160002060009054906101000a900460ff166101a9576040517f08c379a00000000000000000000000000000000000000000000000000000000081526004016101a0906104dc565b60405180910390fd5b33600260008273ffffffffffffffffffffffffffffffffffffffff1673ffffffffffffffffffffffffffffffffffffffff16815260200190815260200160002060009054906101000a900460ff1615610237576040517f08c379a000000000000000000000000000000000000000000000000000000000815260040161022e9061056e565b60405180910390fd5b83600260008273ffffffffffffffffffffffffffffffffffffffff1673ffffffffffffffffffffffffffffffffffffffff16815260200190815260200160002060009054906101000a900460ff16156102c5576040517f08c379a00000000000000000000000000000000000000000000000000000000081526004016102bc9061056e565b60405180910390fd5b505092915050565b60008054906101000a900460ff1681565b600080fd5b600073ffffffffffffffffffffffffffffffffffffffff82169050919050565b600061030e826102e3565b9050919050565b61031e81610303565b811461032957600080fd5b50565b60008135905061033b81610315565b92915050565b6000819050919050565b61035481610341565b811461035f57600080fd5b50565b6000813590506103718161034b565b92915050565b6000806040838503121561038e5761038d6102de565b5b600061039c8582860161032c565b92505060206103ad85828601610362565b9150509250929050565b60008115159050919050565b6103cc816103b7565b82525050565b60006020820190506103e760008301846103c3565b92915050565b600082825260208201905092915050565b7f5061757361626c653a2070617573656400000000000000000000000000000000600082015250565b60006104346010836103ed565b915061043f826103fe565b602082019050919050565b6000602082019050818103600083015261046381610427565b9050919050565b7f46696174546f6b656e3a2063616c6c6572206973206e6f742061206d696e746560008201527f7200000000000000000000000000000000000000000000000000000000000000602082015250565b60006104c66021836103ed565b91506104d18261046a565b604082019050919050565b600060208201905081810360008301526104f5816104b9565b9050919050565b7f426c61636b6c69737461626c653a206163636f756e7420697320626c61636b6c60008201527f6973746564000000000000000000000000000000000000000000000000000000602082015250565b60006105586025836103ed565b9150610563826104fc565b604082019050919050565b600060208201905081810360008301526105878161054b565b905091905056fea26469706673582212203fa0616c2729607fda8adc2b9e3a08831ecce9bdf4f146b3885ff4e88688a11b64736f6c63430008130033",
  "immutableReferences": {},
  "source": "// SPDX-License-Identifier: MIT\r\npragma solidity 0.8.19;\r\n\r\ncontract USDC {\r\n     bool public paused = false;\r\n     mapping(address => bool) internal minters;\r\n     mapping(address => bool) internal blacklisted;\r\n    modifier whenNotPaused() {\r\n        require(!paused, \"Pausable: paused\");\r\n        _;\r\n    }\r\n       modifier onlyMinters() {\r\n        require(minters[msg.sender], \"FiatToken: caller is not a minter\");\r\n        _;\r\n    }\r\n    modifier notBlacklisted(address _account) {\r\n        require(\r\n            !blacklisted[_account],\r\n            \"Blacklistable: account is blacklisted\"\r\n        );\r\n        _;\r\n    }\r\n\r\n    function mint(address _to, uint256 _amount)\r\n        external\r\n        whenNotPaused\r\n        onlyMinters\r\n        notBlacklisted(msg.sender)\r\n        notBlacklisted(_to)\r\n        returns (bool)\r\n    {}\r\n    function approve(address spender, uint256 amount) external returns (bool){\r\n\r\n    }\r\n}",
  "sourcePath": "/home/matheo/dev/Sofan/truffle/contracts/USDC.sol",
  "compiler": {
    "name": "solc",
    "version": "0.8.19+commit.7dd6d404.Emscripten.clang"
  },
  "schemaVersion": "3.4.4",
  "updatedAt": "2023-08-04T13:01:14.182Z",
  "devdoc": {
    "kind": "dev",
    "methods": {},
    "version": 1
  },
  "userdoc": {
    "kind": "user",
    "methods": {},
    "version": 1
  }
}